:020000040800F2
:10000000702300207102000831100008D108000898
:100010002F100008A5070008F929000800000000BB
:10002000000000000000000000000000BD1C0008EF
:100030000908000800000000211B0008AB1D000893
:100040008B0200088B0200088B0200088B0200085C
:100050008B0200088B0200088B0200088B0200084C
:100060008B0200088B0200088B0200088B0200083C
:100070008B0200088B0200088B0200088B0200082C
:100080008B0200088B0200088B0200088B0200081C
:100090008B0200088B0200088B0200088B0200080C
:1000A0008B0200088B0200088B0200088B020008FC
:1000B0008B0200088B020008092100088B0200084F
:1000C0008B0200088B0200088B0200088B020008DC
:1000D0008B020008B92700088B0200088B02000879
:1000E0008B0200088B0200088B0200088B020008BC
:1000F0008B0200088B0200088B0200088B020008AC
:100100008B0200088B020008F52300088B02000810
:100110008B0200088B0200088B0200088B0200088B
:100120008B0200088B0200088B0200088B0200087B
:100130008B0200088B0200088B0200088B0200086B
:100140008B0200088B0200088B0200088B0200085B
:100150008B0200088B0200088B0200088B0200084B
:100160008B0200088B0200088B0200088B0200083B
:100170008B0200088B0200088B0200088B0200082B
:100180008B0200088B02000800F002F800F061F812
:100190000AA090E8000C82448344AAF10107DA45E2
:1001A00001D100F056F8AFF2090EBAE80F0013F0D3
:1001B000010F18BFFB1A43F001031847B488000071
:1001C000D48800000A444FF0000C10F8013B13F0F3
:1001D000070408BF10F8014B1D1108BF10F8015BA0
:1001E000641E05D010F8016B641E01F8016BF9D193
:1001F00013F0080F1EBF10F8014BAD1C0C1B09D1EA
:100200006D1E58BF01F801CBFAD505E014F8016B5B
:1002100001F8016B6D1EF9D59142D6D370470000ED
:100220000023002400250026103A28BF78C1FBD8FF
:10023000520728BF30C148BF0B607047642900F0E7
:100240006980002070471FB506F05BF91FBD10B52F
:1002500010BD00F079FA1146FFF7F5FF04F018F829
:1002600000F097FA03B4FFF7F2FF03BC03F0AFF816
:100270000948804709480047FEE7FEE7FEE7FEE73A
:10028000FEE7FEE7FEE7FEE7FEE7FEE70448054976
:10029000054A064B70470000AD1D000889010008A3
:1002A000701D002070230020701F0020701F002090
:1002B000704710B54C1084EA530404D54042C1F194
:1002C000000138BF491E1B4204D55242C3F100034E
:1002D00038BF5B1E00F026F914F0804F04D0404276
:1002E000C1F1000138BF491E14F0004F04D0524242
:1002F000C3F1000338BF5B1E10BD00000FB40449FA
:1003000010B503AA029800F0E9F910BC5DF814FBDF
:10031000441600202DE9F041064600241068752996
:10032000314616A510D0AFF30080002802DA404213
:1003300013A507E031688A0701D512A502E0490735
:1003400004D511A5012401E0AFF3008000210A22A9
:1003500006F1240709E0B0FBF2FCB0FBF2F302FB6C
:100360001C00303078541846491C0028F3D123462D
:100370002A463046BDE8F04100F056B900000000C2
:100380002D0000002B000000200000002DE9F05F90
:10039000894604464FF0000ADFF824B1FB44C0F858
:1003A00020A02046E168884700287DD0252806D077
:1003B000D4E901219047206A401C2062F1E7002522
:1003C0005F462046E16888472028064607DB312E35
:1003D00005D2B81910F8200C08B10543F1E7A807B9
:1003E00001D525F00405C4F81CA00027C4F818A006
:1003F0002A2E09D0304602F0E3FF38B304EB870819
:10040000303EC8F8186019E059F8041B204604EB88
:1004100087029161E1688847012F064618D1E0699B
:10042000002820DA25F020051DE0D8F8180000EBA0
:10043000800006EB40003038C8F818002046E1681C
:100440008847064602F0BCFF0028EED1012F0AD0F3
:100450002E2E08D12046E16888477F1C0646022FD1
:1004600045F02005C4DBA069002803DA404245F0CE
:100470000105A061E80701D025F01005A6B1A6F19D
:100480004100192802D8203645F400654A46314615
:10049000204625604D46FFF7D1FE60B1012807D008
:1004A000ED1D25F0070000E007E000F1080978E7FE
:1004B00005F1040975E730467AE7206ABDE8F09F48
:1004C0007C85000040EA010310B59B070FD1042A88
:1004D0000DD310C808C9121F9C42F8D020BA19BA0F
:1004E000884201D9012010BD4FF0FF3010BD1AB174
:1004F000D30703D0521C07E0002010BD10F8013BC9
:1005000011F8014B1B1B07D110F8013B11F8014BEF
:100510001B1B01D1921EF1D1184610BD70477047C8
:100520007047704753EA020C00F069802DE9F04BE8
:100530004FF00006002B1FBFB3FA83F503FA05F452
:1005400024FA05F65E4012BF1643B2FA82F502FAAB
:1005500005F4C5F120051EBF22FA05FC44EA0C048F
:10056000203556EA044C4FEA144418BF641C4FF07F
:1005700000084FF00009904271EB030C39D30029B9
:1005800019BFB1FA81F701FA07F6B0FA80F700FA5D
:1005900007F6C7F120071EBF20FA07FC46EA0C0643
:1005A0002037B6FBF4FCA7EB0507103F07F01F0B45
:1005B000CBF120060CFA0BFB2CFA06F644BFB3462F
:1005C0000026202FA4BF5E464FF0000B5BEA060C0E
:1005D00008BF4FF0010B19EB0B09ABFB027C48EB9A
:1005E0000608C01B06FB02CC0BFB03CC71EB0C0115
:1005F000C1E70B46024641464846BDE8F08B13B5BD
:100600004FF000004FF00001AFF30080BDE81C4048
:10061000704710B500F074F8006810BD10B50446BE
:1006200000F06EF8046010BD2DE9F0470D469946C4
:100630009246044600F124080168880604D5E06962
:1006400021F01001216000E00120A84201DD471BDC
:1006500000E00027A1697A1902EB0900081AA061DD
:100660002078C00602D42046AFF30080002608E0C0
:10067000D4E901211AF806009047206A401C761C34
:1006800020624E45F4DB2078C0060AD52046AFF341
:10069000008006E0D4E9012130209047206A401C08
:1006A0002062381EA7F10107F4DC07E0D4E901213C
:1006B00018F805009047206A401C2062281EA5F10A
:1006C0000105F3DC2046AFF300802078000602D558
:1006D0000220BDE8F0870120FBE70000074B70B562
:1006E0000D467B4400F015F80446284600F024F837
:1006F00010B14FF0FF3070BD204670BDA337000031
:1007000000487047101D002001694A1C02610878EA
:10071000704700B58FB0CDE9013100210591054941
:100720007944CDE9031011466846FFF72FFE0FB05C
:1007300000BD0000E5FFFFFF007B00F08000704778
:1007400000487047101D00207546FFF7F9FFAE46C0
:1007500005006946534620F00700854618B020B5CD
:10076000FFF794FDBDE820404FF000064FF0000772
:100770004FF000084FF0000B21F00701AC46ACE849
:10078000C009ACE8C009ACE8C009ACE8C0098D46B6
:10079000704710B50446AFF300802046BDE8104016
:1007A000FFF760BDFEE7000030B50C46054685B09A
:1007B0000121042001F016FAADF800400020114C90
:1007C000ADF80200ADF8080001956946204601F039
:1007D0008BFF01221146204601F000FF1E208DF8FC
:1007E0000C0001218DF80F108DF80D108DF80E10F2
:1007F00003A800F01FFC0121204601F022FE05B0F5
:1008000030BD000000080040704700002DE9F001F5
:10081000002201255FF00306D1F800C005FA02F3BB
:100820000CEA030C9C4537D107684FEA420C06FAE4
:100830000CF4A74307600F79D0F8008007FA0CF793
:1008400047EA080707600F79012F18BF022F17D159
:10085000876827EA040787604F79D0F8088007FA8D
:100860000CF747EA08078760476827EA03034360F5
:1008700043688F7907FA02F7BFB243EA0703436080
:10088000C36823EA0403C360CB7903FA0CF3D0F8FE
:100890000CC043EA0C03C36002F10102102ABBD36F
:1008A000BDE8F00170474B07DB0E9A40C90800EB2A
:1008B0008100016A4FF00F0C0CFA03F399430162B7
:1008C000016A114301627047418370470183704799
:1008D000FEE700009FED0A1A80ED001A80ED051A70
:1008E00080ED090AC0ED0A0AB7EE000A80ED070A9A
:1008F00080ED081A80ED0B0A80ED011A70470000A8
:1009000000000000D0ED071AD0ED000A21EEA01A79
:1009100080ED011AD0ED090A90ED052A41EE820A18
:10092000C0ED030AD0ED0A1A30EEA12AC0EE821AF9
:1009300030EE412AB0EE410AB7EE001AC0ED061AB9
:1009400031EE611A01EE820A61EE200A80ED020AA0
:10095000C0ED040AC0ED050A80ED000A70470000F2
:1009600010B582B00121042001F030F94FF400509D
:10097000009001208DF8040000218DF8061003215D
:100980008DF80510064C8DF8070069462046FFF7E4
:100990003DFF4FF400512046FFF798FF02B010BD15
:1009A000000802402DE9F04782B016460F46804607
:1009B0004FF03B0A06246D4600F03AF9D02000F0D3
:1009C00007F900F077F94FF0010928B100F050F96C
:1009D00002B04846BDE8F087504600F0F9F800F054
:1009E00069F900F025F9D12000F0F2F800F062F981
:1009F00001E0012C1CD0012000F08CF82870601E52
:100A000010F0FF0405F10105F3D100F031F9BDF854
:100A10000010002049BAA8F80010BDF8021049BA29
:100A20003980BDF8041049BA318002B0BDE8F087C2
:100A3000002000F06FF82870E1E72DE9F04782B060
:100A400016460F4680464FF0430A06246D4600F0D6
:100A5000EFF8D02000F0BCF800F02CF94FF00109BD
:100A600028B100F005F902B04846BDE8F0875046CD
:100A700000F0AEF800F01EF900F0DAF8D12000F036
:100A8000A7F800F017F901E0012C1CD0012000F0BC
:100A900041F82870601E10F0FF0405F10105F3D144
:100AA00000F0E6F8BDF80010002049BAA8F80010E0
:100AB000BDF8021049BA3980BDF8041049BA318036
:100AC00002B0BDE8F087002000F024F82870E1E7CC
:100AD00010B582B00121022001F078F84FF4407087
:100AE000009001208DF8040000218DF806100221ED
:100AF0008DF80510064C8DF8070069462046FFF773
:100B000085FE4FF440712046FFF7E0FE02B010BDB5
:100B1000000402402DE9F047DFF8AC908246002443
:100B2000D9F8000020F44020C9F80000D9F80000EE
:100B3000C9F80000254E254627464FF0010800BFA2
:100B4000C6F8A072022002F0ABFCC6F8A0826006D4
:100B5000040ED6F8240200281CBF601CC4B2022078
:100B600002F09EFC681CC5B2082DE9D3BAF1000F53
:100B7000C6F8A072D9F8000020F44020C9F800009F
:100B8000D9F8000040F48020C9F800000ED0C6F863
:100B9000A472022002F084FCC6F8A082022002F0B7
:100BA0007FFCC6F8A0722046BDE8F087C6F8A48294
:100BB000022002F075FCC6F8A082022002F070FC50
:100BC000C6F8A072EFE70000000402400080404237
:100BD0002DE9F04106461448016821F440210160E6
:100BE000016841F480210160104C4FF00008C4F806
:100BF000A08245460127F009C4F8A4027006060E3B
:100C0000022002F04DFCC4F8A072022002F048FC61
:100C1000C4F8A082022002F043FC681CC5B2082D73
:100C2000E9D3BDE8F08100000004024000804042AA
:100C300070B50D48016821F440210160016841F45C
:100C400080210160094C0120C4F8A402C4F8A0026C
:100C5000022004F5287402F023FC002565600220C0
:100C600002F01EFC256070BD00040240008040427E
:100C70000E4810B5016821F440210160016841F47B
:100C8000802101600A4C0020C4F8A002C4F8A4022C
:100C9000022004F5287402F003FC0120206060604B
:100CA000BDE81040022002F0FBBB0000000402403F
:100CB000008040422DE9F0411E4E0024306820F4AF
:100CC00040203060306830601B4D0127C5F8A472A9
:100CD000022002F0E5FBC5F8A072022002F0E0FB62
:100CE000D5F82402002100B3601CC4B2FA2C18D934
:100CF000306820F440203060306840F4802030605C
:100D0000C5F8A012C5F8A412022002F0C9FBC5F86C
:100D1000A072C5F8A472022002F0C2FB0120BDE857
:100D2000F081D5F824020028DED1C5F8A0120020F9
:100D3000BDE8F081000402400080404270B56B25A0
:100D40008024FFF775FFD020FFF742FFFFF7B2FFC7
:100D500048B92846FFF73CFFFFF7ACFF2046FFF7F6
:100D600037FFFFF7A7FFFFF783FF642002F04EFB7A
:100D70006B250024FFF75CFFD020FFF729FFFFF76A
:100D800099FF48B92846FFF723FFFFF793FF204656
:100D9000FFF71EFFFFF78EFFFFF76AFF18211B20EA
:100DA00000F0FCF800211C2000F0F8F832204FF48D
:100DB0007A75B5FBF0F0401EC1B2192000F0EEF8D4
:100DC00004211A2000F0EAF838260024FFF730FF4B
:100DD000D020FFF7FDFEFFF76DFF48B93046FFF763
:100DE000F7FEFFF767FF2046FFF7F2FEFFF762FF0F
:100DF000FFF73EFF6A260024FFF71AFFD020FFF717
:100E0000E7FEFFF757FF48B93046FFF7E1FEFFF76F
:100E100051FF2046FFF7DCFEFFF74CFFFFF728FFEE
:100E200023260024FFF704FFD020FFF7D1FEFFF7B1
:100E300041FF48B93046FFF7CBFEFFF73BFF2046A6
:100E4000FFF7C6FEFFF736FFFFF712FF37268024B5
:100E5000FFF7EEFED020FFF7BBFEFFF72BFF48B9F0
:100E60003046FFF7B5FEFFF725FF2046FFF7B0FE3F
:100E7000FFF720FFFFF7FCFE7524FFF7D9FED02017
:100E8000FFF7A6FEFFF716FF2046FFF7A1FEFFF7CC
:100E900011FFFFF7CDFED120FFF79AFEFFF70AFF03
:100EA0000020FFF737FE0446FFF7E2FE682C1CBF68
:100EB000012070BD6B260124FFF7BAFED020FFF79A
:100EC00087FEFFF7F7FE48B93046FFF781FEFFF7D0
:100ED000F1FE2046FFF77CFEFFF7ECFEFFF7C8FEB1
:100EE0006C260024FFF7A4FED020FFF771FEFFF769
:100EF000E1FE48B93046FFF76BFEFFF7DBFE204608
:100F0000FFF766FEFFF7D6FEFFF7B2FE3220B5FB15
:100F1000F0F0401EC1B2192000F040F804211A2060
:100F200000F03CF8002070BD2DE9F0411D4614464C
:100F30000F460646FFF77CFE7006000EFFF748FEE0
:100F4000FFF7B8FE20B1FFF793FE0120BDE8F08166
:100F50003846FFF73DFEFFF7ADFEFFF769FE0120C3
:100F600040EA4600C0B2FFF733FEFFF7A3FE5CB1D4
:100F7000012C0ED00120FFF7CDFD2870601E10F06F
:100F8000FF0405F10105F3D1FFF772FE0020BDE873
:100F9000F0810020FFF7BEFD2870EFE770B50C462A
:100FA0000546FFF745FED020FFF712FEFFF782FE51
:100FB00050B92846FFF70CFEFFF77CFE2046FFF7EE
:100FC00007FEFFF777FE18B1FFF752FE012070BD54
:100FD000FFF74EFE002070BD2DE9F0411E4615467C
:100FE0000F460446FFF724FE6006000EFFF7F0FDF3
:100FF000FFF760FE68B93846FFF7EAFDFFF75AFED3
:101000000024002D0ED9305DFFF7E2FDFFF752FE00
:1010100020B1FFF72DFE0120BDE8F081601CC4B2B5
:10102000AC42F0D3FFF724FE0020BDE8F081FEE7DC
:101030007047000010B4C27801780F244FF0010C03
:101040000AB3174A126801F1E02102F4E062C2F526
:10105000E062C2F30722C2F10403D44042789A400E
:10106000837823401A43120181F80024007800F0AD
:101070001F010CFA01F14009800000F1E020C0F8E6
:10108000001110BC704701F01F000CFA00F0490974
:10109000890001F1E021C1F8800110BC7047000017
:1010A0000CED00E0034940F0FD7040F08060086006
:1010B000704700000CED00E070B5164D002400BF35
:1010C00005EBC40001F099FC601CC4B2802CF7D37E
:1010D0005FF0000404F1B000C0B2002100F038FC61
:1010E0000021084600F034FC0021102000F030FC04
:1010F0005FF0000605EBC6000121005D00F028FC52
:10110000701CC6B2802EF5D3601CC4B2082CE1D38B
:1011100070BD00005C18002030B1012818BF704776
:101120000021A72000F014BC0021A62000F010BC74
:1011300010B5504CA16D606A884218BFFFF7BCFF24
:10114000606AD0B10821012804BF0020C4E914015D
:1011500049D01C22022804BF0620C4E9140253D03F
:10116000032804BF0A20C4E914015ED0042804BF88
:101170001020C4E9140269D078E0002110233E4A0F
:10118000084600F0C1FB10233C4A1221002000F069
:10119000BBFB10233A4A2421002000F0B5FBE06A93
:1011A00005F03EF941EC100B032200213C2000F039
:1011B00083F8B4F9000004F020FE41EC100B032288
:1011C00012213C2000F078F8B4F9020004F015FE7A
:1011D00041EC100B032224213C2000F06DF8BDE807
:1011E000104000F063BA94F8502094F85400102393
:1011F000192100F0F7FA606D14306065206D401C15
:1012000020650628EFDB31E094F8502094F8540074
:101210001023192100F0E6FA606D14306065206D2E
:10122000401C20650A28EFDB20E094F8502094F859
:1012300054001023192100F0D5FA606D1430606558
:10124000206D401C20651028EFDB0FE094F8502043
:1012500094F854001023192100F0C4FA606D143082
:101260006065206D401C20651428EFDBBDE8104050
:1012700000F01CBA0C000020680000206F00002065
:101280007600002010B560B1012818BF10BD002104
:10129000C02000F05DFB0021BDE81040A02000F060
:1012A00057BB0021C82000F053FB0021BDE81040CF
:1012B000A12000F04DBB00002DE9F04F92462DED2E
:1012C000048B83B0B0EE408AF0EE608A0F46814610
:1012D0009FED839B4FF000080126CDF80080CDF8EC
:1012E0000480344653EC192B51EC180BCDF80880D0
:1012F00004F09AFD51EC180B05D204F0D7FA04F073
:101300001FFD054602E004F01BFD054604F075FDD7
:1013100053EC182B04F0C2FE9FED731B53EC112B02
:1013200004F0BEFD04F03CFD714981FB05329310D1
:10133000A3EBE27393FBF4F24AB100BF04EB840227
:101340005400721CD6B293FBF4F2002AF6D142F29A
:10135000107295FBF2F281FB024C4FEAAC04A4EB55
:10136000EC7CCCF1000C0CEB8C0C02EB4C028DF8FD
:1013700000204FF47A7B95FBFBF281FB024C4FEA95
:10138000AC04A4EBEC7CCCF1000C0CEB8C0C02EB71
:101390004C02DFF860C18DF801208CFB054254112E
:1013A000A4EBE27281FB02E44FEAA40EAEEBE4741C
:1013B000644204EB840402EB44028DF8022081FBBA
:1013C00003218A10A2EBE171494201EB810103EB99
:1013D00041018DF80310594201EB810105EB4101F8
:1013E0008DF80410B0FBFBF1434A2E24A2FB0153FD
:1013F000DB085B4203EB83038DF8054001EB4301FF
:101400008DF80610ACFB00314909A2FB01C3DB08D3
:101410005B4203EB830301EB43018DF80710A2FB52
:101420000031C908A2FB0132D208524202EB82020B
:1014300001EB4202494201EB81018DF8082000EBEB
:1014400041008DF809006D46EA44681E8AF806805E
:101450005FF0050110F8012F303200F8012B0278FF
:1014600030320270491EF5D153EC192B51EC180B98
:1014700004F0DAFC05D2701CC6B2C6F105012D20BD
:101480006854C6F105008DF8054005448AF80680C9
:101490002878102620384C465E2891BFC6F1800877
:1014A00003B0BDEC048BBDE8F08F2A783346394693
:1014B000204600F021F904EB5600C4B2A04502DA40
:1014C0000024B81CC7B215F8010F20385E28ECD9EB
:1014D00003B0BDEC048BBDE8F08F000000000000FD
:1014E0000000000000000000000000000088C34071
:1014F000676666661F85EB51CDCCCCCCF0B501217B
:1015000083B0084600F062FB0121022000F05EFB80
:1015100001248DF8044000254FF4E0508DF806506A
:1015200003265F4F00908DF805608DF807406946EF
:101530003846FFF76BF98DF8044030038DF80650FC
:1015400000908DF805608DF8074069465548FFF713
:101550005DF921033846FFF7B7F9C82001F056FFBF
:1015600021033846FFF7B2F90021AE2000F0F0F970
:101570000021084600F0ECF90021102000F0E8F905
:101580000021402000F0E4F90021812000F0E0F982
:101590000021CF2000F0DCF90021A12000F0D8F9D3
:1015A0000021C82000F0D4F90021A62000F0D0F9D5
:1015B0000021A82000F0CCF900213F2000F0C8F95C
:1015C0000021D32000F0C4F90021084600F0C0F942
:1015D0000021D52000F0BCF90021802000F0B8F9EE
:1015E0000021D92000F0B4F90021F12000F0B0F979
:1015F0000021DA2000F0ACF90021122000F0A8F957
:101600000021DB2000F0A4F90021402000F0A0F927
:101610000021202000F09CF90021022000F098F920
:1016200000218D2000F094F90021142000F090F9A1
:101630000021A42000F08CF90021A62000F088F9F8
:101640000021AF2000F084F9174D002405EBC40001
:1016500001F0D3F9601CC4B2802CF7D35FF0000412
:1016600004F1B000C0B2002100F072F90021084678
:1016700000F06EF90021102000F06AF95FF000061A
:1016800005EBC6000121005D00F062F9701CC6B2D6
:10169000802EF5D3601CC4B2082CE1D303B0F0BD9A
:1016A00000000240000402405C18002070B5114E9A
:1016B000002400BF04F1B000C0B2002100F048F9DE
:1016C0000021084600F044F90021102000F040F904
:1016D0005FF0000506EBC5000121005D00F038F960
:1016E000681CC5B2802DF5D3601CC4B2082CE1D3B0
:1016F00070BD00005C1800202DE9F04F82B00D464F
:1017000013F0070C18BF4FF0010C0CEBD30C5C0866
:101710001CFB04FCA2F120021CF0FF0BD2B24FF024
:10172000000404BF02B0BDE8F08F02EB420C2B4E68
:101730004FF0010A06EB8C0E06F2744C0CEB021C07
:10174000CDF804C002EBC20C06F6642202EB8C0258
:1017500000920C2B08BF1EF804C00BD0102B08BF42
:10176000019A05D0182B0EBF009A02B0BDE8F08F89
:1017700012F804C01A4A002602EBC0021CF0800FC7
:101780004FEAD10701F0070806D012F807900AFACD
:1017900008F849EA080807E00AFA08F912F8078089
:1017A00069EA08086FEA0808491C02F80780C9B20C
:1017B0004FEA4C6C4F1B4FEA1C6C9F4203D1401CFC
:1017C0002946C0B203E0761CF6B2082ED6D3621CBE
:1017D000D4B25C45BDD302B0BDE8F08F5C710008A7
:1017E0005C1800202DE9F04F91B04FF0000CCDF8BF
:1017F00004C04FEAD30CBCF10104E4B2834688462E
:101800000C943CBF11B0BDE8F08F12FB03F24FF017
:1018100001090792DDF804C0079A002B0CEBD202F5
:101820000CF1010C0CF0FF0CCDF804C0D2B24FF05B
:10183000000C58D9314C324D04EB021E02EBC204AD
:1018400005EBC404039405F1D80404EBC21402941C
:1018500005F5367404EB42220592102B08BF1EF8E2
:101860000C2011D0182B04BF039A12F80C200BD0B7
:10187000202B08BF029A05D0402B0EBF059A11B04D
:10188000BDE8F08F12F80C201E4C002504EBC004BC
:101890004FEAD10601F0070714F806A012F0010F75
:1018A00009FA07F708BF6FEA0A0A4AEA070708BFFA
:1018B000FF43A755491C6D1C5208EDB2C9B2082D53
:1018C000E6D3401CC0B2A0EB0B01994204D108F151
:1018D0000801584601F0FF080CF1010202F0FF0C6C
:1018E00041469C45B9D30C9AB2F1010C0CF0FF0CA7
:1018F000CDF830C08ED211B0BDE8F08FE5000020E9
:10190000650300205C1800202DE9F04105461078A1
:101910001E46203814460F465E2894BFC6F1800844
:10192000BDE8F0812278334639462846FFF7E4FEC9
:1019300005EB5600C5B2A84502DA0025B81CC7B2AF
:1019400014F8010F20385E28ECD9BDE8F0810000C2
:101950002DE9F0411D4F054600294FF480513846CE
:1019600002D0FEF7B3FF01E0FEF7AEFF4FF40051E7
:101970003846FEF7A9FF164E002400BF4FF48061E1
:101980003046FEF7A1FF15F0800F4FF4006130469E
:1019900002D0FEF79BFF01E0FEF796FF4FF4806157
:1019A0003046FEF793FF6806050E601CC4B2082C93
:1019B000E4D34FF400513846FEF788FF3846BDE8BF
:1019C000F0414FF48051FEF781BF00000004024057
:1019D0000000024010B504462DED048BB0EE428AA3
:1019E000F0EE628AB0EE419AF0EE619A51EC100B83
:1019F00003F068FF206051EC190B03F063FF606097
:101A000051EC180B03F05EFFA060BDEC048B10BD21
:101A100070B5324C9FED300A394D9FED332B05F1F7
:101A2000C8002DED048B84ED0E0A9FED339B9FEDD6
:101A30002C0A84ED0F0A9FED2E0BB0EE491AF0EE42
:101A4000691AFFF7C7FFE06B04F0EAFC41EC180BE2
:101A5000A06B04F0E5FC41EC100BB0EE482AF0EE70
:101A6000682AB0EE491AF0EE691A05F14C00FFF74A
:101A7000B1FFB1EE040A84ED030A9FED220A9FED47
:101A8000241B84ED040A9FED200AB0EE492A84ED60
:101A9000100A9FED1E0AF0EE692A84ED110A9FEDEF
:101AA0001E0B05F1F800FFF795FFD4ED060A94ED43
:101AB000050A05F5BA70FEF70DFFD4ED080A94ED9E
:101AC000070A05F5D270BDEC048BBDE87040FEF747
:101AD00001BF000000000000000016450C000020BF
:101AE0009A99094100000000000000403333214072
:101AF0000000000000C0A240000000000000000044
:101B0000781600209A99993E0000A042EC51B83D09
:101B1000000000803D0AB73F000000000000544074
:101B20007047000030EE200A19491A4B70EE410A46
:101B300091ED060AB7EE001A31EE401A61EE200A66
:101B400091ED031A40EE010A91ED010A30EE200AF0
:101B500010EE102A81ED010A9A42C8BF9FED0E0ACD
:101B600006DC10EE102A0D4B9A4288BF9FED0C0A3E
:101B700081ED010A90ED001A61EE200A90ED011A44
:101B800041EE000AC1ED000AC0ED030A70470000F3
:101B90005C16002000401C4600401C4600401CC64D
:101BA00000401CC630EEC00AD0ED001A0649D0ED48
:101BB000020A21EE800AD1ED001A31EE611A00EE20
:101BC000810A80ED030A704704000020044A0029BE
:101BD000116814BF084321EA00001060704700003C
:101BE00030380240044A0029116814BF084321EA32
:101BF000000010607047000040380240044A00298D
:101C0000116814BF084321EA00001060704700000B
:101C100044380240254A30B41168254B11F00C01BC
:101C200006D05C10042908BF046002D008291ED029
:101C3000036011680F2303EA11111E4B595CD0F8A1
:101C400000C02CFA01F14160D2F800C0072404EA78
:101C50009C2C13F80CC021FA0CFCC0F808C01268C8
:101C600004EA52329A5CD140C16030BC70471249DC
:101C7000D1F800C0CCF38055D1F800C0002D0CF095
:101C80003F0C14BFB4FBFCF3B3FBFCF3D1F800C072
:101C90000968CCF3881C03FB0CF3C1F30141491C18
:101CA0004900B3FBF1F10160C3E7000008380240CE
:101CB0000024F4004C160020043802407047000055
:101CC0002DE9F04100239C46142988BF1421561E9B
:101CD000092E98BF42F0F004AA222C4E3270FF2247
:101CE0007270B470F17091B1421EF01C11F0010FCE
:101CF00003D012F8014F00F8014F4C0807D0577875
:101D0000477012F8027F00F8027F641EF7D1F27864
:101D1000701E12F0010F06D010F8014F2344DBB201
:101D20009C440CF0FF0C0024121D52080ED0477882
:101D3000521E3B449C4410F8027F0CF0FF0C3B44C5
:101D4000DBB21C44E4B212F0FF02F0D10CEB040051
:101D50003144DFF838800B7100244871002DCCBF6E
:101D60000B4FBDE8F08100BF18F8046038463146DB
:101D700000F03EFE4021384600F0BBFD0028F9D0BF
:101D8000BE80641CAC42EFDBBDE8F081F01C00209B
:101D9000001001404FF0E021042808690CBF40F01A
:101DA000040020F004000861704770472B48016868
:101DB00041F4700101602A49086840F001000860A0
:101DC0002848002303600A6822F4102222F080725F
:101DD0000A60021FDFF890C0C2F800C0D1F800C04E
:101DE0002CF4802CC1F800C000F1040CCCF80030B9
:101DF0001E4BD3F800C04CF0805CC3F800C01C4BF5
:101E0000D3F800C04CF4404CC3F800C00368036032
:101E100003680360036843F480530360154B136049
:101E20000A6842F080720A600A6812F0007FFBD0F4
:101E3000114A40F202711160016821F00301016052
:101E4000016841F002010160016801F00C010829FC
:101E5000FAD10806094908607047000088ED00E0E3
:101E60000038024008380240103000244038024058
:101E70000070004010640107003C024008ED00E0E3
:101E800030B50C46054685B001210820FFF7AAFEB3
:101E9000ADF800400020114CADF80200ADF808008C
:101EA00001956946204600F01FFC0122114620469C
:101EB00000F094FB32208DF80C0001218DF80F10FA
:101EC0008DF80D108DF80E1003A8FFF7B3F801215F
:101ED000204600F0B6FA05B030BD0000000C00400E
:101EE00030B5012189B00846FFF77CFE0121084684
:101EF000FFF784FE4FF44070069002208DF81C001E
:101F0000204D00248DF81F4006A92846FEF77EFCD0
:101F1000012208212846FEF7C6FC01220921284695
:101F2000FEF7C1FCADF80040ADF808404FF6FF7079
:101F3000154C01906946204600F0D6FB00231A4656
:101F40000321204600F086FA03A800F03FFB0A2098
:101F5000ADF8140003A9204600F0A5FA012120469F
:101F600000F069FA01221146204600F037FB0021FB
:101F7000204600F0B6FB0121204600F062FA09B0CD
:101F800030BD000000000240000001402DE9F04398
:101F90000E46804601218BB00846FFF723FE012143
:101FA0000846FFF713FEDFF8B490012203214846EC
:101FB000FEF779FC012200214846FEF774FC012758
:101FC00036208DF80470022500908DF8055000240D
:101FD0008DF8064069464846FEF718FC362148460B
:101FE000FEF772FC8DF8045009208DF80550009022
:101FF0008DF806408DF8074069464846FEF706FC16
:10200000ADF81C60ADF81E40CDF82080ADF824403E
:1020100007A9680700F068FB6020ADF80800ADF87C
:102020000A70ADF8144002A9680700F019FB02A974
:10203000680700F0DBFA0821C80600F044FB08211D
:10204000C80600F007FB0121880700F0EBF9012129
:10205000880700F0F6F90BB0BDE8F08300000240FD
:1020600030B589B001210220FFF7BCFD01210846EF
:10207000FFF7C4FDC020069002208DF81C00204D03
:1020800000248DF81F4006A92846FEF7BFFB022258
:1020900006212846FEF707FC022207212846FEF704
:1020A00002FCADF80040ADF808404FF6FF70154C4B
:1020B00001906946204600F017FB00231A460321D1
:1020C000204600F0C7F903A800F080FA0A20ADF816
:1020D000140003A9204600F0E6F90121204600F093
:1020E000AAF901221146204600F078FA0021204684
:1020F00000F0F7FA0121204600F0A3F909B030BD45
:1021000000000240000400402DE9F0479C4E0121F0
:102110002DED028B304600F0BBF901281CBFBDEC51
:10212000028BBDE8F08797490868B0F5704FA4BFEF
:10213000401CA0F5803000250D609349934A08604B
:10214000516AB1F5704FA4BF491CA1F580315562A9
:102150008F4F00EE100A8F483960B8EEC00AFEF7C4
:10216000D1FBBDEEC00A8C4C8A4884ED000A97ED85
:10217000000AB8EEC00AFEF7C5FBBDEEC00ADFF8E4
:102180001C92874A874989ED000A874802F090F936
:10219000864FDFF81C8268BB814A8249824802F080
:1021A00087F9844A84498548FEF747FC8248B0F99C
:1021B000000000EE100A8248B8EEC00AFEF7A2FB4B
:1021C000BDEEC00A10EE100A38807A48B0F900005F
:1021D00000EE100A7A48B8EEC00AFEF793FBBDEE97
:1021E000C00A784A784910EE100AA8F8000077482B
:1021F000FEF7D8FB99ED000A7548F0EE001AF8EEEC
:10220000C00A94ED000A734C90ED001AB8EEC00AB3
:1022100004F1F800FFF786FC94ED410A84ED490AC9
:102220009FED6D8AB7F90000DFF87C9100EE100A8F
:10223000DFF8A8A1F0EE481AB8EEC01AD9ED000AEE
:102240009AED000A04F1C800FFF7ACFCB7F90000F2
:10225000F0EE481A00EE100AD9ED000A04F14C0025
:10226000B8EEC01A9AED000AFFF79CFC94ED350A0F
:102270004B4884ED3D0A84ED1E0A90ED000AB8F942
:102280000000BDEEC00A10EE101A00F06DFA5449BD
:1022900041F6583C086094ED3D0AD4ED490A514995
:1022A00030EE201A00EE100AB8EEC00A31EE000A35
:1022B000BDEEC00A10EE102A0A6094ED1E0A6245B7
:1022C00070EE200A00EE100A4748B8EEC00A30EE61
:1022D000C00ABDEEC00A10EE103A036046DC434A65
:1022E000934246DB634546DC0B68934246DB096854
:1022F0003F4C07684FF001084FF08049002909DB87
:10230000C4F89452C4F89082C9F84010200200F03A
:10231000E6F90AE0C4F89482C4F890524942C9F838
:1023200040104FF0804000F0DAF9002F0BDBC4F8CA
:102330008882C4F88452C9F8347039464FF080401E
:1023400000F0CBF90AE0C4F88852C4F884827942DC
:10235000C9F834104FF0804000F0BFF9BDEC028B9B
:102360003046BDE8F047012100F068B8C1F800C070
:10237000B5E70260B8E7C0F800C0B5E70A60B6E7A5
:102380000008004024040040340000200000014008
:10239000900000201C18002054000020AC000020F9
:1023A000400000203C000020380000200C000020ED
:1023B0000E000020AA000020A8000020A600002097
:1023C000EC170020A4000020A2000020A0000020A4
:1023D00010000020781600200000000000000020FF
:1023E00094000020980000209C000020A8E4FFFF3B
:1023F0000000404210B5094C0121204600F048F889
:10240000012818BF10BD06490868401C0860204616
:10241000BDE81040012100F011B80000000C0040A0
:10242000580000200029018814BF41F0800121F0EC
:10243000800101807047C94301827047C94301820E
:1024400070470029018814BF41F0010121F001010A
:102450000180704730B40589B0F818C0048C25F0AD
:10246000070529432CF0030C2CF4407C40F20115A5
:102470004CEA050C4FF6FF7505EA031324F022041D
:102480001A4322430181A0F818C0028430BC70476F
:10249000038A002280890B4200EA01001CBF002849
:1024A00001221046704770B40D884C88B1F804C002
:1024B0000B894FF6FF7255B3042D44D0082D058CBF
:1024C00067D025F480550584868B058C26F47346E9
:1024D00002EA0C2C4CEA060C02EA033343EA0C0332
:1024E00002EA043425F4204C4CEA040C4CF4805CE1
:1024F0008383A0F820C08979838B23F4406383838E
:10250000838B02EA01211943818370BC7047058CDB
:1025100025F001050584068B058C02EA031226F0DE
:10252000F30642EA0C02324325F00A03234343F048
:10253000010302830384C988028B22F00C02028308
:10254000028B114322E0058C25F010050584068BD3
:10255000058C26F4734602EA0333334302EA0C2C5B
:102560004CEA030302EA041425F0A00C4CEA040C24
:102570004CF0100C0383A0F820C08979038B23F45E
:1025800040630383038B02EA01211943018370BC7A
:10259000704725F480750584868B058C02EA042437
:1025A00002EA031226F0F30642EA0C02324325F453
:1025B0002063234343F4807382830384C988828B1E
:1025C00022F00C028283828B11439DE7002101805F
:1025D000418001228280C18001817047002A828966
:1025E00014BF114322EA01018181704710B4028CAB
:1025F00022F001020284038C8288B0F818C00C8893
:102600002CF0730C44EA0C0C8C8923F00203234356
:102610004C882343A0F18044B4F580341CBFA0F162
:102620008044B4F582340DD1CC8923F008032343D0
:102630008C8823F0040323430C8A22F44072224343
:102640004C8A22438280A0F818C0896841630384C1
:1026500010BC7047028B22F00802114301837047BF
:1026600030B4028C22F480520284048C8288838BE2
:102670000D8823F4E64C4FF6FF7303EA052545EA7F
:102680000C0C8D8924F4005403EA05352C434D8845
:1026900003EA05352C43A0F18045B5F580351CBF14
:1026A000A0F18045B5F5823505D10D8A22F480422E
:1026B00003EA85131A438280A0F81CC0896801646C
:1026C000048430BC7047828B4FF6FF7322F40062A3
:1026D00003EA01211143818370474163704701641C
:1026E000704741627047000010B402881C4BDFF84D
:1026F00074C0984218BF604511D0B0F1804F1CBF24
:10270000A0F18044B4F5806409D0A0F18044B4F510
:1027100000641CBFA0F18044B4F5406403D14C8830
:1027200022F070022243A0F18044B4F580541CBF13
:10273000A0F18044B4F5A05403D00C8922F4407277
:10274000224302804A68C2620A880285984212BF08
:102750006045897A01864FF00101818210BC704783
:10276000000001400004014000EE101A0E49B8EECE
:10277000C00AD1ED000A0D4930EE600A0968401A1E
:1027800000EE900A0A48F8EEE00A90ED001A0948B7
:1027900060EE810A90ED001A40EE010ABDEEE00AFB
:1027A00010EE100A704700001400002008000020FE
:1027B0001C000020180000202DE9F041384800F0EE
:1027C00013F938490027384E0860DFF8E0809FEDA4
:1027D000380A384C384D3038062819D2DFE800F076
:1027E00003232B333D47FEF767FC9FED340A344843
:1027F00086ED000A90ED000A85ED000AC8F8007029
:10280000D4F8B40200283ED03BE000BFC4F8B402C4
:102810002C492868884238DC2B492868884298BFB0
:10282000BDE8F08136E09FED290A86ED000AD4F874
:10283000B40240B325E09FED260A86ED000AD4F8E5
:10284000B40200B31DE0D5ED000A30EEC00A85EDFC
:10285000000AD4F8B402B0B113E0D5ED000A30EEAE
:10286000800A85ED000AD4F8B40260B109E0FEF7F1
:1028700023FC0120C8F8000016480760D4F8B40211
:1028800008B10020C2E70120C0E79FED130A85EDE3
:10289000000AC1E79FED110A85ED000ABDE8F0814D
:1028A00000100140481600201000002030000020D9
:1028B0000000B0420000414214000020000000006F
:1028C000400000200000C8420000C8C20000704262
:1028D000000070C2580000200000C8420000C8C2BA
:1028E0000029818914BF41F4005121F400518181F4
:1028F00070470246002012880A4218BF0120704724
:10290000C1F3421301F01F014FF0010C0CFA01F169
:10291000012B08BF0C3003D0022B0CBF1030143039
:10292000002A026814BF114322EA010101607047C6
:1029300030B50446008A85B00D46C98820F4405061
:1029400008432082A089A9882A8920F403701143B2
:102950006A8920F4A05010430843A081A08AA98965
:1029600020F440700843A0826846FFF753F9A4F1B1
:102970008040B0F588301BBFA4F18040B0F58A30AC
:1029800003980298A18911F4004F00EBC00101EBFC
:102990000010296814BF49008900B0FBF1F0114A0A
:1029A0006FF0180CA2FB0031490909010B0903FB68
:1029B0000CF300EB8300A38913F4004F4FF03203B4
:1029C00014BF03EBC00003EB0010A2FB00204FEA92
:1029D000501014BF00F0070000F00F0008432081E2
:1029E00005B030BD1F85EB518088C0F308007047EB
:1029F000C1F3080181807047FEE70021016041605A
:102A0000704703B401984100009850EAC12018BFF4
:102A100004204A0D18BF40F0010040F2FF72B2EBF3
:102A2000515F08BF40F00200012808BF052002B036
:102A3000704700000000000070B5C1482DED020B8A
:102A40002DED0E8B82B0119D25F000449FEDBEDB75
:102A50009FEDBFEB84423EDBA4F140511098A1F101
:102A60007F6108430FD0BC48844202DC28D1109813
:102A700030B39DED100B02B0BDEC0E8B02B0BDE883
:102A8000704000F069BC9DED100B53EC1D2B51EC18
:102A9000100B03F005FA9DED100B41EC180B53ECF5
:102AA0001E2B51EC100B03F0FBF953EC182B02F02A
:102AB0003BFF41EC100B02B0BDEC0E8B02B070BDC1
:102AC0000120FDF7ABFD02B0BDEC0E8B02B0BDE8FE
:102AD000704000F055BCA1489FEDA18B844256DAAE
:102AE0009DED100BB4F1795F0ADA51EC100BFFF792
:102AF00088FF042808BF00F053FC9DED100BDAE7B7
:102B000053EC102B51EC100B03F0CAF941EC190BEC
:102B100095480621B0EE490AF0EE690A784400F0C3
:102B20009FFB53EC192B51EC100B03F0B9F941EC5E
:102B30001A0B8E48B0EE490AF0EE690A0421784477
:102B400000F08EFB53EC192B51EC100B03F0A8F99D
:102B500053EC182B02F0E8FE41EC100B51EC1A0B71
:102B600053EC102B02F094FFCDE900019DED000B1A
:102B700053EC102B9DED100B51EC100B03F090F962
:102B80009DED101B53EC112B02F0CEFED2E09DED1B
:102B9000100B51EC100B01F06BF953EC182B03F0F8
:102BA0007DFA9FED730BCDE9000153EC102B9DEDE9
:102BB000000B51EC100B03F073F941EC190B6E484C
:102BC0000621B0EE490AF0EE690A784400F048FBAD
:102BD00053EC192B51EC100B03F062F941EC1B0B79
:102BE0006648B0EE490AF0EE690A0421784400F024
:102BF00037FB53EC192B51EC100B03F051F953EC4C
:102C0000182B02F091FE41EC1C0B51EC190B02F059
:102C1000BFFD41EC180B5A489FED5BABA04222DC94
:102C200053EC1C2B51EC1B0B02F032FFCDE90001E1
:102C30009DED000B51EC180B53EC102B03F030F909
:102C400053EC182B02F070FE53EC1A2B03F028F90A
:102C500053EC1D2B03F0FAFA53EC1E2B03F01EFA73
:102C600041EC100B5FE08DED008B002000909DED9E
:102C7000000B51EC180B53EC102B02F055FE9DEDA0
:102C8000000B41EC1E0B53EC102B51EC100B03F01E
:102C900007F953EC192B03F001FA53EC1E2B02F049
:102CA000F7FE41EC190B53EC1C2B51EC1B0B02F003
:102CB000EFFE41EC1B0B53EC1A2B51EC190B03F0FC
:102CC000EFF853EC1D2B03F0E9F941EC190B53EC31
:102CD0001A2B51EC180B03F0E3F853EC1B2B03F009
:102CE000DFF853EC192B03F0B1FA9DED000B41EC2A
:102CF000180B53EC1A2B51EC100B03F0D1F89FED8D
:102D0000249B53EC192B03F0C9F941EC100B51EC47
:102D1000180B53EC102B03F099FA53EC192B03F01A
:102D2000BDF941EC100B002D3FF7C5AE51EC100B77
:102D300002F0BCFD41EC100BBDE6000000000000FD
:102D40000000F03F00000000075C143326A6913C11
:102D5000182D4454FB21F93F0000F07F0000E03FB4
:102D6000000000000000F03F105E00001E5E00004A
:102D7000000000000000E03F625D0000705D0000A8
:102D80003333EF3F0000000000000000000000406F
:102D9000182D4454FB21E93F70B59B482DED020BE3
:102DA0002DED068B079D25F00044A04218DC9748C6
:102DB000844202DC0AD1069840B19DED060BBDECC1
:102DC000068B02B0BDE8704000F0C6BA002DCCBF43
:102DD0009FED8F0B9FED900BBDEC068B02B070BD8D
:102DE0008F48A04215DD8F48A042D8BF4FF0FF3476
:102DF00058DD9DED060B51EC100BFFF702FE042889
:102E000008BF00F0CDFA9DED060BBDEC068B02B0BD
:102E100070BD9DED060B51EC100B01F029F8CDE9CA
:102E2000060181489FED828BA0423CDD8248A04292
:102E30001FDD00249FED82AB9DED060B53EC1A2B9A
:102E400051EC100B02F070FD9DED060B41EC190BDF
:102E500053EC1A2B51EC100B03F022F853EC182B07
:102E600003F0F4F953EC192B02F012FECDE9060140
:102E700049E09DED060B012453EC182B51EC100B8F
:102E800002F052FD9DED060B41EC190B53EC182B93
:102E900051EC100B03F0DAF953EC192B02F0F8FDAA
:102EA000CDE906012FE06848A0421FDD02249FED16
:102EB000689B9DED060B53EC192B51EC100B02F0A7
:102EC000EFFF53EC182B02F02FFD9DED060B41ECAC
:102ED000180B53EC192B51EC100B03F0B7F953EC12
:102EE000182B02F0D5FDCDE906010CE09DED060B97
:102EF000032453EC102B9FED580B51EC100B02F0F8
:102F0000C7FDCDE906019DED060B53EC102B51ECEE
:102F1000100B02F0C5FF41EC180B53EC182B02F01C
:102F2000BFFF41EC190B4E480621B0EE490AF0EE06
:102F3000690A784400F094F953EC182B51EC100B0B
:102F400002F0AEFF41EC180B4648B0EE490AF0EE35
:102F5000690A0521784400F083F953EC192B51ECF0
:102F6000100B02F09DFF41EC100B51EC180B53ECD1
:102F7000102B002C0EDA02F0D7FC9DED061B53EC53
:102F8000112B02F08DFF9DED061B53EC112B03F06E
:102F900085F835E002F0C8FC9DED061B53EC112BC3
:102FA00002F07EFF41EC100B2F48784400EBC40088
:102FB00090ED001B51EC100B53EC112B03F046F974
:102FC0009DED061B53EC112B03F040F941EC100B67
:102FD0002648784400EBC40090ED001B51EC100B28
:102FE00053EC112B03F05AF841EC100B002DA2BF4B
:102FF000BDEC068B02B070BD51EC100B02F056FC1C
:1030000041EC100B01E70000000010440000F07FCD
:10301000182D4454FB21F93F182D4454FB21F9BFCE
:103020000000DC3F0000203E0000F33F00000000F5
:10303000000000000000F03F0000E63F000000003C
:10304000000000000000004000800340000000007D
:10305000000000000000F83F000000000000F0BF8A
:10306000B25A0000685A0000F2590000AA59000044
:1030700070B56B4E2DED040B2DED028B82B0DDF89B
:103080001CC0DDE905235C422CF000411C4341EAF1
:10309000D474049D22F00040B44205D86C422C4305
:1030A00040EAD474B4420BD99DED061B9DED040B90
:1030B00002B0BDEC028B04B0BDE8704000F056B920
:1030C000ACF14054A4F17F641C430BD0022404EA09
:1030D000AC7444EAD27405439FED538B9FED542B9F
:1030E00007D015E09DED040B51EC100B00F070F9CA
:1030F00042E0002C11BF012C9DED040B02B0BDEC91
:10310000028B04BF04B070BD022C38D0032C3BD01E
:103110000B439FED491B9FED4A0B0AD0B14218D1DA
:10312000B04209D121F0804120F080400791059004
:103130000FE0002A15DA10E0434B7B44002C08BF57
:1031400093ED000B0DD0012C10D0022C17D0032CC6
:103150001AD0B0421DD1002A03DAB0EE410AF0EED7
:10316000610A02B0BDEC028B04B070BD93ED000BA0
:1031700051EC100B02F09AFB41EC100BF1E7B0EEB2
:10318000480AF0EE680AECE7B0EE420AF0EE620A96
:10319000E7E7401A00153C28C8BF8DED000B19DC8D
:1031A000BCF1000FBEBF10F13C0F9FED290B8DED60
:1031B000000B0FDB9DED060B53EC102B9DED040B6C
:1031C00051EC100B02F064FC00F052FE00F000F92C
:1031D000CDE90001002C08BF9DED000BC1D0012CF2
:1031E00010D0022C9FED1C0B53EC102B9DED000B0F
:1031F00051EC100B0DD003F029F853EC182B03F011
:1032000025F8B9E7019880F0004001909DED000B92
:10321000A7E703F01BF853EC182B02F03FFFABE7D6
:103220000000F07F00000000182D4454FB210940ED
:10323000182D4454FB2109C0182D4454FB21F9BF1B
:10324000182D4454FB21F93FDA580000000000001B
:103250000000000000000000075C143326A6A13C1B
:1032600070B504462DED028B4D1E00EBC500B0EE8F
:10327000408AF0EE608A90ED000B35F0060017D022
:1032800053EC182B51EC100B02F00AFE41EC100B22
:103290006D1E04EBC50090ED001B51EC100B53ECC0
:1032A000112B02F041FB41EC100B35F00600E7D189
:1032B000022D36D0042D1CD0062D1CBFBDEC028B78
:1032C00070BD53EC182B51EC100B02F0E9FD94ED9E
:1032D0000A1B53EC112B02F027FB53EC182B02F0C6
:1032E000DFFD94ED081B53EC112B02F01DFB41ECAC
:1032F000100B53EC182B51EC100B02F0D1FD94ED98
:10330000061B53EC112B02F00FFB53EC182B02F0B1
:10331000C7FD94ED040B53EC102B02F005FB41ECC0
:10332000100B53EC182B51EC100B02F0B9FD94ED7F
:10333000021B53EC112B02F0F7FA53EC182B02F09E
:10334000AFFD94ED001B53EC112B02F0EDFABDEC38
:10335000028B41EC100B70BD10B553EC102B51ECEF
:10336000100B02F0E1FA41EC100B10BD10B553EC5C
:10337000112B51EC100B02F0D7FA41EC100B10BDE1
:103380009FED050B10B553EC102B51EC100B02F018
:103390007FFB41EC100B10BD00000000000000009E
:1033A0009FED050B10B553EC102B51EC100B02F0F8
:1033B00077FD41EC100B10BD000000000000001074
:1033C00030380A2801D2012070470020704770472A
:1033D00010B541EC100BFFF7DFFC51EC100B10BDEA
:1033E00010B504466FF00400FEF7D4FC0648E1086F
:1033F00001EB41020170C2EBC1114FF6FF7202EA0C
:10340000C101418010BD00003E1600204FF407713D
:10341000B0FBF1F212F0FF0CB0FBF1F270B401FB63
:1034200012041E4E4FF000034FF0E0201BD07188B5
:103430004FF4077201FB02F545618361016941F0B8
:1034400001010161016911F0010F02D011F4803F07
:10345000F8D0016921F0010101618361ACF1010142
:1034600011F0FF0CE8D1002C04BF70BC70477188CC
:10347000614341618361016941F0010101610169B9
:1034800011F0010F02D011F4803FF8D0016921F052
:1034900001010161836170BC704700003E1600208D
:1034A0000C49097841434FF0E020416100238361DA
:1034B000016941F001010161016911F0010F02D0C0
:1034C00011F4803FF8D0016921F0010101618361AD
:1034D000704700003E1600202DE9F04F87B00446EB
:1034E00002278DF80070CA208DF80100E3208DF8C6
:1034F000020009208DF803006A460421682002F0CA
:1035000025F8A3208DF8000014F0400F09D0C02149
:103510008DF80110C8218DF80210C2218DF803101A
:1035200005E08DF801008DF802008DF8030014F419
:10353000C07F4FF0C4084FF0C60907D08DF8048053
:10354000CC218DF805108DF8069005E08DF804006B
:103550008DF805008DF806008DF808008DF807003D
:103560008DF809006A460A2140F6A72001F0EEFF17
:1035700014F0030F4FF0200A4FF0D80514BF8DF858
:1035800000A08DF800506A46012140F6B62001F0F7
:10359000DDFF14F0200F0DD0884AD2E900019268B7
:1035A0000390CDE9041203AA09214FF4976001F0BA
:1035B000CDFF0CE0824AD2E9000192680390CDE988
:1035C000041203AA09214FF4976001F0BFFF14F41D
:1035D000C07F4FF08B001ED014F4807F09D0B22141
:1035E0008DF800108DF80100B6208DF802009B20A8
:1035F00009E0B0208DF8000080208DF80100B42093
:103600008DF8020090208DF803006A46042140F6F0
:10361000A22001F09BFF14F0010F4FF0300B4FF090
:10362000000660D0F8208DF800006A4601214FF4B2
:103630000B6001F08BFFFA21072000F04FFB3C20CC
:103640003F208DF80C0003AA01214FF4A47001F073
:103650007DFF8DF80C6003AA012140F24F1001F0AC
:1036600075FF8DF80C6014208DF80D0003AA02215F
:103670004FF4EF7001F06AFF8DF80C6064208DF854
:103680000D0003AA02214FF4ED7001F05FFF4D48D9
:103690004FF47A7190FBF1F0C8214843010E8DF888
:1036A0000C10010C8DF80D10010A8DF80E108DF81C
:1036B0000F0003AA04214FF4AE7001F047FF8DF80C
:1036C0000C6008208DF80D0003AA02214FF4AD70A4
:1036D00001F03CFF8DF80C608DF80D7003AA0221FB
:1036E0004FF4AC7005E08DF800506A4601214FF4AC
:1036F0000B6001F02BFF14F0020F1ABFD9208DF8D8
:1037000000008DF800506A46012140F23D7001F042
:103710001DFF14F0040F04BF4FF08B30039009D04D
:10372000C0208DF80C00C2208DF80D008DF80E80A1
:103730008DF80F9003AA042140F6982001F006FFAF
:1037400001F022FA14F0100F04BF4FF0A3300390E1
:1037500009D08DF80CA028208DF80D008DF80EB042
:1037600038208DF80F0003AA042140F69E2001F0B6
:10377000EDFE01F009FA144D44F00800688101F0F3
:1037800003FAAE7314F0400F1CBF0620A87314F4A4
:10379000C07F02D0A87B801DA87314F0140F02D044
:1037A000A87B1030A87314F0030F02D0A87B001D73
:1037B000A87307B00020BDE8F08F000010380008A3
:1037C0001C38000809E3CA024C18002000B583B079
:1037D00070B10FA25168106892680090CDE9011293
:1037E0006A4609214FF4976001F0B0FE03B000BDB6
:1037F0000AA2D2E9001092680091CDE901026A465E
:1038000009214FF4976001F0A1FE03B000BD000054
:10381000B8AAB38DB4980D355D000000B8AAAAAA65
:10382000B088C3C5C7000000C8234FF480620249B6
:1038300040F6F63001F056B8166500082DE9F04F55
:1038400089B01746DDE912520024584E8846814659
:103850002C809A46A346B07B694601F045F90028C2
:103860001EBF4FF0FF3009B0BDE8F08F718911F035
:10387000140F49D000989DF8032000BA20F0FF00F3
:1038800040EA020CC7F800C001989DF8072000BA72
:1038900020F0FF0040EA02027A6002989DF80B30A7
:1038A00000BA20F0FF0040EA0300B860039B9DF8D7
:1038B0000F401BBA23F0FF0343EA0403FB604FF001
:1038C00010044FEA2C4C4FEA22424FEA20404FEAC4
:1038D00023431CFB0CFC12FB02C210FB00F013FB89
:1038E00003001044A0F17060B0F1007F08D901F02E
:1038F0004BF9A5F800B009B04FF0FF30BDE8F08FEC
:10390000288840F48070288011F0400F684611D05C
:103910000219A41D13885BBAA8F8003053885BBA5B
:10392000A8F80230928852BAA8F804202A8842F0F7
:1039300008022A8011F4C07F11D00219A41D138837
:103940005BBAA9F8003053885BBAA9F802309288B4
:1039500052BAA9F804202A8842F070022A8011F095
:10396000030F1CD00444E078617800F0C00500F03B
:103970003F0011F0010F08D0C30800F007003268C3
:10398000411C002A1CBF18469047607810F0080FB1
:103990001CBF7168002902D04FEA95108847504635
:1039A00000F054FD09B00020BDE8F08F4C18002055
:1039B00070B584B0064603A800F0A8FEBDF80C0060
:1039C000410CC2033148038903F0030013F0040FD4
:1039D00056F8205018BF6D42C3F3C10013F0200FFA
:1039E00056F8204018BF6442C3F3811013F4807F5F
:1039F00056F820C018BFCCF1000CE817A5FB023622
:103A000000FB026005FB0100A4FB02569B0F43EA8A
:103A10008000E31703FB026304FB0133AC0FACFB34
:103A2000025644EA83034FEAEC7404FB02620CFB87
:103A30000121AA0F42EA8101020E8DF80020020C3A
:103A40008DF80120020A8DF802208DF80300180E6F
:103A50008DF80400180C8DF80500180A8DF8060082
:103A6000080E8DF80800080C8DF80900080A8DF87A
:103A70000A008DF80B108DF807306A460C214FF4C0
:103A8000257001F063FD04B070BD00004C180020EB
:103A900010B5044614A286B0D2E9000192680292E1
:103AA000C82CCDE9000116D8C820B0FBF4F0411EA7
:103AB000080A8DF810008DF8111004AA022140F2B6
:103AC000162001F043FD30B96A460C2140F6C120B2
:103AD00001F03CFD18B106B04FF0FF3010BD0548B5
:103AE000848106B0002010BDFEF2ABC4AAF1DFDF76
:103AF000BBAFDFDF4C18002038B53349098901F02E
:103B0000030211F0040F50F822C018BFCCF1000CD2
:103B1000C1F3C10211F0200F50F8222018BF524209
:103B2000C1F3811311F4807F50F8233018BF5B423A
:103B300026498CFB01C04FEA9C7C4CEA800082FB4A
:103B400001C24FEA9C7C4CEA820483FB0121920F64
:103B500042EA8105010E8DF80010010C8DF801106C
:103B6000010A8DF802108DF803006A4604214FF413
:103B7000747001F0EBFC88B9200E8DF80000200C69
:103B80008DF80100200A8DF802008DF803406A4686
:103B900004214FF4757001F0D9FC10B14FF0FF30E3
:103BA00038BD280E8DF80000280C8DF80100280A79
:103BB0008DF802008DF803506A4604214FF47670A8
:103BC00001F0C4FC38BD00004C18002009E3CA0213
:103BD00070B504463CA084B0006802903BA004F09D
:103BE0000302006803903AA006683AA0056802A89C
:103BF000815C8DF80010C4F3C101435C8DF8013085
:103C0000C4F38113C05C8DF8020003A8825C8DF8B8
:103C10000420415C8DF80510C05C8DF806006A46F2
:103C2000032140F2264001F091FC002843D101AA73
:103C3000032140F22A4001F089FCE0BBCDE9006598
:103C400014F0040F0BD09DF8000040F001008DF837
:103C500000009DF8040040F001008DF8040014F00D
:103C6000200F0BD09DF8010040F001008DF80100FD
:103C70009DF8050040F001008DF8050014F4807FE8
:103C80000BD09DF8020040F001008DF802009DF875
:103C9000060040F001008DF806006A4603214FF44B
:103CA000886001F053FC30B901AA032140F2314091
:103CB00001F04CFC18B104B04FF0FF3070BD064865
:103CC000048104B0002070BD4CCD6C000CC92C00E8
:103CD00036567600264666004C18002030B504465D
:103CE0002DED028B83B010F0070F7DD0B1F5C86FBA
:103CF0007AD800EE101AB8EE400ADFED540A01A897
:103D000080EE208A00F0E4FC9DF80400022806D032
:103D1000042817D0082828D0102839D08AE09FED31
:103D20004C0A28EE000ABCEEC00A10EE100A82B25D
:103D30009FED480A28EE000ABCEEC00A10EE100AF9
:103D400081B237E09FED440A28EE000ABCEEC00ABB
:103D500010EE100A82B29FED410A28EE000ABCEE76
:103D6000C00A10EE100A81B224E09FED3D0A28EE51
:103D7000000ABCEEC00A10EE100A9FED3A0A82B2A9
:103D800028EE000ABCEEC00A10EE100A81B211E063
:103D90009FED350A28EE000ABCEEC00A10EE100AAC
:103DA0009FED320A82B228EE000ABCEEC00A10EE85
:103DB000100A81B2100A8DF80000080A8DF801205F
:103DC0008DF802008DF8031014F0010F6D460FD02E
:103DD0002A4602214FF4EA7001F0B8FB20B9AA1C70
:103DE00002214FF4927000E024E001F0AFFB08BB29
:103DF00014F0020F0DD06A4602214FF4EC7001F06E
:103E0000A5FBB8B9AA1C02214FF4947001F09EFBE7
:103E100080B914F0040F13D06A4602214FF4EE70FB
:103E200001F094FB30B9AA1C02214FF4967001F006
:103E30008DFB28B103B04FF0FF30BDEC028B30BDDD
:103E400003B00020BDEC028B30BD000000004843F1
:103E50000000804600004046000000460000C045CB
:103E60000000804500004045000000450000C044BF
:103E700082B0CDE9000121F0004001909DED000BE2
:103E800002B051EC100B704770B5074D0446C1B23B
:103E90002846FEF7ADFD80212846FEF72AFD0028C2
:103EA000F9D0204670BD0000001001402DE9F0411E
:103EB00084B005460120CB4F8DF800004FF000087C
:103EC0008DF8018038680C461646817C78686B4610
:103ED00002220078FDF780F8002840F0E480C82036
:103EE000FFF794FA8DF8008038686B460122C17B99
:103EF00078680078FDF770F8002840F0D4803868C2
:103F00006B460122417978680078FDF765F8002852
:103F100040F0C98038686B460122817C786800785F
:103F2000FDF75AF8002840F0BE8038686B46012241
:103F3000C17D78680078FDF74FF8002840F0B38025
:103F400038686B460122017978680078FDF744F8FB
:103F500000287DD10C208DF8000038686B460122C6
:103F6000017978680078FDF737F8002870D10F20C4
:103F7000FFF74CFAB86A6B460122407A8DF80000D0
:103F80003868817878680078FDF726F800285FD1D6
:103F9000B86A6B460122007A8DF8000038684178D3
:103FA00078680078FDF718F800287CD1B86A002EF0
:103FB000807A18BF40F0E0008DF8000038686B464A
:103FC0000122817978680078FDF706F800286AD127
:103FD000002E1DBFB86AC07A40F0E00018208DF8AE
:103FE000000038686B460122C17978680078FCF7D8
:103FF000F3FF002857D1002E1CBFC820FFF706FA98
:1040000040208DF8000038686B46012201797868FD
:104010000078FCF7E1FF002845D178208DF80000FA
:1040200038686B460122417978680078FCF7D4FF44
:1040300070B93220FFF7EAF98DF8008038686B46D6
:104040000122417978680078FCF7C6FF00B900E0EA
:1040500029E038686B460222817A78680078FCF79C
:1040600063FF00BBBDF80000C5F80880C5F80480F8
:10407000C5F8008040BA4AF6AB21C4F8088048432E
:10408000C4F80480C00CC4F8008010F0FF064FF0A4
:1040900000083DD038686B460C22C17A78680078F9
:1040A000FCF742FF20B104B04FF0FF30BDE8F081D3
:1040B000BDF80000236840BA01B2BDF802001944FF
:1040C00040BA02B2BDF804002160616840BA1144F0
:1040D0006160A16800B20844A060BDF806002B68CA
:1040E00040BA01B2BDF80800194440BA02B2BDF8A6
:1040F0000A002960696840BA11446960A96800B281
:104100000844A86008F1010000F0FF08B045C1D3E1
:1041100028688322C117090441EA104100040023E2
:10412000FCF7C7F832460023FCF7C3F8286068683C
:104130008322C117090441EA104100040023FCF75F
:10414000B8F832460023FCF7B4F86860A968832207
:10415000C817000440EA114C080400236146FCF72C
:10416000A8F832460023FCF7A4F8A86020684FF4B2
:104170000062C117090441EA104100040023FCF762
:1041800098F832460023FCF794F8206061684FF4F9
:104190000062C817000440EA114C0804002361467D
:1041A000FCF787F832460023FCF783F86060A068CC
:1041B0004FF40062C117090441EA104100040023D2
:1041C000FCF777F832460023FCF773F8A06000286C
:1041D000CCBFA0F5803000F58030A06004B0002096
:1041E000BDE8F081B000002090F900100029B8BFB0
:1041F0000421C8BF002114D090F90320002AB8BFC1
:104200000422C8BF00221ED041EAC20190F9062054
:10421000002AB8BF0420C8BF002026D041EA801081
:10422000704790F901100029B8BF0521C8BF0121CE
:10423000E2D190F90210002908BF0721B8BF06217A
:10424000C8BF0221D8E790F90420002AB8BF052290
:10425000C8BF0122D8D190F90520002A08BF072243
:10426000B8BF0622C8BF0222CEE790F90720002A75
:10427000B8BF0520C8BF0120D0D190F908000028A0
:1042800008BF0720B8BF0620C8BF0220C6E700004D
:104290002DED048BFDF7BCFB4FF4A060FCF702FF93
:1042A000A820FFF79DF84FF4165001F0A9FAFCF78B
:1042B00057FBFDF723F90020FCF72EFF0020FCF749
:1042C000E1FFFDF7F3F9FCF703FCFCF737FD00F025
:1042D000ABF958B11023544A12211E20FDF714FBEC
:1042E000FDF7E4F900F0A0F90028F3D1FCF7E4FEB3
:1042F00010234E4A00212820FDF706FBFDF7D6F9D2
:10430000FDF7EEFDFDF7ACFE002142F2CF00FDF718
:104310003DFE632142F2CF00FDF7B2FD092140F2DC
:104320004730FCF741FAFCF7C7FE41480026C0F8C9
:10433000B462404DDFED408A02274FF003089FED45
:104340003F9A9FED3F8ADFED3F9A3F4C40F24C4948
:104350004FF0040A208D2880B4F84800688094ED5E
:104360000B0A0A21BDEEC00A10EE100AA88094EDD7
:104370000C0ABDEEC00A10EE100AE88094ED0D0A9A
:10438000BDEEC00A10EE100A28812088688160887E
:10439000A881EE812E826E82264801F005F9FCF795
:1043A000C7FE606AA0650528D4D2DFE800F00305E7
:1043B000181F3600E664CDE7C4ED018AE06CB0F565
:1043C000FA7FA8BF84ED018AB0F5167FA8BFC4EDBF
:1043D000029AB0F5617FA4BF6762E664BAE7E06C59
:1043E000B0F5FA7FA8BFC4F82480B3E784ED028A51
:1043F000E06CB0F52F7FA8BF84ED019AB0F57A7F0D
:10440000A8BF84ED018A4845A8BFC4ED029AB0F563
:10441000966FA8BFC4F824A09CE7E06CB0F5AF6F1E
:10442000A8BF666296E70000850000207D0000209E
:1044300000004142DC1C00200000A042000082423B
:10444000000000000000B0420C0000207047000097
:1044500070B5164C20F00101002594F824000028C6
:104460001CBF002070BDA07A002804BF4FF0FF30B1
:1044700070BD267C08402074884218BF4FF0FF357D
:1044800061B1012001F048F900F07EFB00281EBF59
:1044900026744FF0FF3070BD284670BD207D002887
:1044A00018BF012001F038F9F6E70000B000002045
:1044B00070B50D462DED0C8B8EB006460CA902A8EA
:1044C0001446F7EE00BACDE9000103AB04AA0AA92D
:1044D00008A8FFF7B3F900281FBF01200EB0BDECFC
:1044E0000C8B70BDBDF8080010F4807F01BF022066
:1044F0000EB0BDEC0C8B70BD9DED040AF8EEC00A49
:104500009FED450AB0EE00CA60EE809ADDED050A27
:10451000F8EEE00A69EE8CCA20EE808ADDED060A2C
:10452000F8EEE00A60EE808ADDED070AF8EEE00AB8
:1045300020EE809AB8EE000A28EE00BA2BEE090AA7
:104540000CEEA80A10EE100A01F06AFF41EC100B05
:10455000FEF772FA9FED32AB51EC100B53EC1A2BB5
:1045600001F09EFC01F0AEF92BEE080A28EE8CDA81
:1045700030600DEE680A30EE2B0A10EE100A01F0E2
:104580004FFF2DEE090A41EC1B0B0CEE880A10EED2
:10459000100A01F045FF41EC100BB0EE4B1AF0EEA3
:1045A0006B1AFEF765FD53EC1A2B51EC100B01F062
:1045B00077FC01F087F929EEA90A286008EE080ABD
:1045C00008EEE80A09EE490A10EE100A01F028FF89
:1045D00028EE280A41EC1B0B09EE890A20EE0C0A92
:1045E00010EE100A01F01CFF41EC100BB0EE4B1A5C
:1045F000F0EE6B1AFEF73CFD53EC1A2B51EC100B4E
:1046000001F04EFC01F05EF920600EB00020BDEC20
:104610000C8B70BD00000000000080300000000026
:104620006666666666A64C4010B5FCF751FA00F067
:104630008FF800281CBF0A2010BD782000F020FF52
:1046400010F0FF0F1CBF012010BD7820FFF700FF06
:1046500010F0FF0F1CBF022010BD642000F0CEFE42
:1046600010F0FF0F1CBF032010BDFFF7DDF810F0A6
:10467000FF0F1CBF042010BD1448FFF7B5FDFFF766
:10468000A7FA10F0FF0F1CBF052010BD40F27310F9
:10469000FEF722FF10F0FF0F1CBF062010BD6420A4
:1046A000FFF7F6F910F0FF0F1CBF072010BD00F058
:1046B000BFFF00281CBF082010BD012000F0C4FD72
:1046C00010F0FF0018BF092010BD0000DC00002022
:1046D0000D494A7A002A08BF02220DD0012A08BFDC
:1046E000042209D0022A08BF082205D0032A16BFD7
:1046F0004FF0FF30102270470270C97C11B11106D3
:10470000C90D017000207047B00000200F494A7A9F
:10471000002A08BF4FF4804210D0012A08BF41F69A
:104720009C720BD0022A08BF4FF4805206D0032A95
:1047300016BF4FF0FF304FF4006270470280C97C13
:1047400011B1C2F34E01018000207047B00000207B
:1047500070B582B04F4C80208DF8000020686B4609
:104760000122817C60680078FCF736FC00286BD160
:104770006420FEF74BFE00258DF8005020686B4644
:104780000122817C60680078FCF726FC00285BD160
:1047900020686B460622817D60680078FCF7C4FBC8
:1047A000002851D19DF805009DF80310C007400F67
:1047B00001F0010140EA41009DF801104FF00106AF
:1047C00001F00101014309D0012908BFE67416D0A8
:1047D000022913D030A0FBF791FD35E020686B462D
:1047E0000122C17860680078FCF79EFB60BB9DF8F1
:1047F000000010F00F0024D0042829D0E574FF2019
:10480000A07220726072E0724FF6FF71E181207435
:10481000A074267384F8226084F82350657525758A
:10482000C4F81650C4F81A50C4F81E5084F8245026
:1048300084F82550E5844FF4FA6000F041FD18B982
:104840000BE01F48FBF75AFD02B04FF0FF3070BD80
:104850001CA0FBF753FDE674D1E7022000F03EFCFC
:104860000028F1D12A2000F093FD0028ECD132205D
:1048700000F0C4FD0028E7D1FFF7EAFD0028E3D1EE
:1048800000F05EFC0028DFD100F0FAFD02B000204D
:1048900070BD0000B0000020556E737570706F72AF
:1048A00074656420736F6674776172652070726FCF
:1048B00064756374207265762025642E0A000000FA
:1048C000208A000848616C662073656E736974699C
:1048D00076697479207061727420666F756E642ECB
:1048E0000A0000002DE9FF4FDFF83091074691B034
:1048F00099F825009246884600287FD1B8F1000F2C
:104900007CD00024002F66D9381B1028C8BF102087
:1049100085B218EB04061CBF99F80A0000286DD078
:104920004FEA142004F0FF0B8DF800008DF801B061
:104930000BEB050108900F91D9F8040042899142D0
:104940005CD8D9F8001000786B46097E0222FCF78B
:1049500043FB002852D1D9F80000EAB23346417D2A
:10496000D9F804000078FCF737FB002846D10AA8E4
:10497000009099F80A00002840D008988DF810009F
:104980008DF811B0D9F804000F994289914235D8B9
:10499000D9F80010007804AB097E0222FCF71CFB5A
:1049A00050BBD9F80000EAB2009B417DD9F8040061
:1049B0000078FCF7B9FAF8B92A460AA93046FBF79D
:1049C00081FD20B115B06FF00100BDE8F08F6019D6
:1049D00084B2BC4298D34FEA1A208DF838008DF883
:1049E00039A0D9F800000EAB0222817ED9F804006C
:1049F0000078FCF7F1FA00E000E020B115B04FF0CC
:104A0000FF30BDE8F08F012089F825001498A9F83F
:104A1000260015B00020BDE8F08F0000B000002097
:104A2000282884BF4FF0FF3070472DE9F8432D4D03
:104A300004004FF007084FF0000610D0012000F0EE
:104A400075FC202001278DF80000012C1BD0052CBF
:104A500031D88DF80170052000F09AFC18E0002094
:104A600000F064FC8DF800608DF8018028686B46CA
:104A70000222817C68680078FCF7AEFA002808BF43
:104A80002E7514D12AE08DF80160052000F080FC1D
:104A90009DF801006B4648EA80108DF801002868F7
:104AA0000222817C68680078FCF796FA78B14FF0B2
:104AB000FF30BDE8F883142C94BF022003208DF84A
:104AC000010094BF0A20142000F062FCE0E70820F7
:104AD000A8722E732F750020FFF7BAFC0020BDE8E6
:104AE000F8830000B00000202DE9F843254C06466D
:104AF000174694F82400884600281CBFA07A002896
:104B000034D020686B464FF00202817A60680078EA
:104B1000FCF70AFA50BBBDF8000045BAAE4204D912
:104B200000203870401EBDE8F88360684188B5EB0E
:104B3000510F12D9216800786B46497C0122FCF79D
:104B4000F3F998B99DF8000010F0100F05D000F0AF
:104B50001BF86FF00100BDE8F8832068F2B243460D
:104B6000C17A60680078FCF7DFF918B14FF0FF30C8
:104B7000BDE8F883B5FBF6F0401E38700020BDE8B4
:104B8000F8830000B000002038B55A4CA07A002805
:104B900000F0AB8000258DF8005020686B460122A4
:104BA000C17B60680078FCF717FA00287CD1206888
:104BB0006B460122417960680078FCF70DFA002805
:104BC00072D120686B460122017960680078FCF799
:104BD00003FA002868D194F82400002842D00C2061
:104BE0008DF8000020686B4601220179606800782A
:104BF000FCF7F2F9002878D13220FEF707FCC0203C
:104C00008DF80000A07A10F0010F1CBFE0208DF895
:104C1000000020686B460122017960680078FCF78B
:104C2000DBF9002861D1607C00281ABF02208DF8D2
:104C300000008DF8005020686B460122C17B60683F
:104C40000078FCF7C9F900284FD18DF80050206892
:104C50006B460122417960680078FCF7BDF90028B5
:104C600043D145E004208DF8000020686B46012206
:104C7000017960680078FCF7AFF9002835D1A07C95
:104C800098B9A07A10F0010F18BF60200DD000BFB6
:104C90008DF8000020686B46012201796068007879
:104CA000FCF79AF900B902E01FE04020F0E732205B
:104CB000FEF7ACFB607C00281ABF01208DF80000D5
:104CC0008DF8005020686B460122C17B6068007837
:104CD000FCF782F948B9206804F1100301224179F8
:104CE00060680078FCF778F910B14FF0FF3038BDFC
:104CF000002038BDB00000202DE9F04FEE4F814676
:104D00002DED028B97B097F824008B46002808BF42
:104D10004FF0000A04D0002000F096FA4FF0010A8C
:104D2000387A0024002808BFFA260ED0012808BFD0
:104D30004FF4FA7609D0022808BF4FF47A7604D0EF
:104D4000032814BF26464FF4FA66787A002808BF75
:104D500002250BD0012808BF042507D0022808BF70
:104D6000082503D0032808BF102503D1F87C0028AC
:104D700018BF6D00F87A072810D2DFE800F00F04A2
:104D800006080A0C0E00BC2408E0622406E02A246F
:104D900004E0142402E00A2400E0052497F824002B
:104DA000002804BFF8891290C3480027817A119126
:104DB000007C1090002259464846FFF777F80028FB
:104DC0001CBF7F1C022FF5DB022F18BF002718D055
:104DD000012201A913A8FFF769F800281CBF7F1C56
:104DE000022FF5DB022F0CD0B34800270DF11C0871
:104DF00040680DAB042200780D21FCF795F858B3FC
:104E000070E00027AC49FF204FF6FF72087248722D
:104E1000C872CA818872087401200873304600F095
:104E20004FFA284600F05AF9204600F0B1FA1298DD
:104E300000F0E4FA119800F023FB1098FFF708FB4C
:104E4000BAF1000F1CBF012000F0FEF9384617B080
:104E5000BDEC028BBDE8F08F9DF834101C2000EAF9
:104E6000D1029DF83710C1F301131A438DF81820B1
:104E70009DF83520C1F3810300EAD2021A438DF870
:104E800019209DF8362001F0030100EAD200084302
:104E90008DF81A0000209FED891ADFED891A06A906
:104EA0009FED880A0B5C08EB8002002B08BF82EDA7
:104EB000001A13D05B1EC2ED001A13F0FF030B544F
:104EC0000CD000BFD2ED000A60EE800AC2ED000AED
:104ED0000B5C5B1E13F0FF030B54F3D1401CC0B2FC
:104EE0000328DFD3DBF800100198081A44BF0198AB
:104EF000401A00EE100AB8EEC00A9FED738AF7EE72
:104F0000008A724960EE080A9DED070A704ADFF8D0
:104F1000C481B5EEC00AF1EE10FA0AD080EE801A14
:104F200031EE680AB0EEC00A10EE100A404507DD07
:104F300004E010EE900A0844904201D347F00107C4
:104F4000DBF804300298181A44BF0298C01A00EE29
:104F5000100ADDED080AB8EEC00AF5EEC00A20EE30
:104F6000080AF1EE10FA0AD080EE201A31EE680A33
:104F7000B0EEC00A10EE100A404507DD04E010EE66
:104F8000100A0844904201D347F00207DBF80830CA
:104F90000398181A44BF0398C01A00EE100AB8EE1E
:104FA000C00A60EE080A9DED090AB5EEC00AF1EEEE
:104FB00010FA0AD080EE801A31EE680AB0EEC00A0C
:104FC00010EE100A404507DD04E010EE900A084498
:104FD000904201D347F00407374809970DF14C0B75
:104FE0004068002706AB007803220D21FBF79CFFE9
:104FF000002818BF072753D19DF81800DFED360AA7
:1050000000F01F008DF818009DF81900F3EE091A42
:1050100000F01F008DF819009DF81A0006A900F095
:105020001F008DF81A0000205FF0010359F82020BE
:105030005BF820C0B2EB0C0248BF524200EE102ACF
:105040000A5CB8EEC00A20EE081AD2B1521E12F065
:10505000FF02B0EE610A0A5408D000BFD2B220EEBF
:10506000200A521E12F0FF020A54F7D181EE002AE4
:1050700032EE680AB0EEC00A10EE102A42450CDD8E
:1050800008E011EE102AA2F18042A2F19072B2F172
:10509000D97F02D903FA00F21743401C0328C5DB6D
:1050A00017F0FF0F4FF0000708BF012709980028ED
:1050B00008BF47F00207A5E6B0000020000000008E
:1050C0007B14AE3E1D5A843F00008037666666C181
:1050D0009A99D900295C0F3E54E3853F38B5174CA7
:1050E000A17A11B3022808BF00200BD0042808BF02
:1050F000082007D0082808BF102003D0102808BFB8
:10510000182012D18DF80000607A9DF80010B0EBE5
:10511000D10F04BF002038BD20686B460122C17941
:1051200060680078FBF758FF10B14FF0FF3038BDD2
:105130009DF80000C0086072002038BDB00000205B
:1051400038B5404C0546A07CA84204BF002038BDBD
:105150003C48002D6B46D0E900104FF00102097960
:10516000007834D0FBF7E0FE002864D19DF8000001
:105170006B4620F020008DF80000206801220179A4
:1051800060680078FBF728FF002854D10320FEF761
:105190003DF902208DF8000094F8220000281CBF81
:1051A00082208DF8000094F8230028B19DF80000BB
:1051B00040F030008DF8000020686B460122017D30
:1051C00060680078FBF708FF002834D136E0FBF771
:1051D000ABFE80BBA07A10F0010F9DF8000014BF59
:1051E00040F0200020F020008DF8000020686B4681
:1051F0000122017960680078FBF7EEFED8B9032040
:10520000FEF704F994F82200002818BF80208DF8DA
:10521000000094F8230028B19DF8000040F0300011
:105220008DF8000020686B460122017D60680078DF
:10523000FBF7D2FE10B14FF0FF3038BDA57400204F
:1052400038BD0000B000002038B51C4C94F8241084
:10525000814221D0002508B394F82500002804BF1E
:105260004FF0FF3038BD002000F056FA0020FFF765
:1052700067FFE08C00F0C2F88DF8005060686B4664
:10528000012200782321FBF7A7FE012084F82400E7
:1052900000F042FAFFF778FC002038BD002000F053
:1052A0003BFA207C8DF8000060686B460122007894
:1052B0002321FBF791FE84F82450EBE7B000002097
:1052C00038B5194CA17A29B3FA2808BF00200ED0AE
:1052D000B0F5FA7F08BF082009D0B0F57A7F08BF83
:1052E000102004D0B0F5FA6F08BF182012D18DF845
:1052F0000000207A9DF80010B0EBD10F04BF002011
:1053000038BD20686B460122817960680078FBF720
:1053100063FE10B14FF0FF3038BD9DF80000C008AB
:105320002072002038BD0000B000002038B5174CB6
:10533000054694F82300A84204BF002038BD002D84
:1053400014BF302000208DF80000A07C28B19DF80B
:10535000000040F002008DF8000094F8220028B10F
:105360009DF8000040F080008DF8000020686B463A
:105370000122017D60680078FBF72EFE002812BF35
:105380004FF0FF3084F82350002038BDB0000020DB
:1053900038B5194CA17A002925D0BC2828BF012096
:1053A0000FD2622828BF02200BD22A2828BF032050
:1053B00007D2142828BF042003D20A282CBF0520B6
:1053C00006208DF80000E07A9DF80010884204BFA6
:1053D000002038BD20686B46012281786068007823
:1053E000FBF7FAFD10B14FF0FF3038BD9DF800001B
:1053F000E072002038BD0000B0000020F8B51F4D5D
:105400000446A87A58B395F8240040BB287D48B1DB
:1054100064B1282C03D8E0B2FFF702FB2BE0002098
:10542000FFF7FEFA042C05D2042408E00020FFF761
:10543000F7FAF9E7B4F57A7F88BF4FF47A744FF43E
:105440007A76B6FBF4F0401E8DF8000028686B46B3
:105450000122417868680078FBF7BEFD10B14FF07B
:10546000FF30F8BD9DF80000401CB6FBF0F0E8816D
:105470004008FFF78DFF0020F8BD0000B0000020BD
:10548000F8B5044610F0700F4FF0000618BF012069
:105490000ED000BF8DF800002B4D6B46012228680E
:1054A000817C68680078FBF797FD002838D106E01A
:1054B000002C14BF8DF800604020EDD1EAE79DF884
:1054C000000014F0400F20F0400028738DF80060B9
:1054D00004BF04208DF8000014F0200F05D19DF8C2
:1054E000000040F002008DF8000014F0100F05D10C
:1054F0009DF8000040F001008DF8000014F0080F46
:1055000005D19DF8000040F038008DF800002868B3
:105510006B460122C17C68680078FBF75DFD18B11D
:10552000AE724FF0FF30F8BD002C18BF082C03D02E
:105530004FF00000FFF7FAFEAC722E753220FDF737
:1055400065FF0020F8BD0000B0000020002A04BF65
:105550004FF0FF307047F8B5124C0D461646A17A51
:10556000E9B1010A8DF80010C0B28DF801004119AF
:1055700060684289914212D8216800786B46097EA2
:105580000222FBF729FD50B92068EAB23346417D7B
:1055900060680078FBF720FD002808BFF8BD4FF0D9
:1055A000FF30F8BDB000002070B586B06E460A2905
:1055B00088BF0A2102D84A1E002A25DD831EB21E9A
:1055C00011F0010F0AD113F802CF8DF800C0B3F823
:1055D00000C0921C4FEA1C2C8DF801C0B3F90240A8
:1055E000A1F1010C5FEA6C0C0ED000BF33F8045F30
:1055F0009470240AD470B3F9024002F8045F2D0AB3
:105600005570BCF1010CF1D14A1E09D410F81230CA
:1056100006F8123030F8120006EB4202000A507011
:105620004806010E01223046FCF74AFB06B070BD69
:1056300030B587B001A904A8FFF75EFB03281EBFA1
:10564000012007B030BD2F4D287A002808BF9FEDFC
:105650002E0A0DD0012808BF9FED2C0A08D0022881
:1056600008BF9FED2B0A03D0032808BF9FED290A2E
:10567000DDED040A04A8F8EEE00A60EE800AFDEE13
:10568000E00ACDED040ADDED050AF8EEE00A60EE71
:10569000800AFDEEE00ACDED050ADDED060AF8EE22
:1056A000E00A20EE800ABDEEC00A8DED060AFEF784
:1056B00023FA687A002808BF4FF480440ED00128EE
:1056C00008BF41F69C7409D0022808BF4FF48054EB
:1056D00004D0032808BF4FF4006403D1E87C0028FD
:1056E00018BF6408019860430190029860430290DB
:1056F00003986043039001A8FEF75AF907B0002011
:1057000030BD0000B00000200000034300008342D1
:10571000333303423333834138B51C4C00232246D4
:1057200094F824C0D2E90012BCF1000F0ED000287A
:105730000EBF8DF8003002208DF80000C97B107874
:105740006B460122FBF748FCC0B91AE094F80AC086
:10575000BCF1000F12D0002808BF8DF8003006D031
:10576000607C002804BF01208DF800000CD1107867
:10577000C97B6B460122FBF72FFC10B14FF0FF30C5
:1057800038BD9DF800006074002038BDB0000020D6
:1057900000B52DED048B83B041EC190B00F08AFCB1
:1057A00041EC180B18EE100A18EE901A8DED008BD4
:1057B000002818BF0120084320F00040C0F17F609E
:1057C00000F1E040C00F14D019EE101A19EE900A43
:1057D0008DED009B002918BF0121084320F00040F7
:1057E000C0F17F6000F1E040C00F04BF0120FAF774
:1057F00015FF51EC180B03B0BDEC048B00BD00008D
:10580000F0B5054687B001210220FCF7DFF9012140
:105810001020FCF7F3F9234F072206213846FBF747
:1058200042F8072211463846FBF73DF8C0200490A5
:1058300002208DF814008DF8150000248DF8164014
:1058400001268DF8176004A93846FAF7DFFFADF896
:105850000440ADF80640ADF80840ADF80C400C200F
:10586000114CADF80A00009569462046FDF760F836
:1058700001212046FDF734F8012240F2255120464F
:10588000FDF73EF825208DF8180003208DF819004B
:105890008DF81A008DF81B6006A8FBF7CBFB07B04C
:1058A000F0BD0000000402400010014081F0004102
:1058B000704780F00040704721F00041704720F0B1
:1058C0000040704721F00042A2F16052B2F5801F03
:1058D00001F0004328BFD2F17F6C0BD95FEA001CB6
:1058E00043EAC20242EB507018BF704728BF20F055
:1058F00001007047B2F5801FBCBF184670474FEAE1
:10590000410C1CF5001F02D2084600F0FFBD70B527
:1059100000F070FB00000089FFF7F6BF4FF0004079
:10592000A0F580007047000010B591EA030F48BF52
:1059300083F0004300F19284841A71EB030C05D2CA
:10594000121943EB0C03001B61EB0C01DFF824E19F
:105950004FEA1154A4EB135C1EEA430F18BF9EEAF2
:10596000445F73D023EA0E03DCF1200E21EA0451D8
:1059700043F4801332D322FA0CFE10EB0E0023FA0C
:105980000CFE41EB0E01CCF1200E03FA0EFE10EBE3
:105990000E0051F10001B1F5801FCCF1200E32D282
:1059A00001EB045112FA0EF2BDE8104058BF7047E7
:1059B000401C38BF5FEA420218BF7047002814BF7E
:1059C00020F0010041F100014FEA410313F5001FEF
:1059D00038BF7047A1F1C04100F05ABB012A43EB28
:1059E0000302ACF1200CDCF11F0E32BF4FF0000EB1
:1059F00023FA0CF310EB030041EB0451B4EB115FFD
:105A0000D0D0A1EB045101F5801149085FEA3000C4
:105A100001EB04510ED350F1000038BF12FA0EFE14
:105A200008D1BDE81040C9E7401C38BF5FEA420218
:105A3000CAD1C3E7BDE810404FEA410313F5001F88
:105A400038BF7047A1F1C04100F022BB9EEA445F1D
:105A500008D011EA5E0FBDE8104004BF01F000411C
:105A600000207047BDE8104070B500F0C3FA00BFD9
:105A700064FBBE3E0000E0FF491058BFC1F1404149
:105A80005B1058BFC3F140438B42EFF30080704777
:105A90002DE9C04130B4DFF8A0C23CEA111418BFB0
:105AA0003CEA131400F0EC8081EA03051CEA1114AF
:105AB00044EAD57418BF1CEA131500F0C780A4EBA4
:105AC00005044FF0004545EAC12145EAC32341EAF8
:105AD000505143EA525304F17F74994204F5003463
