:020000040800F2
:10000000F80E002031020008BF0F0008070A0008A0
:10001000BD0F00083D0900081D1A0008000000007F
:10002000000000000000000000000000991500081A
:100030003F09000800000000B111000895160008F3
:100040004B0200084B0200084B0200084B0200085C
:100050004B0200084B0200084B0200084B0200084C
:100060004B0200084B0200084B0200084B0200083C
:100070004B0200084B0200084B0200084B0200082C
:100080004B0200084B0200084B0200084B0200081C
:100090004B0200084B0200084B0200084B0200080C
:1000A0004B0200084B0200084B0200084B020008FC
:1000B0004B0200084B020008F51600084B0200082E
:1000C0004B0200084B0200084B0200084B020008DC
:1000D0004B020008E91800084B0200084B02000818
:1000E0004B0200084B0200084B0200084B020008BC
:1000F0004B0200084B0200084B0200084B020008AC
:100100004B0200084B0200084B0200084B0200089B
:100110004B0200084B0200084B0200084B0200088B
:100120004B0200084B0200084B0200084B0200087B
:100130004B0200084B0200084B0200084B0200086B
:100140004B0200084B0200084B0200084B0200085B
:100150004B0200084B0200084B0200084B0200084B
:100160004B0200084B0200084B0200084B0200083B
:100170004B0200084B0200084B0200084B0200082B
:100180004B0200084B02000800F002F800F041F8B2
:100190000AA090E8000C82448344AAF10107DA45E2
:1001A00001D100F036F8AFF2090EBAE80F0013F0F3
:1001B000010F18BFFB1A43F001031847CC6200007F
:1001C000EC620000103A24BF78C878C1FAD8520710
:1001D00024BF30C830C144BF04680C6070470000C1
:1001E0000023002400250026103A28BF78C1FBD840
:1001F000520728BF30C148BF0B607047642900F028
:100200006980002070471FB505F05FFA1FBD10B56B
:1002100010BD00F065FB1146FFF7F5FF03F066FA2D
:1002200000F083FB03B4FFF7F2FF03BC02F057FAC0
:100230000948804709480047FEE7FEE7FEE7FEE77A
:10024000FEE7FEE7FEE7FEE7FEE7FEE704480549B6
:10025000054A064B704700009916000889010008FE
:10026000F8080020F80E0020F80A0020F80A002004
:10027000704710B54C1084EA530404D54042C1F1D4
:10028000000138BF491E1B4204D55242C3F100038E
:1002900038BF5B1E00F097F914F0804F04D0404245
:1002A000C1F1000138BF491E14F0004F04D0524282
:1002B000C3F1000338BF5B1E10BD00000FB404493A
:1002C00010B503AA029800F059FA10BC5DF814FBAF
:1002D000A80000202DE9F041064600241068752989
:1002E000314616A510D0AFF30080002802DA404254
:1002F00013A507E031688A0701D512A502E0490776
:1003000004D511A5012401E0AFF3008000210A22E9
:1003100006F1240709E0B0FBF2FCB0FBF2F302FBAC
:100320001C00303078541846491C0028F3D123466D
:100330002A463046BDE8F04100F0C7B90000000091
:100340002D0000002B000000200000002DE9F05FD0
:10035000894604464FF0000ADFF824B1FB44C0F898
:1003600020A02046E168884700287DD0252806D0B7
:10037000D4E901219047206A401C2062F1E7002562
:100380005F462046E16888472028064607DB312E75
:1003900005D2B81910F8200C08B10543F1E7A807F9
:1003A00001D525F00405C4F81CA00027C4F818A046
:1003B0002A2E09D0304602F08BF938B304EB8708B7
:1003C000303EC8F8186019E059F8041B204604EBC9
:1003D00087029161E1688847012F064618D1E069DC
:1003E000002820DA25F020051DE0D8F8180000EBE1
:1003F000800006EB40003038C8F818002046E1685D
:100400008847064602F064F90028EED1012F0AD091
:100410002E2E08D12046E16888477F1C0646022F11
:1004200045F02005C4DBA069002803DA404245F00E
:100430000105A061E80701D025F01005A6B1A6F1DD
:100440004100192802D8203645F400654A46314655
:10045000204625604D46FFF7D1FE60B1012807D048
:10046000ED1D25F0070000E007E000F1080978E73E
:1004700005F1040975E730467AE7206ABDE8F09F88
:10048000D65F000040EA010310B59B070FD1042A94
:100490000DD310C808C9121F9C42F8D020BA19BA4F
:1004A000884201D9012010BD4FF0FF3010BD1AB1B4
:1004B000D30703D0521C07E0002010BD10F8013B09
:1004C00011F8014B1B1B07D110F8013B11F8014B30
:1004D0001B1B01D1921EF1D1184610BD40EA010349
:1004E000024630B59B0710D14FF0013400E008C23E
:1004F00008C91D1B9D4315EAC41FF8D013F0FF0166
:1005000002F8011B0DD01B0AF8E711F8013B002B84
:1005100002F8013B05D011F8013B002B02F8013B2A
:10052000F3D130BD032A40F2308010F0030C00F00C
:10053000158011F8013BBCF1020F624498BF11F81D
:1005400001CB00F8013B38BF11F8013BA2F10402D6
:1005500098BF00F801CB38BF00F8013B11F003034E
:1005600000F01E81083AC0F0088051F8043B083AB8
:1005700051F804CBA0E80810F5E7121D5CBF51F854
:10058000043B40F8043BAFF30080D20724BF11F8CE
:10059000013B11F801CB48BF11F8012B24BF00F833
:1005A000013B00F801CB48BF00F8012B704702F077
:1005B000FF0343EA032242EA024200F025B97047F2
:1005C00070477047704753EA020C00F069802DE9CC
:1005D000F04B4FF00006002B1FBFB3FA83F503FA70
:1005E00005F424FA05F65E4012BF1643B2FA82F50E
:1005F00002FA05F4C5F120051EBF22FA05FC44EA03
:100600000C04203556EA044C4FEA144418BF641C0D
:100610004FF000084FF00009904271EB030C39D302
:10062000002919BFB1FA81F701FA07F6B0FA80F78D
:1006300000FA07F6C7F120071EBF20FA07FC46EABA
:100640000C062037B6FBF4FCA7EB0507103F07F0BC
:100650001F0BCBF120060CFA0BFB2CFA06F644BF5D
:10066000B3460026202FA4BF5E464FF0000B5BEA86
:10067000060C08BF4FF0010B19EB0B09ABFB027C1A
:1006800048EB0608C01B06FB02CC0BFB03CC71EB4E
:100690000C01C1E70B46024641464846BDE8F08BD7
:1006A00013B54FF000004FF00001AFF30080BDE83C
:1006B0001C40704710B500F0C7F8006810BD10B5B9
:1006C000044600F0C1F8046010BD2DE9F0470D4666
:1006D00099469246044600F124080168880604D52C
:1006E000E06921F01001216000E00120A84201DD55
:1006F000471B00E00027A1697A1902EB0900081ADC
:10070000A0612078C00602D42046AFF30080002606
:1007100008E0D4E901211AF806009047206A401C3D
:10072000761C20624E45F4DB2078C0060AD52046B0
:10073000AFF3008006E0D4E9012130209047206A21
:10074000401C2062381EA7F10107F4DC07E0D4E961
:10075000012118F805009047206A401C2062281EDD
:10076000A5F10105F3DC2046AFF3008020780006F8
:1007700002D50220BDE8F0870120FBE7074B70B5EA
:100780000D467B4400F069F80446284600F078F8EE
:1007900010B14FF0FF3070BD204670BD4B2A0000F5
:1007A00010B5203AC0F00B80B1E81850203AA0E80C
:1007B0001850B1E81850A0E81850BFF4F5AF5FEA40
:1007C000027C24BFB1E81850A0E8185044BF18C9F3
:1007D00018C0BDE810405FEA827C24BF51F8043B9A
:1007E00040F8043B08BF7047D20728BF31F8023BEE
:1007F00048BF11F8012B28BF20F8023B48BF00F882
:10080000012B70474FF000020429C0F0128010F055
:10081000030C00F03B80CCF1040CBCF1020F18BFBC
:1008200000F8012BA8BF20F8022BA1EB0C0100F06F
:100830002DB85FEAC17C24BF00F8012B00F8012B22
:1008400048BF00F8012B7047004870479808002007
:1008500001694A1C02610878704700B58FB0CDE984
:1008600001310021059105497944CDE90310114674
:100870006846FFF76BFD0FB000BD0000E5FFFFFF0E
:10088000007B00F0800070474FF0000200B5134677
:1008900094469646203922BFA0E80C50A0E80C50A0
:1008A000B1F12001BFF4F7AF090728BFA0E80C5051
:1008B00048BF0CC05DF804EB890028BF40F8042B4A
:1008C00008BF704748BF20F8022B11F0804F18BFB7
:1008D00000F8012B7047000000487047980800207E
:1008E0007546FFF7F9FFAE4605006946534620F00E
:1008F0000700854618B020B5FFF7A8FCBDE82040EA
:100900004FF000064FF000074FF000084FF0000BCB
:1009100021F00701AC46ACE8C009ACE8C009ACE87E
:10092000C009ACE8C0098D46704710B50446AFF366
:1009300000802046BDE81040FFF774BCFEE770471A
:10094000F0B50023012403270D6804FA03F21540D3
:10095000954242D1D0F800C05E0007FA06F52CEAB5
:10096000050CC0F800C091F804C0D0F800E00CFA03
:1009700006FC4CEA0E0CC0F800C091F804C0BCF1B3
:10098000010F02D0BCF1020F1FD1D0F808C02CEA31
:10099000050CC0F808C091F805C0D0F808E00CFAC2
:1009A00006FC4CEA0E0CC0F808C0D0F804C02CEAD3
:1009B000020CC0F804C0426891F806C00CFA03FCAF
:1009C0001FFA8CFC42EA0C024260C268AA43C26071
:1009D000CA79C568B2402A43C2605B1C102BB3D3EE
:1009E000F0BD4B07DB0E9A40C90810B500EB810043
:1009F000016A0F249C40A1430162016A1143016214
:100A000010BD01837047FEE7D0ED071AD0ED000A54
:100A100021EEA01A80ED011AD0ED090A90ED052A09
:100A200041EE820AC0ED030AD0ED0A1A30EEA12A87
:100A3000C0EE821A30EE412AB0EE410AB7EE001A3B
:100A4000C0ED061A31EE611A01EE820A61EE200A4B
:100A500080ED020AC0ED040AC0ED050A80ED000A2F
:100A6000704700007CB50121042000F0F7FB012055
:100A70008DF8040000218DF8061003218DF8051073
:100A8000074D4FF400548DF807000094694628463E
:100A9000FFF756FF21462846FFF7B3FF7CBD000055
:100AA000000802407CB514460D4606466B460622F9
:100AB0003B21682000F0CCF900280BD1BDF80010D4
:100AC00049BA3180BDF8021049BA2980BDF8041036
:100AD00049BA21807CBD7CB514460D4606466B465E
:100AE00006224321682000F0B3F900280BD1BDF89D
:100AF000001049BA3180BDF8021049BA2980BDF80A
:100B0000041049BA21807CBD70B50D4C0025C4F895
:100B1000A0520C48016821F440210160016841F4B1
:100B200080210160C4F8A452022004F5287401F069
:100B300057FE01202060022001F052FE256070BDAA
:100B400000804042000402407CB50121022000F0F8
:100B500085FB01208DF8040000218DF8061002218C
:100B60008DF80510074D4FF440748DF80700009480
:100B700069462846FFF7E4FE21462846FFF741FF75
:100B80007CBD00000004024070B50D4C0025C4F887
:100B9000A0520C48016821F440210160016841F431
:100BA000802101600126C4F8A462022004F52874A3
:100BB00001F016FE2660022001F012FE256070BDD5
:100BC00000804042000402402DE9F047814616486B
:100BD0000024016821F44021016001680160134E86
:100BE000254627464FF00108C6F8A072022001F002
:100BF000F7FDC6F8A0826006040ED6F8240208B1FC
:100C0000641CE4B2022001F0EBFD6D1CEDB2082D76
:100C1000EAD3B9F1000F04D0FFF776FF2046BDE814
:100C2000F087FFF7B1FFF9E700040240008040427F
:100C30002DE9F04106461448016821F44021016085
:100C4000016841F480210160104C0027C4F8A072B3
:100C50003D464FF00108F009C4F8A4027006060EE4
:100C6000022001F0BDFDC4F8A082022001F0B8FD11
:100C7000C4F8A072022001F0B3FD6D1CEDB2082D86
:100C8000E9D3BDE8F081000000040240008040424A
:100C900070B50D48016821F440210160016841F4FC
:100CA00080210160094C0120C4F8A402C4F8A0020C
:100CB000022004F5287401F093FD002565600220F0
:100CC00001F08EFD256070BD0004024000804042AE
:100CD0000E4810B5016821F440210160016841F41B
:100CE000802101600A4C0020C4F8A002C4F8A402CC
:100CF000022004F5287401F073FD0120206060607B
:100D0000BDE81040022001F06BBD0000000402406D
:100D10000080404270B512480024016821F440214F
:100D20000160016801600F4D0126C5F8A462022030
:100D300001F056FDC5F8A062022001F051FD07E068
:100D4000641CE4B2FA2C03D9FFF7C2FF012070BD86
:100D5000D5F824020028F3D1C5F8A00270BD000028
:100D600000040240008040421CB50121084600F00A
:100D700081FA4FF40040009001208DF80400002417
:100D80008DF8064002208DF8050069461F48FFF7E0
:100D9000D7FD1F48C0F8BC42FFF7D6FE80216B206C
:100DA00000F0C5F8642001F001FD00216B2000F087
:100DB000BEF8032000F087F8002000F07FF8322012
:100DC00000F09EF80021382000F0B1F800216A20E0
:100DD00000F0ADF80021232000F0A9F88021372091
:100DE00000F0A5F8752000F015F8682801D0012062
:100DF0001CBD01216B2000F09AF800216C2000F04E
:100E000096F8322000F07CF800201CBD0000024063
:100E10000000404210B50446FFF73AFFD020FFF72C
:100E200007FFFFF777FF2046FFF702FFFFF772FF8C
:100E3000FFF72EFFD120FFF7FBFEFFF76BFF00202F
:100E4000FFF7C2FE0446FFF743FF204610BD000037
:100E50002DE9F0411D4614460F460646FFF718FFE0
:100E60007006000EFFF7E4FEFFF754FF20B1FFF716
:100E70002FFF0120BDE8F0813846FFF7D9FEFFF7CC
:100E800049FFFFF705FF012000EB4600C0B2FFF766
:100E9000CFFEFFF73FFF09E0012C0DD05FF001000E
:100EA000FFF792FE641E05F8010BE4B2002CF3D1AB
:100EB000FFF70EFF0020DDE70020F1E7C006010E7E
:100EC0001C2000F034B8C006010E1B2000F02FB823
:100ED000BC2801D3012110E0622801D302210CE0DB
:100EE0002A2801D3032108E0142801D3042104E0B7
:100EF0000A2801D3052100E006211A2000F017B8C6
:100F000010B504464FF47A70844201D9044602E0D9
:100F1000042C00D20424B0FBF4F0401EC1B219200E
:100F200000F005F86008BDE81040FFF7D1BF70B5CC
:100F30000C460546FFF7ACFED020FFF779FEFFF721
:100F4000E9FE50B92846FFF773FEFFF7E3FE20469F
:100F5000FFF76EFEFFF7DEFE18B1FFF7B9FE0120C6
:100F600070BDFFF7B5FE002070BD2DE9F0411E46B3
:100F700015460F460446FFF78BFE6006000EFFF78E
:100F800057FEFFF7C7FE60B93846FFF751FEFFF77F
:100F9000C1FE00240CE0305DFFF74AFEFFF7BAFE09
:100FA00020B1FFF795FE0120BDE8F081641CE4B29A
:100FB000AC42F0D3FFF78CFE0020F5E7FEE7704768
:100FC00030B50F22C47801780123FCB1144C246899
:100FD00001F1E02104F4E064C4F5E064C4F3072403
:100FE000C4F10405E2404478AC40857815402543BF
:100FF0002A0181F80024007800F01F018B4040098D
:10100000800000F1E020C0F8003130BD01F01F0089
:1010100083404809800000F1E020C0F8803130BDF5
:101020000CED00E0024908430249086070470000E7
:101030000000FA050CED00E070B50D462DED108BAB
:101040000446B0EE47BAF0EE67BAB0EE46CAF0EE2C
:1010500066CAB0EE45DAF0EE65DAB0EE449AF0EE2C
:10106000649AB0EE43AAF0EE63AAB0EE428AF0EEC4
:10107000628AB0EE41FAF0EE61FA9DED16EB51ECAA
:10108000100B03F041FD206051EC1F0B03F03CFD01
:10109000606051EC180B03F037FD9FED3F8BA060B3
:1010A00053EC182B51EC1A0B03F06CFF08D351ECE6
:1010B0001A0B9FED3B0B53EC102B04F09DF804D85A
:1010C0009FED390A84ED030A04E051EC1A0B03F09A
:1010D0001BFDE06053EC182B51EC190B03F052FF91
:1010E00004D29FED320A84ED040A04E051EC190B9E
:1010F00003F00AFD206153EC182B51EC1B0B03F09D
:1011000041FF04D29FED290A84ED080A04E051EC66
:101110001B0B03F0F9FC206253EC182B51EC1E0B57
:1011200003F030FF04D294ED040A84ED070A04E0D2
:1011300051EC1E0B03F0E8FCE06153EC182B51EC72
:101140001D0B03F01FFF04D29FED170A84ED050A63
:1011500004E051EC1D0B03F0D7FC606153EC182B3D
:1011600051EC1C0B03F00EFF08D294ED080AF0EED0
:10117000000A20EE200A84ED060A04E051EC1C0B64
:1011800003F0C2FCA06184F824509DED140B84EDA3
:101190000E0BBDEC108B70BD0000000000000000C5
:1011A000000000000000F03F0000000000FCFF46CF
:1011B0007047000030EE200A19491A4B70EE410AC0
:1011C00091ED060AB7EE001A31EE401A61EE200AE0
:1011D00091ED031A40EE010A91ED010A30EE200A6A
:1011E00010EE102A81ED010A9A4202DD9FED0E0AEF
:1011F00006E010EE102A0D4B9A4201D99FED0C0A21
:1012000081ED010A90ED001A61EE200A90ED011ABD
:1012100041EE000AC1ED000AC0ED0A0A7047000065
:101220005000002000401C4600401C4600401CC6E8
:1012300000401CC630EEC00AD0ED001A0649D0EDC1
:10124000020A21EE800AD1ED001A31EE611A00EE99
:10125000810A80ED0A0A704704000020044A002930
:10126000116801D0014300E0814311607047000024
:1012700030380240044A0029116801D0014300E0DF
:1012800081431160704700004438024070B5204A25
:101290001168204C11F00C0104D06610042903D011
:1012A000082903D004601BE0066019E01849091FF3
:1012B0000B68C3F380550B6803F03F0315B1B6FB11
:1012C000F3F301E0B4FBF3F30C680968C4F388148A
:1012D0006343C1F30141491C4900B3FBF1F10160D3
:1012E00011680F2303EA11110B4B5C5C0168E140AC
:1012F00041601468072505EA94241C5D21FA04F472
:101300008460126805EA52329A5CD140C16070BDB7
:10131000083802400024F400AC00002000214FF403
:10132000704318B101280AD000207047084A10689D
:10133000984202DBA0F57F40FF3811607047054AF4
:10134000506A984202DBA0F57F40FF385162704737
:1013500024040040000001402DE9F04107460B48FD
:1013600015460E46007808B900F05AFBEFF31184D9
:10137000202080F311882A463146384600F008F8CC
:10138000E1B281F31188BDE8F0810000E0030020A4
:1013900070B50E46144900EB400001EBC005144641
:1013A000E86A183520B101280FD0022805D113E0D2
:1013B000284600F069FBA04201D2002411E0224639
:1013C0003146284600F086FC0BE0284600F05CFB26
:1013D000A042F4D20446F2E73146284600F04DFC24
:1013E0000446204670BD0000E00300200FB408B59D
:1013F00004A900916A46039900F003F801B05DF872
:1014000014FB2DE9F04198B0064607A80290402051
:101410000025CDE90305CDE9055690460C4614F8A4
:10142000011B002973D0252908D002A800F006FC72
:1014300005980028F3DA18B0BDE8F08100200121FA
:101440002278232A1ED02B2A19D02D2A02D0302A06
:1014500008D102E040F0010001E040F00200641C0D
:101460000029EDD100222178A1F130030A2B0CD202
:1014700002EB820201EB4202303A641CF3E740F0D7
:101480000400ECE740F00800E9E70023CFB22E2F7C
:101490000BD114F8011FA1F130070A2F05D203EB7D
:1014A000830301EB4303303BF3E76C290DD068293C
:1014B0000BD0702954D00BDC252916D0582931D0F7
:1014C00063290CD0642913D114E014F8011FECE750
:1014D000732934D075291BD0782909D122E0D8F896
:1014E0000000011DC8F80010017802A800F0A6FB5A
:1014F000641C9DE7D8F800100F1DC8F8007009683B
:10150000CDE900200A2202A800F0CAFAF0E733E091
:10151000D8F800100F1DC8F800700968CDE9002048
:101520000A2208E0D8F800100F1DC8F800700968FA
:10153000CDE90020102202A800F016FBD8E7D8F869
:101540000000011DC8F80010076817F8011B0029EA
:10155000CED002A800F072FB05980028F5DAC7E7A4
:10156000D8F80000011DC8F8001001680820CDE976
:10157000000503461022DEE7059800287FF75BAFE1
:10158000049820B1024607A93046FFF7E5FEDDE9E1
:101590000410084405904EE7704700002DE9F04123
:1015A0000026184C01270D464FF08048002808DB24
:1015B000C4F89462C4F89072C8F8400001464046EE
:1015C00007E0C4F89472C4F8906241424046C8F8FB
:1015D000401000F07EF9002D08DBC4F88872C4F8D2
:1015E00084624046C8F83450294607E0C4F888624F
:1015F000C4F8847269424046C8F83410BDE8F0412E
:1016000000F065B9000040421848016841F080517F
:1016100001601748016841F44041016013483838BF
:101620000168016001680160016841F48051016056
:10163000021F10491160111F0A6842F080720A608F
:101640000A689201FCD50C4A40F2027111600168EF
:1016500021F003010160016841F0020101600168AD
:10166000C1F381010229FAD17047000040380240DD
:101670000070004010640107003C02404FF0E02180
:101680000428086903D020F004000861704740F086
:101690000400FAE770470000124810B5016841F4F1
:1016A000700101601048016841F0010101600E4ABB
:1016B00000210832116002680C4B1A400260031DC1
:1016C0000B4A1A60026822F48022026006480C303D
:1016D0000160FFF799FF03494FF00060803908600F
:1016E00010BD000088ED00E000380240FFFFF6FE6C
:1016F000103000242DE9F041534D0121284600F01F
:10170000DAF801287ED10020FFF708FE4F4E306046
:101710000120FFF703FE4E4F4E4A4F4938604F48B5
:1017200002F0F2F94E4A4F494F48FFF7D4F94F4AB9
:101730004F495048FFF7B6F9484890ED000A4E4827
:10174000FFF762F94D4C84ED000ADFED4D0A4D487C
:10175000F0EE001A20EE200ABDEEC00A80ED000A6D
:1017600097ED000A4848F8EEC00A96ED000A90EDA1
:10177000001A4648B8EEC00AFFF71CFD444B454A24
:1017800093EDE20AD2ED000A30EE200A9FED422AE4
:10179000344EF0EE421AB6F9000000EE900A03F55E
:1017A000EC70B8EEE01AD4ED000AFFF743FD93EDBC
:1017B000E20AD2ED000AB6F90000F0EE421A30EE6D
:1017C000200A00EE900A3248B8EEE01AD4ED000A82
:1017D000B830FFF72FFD93ED800A304883ED8E0A75
:1017E00093ED380A83ED460A02681D48B0F90010EF
:1017F0002B4800F071F82B4900EE100A0860D3ED79
:101800008E0A00E01DE0B8EEC01A2749B8EEC00A03
:10181000264A70EEC10AFDEEE00A10EE900A08605A
:10182000D3ED460A30EE800ABDEEC00A10EE101A63
:101830001160FFF7B3FE2846BDE8F041012100F03A
:1018400037B8BDE8F08100000008004034000020F7
:101850003800002028000020240000202000002064
:101860001400002012000020100000200E000020B4
:101870000C0000200A000020B00300202C000020F3
:101880000000C84240000020180000202004002072
:10189000C000002000000020000000001C0000200C
:1018A000F00300203C000020480000204C000020F5
:1018B000C9430182704702460020138A92890B4275
:1018C00002EA010202D0002A00D0012070474163E1
:1018D0007047016470470000881A0249096848434C
:1018E000704700003000002010B50B4800F092F85F
:1018F0000A49312808600A4908D0322808D033281C
:1019000008D0342801D10420087010BD0120FBE765
:101910000220F9E70320F7E700100140440000200F
:10192000080000200029818902D041F4005101E023
:1019300021F400518181704710B5C1F3421301F0C9
:101940001F040121A140012B07D0022B07D0143026
:10195000002A026805D00A4304E00C30F8E7103092
:10196000F6E78A43026010BD7FB50446008A0D4643
:1019700020F44051E88808432082A08941F20C619C
:101980008843A9882A8911436A8902431143A181A6
:10199000A08A20F44071A8890843A0826846FFF716
:1019A00075FC1A48844202D01948844201D1039838
:1019B00000E00298A189090400EBC00101EB0010CE
:1019C000296801D5490000E08900B0FBF1F26420EC
:1019D000B2FBF0F109010B096FF018056B4302EB44
:1019E0008302A3891D044FF0320306D503EBC20224
:1019F000B2FBF0F000F0070005E003EB0212B2FBCF
:101A0000F0F000F00F00084320817FBD001001407E
:101A1000001401408088C0F308007047FEE7000012
:101A200010B5124C03202061606111A0A06104F187
:101A3000A800E0614FF4806020620020A062606234
:101A40000BA12166E06204F59561616610212067B3
:101A5000C4E91A10606709A1E01DFEF73FFD08A167
:101A60002046FEF73BFD2020A07110BDE0030020C2
:101A70005465726D696E616C000000005254540030
:101A800053454747455200000269C1688A4203D85E
:101A90008068401A104400E0501A401E7047000051
:101AA0002DE9FC5F0E008146DDE90C47C6F1000020
:101AB00098469346824600D40846012503E000BFBD
:101AC00090FBFBF06D1C5845FADAA84500D9454655
:101AD00024B1002E01DB780700D5641EB80702D5BB
:101AE000B8F1000F0FD0F8070DD164B1A5420AD2AA
:101AF00020214846641E00F0A1F8D9F80C00002807
:101B0000F3DABDE8FC9FD9F80C000028F9DB002EC1
:101B100002DA56462D2102E0780707D52B214846E8
:101B200000F08CF8D9F80C000028EADB07F003007D
:101B300002280FD1B8F1000F0CD15CB1A54209D237
:101B400030214846641E00F079F8D9F80C000028CE
:101B5000F3DAD6E7CDE9004743465A4631464846D0
:101B600000F002F8CDE700002DE9F84F8246DDE9EC
:101B70000A4B0126984691460D460846374602E034
:101B8000B0FBF9F07F1C4845FAD2B84500D947466A
:101B90005FEACB7017D1B4B15FEA8B7002D5B8F1B0
:101BA000000F02D0202000900BE03020FBE75046D1
:101BB000641E009900F042F8DAF80C00002838DBC7
:101BC0000CB1A742F3D3DAF80C00002831DB00BFD8
:101BD000B8F1010F02D9A8F1010803E0B5FBF6F056
:101BE000484502D306FB09F6F2E7DFF84C8000BF58
:101BF000B5FBF6F000FB165518F80010504600F043
:101C00001DF8DAF80C00002803DBB6FBF9F6002E0D
:101C1000EED15FEACB700CD0002C0AD0A74208D2DC
:101C200020215046641E00F009F8DAF80C00002864
:101C3000F2DABDE8F88F00002663000810B504460C
:101C4000D4E90130421C934205D323681954A260A1
:101C5000E068401CE060D4E90102824209D12168B9
:101C60002069FFF779FBA168884203D04FF0FF306D
:101C7000E06010BD0020A06010BD2DE9F047C468F1
:101C80001746894606464FF000083069A04201D940
:101C9000051B02E0B168201A0D1AB0686D1E001B0A
:101CA000A84200D80546BD4200D33D4670682A468A
:101CB00020444946FEF736FCB0687F1B2C44A844FC
:101CC000A944A04200D10024F460002FDDD1404699
:101CD000BDE8F0872DE9F04104468846D4E90207C3
:101CE000C51BE168606816460844B54206D94146FE
:101CF000FEF718FCB819E060BDE8F0812A464146BD
:101D0000FEF710FC761B08EB050132466068FEF713
:101D100009FCE660F0E703B401984100009850EA3E
:101D2000C12018BF04204A0D18BF40F0010040F246
:101D3000FF72B2EB515F08BF40F00200012808BFFC
:101D4000052002B07047000070B5C1482DED020BB0
:101D50002DED0E8B82B0119D25F000449FEDBEDB72
:101D60009FEDBFEB84423EDBA4F140511098A1F1FE
:101D70007F6108430FD0BC48844202DC28D1109810
:101D800030B39DED100B02B0BDEC0E8B02B0BDE880
:101D9000704000F069BC9DED100B53EC1D2B51EC15
:101DA000100B03F02BF99DED100B41EC180B53ECCD
:101DB0001E2B51EC100B03F021F953EC182B02F001
:101DC000D5FE41EC100B02B0BDEC0E8B02B070BD25
:101DD0000120FEF774FC02B0BDEC0E8B02B0BDE832
:101DE000704000F055BCA1489FEDA18B844256DAAB
:101DF0009DED100BB4F1795F0ADA51EC100BFFF78F
:101E00008AFF042808BF00F053FC9DED100BDAE7B1
:101E100053EC102B51EC100B03F0F0F841EC190BC4
:101E200095480621B0EE490AF0EE690A784400F0C0
:101E30009FFB53EC192B51EC100B03F0DFF841EC36
:101E40001A0B8E48B0EE490AF0EE690A0421784474
:101E500000F08EFB53EC192B51EC100B03F0CEF875
:101E600053EC182B02F082FE41EC100B51EC1A0BD4
:101E700053EC102B02F02EFFCDE900019DED000B7D
:101E800053EC102B9DED100B51EC100B03F0B6F83A
:101E90009DED101B53EC112B02F068FED2E09DED7E
:101EA000100B51EC100B01F087F953EC182B03F0D9
:101EB000D9F99FED730BCDE9000153EC102B9DED8B
:101EC000000B51EC100B03F099F841EC190B6E4824
:101ED0000621B0EE490AF0EE690A784400F048FBAA
:101EE00053EC192B51EC100B03F088F841EC1B0B51
:101EF0006648B0EE490AF0EE690A0421784400F021
:101F000037FB53EC192B51EC100B03F077F853EC23
:101F1000182B02F02BFE41EC1C0B51EC190B02F0BC
:101F200059FD41EC180B5A489FED5BABA04222DCF7
:101F300053EC1C2B51EC1B0B02F0CCFECDE9000145
:101F40009DED000B51EC180B53EC102B03F056F8E1
:101F500053EC182B02F00AFE53EC1A2B03F04EF848
:101F600053EC1D2B03F056FA53EC1E2B03F07AF9B9
:101F700041EC100B5FE08DED008B002000909DED9B
:101F8000000B51EC180B53EC102B02F0EFFD9DED04
:101F9000000B41EC1E0B53EC102B51EC100B03F01B
:101FA0002DF853EC192B03F05DF953EC1E2B02F0C6
:101FB00091FE41EC190B53EC1C2B51EC1B0B02F066
:101FC00089FE41EC1B0B53EC1A2B51EC190B03F05F
:101FD00015F853EC1D2B03F045F941EC190B53ECAC
:101FE0001A2B51EC180B03F009F853EC1B2B03F0E0
:101FF00005F853EC192B03F00DFA9DED000B41ECA5
:10200000180B53EC1A2B51EC100B02F0F7FF9FED5D
:10201000249B53EC192B03F025F941EC100B51ECE8
:10202000180B53EC102B03F0F5F953EC192B03F0BC
:1020300019F941EC100B002D3FF7C5AE51EC100B18
:1020400002F056FD41EC100BBDE600000000000060
:102050000000F03F00000000075C143326A6913C0E
:10206000182D4454FB21F93F0000F07F0000E03FB1
:10207000000000000000F03F184500002645000069
:10208000000000000000E03F6A44000078440000C7
:102090003333EF3F0000000000000000000000406C
:1020A000182D4454FB21E93F70B59B482DED020BE0
:1020B0002DED068B079D25F00044A04218DC9748C3
:1020C000844202DC0AD1069840B19DED060BBDECBE
:1020D000068B02B0BDE8704000F0C6BA002DCCBF40
:1020E0009FED8F0B9FED900BBDEC068B02B070BD8A
:1020F0008F48A04215DD8F48A042D8BF4FF0FF3473
:1021000058DD9DED060B51EC100BFFF704FE042883
:1021100008BF00F0CDFA9DED060BBDEC068B02B0BA
:1021200070BD9DED060B51EC100B01F045F8CDE9AB
:10213000060181489FED828BA0423CDD8248A0428F
:102140001FDD00249FED82AB9DED060B53EC1A2B97
:1021500051EC100B02F00AFD9DED060B41EC190B42
:1021600053EC1A2B51EC100B02F048FF53EC182BD8
:1021700003F050F953EC192B02F0ACFDCDE9060148
:1021800049E09DED060B012453EC182B51EC100B8C
:1021900002F0ECFC9DED060B41EC190B53EC182BF7
:1021A00051EC100B03F036F953EC192B02F092FDB1
:1021B000CDE906012FE06848A0421FDD02249FED13
:1021C000689B9DED060B53EC192B51EC100B02F0A4
:1021D00015FF53EC182B02F0C9FC9DED060B41ECEA
:1021E000180B53EC192B51EC100B03F013F953ECB3
:1021F000182B02F06FFDCDE906010CE09DED060BFA
:10220000032453EC102B9FED580B51EC100B02F0F4
:1022100061FDCDE906019DED060B53EC102B51EC51
:10222000100B02F0EBFE41EC180B53EC182B02F0F4
:10223000E5FE41EC190B4E480621B0EE490AF0EEDE
:10224000690A784400F094F953EC182B51EC100B08
:1022500002F0D4FE41EC180B4648B0EE490AF0EE0D
:10226000690A0521784400F083F953EC192B51ECED
:10227000100B02F0C3FE41EC100B51EC180B53ECA9
:10228000102B002C0EDA02F071FC9DED061B53ECB6
:10229000112B02F0B3FE9DED061B53EC112B02F047
:1022A000E1FF35E002F062FC9DED061B53EC112BC3
:1022B00002F0A4FE41EC100B2F48784400EBC40060
:1022C00090ED001B51EC100B53EC112B03F0A2F816
:1022D0009DED061B53EC112B03F09CF841EC100B09
:1022E0002648784400EBC40090ED001B51EC100B25
:1022F00053EC112B02F0B6FF41EC100B002DA2BFE6
:10230000BDEC068B02B070BD51EC100B02F0F0FB7F
:1023100041EC100B01E70000000010440000F07FCA
:10232000182D4454FB21F93F182D4454FB21F9BFCB
:102330000000DC3F0000203E0000F33F00000000F2
:10234000000000000000F03F0000E63F0000000039
:10235000000000000000004000800340000000007A
:10236000000000000000F83F000000000000F0BF87
:10237000BA41000070410000FA400000B240000085
:1023800070B56B4E2DED040B2DED028B82B0DDF898
:102390001CC0DDE905235C422CF000411C4341EAEE
:1023A000D474049D22F00040B44205D86C422C4302
:1023B00040EAD474B4420BD99DED061B9DED040B8D
:1023C00002B0BDEC028B04B0BDE8704000F056B91D
:1023D000ACF14054A4F17F641C430BD0022404EA06
:1023E000AC7444EAD27405439FED538B9FED542B9C
:1023F00007D015E09DED040B51EC100B00F0B8F97F
:1024000042E0002C11BF012C9DED040B02B0BDEC8D
:10241000028B04BF04B070BD022C38D0032C3BD01B
:102420000B439FED491B9FED4A0B0AD0B14218D1D7
:10243000B04209D121F0804120F080400791059001
:102440000FE0002A15DA10E0434B7B44002C08BF54
:1024500093ED000B0DD0012C10D0022C17D0032CC3
:102460001AD0B0421DD1002A03DAB0EE410AF0EED4
:10247000610A02B0BDEC028B04B070BD93ED000B9D
:1024800051EC100B02F034FB41EC100BF1E7B0EE15
:10249000480AF0EE680AECE7B0EE420AF0EE620A93
:1024A000E7E7401A00153C28C8BF8DED000B19DC8A
:1024B000BCF1000FBEBF10F13C0F9FED290B8DED5D
:1024C000000B0FDB9DED060B53EC102B9DED040B69
:1024D00051EC100B02F0FEFB00F06EFE00F048F92C
:1024E000CDE90001002C08BF9DED000BC1D0012CEF
:1024F00010D0022C9FED1C0B53EC102B9DED000B0C
:1025000051EC100B0DD002F085FF53EC182B02F0AC
:1025100081FFB9E7019880F0004001909DED000B2C
:10252000A7E702F077FF53EC182B02F09BFEABE716
:102530000000F07F00000000182D4454FB210940EA
:10254000182D4454FB2109C0182D4454FB21F9BF18
:10255000182D4454FB21F93FE23F00000000000029
:102560000000000000000000075C143326A6A13C18
:1025700070B504462DED028B4D1E00EBC500B0EE8C
:10258000408AF0EE608A90ED000B35F0060017D01F
:1025900053EC182B51EC100B02F030FD41EC100BFA
:1025A0006D1E04EBC50090ED001B51EC100B53ECBD
:1025B000112B02F0DBFA41EC100B35F00600E7D1ED
:1025C000022D36D0042D1CD0062D1CBFBDEC028B75
:1025D00070BD53EC182B51EC100B02F00FFD94ED75
:1025E0000A1B53EC112B02F0C1FA53EC182B02F02A
:1025F00005FD94ED081B53EC112B02F0B7FA41ECEA
:10260000100B53EC182B51EC100B02F0F7FC94ED6F
:10261000061B53EC112B02F0A9FA53EC182B02F015
:10262000EDFC94ED040B53EC102B02F09FFA41ECFF
:10263000100B53EC182B51EC100B02F0DFFC94ED57
:10264000021B53EC112B02F091FA53EC182B02F001
:10265000D5FC94ED001B53EC112B02F087FABDEC76
:10266000028B41EC100B70BD10B553EC102B51ECEC
:10267000100B02F07BFA41EC100B10BD10B553ECBF
:10268000112B51EC100B02F071FA41EC100B10BD44
:102690009FED050B10B553EC102B51EC100B02F015
:1026A00019FB41EC100B10BD000000000000000001
:1026B0009FED050B10B553EC102B51EC100B02F0F5
:1026C0009DFC41EC100B10BD00000000000000104C
:1026D00030380A2801D20120704700207047704727
:1026E000FEB506460D460024684600F07BFD00223C
:1026F0009FED1B1A6B46012156F8227055F82200F7
:10270000381A00D5404200EE100A03EB8200B8EE02
:10271000C00AD0ED000A20EE010AF5EEC00AF1EE83
:1027200010FA0DD0C0EE201AB7EE000A0D4F31EEB0
:10273000C00AB0EEC00A10EE100AB84207DC09E089
:1027400010EE100A084F3844084FB84202D301FA7D
:1027500002F00443521C032ACEDB2046FEBD0000DB
:1027600000008037295C0F3E666666C19A99D900E1
:1027700010B541EC100BFFF797FC51EC100B10BD9E
:1027800010B504466FF00400FEF778FF0648E10834
:1027900001EB41020170C2EBC1114FF6FF7202EA78
:1027A000C101418010BD0000A200002070B54FF4AF
:1027B0000775B0FBF5F1CCB2B0FBF5F105FB1106E6
:1027C00004E0284600F026F8641EE4B2002CF8D19C
:1027D000002E04D03046BDE8704000F01BB870BD3C
:1027E0000B49097848434FF0E021486100228A6193
:1027F000086940F0010008610869C30701D0C003FF
:10280000FAD5086920F0010008618A61704700006C
:10281000A20000200B49498848434FF0E02148615D
:1028200000228A61086940F0010008610869C30755
:1028300001D0C003FAD5086920F0010008618A615F
:1028400070470000A200002008B560B120208DF87C
:10285000000028208DF8010030208DF8020038207B
:102860008DF8030004E0A32204216846FDF79FFED3
:102870006A46042140F69E2002F012F801F0D0FCD6
:1028800008BD00003EB5044602208DF80000CA20B5
:102890008DF80100E3208DF8020009208DF8030077
:1028A0006A460421682001F0FBFFA3208DF8000098
:1028B000610609D5C0218DF80110C8218DF80210DC
:1028C000C2218DF8031005E08DF801008DF802009B
:1028D0008DF8030014F4C07F09D0C4218DF80410D2
:1028E000CC218DF80510C6218DF8061005E08DF875
:1028F00004008DF805008DF806008DF808008DF8AD
:1029000007008DF809006A460A2140F6A72001F069
:10291000C7FFA0074FF0D80503D020208DF8000096
:1029200001E08DF800506A46012140F6B62001F022
:10293000B7FFA00601D5012000E0002000F08EF8CE
:1029400014F4C07F1ED0E0050AD5B2208DF8000037
:102950008B208DF80100B6208DF802009B2009E045
:10296000B0208DF8000080208DF80100B4208DF893
:10297000020090208DF803006A46042140F6A22050
:1029800001F08EFFE1074FF40B6022D0F8218DF8A3
:1029900000106A46012101F083FFFA21072000F0B0
:1029A0003BFB072000F006FB012000F023FB642026
:1029B00000F0E2FB4FF4FA7000F0EEFBC82125486E
:1029C00000F0C0FA282000F0D5FA0A2000F0E2FA60
:1029D00005E08DF800506A46012101F061FFA00773
:1029E00003D5D9208DF8000001E08DF800506A462B
:1029F000012140F23D7001F053FF600701D5012035
:102A000000E0002000F048F8E00601D5012000E0D9
:102A10000020FFF719FF104D44F00800688101F015
:102A2000FFFB0020A873600601D50620A87314F4EC
:102A3000C07F02D0A87B801DA87314F0140F02D0B1
:102A4000A87B1030A873A00702D0A87B001DA87334
:102A500000203EBD09E3CA02A00300200EB54FF4DA
:102A6000976310B106A107C901E008A207CA8DE863
:102A700007006A460921184601F012FF0EBD00004A
:102A8000B8AAB38DB4980D355D000000B8AAAAAA03
:102A9000B088C3C5C700000008B560B1C0208DF87C
:102AA0000000C2208DF80100C4208DF80200C6206D
:102AB0008DF8030004E08B2204216846FDF777FDC2
:102AC0006A46042140F6982001F0EAFE01F0A8FBD6
:102AD00008BD0000C8234FF48062024940F6F6307A
:102AE00001F080BA305700082DE9FF4F89B0174632
:102AF000DDE9165200244D4E884681462C80A246C0
:102B0000B07B694601F01AFB4FF0FF3B18B1584605
:102B10000DB0BDE8F08F708910F0140F3ED0009911
:102B200009BA21F0FF029DF803100A433A600199A7
:102B30009DF8073009BA21F0FF0119437960029B23
:102B40009DF80B401BBA23F0FF032343BB60039C9B
:102B5000121424BA24F0FF0C9DF80F4009144CEA1B
:102B6000040C1024C7F80CC01B144FEA2C4712FBAE
:102B700002F211FB012113FB03F217FB07221144A0
:102B8000A1F17061B1F1007F04D901F049FBA5F812
:102B900000A0BCE7298841F480712980420669467B
:102BA00011D50A19A41D13885BBAA8F80030538800
:102BB0005BBAA8F80230928852BAA8F804202A8892
:102BC00042F008022A8010F4C07F11D00A19A41D17
:102BD00013885BBAA9F8003053885BBAA9F80230B1
:102BE000928852BAA9F804202A8842F070022A80FA
:102BF000800716D00C44E07800F0C00500F03F01DB
:102C00006078C00706D0C80801F007013268491C87
:102C100002B190476078000703D5716809B1A8092F
:102C200088470C9800F044FF002071E7A0030020C3
:102C30002DE9FF41044603A801F084F8BDF80C001B
:102C4000410CC3032F48028902F00300550754F8D2
:102C5000200000D54042C2F3C105960654F8255025
:102C600000D56D42C2F38116D20554F8264000D536
:102C70006442A0FB0367C21702FB037200FB012042
:102C8000820042EA9670A5FB0367EA1702FB037213
:102C900005FB0122950045EA9672A4FB0367E51740
:102CA00005FB037304FB01318B0043EA9671030EAD
:102CB0008DF80030030C8DF80130030A8DF80230D6
:102CC0008DF80300100E8DF80400100C8DF805002F
:102CD000100A8DF80600080E8DF80800080C8DF813
:102CE0000900080A8DF80A008DF807208DF80B10EE
:102CF0006A460C214FF4257001F0D2FD04B0BDE806
:102D0000F0810000A003002030B5044613A285B076
:102D100007CA8DE807004FF0FF35C82C16D8C82029
:102D2000B0FBF4F1491E080A8DF80C008DF80D1067
:102D300003AA022140F2162001F0B2FD30B96A4622
:102D40000C2140F6C12001F0ABFD10B1284605B0C2
:102D500030BD054884810020F9E70000FEF2ABC4D5
:102D6000AAF1DFDFBBAFDFDFA0030020F8B53049F9
:102D7000098901F0030250F822404A0700D5644255
:102D8000C1F3C1028B0650F8222000D55242C1F394
:102D9000811350F82330C80500D55B42254984FBD8
:102DA0000140850045EA947082FB0142A40F44EA89
:102DB000820483FB0121950F45EA8105010E8DF800
:102DC0000010010C8DF80110010A8DF802108DF829
:102DD00003006A4604214FF4747001F061FD4FF066
:102DE000FF3688B9200E8DF80000200C8DF8010008
:102DF000200A8DF802008DF803406A4604214FF442
:102E0000757001F04DFD08B13046F8BD280E8DF803
:102E10000000280C8DF80100280A8DF802008DF8BA
:102E200003506A4604214FF4767001F039FDF8BD75
:102E3000A003002009E3CA022DE9FF4104463CA09B
:102E400004F00303006802903AA0006803903AA0DF
:102E500006683AA0056802A8C15C8DF80010C4F3AA
:102E6000C101425C8DF80120C4F38112805C8DF8B1
:102E7000020003A8C35C8DF80430415C8DF8051096
:102E8000805C8DF806006A46032140F2264001F07E
:102E900007FD4FF0FF37E0BB01AA032140F22A40B3
:102EA00001F0FEFCA8BBCDE9006560070BD59DF8DD
:102EB000000040F001008DF800009DF8040040F093
:102EC00001008DF80400A0060BD59DF8010040F02C
:102ED00001008DF801009DF8050040F001008DF81B
:102EE0000500E0050BD59DF8020040F001008DF8CB
:102EF00002009DF8060040F001008DF806006A46C9
:102F000003214FF4886001F0CBFC10B901AA032122
:102F100000E004E040F2314001F0C2FC18B1384654
:102F200004B0BDE8F081064804810020F8E7000005
:102F30004CCD6C000CC92C00365676002646660037
:102F4000A00300204FF47A7290FBF2F008B54843DA
:102F5000010E8DF80010010C8DF80110010A8DF89A
:102F600002108DF803006A4604214FF4AE7001F0A0
:102F700097FC08BD0521B0FBF1F008B5010A8DF8FA
:102F800000108DF801006A4602214FF4AD7001F087
:102F900087FC08BD0521B0FBF1F008B5010A8DF8EA
:102FA00000108DF801006A4602214FF4AC7001F068
:102FB00077FC08BD08B500218DF80010C10702D0CC
:102FC00030218DF80010810705D59DF8001041F0E3
:102FD0000C018DF80010400705D59DF8000040F069
:102FE00003008DF800006A4601214FF4A47001F03F
:102FF00057FC08BD08B560B1042800D90420401E64
:103000008DF800006A46012140F24F1001F048FCA3
:1030100008BD0120F3E7000070B504462DED028BDA
:1030200082B040074FF0FF357ED0B1F5C86F7BD836
:1030300000EE101AB8EE400ADFED460A01A880EE55
:10304000208A00F061FE9DF80400022806D00428C2
:1030500010D0082835D0102874D13EE09FED3E0AEC
:1030600028EE000ABCEEC00A10EE100A9FED3B0AE3
:1030700082B20AE09FED3A0A28EE000ABCEEC00ACE
:1030800010EE100A9FED370A82B228EE000A6E4653
:10309000BCEEC00A10EE100A81B2100A8DF80000D2
:1030A0008DF80120080A8DF802008DF80310E00762
:1030B00026D0324602214FF4EA7001F0F1FB98BBB2
:1030C00017E09FED290A28EE000ABCEEC00A10EEB8
:1030D000100A9FED260A82B2D7E79FED250A28EE57
:1030E000000ABCEEC00A10EE100A9FED220A82B25E
:1030F000CBE7B21C02214FF4927001F0D1FB98B9DA
:10310000A0070DD56A4602214FF4EC7001F0C8FB10
:1031100050B9B21C02214FF4947001F0C1FB18B9F0
:10312000600714D56A4600E00CE002214FF4EE700F
:1031300001F0B6FB30B9B21C02214FF4967001F0D9
:10314000AFFB20B1284602B0BDEC028B70BD002061
:10315000F9E70000000048430000804600004046B8
:10316000000000460000C0450000804500004045CA
:10317000000000450000C0440521B0FBF1F008B597
:10318000010A8DF800108DF801006A4602214FF403
:10319000EF7001F085FB08BD0521B0FBF1F008B52B
:1031A000010A8DF800108DF801006A4602214FF4E3
:1031B000ED7001F075FB08BD82B0CDE9000121F092
:1031C000004001909DED000B02B051EC100B7047D8
:1031D00003490A885206FCD5C2B28A8070470000B3
:1031E000001001401FB50446274802AB0422406886
:1031F0000D210078FDF72CFE10B1072004B010BDA2
:103200009DF808101C2000EAD1029DF80B10DFED9C
:103210001F0AC1F301131A438DF800209DF80920FD
:10322000C1F3810300EAD2021A438DF801209DF810
:103230000A2001F0030100EAD20008439FED141AAE
:103240009FED140A8DF8020000216A46505C0028A8
:1032500004EB810002D080ED001A09E0C0ED000A05
:103260000CE000BFD0ED001A61EE801AC0ED001A2C
:10327000535C5B1E13F0FF035354F3D1491CC9B2D6
:103280000329E3D30020B9E76C0000200000000010
:103290007B14AE3E1D5A843F2DE9FE4F05460120AA
:1032A000C14E8DF800004FF000088DF801803068A5
:1032B0000C461746817C70686B4602220078FDF749
:1032C00054FE4FF0FF3A00287AD1C820FFF76EFA7B
:1032D0008DF8008030686B460122C17B70680078F1
:1032E000FDF743FE0028EFD130686B46012241799B
:1032F00070680078FDF739FE0028E5D130686B462C
:103300000122817C70680078FDF72FFE0028DBD158
:1033100030686B460122C17D70680078FDF725FE9C
:103320000028D1D130686B4601220179706800789D
:10333000FDF71BFE0028C7D14FF00C098DF8009057
:1033400030686B460122017970680078FDF70DFE48
:10335000002835D10F20FFF729FAB06A6B46012209
:10336000407A8DF800003068817870680078FDF749
:10337000FCFD002824D1B06A6B460122007A8DF84A
:1033800000003068417870680078FDF7EEFD002895
:1033900073D1B06A807A0FB140F0E0008DF8000080
:1033A00030686B460122817970680078FDF7DDFD99
:1033B000002862D12FB1B06AC07A40F0E00001E08D
:1033C0004AE018208DF8000030686B460122C17970
:1033D00070680078FDF7C9FDF0BB17B1C820FFF792
:1033E000E5F940208DF8000030686B460122017934
:1033F00070680078FDF7B9FD70BB78208DF800008B
:1034000030686B460122417970680078FDF7ADFDA8
:1034100010BB3220FFF7CAF98DF8008030684746AC
:103420006B464179706801220078FDF79EFD98B9DE
:1034300031687068B046897A00786B460222FDF7E1
:1034400007FD48B9BDF80000AF6040BAB0FBF9F025
:103450006F60C6B22F6000E00FE0A7606760276072
:10346000002739E0D8F80010D8F804006B46C97A74
:1034700000780C22FDF7ECFC10B15046BDE8FE8F41
:10348000BDF80000236840BA02B2BDF80200BDF8E2
:1034900004101A44226040BA626800B210446060AE
:1034A00049BAA06809B20844A060BDF806002B68BC
:1034B00040BA02B2BDF808001A4440BA01B2BDF8E1
:1034C0000A002A606A6840BA11446960A96800B2BB
:1034D00008447F1CFFB2A860B742C3D32868832288
:1034E000C117090441EA104100040023FCF7C1FEA2
:1034F00032460023FCF7BDFE286068688322C117AE
:10350000090441EA104100040023FCF7B2FE3246F0
:103510000023FCF7AEFE6860A8688322C117090487
:1035200041EA104100040023FCF7A3FE32460023C9
:10353000FCF79FFEA86020684FF40065C1170904DE
:1035400041EA104100042A460023FCF792FE32466D
:103550000023FCF78EFE206060682A46C11709042C
:1035600041EA104100040023FCF783FE32460023A9
:10357000FCF77FFE6060A0682A46C117090441EA93
:10358000104100040023FCF774FE32460023FCF7D0
:1035900070FEA060002802DDA0F5803001E000F59B
:1035A0008030A060002069E76C000020F8B5064676
:1035B0002E480D46002440686B46032200780D21FA
:1035C000FDF746FC08B10720F8BD9DF80000002279
:1035D00000F01F008DF800009DF801009FED241AF7
:1035E00000F01F008DF801009DF802006B4600F00E
:1035F0001F008DF80200012156F8220055F82270B4
:10360000C01B00D5404200EE100A985CB8EEC00A1C
:1036100060EE010AD0B1B3EE090ADFED161A01E03F
:1036200020EE210AC0B2401E10F0FF009854F7D1DE
:10363000C0EE801AB7EE000A0F4F31EEC00AB0EEAE
:10364000C00A10EE100AB84207DC09E010EE900A3A
:103650000A4F3844B0F1D97F02D901FA02F004438D
:10366000521C032AC8DB2046F8BD00006C00002075
:103670000000803754E3853F295C0F3E0000E0BE28
:1036800000B5024600F00DF80346D01C00F009F822
:1036900043EAC003901D00F004F843EA801080B2B2
:1036A00000BD90F90010002902DD4FF000007047C6
:1036B00002DA4FF00400704790F90110002902DD92
:1036C0004FF00100704702DA4FF00500704790F9A3
:1036D0000200002802DD4FF00200704702DA4FF0CE
:1036E000060070474FF00700704700002DED108B6B
:1036F00084B04FF4A060FDF795FCA820FFF740F8D8
:103700004FF4165001F09EF9FDF7ACF9FDF72CFBD4
:1037100000F0ACFA0028FBD19FEDB30B8DED020B4E
:103720009FEDB30B02218DED000B9FEDB37B9FED61
:10373000B4BBB0EE4B6AF0EE6B6A9FEDB38BB0EEAC
:10374000485AF0EE685A9FEDB24BB0EE483AF0EEB0
:10375000683A9FEDB19BB0EE481AF0EE681AB0EEF1
:10376000492AF0EE692A9FEDAEABAF48B0EE4A0AA7
:10377000F0EE6A0AFDF760FC9FED9B0B8DED020BEE
:103780009FED9B0B02218DED000B9FED9B7BB0EE1F
:103790004B6AF0EE6B6AB0EE485AF0EE685A9FED55
:1037A0009C4BB0EE483AF0EE683AB0EE492AF0EEA3
:1037B000692AB0EE481AF0EE681AB0EE4A0AF0EE46
:1037C0006A0A9A48FDF738FC994C04209FED99ABA2
:1037D000A0628DED02AB9FED999B00218DED009BCA
:1037E0009FED98CBB0EE4C7AF0EE6C7A9FED97DBC4
:1037F000B0EE485AF0EE685AB0EE4D6AF0EE6D6ADF
:103800009FED944BB0EE483AF0EE683AB0EE482A9D
:10381000F0EE682A9FED911B9FED920B9348FDF708
:103820000BFC8DED02AB8DED009B0021B0EE4C7AD0
:10383000F0EE6C7AB0EE4D6AF0EE6D6AB0EE485A7A
:10384000F0EE685A9FED834BB0EE483AF0EE683ADE
:103850009FED872B9FED88EBB0EE4E1AF0EE6E1ABF
:103860009FED87FB7148B0EE4F0AF0EE6F0A6830AB
:10387000FDF7E2FB0021B0EE4C7AF0EE6C7AB0EE90
:103880004D6AF0EE6D6AB0EE485AF0EE685A9FED60
:10389000714BB0EE483AF0EE683A9FED752B6348F5
:1038A000B0EE4E1AF0EE6E1AB0EE4F0AF0EE6F0A5E
:1038B000B8388DEC049BFDF7BFFB9FED4B0B8DEDF6
:1038C000020B9FED4B0B02218DED000B9FED4A7B10
:1038D000B0EE4B6AF0EE6B6AB0EE485AF0EE685A02
:1038E0009FED4B4BB0EE483AF0EE683A9FED669B89
:1038F000B0EE481AF0EE681AB0EE492AF0EE692AE6
:103900009FED63AB4848B0EE4A0AF0EE6A0A5038C1
:10391000FDF792FB9FED340B44488DED020B9FEDBC
:10392000340B02218DED000B9FED337BB0EE4B6A23
:10393000F0EE6B6AB0EE485AF0EE685A9FED344BE9
:10394000B0EE483AF0EE683AB0EE492AF0EE692A55
:10395000B0EE481AF0EE681AB0EE4A0AF0EE6A0AC3
:103960005038FDF769FB324A2032111F081F00F062
:10397000CBF888B92E4A2032111F081F00F0C4F876
:103980002B4A0C32911E881EFDF7A5F8284A921D7D
:10399000911E881EFDF786F82078052815D2DFE8ED
:1039A00000F003090C1120009FED3B0A002084ED7C
:1039B000040A09E0B3EE0E0A01E0BBEE0E0A84ED44
:1039C000040A02E06FF059006061606A01F00CFEC9
:1039D00041EC100B31A153EC102B0020FDF706FD3C
:1039E000C1E75A20F0E700000000000000508E40C0
:1039F0000000000000D0A140000000000020AC400A
:103A00000000000000003440000000000000000042
:103A1000000000000070B7406666666666661AC001
:103A2000000000000040AFC0980200207801002094
:103A30000800002000000000001895400000000071
:103A400000D091400000000000C08740000000004E
:103A500000406F40000000000064B9406132553002
:103A60002AA9233FB81E85EB51B89E3F20040020B1
:103A7000000000000000E03F9A9999999999B93F98
:103A80000000000000004E400000000000C0824026
:103A90000000000000407A4000000000706974637C
:103AA000685F6B616C6D616E2025640D0A0000001B
:103AB000704700002DE9F041124C20F00101002573
:103AC00094F8240010B10020BDE8F081A07A4FF0F6
:103AD000FF3668B10840277C2074884200D0354604
:103AE00041B1012000F04AFF00F09AFB38B1277481
:103AF0003046E9E7207D00B1012000F03FFF284675
:103B0000E2E700006C00002070B50D462DED0C8B37
:103B10008EB006460CA902A81446F7EE00BACDE90D
:103B200000010BAB03AA09A907A8FEF7DDFF20B12E
:103B300001200EB0BDEC0C8B70BDBDF80800C005B7
:103B40007ED59DED030AF8EEC00A9FED450AB0EE62
:103B500000CA60EE809ADDED040AF8EEE00A69EE34
:103B60008CCA20EE808ADDED050AF8EEE00A60EEF0
:103B7000808ADDED060AF8EEE00A20EE809AB8EEC3
:103B8000000A28EE00BA2BEE090A0CEEA80A10EE85
:103B9000100A01F029FD41EC100BFEF7D5F89FED5E
:103BA00031AB51EC100B53EC1A2B01F027FA00F05B
:103BB000ABFF2BEE080A28EE8CDA30600DEE680AB7
:103BC00030EE2B0A10EE100A01F00EFD2DEE090A60
:103BD00041EC1B0B0CEE880A10EE100A01F004FDFC
:103BE00041EC100BB0EE4B1AF0EE6B1AFEF7C8FB6F
:103BF00053EC1A2B51EC100B01F000FA00F084FF8B
:103C000029EEA90A286008EE080A08EEE80A09EE7B
:103C1000490A10EE100A01F0E7FC28EE280A41ECF0
:103C20001B0B09EE890A20EE0C0A10EE100A01F0B7
:103C3000DBFC41EC100BB0EE4B1AF0EE6B1A00E01F
:103C40000CE0FEF79DFB53EC1A2B51EC100B01F02E
:103C5000D5F900F059FF206000206AE7022068E7EC
:103C6000000080306666666666A64C4010B5FCF7BC
:103C70006BFF00F0F3F808B10A2010BD782000F0C7
:103C8000B3FD10F0FF0F01D0012010BD7820FFF729
:103C900011FF10F0FF0F01D0022010BD642000F0D2
:103CA00063FD10F0FF0F01D0032010BDFEF712FFDF
:103CB00010F0FF0F01D0042010BD1248FFF7E0FC08
:103CC000FFF7BAF810F0FF0F01D0052010BD40F249
:103CD0007310FEF7D7FD10F0FF0F01D0062010BDC6
:103CE0006420FFF711F810F0FF0F01D0072010BD7E
:103CF00000F000FE012000F05DFC10F0FF00F6D0A7
:103D0000092010BD980000200D494A7A42B1012ACD
:103D100008D0022A0FD0032A0FD04FF0FF3070478F
:103D2000022200E004220270C97C11B11106C90D03
:103D30000170002070470822F5E71022F3E7000029
:103D40006C0000200F494A7A42B1012A09D0022AA8
:103D500011D0032A12D04FF0FF3070474FF4804249
:103D600001E041F69C720280C97C11B1C2F34E01A0
:103D70000180002070474FF48052F4E74FF4006256
:103D8000F1E700006C0000200B49097A39B10129E4
:103D900007D002290AD003290BD0002103E0FA2121
:103DA00001E04FF4FA710180002070474FF47A71FE
:103DB000F9E74FF4FA61F6E76C0000200D49097A43
:103DC00041B1012909D002290DD003290ED04FF0AD
:103DD000FF3070479FED080A01E09FED080A80ED73
:103DE000000A002070479FED060AF8E79FED050ADC
:103DF000F5E700006C000020000003430000834250
:103E000033330342333383410C49C97A072913D230
:103E1000DFE801F01204060A0C0E1000BC2100E0DD
:103E200062210180002070472A21FAE71421F8E777
:103E30000A21F6E70521F4E70021F2E76C000020F3
:103E4000054991F8242012B14FF0FF307047C9891D
:103E500001800020704700006C0000202DE9FC412B
:103E60004C4C80208DF8000020686B460122817C3C
:103E700060680078FDF779F84FF0FF37002832D1FD
:103E80006420FEF793FC00258DF8005020686B46F7
:103E90000122817C60680078FDF767F8002870D106
:103EA00020686B460622817D60680078FCF7D0FFB1
:103EB000002866D19DF805009DF80310C007400F4B
:103EC00001F0010140EA41019DF801004FF00106B7
:103ED00000F00100014309D0012905D0022915D0C5
:103EE0002DA0FCF7EBF94CE0E67410E020686B467F
:103EF0000122C17860680078FCF7AAFF40BB9DF8FA
:103F0000000010F00F0020D0042822D0E574FF201C
:103F100004F80A0F4FF6FF7104F8020C04F8010CC4
:103F20006070A180A0712072A67026766576E57219
:103F3000A572E56025616561A576E576A5834FF4F8
:103F4000FA6000F073FB18B907E01D48FCF7B6F9FA
:103F500017E01CA0FCF7B2F9C6E7022000F088FACF
:103F600078B92A2000F0CAFB58B9322000F0FCFBD7
:103F700038B90020FFF79EFD18B9002000F0ACFA18
:103F800010B13846BDE8FC81002000F02DFC002077
:103F9000F8E700006C000020556E737570706F724A
:103FA00074656420736F6674776172652070726FD8
:103FB00064756374207265762025642E0A00000003
:103FC0003864000848616C662073656E73697469B3
:103FD00076697479207061727420666F756E642ED4
:103FE0000A0000002DE9FF4FDFF89480064685B0F7
:103FF00098F8250015460F464FF0FF39B0BBAFB318
:10400000002420E0301B102800DD102080B2834601
:104010003A1901469246204600F042FC30BB6A46FF
:104020005946204600F0D2F800BB50465A46694631
:10403000FCF728FA20B16FF0010009B0BDE8F08F5D
:1040400004EB0B0084B2B442DCD3280A8DF81000D4
:104050008DF81150D8F80000444604AB817ED8F8A2
:10406000040002220078FCF780FF08B14846E4E72C
:10407000012084F825000898E0840020DDE7000096
:104080006C0000202DE9F84305464FF0FF39282841
:1040900044D80727284C00267DB1012000F0FCFA07
:1040A00020208DF800004FF00108012D17D0052DBC
:1040B00018D88DF8018005201FE0002000F0ECFAF0
:1040C0008DF800608DF8017020686B460222817CBB
:1040D00060680078FCF749FF00BB267529E08DF881
:1040E0000160E8E7142D04D802208DF801000A20B1
:1040F00003E003208DF80100142000F0FFFA9DF882
:1041000001006B4607EB80108DF801002068022249
:10411000817C60680078FCF728FF10B14846BDE854
:10412000F8830820A072267384F814800020FFF71B
:10413000C1FC0020F3E700006C0000202DE9F843EB
:10414000214C0646174694F8240089464FF0FF3864
:1041500090B3A07A80B320686B460222817A6068AF
:104160000078FCF775FE38BBBDF8000045BAB542D3
:1041700002D2002038701FE060684188B5EB510F13
:1041800011D9216800786B46497C0122FCF760FE5A
:1041900090B99DF80000C00605D500F041F86FF019
:1041A0000100BDE8F8832068F2B24B46C17A60682E
:1041B0000078FCF74DFE08B14046F2E7B5FBF6F09B
:1041C000401E38700020ECE76C000020F8B51600A7
:1041D0000D464FF0FF371FD0104CA17AE1B1010A14
:1041E0008DF80010C0B28DF8010041196068428955
:1041F000914211D8216800786B46097E0222FCF7B3
:10420000B4FE48B92068EAB23346417D6068007860
:10421000FCF71EFE002800D03846F8BD6C000020D8
:10422000F8B5564C4FF0FF36A07A00287DD0002517
:104230008DF8005020686B460122C17B60680078D1
:10424000FCF793FE002870D120686B46012241796B
:1042500060680078FCF789FE002866D120686B460C
:104260000122017960680078FCF77FFE00285CD1AC
:1042700094F82400E0B30C208DF8000020686B4611
:104280000122017960680078FCF76FFE002872D186
:104290003220FEF78BFAC0208DF80000A07AC0070C
:1042A00002D0E0208DF8000020686B4601220179E1
:1042B00060680078FCF759FE00285CD1607C18B17A
:1042C00002208DF8000001E08DF8005020686B4658
:1042D0000122C17B60680078FCF747FE28BB8DF89F
:1042E000005020686B4601224179606800783EE00A
:1042F000FFE704208DF8000020686B460122017959
:1043000060680078FCF731FE78B9A07C90B9A07A9B
:10431000C0070FD05FF060008DF8000020686B468A
:10432000012201796068007800E024E0FCF71DFEBE
:1043300008BB01E04020EFE73220FEF737FA607C4F
:1043400018B101208DF8000001E08DF800502068C0
:104350006B460122C17B60680078FCF706FE50B90D
:104360002068064B01224179606810330078FCF721
:10437000FCFD002800D03046F8BD00006C00002095
:104380002DE9F047394C82468AB094F824000F4654
:1043900020B1002000F00EF9012600E0002607A859
:1043A000FFF7F2FC06A8FFF7AFFC09A8FFF72CFD0A
:1043B00008A8FFF745FD94F80A9094F810800025AE
:1043C000002239465046FEF767FF10B16D1C022DE2
:1043D000F6DB022D1AD00025012203A96846FEF75C
:1043E0005BFF10B16D1C022DF6DB022D0ED003A970
:1043F0003846FEF775F9C7B269465046FFF7D6F85A
:1044000010F0FF0F4FF0000502D002E0002503E09E
:1044100001250FB945F00205FF2020726072E0729D
:104420004FF6FF71E181A072207401202073BDF866
:104430001C0000F0FBF89DF8180000F019F8BDF81A
:10444000240000F05BF9BDF8200000F08DF948462B
:1044500000F0CAF94046FFF72DFB16B1012000F02D
:10446000A9F80AB02846BDE8F08700006C000020DB
:1044700038B5184C4FF0FF35A17A19B3022806D091
:10448000042806D008280ED010281BD10DE00020EB
:1044900000E008208DF80000607A9DF80010B0EB75
:1044A000D10F04D005E01020F4E71820F2E7002037
:1044B00038BD20686B460122C17960680078FCF73E
:1044C00054FD08B1284638BD9DF80000C008607250
:1044D000EDE700006C000020F8B5354C0546A07CE7
:1044E000A84201D10020F8BD31484FF0FF366B469D
:1044F000D0E900104FF001020979007835B3FCF7DC
:10450000A7FC70BB9DF800006B4620F020008DF8E2
:10451000000020680122017960680078FCF725FD21
:10452000F8B90320FEF742F902208DF8000094F854
:10453000220078B382202BE020686B460122017DA7
:1045400060680078FCF711FD58B92EE0FCF780FC9C
:1045500038B9A07AC0079DF8000003D040F02000D1
:1045600002E00CE020F020008DF8000020686B468F
:104570000122017960680078FCF7F7FC08B1304649
:10458000F8BD0320FEF712F994F8220000B1802054
:104590008DF8000094F823000028CDD09DF800008D
:1045A00040F030008DF80000C6E7A5749AE70000DF
:1045B0006C00002038B51C4C94F8241081421DD0AA
:1045C000002500B394F82500D0B1002000F0D6F902
:1045D0000020FFF781FFE08C00F0C6F88DF8005056
:1045E00060686B46012200782321FCF7BEFC0120A5
:1045F00084F8240000F0C2F9FFF712FE002038BD55
:104600004FF0FF3038BD002000F0B8F9207C8DF865
:10461000000060686B46012200782321FCF7A5FCAE
:1046200084F82450E8E700006C00002038B5194CED
:104630004FF0FF35A17A31B3FA2809D0B0F5FA7FEF
:1046400008D0B0F57A7F0FD0B0F5FA6F1BD10DE02E
:10465000002000E008208DF80000207A9DF800106E
:10466000B0EBD10F04D005E01020F4E71820F2E7FA
:10467000002038BD20686B4601228179606800788F
:10468000FCF773FC08B1284638BD9DF80000C0084F
:104690002072EDE76C00002038B5174C054694F801
:1046A0002300A84201D1002038BD0DB1302000E028
:1046B00000208DF80000A07C28B19DF8000040F09B
:1046C00002008DF8000094F8220028B19DF8000047
:1046D00040F080008DF8000020686B460122017DCB
:1046E00060680078FCF741FC10B14FF0FF3038BD36
:1046F00084F82350D7E700006C00002038B5194C2F
:104700004FF0FF35A17A31B3BC2801D3012010E06E
:10471000622801D302200CE02A2801D3032008E0FC
:10472000142801D3042004E00A2801D3052000E066
:1047300006208DF80000E07A9DF80010884201D133
:10474000002038BD20686B460122817860680078BF
:10475000FCF70BFC08B1284638BD9DF80000E0725C
:10476000EEE700006C000020F8B51E4D04464FF047
:10477000FF37A87A48B395F8240030BB287D4FF462
:104780007A7648B164B1282C03D8E0B2FFF77AFCFE
:1047900026E00020FFF776FC042C05D2042406E076
:1047A0000020FFF76FFCF9E7B44200D93446B6FBAE
:1047B000F4F0401E8DF8000028686B460122417815
:1047C00068680078FCF7D1FB08B13846F8BD9DF861
:1047D0000000401CB6FBF0F0E8814008FFF78EFFB8
:1047E0000020F8BD6C000020F8B5054610F0700FF1
:1047F0004FF0000601D0012004E015B18DF80060F3
:1048000002E040208DF80000244C6B460122206815
:10481000817C60680078FCF7A8FB4FF0FF3760BB35
:104820009DF8000020F0400020738DF800606806BD
:1048300002D404208DF80000A80605D49DF80000DD
:1048400040F002008DF80000E80605D49DF8000055
:1048500040F001008DF80000280705D49DF8000005
:1048600040F038008DF8000020686B460122C17CC2
:1048700060680078FCF779FB10B1A6723846F8BD85
:1048800025B1082D02D00020FFF706FFA57226757E
:104890003220FDF78BFF0020F8BD00006C000020E7
:1048A000F8B516000D464FF0FF371FD0104CA17A17
:1048B000E1B1010A8DF80010C0B28DF80100411974
:1048C00060684289914211D8216800786B46097E60
:1048D0000222FCF74AFB48B92068EAB23346417D20
:1048E00060680078FCF741FB002800D03846F8BD2E
:1048F0006C00002000B589B002A905A8FFF740FDB3
:10490000032802D0012009B000BD6846FFF756FA1F
:104910009DED050A05A8F8EEC00A9DED000A60EEBF
:10492000800AFDEEE00ACDED050ADDED060AF8EE9F
:10493000E00A60EE800AFDEEE00ACDED060ADDED4C
:10494000070AF8EEE00A20EE800ABDEEC00A8DEDFF
:10495000070AFEF70BFA01A8FFF7F4F9BDF8040007
:1049600002994143029103994143039104994143C0
:1049700002A80491FEF75CF90020C4E7F8B5144CD6
:104980000146224694F82460D2E9000200235D1E0D
:1049900056B179B1022111E0C17B10786B4601223A
:1049A000FCF7E3FA68B90EE0A67A56B111B1617C62
:1049B00061B902E08DF80030EEE701218DF80010BA
:1049C000EAE72846F8BD9DF8000060740020F8BDB5
:1049D0006C00002000B52DED048B83B041EC190B69
:1049E00000F04CFC41EC180B18EE100A18EE901A6F
:1049F0008DED008B002818BF0120084320F00040F7
:104A0000C0F17F6000F1E040C00F14D019EE101A21
:104A100019EE900A8DED009B002918BF0121084373
:104A200020F00040C0F17F6000F1E040C00F04BF03
:104A30000120FBF744FE51EC180B03B0BDEC048BD6
:104A400000BD0000F0B5064687B001210220FCF74A
:104A500005FC01211020FCF70DFC234F0722062145
:104A60003846FBF7BEFF072211463846FBF7B9FF71
:104A7000C020049002208DF814008DF81500002449
:104A80008DF8164001258DF8175004A93846FBF71C
:104A900057FFADF80440ADF80640ADF80840ADF85A
:104AA0000C400C20114CADF80A00009669462046D7
:104AB000FCF75AFF01212046FCF734FF012240F2A7
:104AC00025512046FCF738FF25208DF818000320DB
:104AD0008DF819008DF81A008DF81B5006A8FCF708
:104AE0006FFA07B0F0BD0000000402400010014062
:104AF00081F00041704780F00040704721F0004194
:104B0000704720F00040704721F00042A2F160524F
:104B1000B2F5801F01F0004328BFD2F17F6C0BD9A2
:104B20005FEA001C43EAC20242EB507018BF7047B4
:104B300028BF20F001007047B2F5801FBCBF1846A7
:104B400070474FEA410C1CF5001F02D2084600F0E6
:104B5000C1BD70B500F0FCFA00000089FFF7F6BF98
:104B60004FF00040A0F580007047000010B591EABA
:104B7000030F48BF83F0004300F15484841A71EBA3
:104B8000030C05D2121943EB0C03001B61EB0C0163
:104B9000DFF824E14FEA1154A4EB135C1EEA430F43
:104BA00018BF9EEA445F73D023EA0E03DCF1200EA7
:104BB00021EA045143F4801332D322FA0CFE10EBA5
:104BC0000E0023FA0CFE41EB0E01CCF1200E03FA8D
:104BD0000EFE10EB0E0051F10001B1F5801FCCF17B
:104BE000200E32D201EB045112FA0EF2BDE8104051
:104BF00058BF7047401C38BF5FEA420218BF704779
:104C0000002814BF20F0010041F100014FEA4103E8
:104C100013F5001F38BF7047A1F1C04100F0E6BA9C
:104C2000012A43EB0302ACF1200CDCF11F0E32BF72
:104C30004FF0000E23FA0CF310EB030041EB04518C
:104C4000B4EB115FD0D0A1EB045101F580114908FC
:104C50005FEA300001EB04510ED350F1000038BF81
:104C600012FA0EFE08D1BDE81040C9E7401C38BF5B
:104C70005FEA4202CAD1C3E7BDE810404FEA4103F0
:104C800013F5001F38BF7047A1F1C04100F0AEBA64
:104C90009EEA445F08D011EA5E0FBDE8104004BFF1
:104CA00001F0004100207047BDE8104070B500F0F1
:104CB0004FFA00BF64FBBE3E0000E0FF491058BF42
:104CC000C1F140415B1058BFC3F140438B42EFF349
:104CD000008070472DE9C04130B4DFF8A0C23CEA43
:104CE000111418BF3CEA131400F0EC8081EA0305AC
:104CF0001CEA111444EAD57418BF1CEA131500F01D
:104D0000C780A4EB05044FF0004545EAC12145EA00
:104D1000C32341EA505143EA525304F17F7499424C
:104D200004F500344FEAC0204FEAC22208BF904287
:104D300000F09C804FEA13650FF24016765D4FEA53
:104D4000134506FB05F7C7F1807706FB07F74FEA27
:104D5000D737A7FB03687642C8F58038A7FB06CE95
:104D600038BFA8F1010807FB08E64FF0000EA6FBCC
:104D7000028CE6FB03CEDCF1000CCEF1004E38BF16
:104D8000AEF1010EA6FB0C584FF000074FF00005E6
:104D9000E6FB0E87A1FB08C6A0FB07CE16EB0E06AE
:104DA00045F10005E1FB076515F1E04E7EBFA4F576
:104DB00080345FEA46066D4116F1800745F1000533
:104DC0004FEA17274FEA066647EA0567A6F1DE466F
:104DD000B6F1805F4FEA15251FD9384624F0010C43
:104DE00005EBC471BCF1FE6F01EB0C1102D8F0BCF5
:104DF000BDE8008124425CBF01F5801E9EEAC47FAD
:104E000002D4F0BCBDE80081244238D4F0BCA1F14A
:104E1000C041BDE8004100F0E9B94FEAD22242EAC0
:104E200043524FEAD323A7FB02864FEAD02040EA41
:104E3000415007FB03661EEA0E0F4FEAD12105FB26
:104E4000026658BFA6EB0056B6EB00564FEA520E6C
:104E50004EEAC37E18EB0E0E56EB530EBDD518EB83
:104E600002085E417F1C55F10005B6E74FF480153E
:104E70004FF000074FF000064FF00008ADE7F0BC20
:104E80004FF0000001F1C04101F00041BDE8008198
:104E900011EA0C1F0CEA131500D00CE013EA0C1FEA
:104EA00000F025804FF00000F0BC81EA030101F022
:104EB0000041BDE80081F0BCBDE8004181EA03018A
:104EC00000F094B9F0BCBDE8004170B500F040F9C5
:104ED000097EFC3E00F007B881EA03014FF00000B4
:104EE00001F00041704781EA030100F07FB9F0BC96
:104EF000BDE800414FF0000021497047FFFDFBF97C
:104F0000F7F5F4F2F0EEEDEBE9E8E6E4E3E1E0DEFC
:104F1000DDDBDAD8D7D5D4D3D1D0CFCDCCCBCAC86E
:104F2000C7C6C5C4C2C1C0BFBEBDBCBBBAB9B8B795
:104F3000B6B5B4B3B2B1B0AFAEADACABAAA9A8A888
:104F4000A7A6A5A4A3A3A2A1A09F9F9E9D9C9C9B56
:104F50009A99999897979695959493939291919001
:104F60008F8F8E8E8D8C8C8B8B8A89898888878792
:104F70008685858484838382828181800000FF0707
:104F80000000F87F51EA030C17D41CF5801F58BFAE
:104F9000BCF5801F00F10680994218BF704708BF1A
:104FA0009042704707D711F5801F58BF13F5801F37
:104FB00019D499427047894270471CF5801F08D563
:104FC000BCF5801FF7D58B4218BF704708BF8242DF
:104FD00070474FF4001C1CEB410F38BF1CEB430F14
:104FE00001D28B42704770B500F0B2F892244900AC
:104FF0004FF000514FF08053FFF760BEDFF848C11B
:1050000070B51CEA111E1EBF1CEA13159EEA0C0F98
:1050100095EA0C0F00F06F8081EA030423EA4C1339
:105020004EEAD47E21EA4C1141F4801143F48013FE
:10503000AE44A1FB024CA0FB0365AEF17F7E3619A6
:1050400055EB0C05A1FB034C4CF10003A0FB021C2B
:1050500016EB0C06654153F10003094218BF46F0F8
:10506000010613F4007F0BD14FEA03314FEA0530FC
:10507000340341EA155140EA16506FF003020AE08A
:105080004FEAC3214FEAC520F40241EA555140EAF4
:1050900056506FF0020202EB2E4201EB025585EAF8
:1050A000CE710AD05FEA440C18BF24F0004450F1DE
:1050B000000041F1000120EAD47040F2FE7C62451C
:1050C00000D270BDA84214BF4FF080444FF040445E
:1050D000002E08BF0024BEF1806FA8BFA1F1C0411F
:1050E000BDE8704080F282804FF0000001F1C041C5
:1050F00001F0004170479EEA0C0F0CEA131518BF2F
:1051000095EA0C0F06D04FF0000081EA030E0EF076
:10511000004170BD00F01CF88900013E00F007B8A6
:1051200000F009B84FEA430C5FEA5C5C08D081EA02
:10513000030100F05BB84FEA410C5FEA5C5CF6D11A
:105140004FF00000014970470000FF070000F87FA2
:105150000EF1020E2EF0030E5EF8046B364205D4FB
:10516000012A43EB030515F5001F12D8012841EB76
:10517000010C1CF5001F0CD80ED14FEAD17C15F59F
:10518000001F0CEB4C0C0CF1020C08BF4CEBD37C59
:1051900004E04FF0080C01E04FEAD37C0CEB4C0527
:1051A00026FA05F606F00706B6F1040C06D20EEB59
:1051B000860CBDE870404CF0010C6047DFE80CF055
:1051C000090B02024FF000414FF00000A1F5002151
:1051D00070BD19461046012851EB010418BFD4F5E3
:1051E000001484BF002001F0004170BD0808A0F544
:1051F00000114FEA3101704753EA010C17D41CF536
:10520000801F58BFBCF5801F00F106808B4218BF7D
:10521000704708BF8242704707D713F5801F58BFF9
:1052200011F5801F19D48B4270479B4270471CF5C3
:10523000801F08D5BCF5801FF7D5994218BF70476D
:1052400008BF904270474FF4001C1CEB430F38BF5F
:105250001CEB410F01D2994270470FB40CBC03BC48
:10526000FFF7C1BE91EA030F10B581F000413FF591
:1052700085AC83F0004300F0D5B800002DE9F04183
:1052800001F5801CBCF5001FC0F2A9804FEA115C3B
:1052900021EA0C510CF1FD0C41F480115FEA5C0C29
:1052A0000CF5C07C01D34000494130A4890241EA99
:1052B000905187028E0E0A0CA45D04FB04F602FBDB
:1052C00006F6C6F14046A4FB0662F60D46EA422603
:1052D00006FB06F4A4FB01235242C3F1404338BF4E
:1052E0005B1EA6FB02420024E6FB0324D20B42EA2B
:1052F0004446A6FB0623A1FB02E2A3FB07E4E3FB73
:1053000061426442C2F1404E38BFAEF1010EA6FBCD
:1053100004234FF00002E6FB0E32A2FB03463400EA
:10532000E2FB6264A1FB06E6A4FB07E8E4FB61681C
:105330007642C8F1405838BFA8F10108A2FB06E444
:10534000A3FB08E5E2FB6854A1FB05E6A7FB04E824
:10535000E1FB648618F1200556F10006A809A8F1C2
:105360001B08B10908F03F08B8F10A0F40EA86604F
:105370001CD901EB0C51BDE8F08100BFFCF5EEE853
:10538000E2DDD8D3CFCBC7C3C0BDB9B6B4B1AEACE4
:10539000A9A7A5A3A19F9D9B9A9896959392908F5C
:1053A0008D8C8B898887868584838281A0FB0068A9
:1053B00000FB01F208EB4208B8EB872807D5341848
:1053C00058EB0104D5D5401C51F10001D1E7341A46
:1053D00078EB0104CDD4401E71F10001C9E75FEA0A
:1053E0004C0C5FEA9C5C0DD105D34FF0000001F03E
:1053F0000041BDE8F081BDE8F04170B5FFF7A8FEBF
:105400006DDBFFBEBDE8F0414FF000000049704782
:105410000000F87F10B591EA030F48BF83F0004306
:105420003FF5ACAB841A71EB030C07D212198CF068
:10543000004C43EB0C03001B61EB0C01DFF8A4E113
:105440004FEA1154A4EB135C1EEA430F18BF9EEA07
:10545000445F00F0B08023EA6E03524221EA045117
:10546000C3EB6E0338BF5B1EDCF1200E25D322FA9E
:105470000CFE10EB0E0043FA0CFE41EB0E01CCF1DA
:10548000200E03FA0EFE10EB0E0051F10001CCF1DC
:10549000200E29D412FA0EF201EB0451BDE810409F
:1054A00058BF7047401C1CBFB2F1004F7047002826
:1054B0000CBF491C20F00100704712EB020E43EBB9
:1054C000030218BF4FF0010E4EEA4202ACF1200C6D
:1054D000DCF11E0E54D943FA0CFE10EB0E0051F114
:1054E000FF31CCF11E0ED5D50EF1010E12FA0EFED3
:1054F000404141EB010101EB445C5FEA5C5C10D987
:1055000010EBDE7001EB045138BFBEF1004FBDE877
:10551000104018BF704700280CBF491C20F0010044
:10552000704730D24FEAD42C11F5001124F40064F6
:105530001BD0B1FA81F20B3AA41AA41ED2F12003B7
:10554000914030FA03F31943904001EBCC71002CE9
:1055500001EB0451BDE81040A8BF704701F1C04104
:105560004FF0000001F000417047B0FA80F310FAEC
:1055700003F100D110BDE41A173C4805C90AE4E75D
:1055800001EB045110BD491001EB0451BDE810407E
:105590004FEA300002E04FF0000170474A0008BFB8
:1055A0000042F8D0B2F5001F28BF704701F000415B
:1055B0004FF0000070479EEA445F07D011EA5E0F8B
:1055C000BDE8104004BF002100207047BDE8104036
:1055D00070B5FFF7BDFD00BF40DFF63E83F0004130
:1055E000104670470000E0FF43004FEAD30C4FEA3B
:1055F0003C0C43401FBF40070CF1605113F0FE4FBD
:1056000070471CF0006F03D100200CF00041704780
:105610000CF0004343EA507010B540EACC0000F0B3
:105620000EF800BF000000924FEA0001FFF7DEBD58
:105630004FF000414FF00000A1F5002170470EF13E
:10564000020E2EF0030E5EF8044B244204D44FEAFF
:105650004102B2F17F4F11D84FEA4003B3F17F4FBF
:105660000CD80ED14FEAD07CB2F17F4F0CEB4C0C32
:105670000CF1020C08BF4CEBD17C04E04FF0080C9D
:1056800001E04FEAD17C0CEB4C0324FA03F404F064
:105690000704B4F1040C06D20EEB840CBDE81040F4
:1056A0004CF0010C6047DFE80CF0070802024FF0F5
:1056B0000040A0F5800010BD0846420018BFD2F19E
:1056C000807288BF00F0004010BD4FF04070E1EEE6
:1056D000100A7047FF2141EAD050C0057047751984
:1056E0001A0C6A231B1C1F207274433B4138393A41
:1056F0006B6C376F06246D6E7000680000047600D6
:105700005401F7FD000100008300000000080000C4
:105710000001001832000500000020410000D242C4
:10572000295C0F3E9A99993E3333733F295C0F3EB3
:1057300000007000000000240000000200030000D0
:1057400000650054FFEF0000FA80000B1282000198
:10575000030C30C30E8C8CE914D5400213710F8EEC
:105760003883F8833000F883258EF8833000F8837F
:10577000FFFFFFFF0FFEA9D6240004001A8279A1C3
:105780000000003CFFFF00000010000038836FA203
:10579000003E03304000000002CAE3093E800000E2
:1057A0002000000000000000400000006000000039
:1057B000000C0000000C186E000006920A16C0DFF4
:1057C000FFFF0256FD8CD377FFE1C496E0C5BEAA69
:1057D00000000000FFFF0B2B0000165700000359CC
:1057E0004000000000001DFA00026C1D00000000D7
:1057F0003FFFDFEB003EB3B6000D227800002F3CE8
:1058000000000000001942B5000039A20000B36595
:10581000D90E9FC91DCF4C3430000000500000004D
:105820003BB67AE80064000000C8000000000000F9
:10583000100000001000FA921000225E000D229F5E
:105840000001000000320000FF46000063D40000A9
:105850001000000004D6000004CC000004CC0000BE
:105860000000107200000040000000000000000076
:1058700000060002000500070000000000640000B0
:10588000000000000000000500050064002000008A
:1058900000000000000000000000400000000300C5
:1058A00000000032F8980000FF650000830F000040
:1058B000FF9BFC0000000000000000000000000052
:1058C00000000000000000000000000000000000D8
:1058D00000000000000000000000000000001000B8
:1058E00040000000000000060000B26A0002000054
:1058F0000001FB830068000000D9FC007CF1FF83FD
:105900000000000000650000006403E80064002857
:10591000000000250000000016A00000000010009C
:1059200000001000002F0000000001F40000100033
:1059300000280000FFFF4581FFFFFA720000000011
:1059400000000000004400050005BAC6004778A228
:10595000000000010000000000000600000000142C
:105960000000254D002F706D000005AE000C02D028
:105970000000000000000000000000000000000027
:10598000001B0000000000000000000000000000FC
:10599000006400000008000000000000000000009B
:1059A00000000000000000000000000000000000F7
:1059B00000000000000000000000000000000000E7
:1059C00000000000000000000000000000000000D7
:1059D00000000000000000000000000000000000C7
:1059E00000000000000000000000000000000000B7
:1059F000001B00000000000000000000000E000E70
:105A000000000AC70004000000000032FFFFFF9CF6
:105A100000000B2B000000020000000100000064E9
:105A2000FFE5000000000000000000000000000092
:105A30000000000100000000000100000000000064
:105A4000000180000001800000018000002426D3B6
:105A50000000000000000000000600100096003C5E
:105A60000000000000000000000000000000000036
:105A70000C0A4E68CDCF770950166759C619CE82E9
:105A80000000000000000000000000000000000016
:105A9000000000000000000017D784000300000091
:105AA0000000000000000000C7938F9D1E1B1C1902
:105AB00000000000000000000000000000000000E6
:105AC00000000000000000000203188500004000F4
:105AD00000000003000000030000000000000000C0
