:020000040800F2
:10000000C80800202902000847040008030400086B
:1000100045040008D90200089512000800000000FD
:10002000000000000000000000000000510900086E
:10003000DB02000800000000390800084D0A000833
:10004000430200084302000843020008430200087C
:10005000430200084302000843020008430200086C
:10006000430200084302000843020008430200085C
:10007000430200084302000843020008430200084C
:10008000430200084302000843020008430200083C
:10009000430200084302000843020008430200082C
:1000A000430200084302000843020008430200081C
:1000B0004302000843020008390D0008430200080B
:1000C00043020008430200084302000843020008FC
:1000D00043020008611100084302000843020008BF
:1000E00043020008430200084302000843020008DC
:1000F00043020008430200084302000843020008CC
:1001000043020008430200084302000843020008BB
:1001100043020008430200084302000843020008AB
:10012000430200084302000843020008430200089B
:10013000430200084302000843020008430200088B
:10014000430200084302000843020008430200087B
:10015000430200084302000843020008430200086B
:10016000430200084302000843020008430200085B
:10017000430200084302000843020008430200084B
:10018000430200084302000800F002F800F03CF8C7
:100190000AA090E8000C82448344AAF10107DA45E2
:1001A00001D100F031F8AFF2090EBAE80F0013F0F8
:1001B000010F18BFFB1A43F001031847A0170000F6
:1001C000C0170000103A24BF78C878C1FAD8520787
:1001D00024BF30C830C144BF04680C6070470000C1
:1001E0000023002400250026103A28BF78C1FBD840
:1001F000520728BF30C148BF0B6070471FB501F0E0
:10020000A2FB1FBD10B510BD00F033F81146FFF77B
:10021000F5FF01F05FF800F051F803B4FFF7F2FFCB
:1002200003BC01F038F8000009488047094800473E
:10023000FEE7FEE7FEE7FEE7FEE7FEE7FEE7FEE796
:10024000FEE7FEE704480549054A064B70470000F3
:10025000510A000889010008C8020020C8080020CF
:10026000C8040020C80400207047704770477047DA
:100270007047754600F02CF8AE46050069465346B7
:1002800020F00700854618B020B5FFF7DBFFBDE87A
:1002900020404FF000064FF000074FF000084FF0ED
:1002A000000B21F00701AC46ACE8C009ACE8C0097E
:1002B000ACE8C009ACE8C0098D46704710B50446EB
:1002C000AFF300802046BDE81040FFF7A6BF000056
:1002D0000048704768020020FEE770477FB50C4673
:1002E00005460121042000F0B5FAADF800400020D9
:1002F000104CADF80200ADF80800019569462046A3
:1003000000F0F0FE01221146204600F044FE1E20BF
:100310008DF80C0001218DF80F108DF80D108DF85F
:100320000E1003A800F090F80121204600F0A6FD71
:100330007FBD000000080040F0B500230124032722
:100340000D6804FA03F21540954242D1D0F800C07E
:100350005E0007FA06F52CEA050CC0F800C091F81B
:1003600004C0D0F800E00CFA06FC4CEA0E0CC0F811
:1003700000C091F804C0BCF1010F02D0BCF1020F23
:100380001FD1D0F808C02CEA050CC0F808C091F8BD
:1003900005C0D0F808E00CFA06FC4CEA0E0CC0F8D8
:1003A00008C0D0F804C02CEA020CC0F804C04268AF
:1003B00091F806C00CFA03FC1FFA8CFC42EA0C020E
:1003C0004260C268AA43C260CA79C568B2402A4383
:1003D000C2605B1C102BB3D3F0BD4B07DB0E9A4001
:1003E000C90810B500EB8100016A0F249C40A143AD
:1003F0000162016A1143016210BD418370470183AC
:100400007047FEE77CB50121042000F017FA0120B7
:100410008DF8040000218DF8061003218DF80510D9
:10042000074D4FF400548DF80700009469462846A4
:10043000FFF782FF21462846FFF7E1FF7CBD000061
:1004400000080240FEE7704730B50F22C4780178FB
:100450000123FCB1144C246801F1E02104F4E064B0
:10046000C4F5E064C4F30724C4F10405E240447811
:10047000AC408578154025432A0181F80024007896
:1004800000F01F018B404009800000F1E020C0F81F
:10049000003130BD01F01F0083404809800000F1A9
:1004A000E020C0F8803130BD0CED00E00249084387
:1004B00002490860704700000000FA050CED00E0FA
:1004C00070B50D462DED108B0446B0EE47BAF0EE38
:1004D00067BAB0EE46CAF0EE66CAB0EE45DAF0EEA4
:1004E00065DAB0EE449AF0EE649AB0EE43AAF0EE0C
:1004F00063AAB0EE428AF0EE628AB0EE41FAF0EE04
:1005000061FA9DED16EB51EC100B00F0E7FF206057
:1005100051EC1F0B00F0E2FF606051EC180B00F093
:10052000DDFF9FED3F8BA06053EC182B51EC1A0BB5
:1005300001F028F808D351EC1A0B9FED3B0B53EC5C
:10054000102B01F059F904D89FED390A84ED030A04
:1005500004E051EC1A0B00F0C1FFE06053EC182BE3
:1005600051EC190B01F00EF804D29FED320A84ED24
:10057000040A04E051EC190B00F0B0FF206153ECC9
:10058000182B51EC1B0B00F0FDFF04D29FED290A44
:1005900084ED080A04E051EC1B0B00F09FFF206281
:1005A00053EC182B51EC1E0B00F0ECFF04D294ED31
:1005B000040A84ED070A04E051EC1E0B00F08EFFE4
:1005C000E06153EC182B51EC1D0B00F0DBFF04D263
:1005D0009FED170A84ED050A04E051EC1D0B00F0B5
:1005E0007DFF606153EC182B51EC1C0B00F0CAFF2F
:1005F00008D294ED080AF0EE000A20EE200A84EDFD
:10060000060A04E051EC1C0B00F068FFA06184F8BE
:1006100024509DED140B84ED0E0BBDEC108B70BDC2
:100620000000000000000000000000000000F03F9B
:100630000000000000FCFF4610B504462DED028BC3
:1006400090ED081AB4EEE01AF1EE10FA02D2F0EED4
:10065000410A08E0F1EE411AF4EEE01AF1EE10FA68
:1006600001DDF0EE610A30EEC00A84ED100A94F864
:100670002400022802D0012816D02AE0F6EE000A53
:1006800061EE200AB4EEE00AF1EE10FA02DD30EE7F
:10069000410A1CE0F1EE401AF4EEE01AF1EE10FA15
:1006A00017DD31EE000A12E0B4EEC10AF0EE000AE6
:1006B000F1EE10FA02DD01EE600A08E0F1EE401AF8
:1006C000F4EEC11AF1EE10FA03DD01EE200A84ED1A
:1006D000100A206C01F0C6F894ED0E1B53EC112BA0
:1006E00001F08AF894ED0E0B51EC100B03D200F0E0
:1006F000F5FE206417E000F0E5FE41EC180B206CDD
:1007000001F0B0F853EC182B00F03CFF0BD294ED45
:100710000E0B51EC100B00F0E1FE00EE100AB1EEF2
:10072000400A84ED100A94ED100A00F0CBFD94ED20
:10073000051ADFED400AB4EEC10AF1EE10FA66DDEB
:1007400094ED100A00F0BEFD94ED061AB4EEC10A55
:10075000F1EE10FA94ED0C0A06D8D4ED010A94EDEE
:10076000101A00EE810A01E020EE200A84ED0C0A46
:10077000F0EE400A94ED070AF4EEC00AF1EE10FA2A
:1007800006DCB1EE400AF4EEC00AF1EE10FA01D236
:1007900084ED0C0AD4ED000A94ED100AB7EE002A9D
:1007A00060EE800AC4ED0B0A94ED031AD4ED021A30
:1007B00032EE412A61EE821A94ED112A30EE420A9D
:1007C00021EE800AD4ED121A01EE210A84ED0D0A01
:1007D00084ED120A94ED0C1A70EE810A70EE800A14
:1007E000C4ED0A0A94ED040AF4EEC00AF1EE10FA20
:1007F00001DD84ED0A0AD4ED0A0AB1EE400AF4EEF6
:10080000C00AF1EE10FA0ED284ED0A0A0BE094ED64
:100810000A0A20EE200A84ED0A0A94ED0C0A20EE62
:10082000200A84ED0C0A94ED100A84ED110ABDEC47
:10083000028B10BDA4707D3F70470000044A002960
:10084000116801D0014300E081431160704700004E
:1008500030380240044A0029116801D0014300E009
:10086000814311607047000040380240044A00296B
:10087000116801D0014300E081431160704700001E
:100880004438024070B5204A1168204C11F00C0128
:1008900004D06610042903D0082903D004601BE0AB
:1008A000066019E01849091F0B68C3F380550B68EF
:1008B00003F03F0315B1B6FBF3F301E0B4FBF3F330
:1008C0000C680968C4F388146343C1F30141491CEF
:1008D0004900B3FBF1F1016011680F2303EA111124
:1008E0000B4B5C5C0168E14041601468072505EA38
:1008F00094241C5D21FA04F48460126805EA5232E3
:100900009A5CD140C16070BD083802400024F400F8
:100910001600002000214FF4704318B101280AD0BE
:1009200000207047084A1068984202DBA0F57F401B
:10093000FF3811607047054A506A984202DBA0F503
:100940007F40FF385162704724040040000001409E
:10095000704700002DE9F0410026184C01270D4694
:100960004FF08048002808DBC4F88462C4F888721D
:10097000C8F840000146404607E0C4F88472C4F855
:10098000886241424046C8F8401000F07FFB002DCD
:1009900008DBC4F89472C4F890624046C8F834503A
:1009A000294607E0C4F89462C4F890726942404650
:1009B000C8F83410BDE8F04100F066BB00004042CA
:1009C0001848016841F0805101601748016841F4FE
:1009D00040410160134838380168016001680160D6
:1009E000016841F480510160021F10491160111F1C
:1009F0000A6842F080720A600A689201FCD50C4ACB
:100A000040F202711160016821F003010160016888
:100A100041F0020101600168C1F381010229FAD1AC
:100A20007047000040380240007000401064010729
:100A3000003C02404FF0E0210428086903D020F078
:100A400004000861704740F00400FAE770470000B6
:100A5000124810B5016841F4700101601048016846
:100A600041F0010101600E4A002108321160026864
:100A70000C4B1A400260031D0B4A1A60026822F4F4
:100A80008022026006480C300160FFF799FF03499D
:100A90004FF000608039086010BD000088ED00E074
:100AA00000380240FFFFF6FE1030002470B5048CC1
:100AB00024F001040484058B048C4FF6FF7606EACB
:100AC0000313134325F0F3052B4324F00A020A43D2
:100AD00042F001010383018470BDF0B5048C24F061
:100AE00010040484078B068C4FF6FF7404EA01158A
:100AF00027F4734704EA0331394304EA02220A4324
:100B000026F0A001294341F0100102830184F0BDC9
:100B10002DE9F0438846814601218BB00846FFF756
:100B200099FE01210846FFF789FE2D4F012203217E
:100B30003846FFF752FC012200213846FFF74DFCF2
:100B4000012636208DF80460022500908DF80550AE
:100B500000248DF8064069463846FFF7EDFB362144
:100B60003846FFF74AFC8DF8045009208DF80550EF
:100B700000908DF806408DF8074069463846FFF72B
:100B8000DBFBADF81C806D07ADF81E40CDF8209062
:100B9000ADF8244007A9284600F0A4FA6020ADF87B
:100BA0000800ADF80A60ADF8144002A9284600F02C
:100BB00031FA02A9284600F0F7F90821284600F08A
:100BC00059FA0821284600F01FFA0121284600F0B2
:100BD00045F90121284600F051F90BB0BDE8F0833A
:100BE0000000024030B589B001210220FFF732FE3B
:100BF00001210846FFF73AFEC020069002208DF83A
:100C00001C00204D00248DF81F4006A92846FFF740
:100C100093FB022206212846FFF7DFFB0222072171
:100C20002846FFF7DAFBADF80040ADF808404FF674
:100C3000FF70154C01906946204600F053FA0023DE
:100C40001A460321204600F023F903A800F09BF97F
:100C50000A20ADF8140003A9204600F03EF9012156
:100C6000204600F005F901221146204600F093F9D4
:100C70000021204600F00CFA0121204600F0FEF889
:100C800009B030BD000002400004004030B5012131
:100C900089B00846FFF7DEFD01210846FFF7E6FDB3
:100CA0004FF44070069002208DF81C00204D002467
:100CB0008DF81F4006A92846FFF73EFB01220821B8
:100CC0002846FFF78AFB012209212846FFF785FB0A
:100CD000ADF80040ADF808404FF6FF70154C01909C
:100CE0006946204600F0FEF900231A4603212046FB
:100CF00000F0CEF803A800F046F90A20ADF8140081
:100D000003A9204600F0E9F80121204600F0B0F8E0
:100D100001221146204600F03EF90021204600F055
:100D2000B7F90121204600F0A9F809B030BD000054
:100D300000000240000001402DE9F0413D4F01213B
:100D40002DED068B384600F0BCF801286DD100204F
:100D5000FFF7E0FD384E30600120FFF7DBFD054670
:100D60003648384C38490560354890ED000AB8EEF1
:100D7000C08AF8EEC08A84ED5E8AC4ED168A3068B7
:100D8000484300F0E8FB9FED31AB53EC1A2B00F029
:100D900035FC00F0A3FB09EE100A2B4884ED5F9AA6
:100DA000684300F0D8FB53EC1A2B00F027FC00F04E
:100DB00095FBBDEEC80AE065F0EE480A84ED5C0ADA
:100DC000BDEEE80A04F5907084ED140AB0EE490A0D
:100DD000FFF732FCD4ED160A94ED170A2046FFF710
:100DE0002BFC94ED520A1B4884ED600A94ED0A0A2C
:100DF00084ED180A0078022803D1DFED170AC4ED4C
:100E0000600ABDEEC00A10EE101A94ED600ABDEE45
:100E1000C00A10EE100AFFF79DFDBDEC068B3846A8
:100E20000121BDE8F04100F026B8BDEC068BBDE81D
:100E3000F0810000000800400400002008000020AD
:100E40000000002028000020400D030054CBEF9745
:100E5000C3AC1F3F100000200000000000290188E3
:100E600002D041F0800101E021F080010180704753
:100E7000C94301827047C943018270470029018834
:100E800002D041F0010101E021F001010180704731
:100E900070B50589048B068C25F007050D434FF6C8
:100EA000FC410C4040F201110C434FF6FF7101EA86
:100EB000031126F022061143314305810483018486
:100EC00070BD02460020138A92890B4202EA010299
:100ED00002D0002A00D0012070472DE9F0410D46D4
:100EE0000E884988AA882B89044616B3042E28D078
:100EF000082E268C4FF6FF702BD026F480562684C1
:100F0000A78B268C00EA022200EA013127F47347FE
:100F10003A4300EA0330104326F420420A4342F4E5
:100F20008051A0832184E9882046BDE8F04100F08B
:100F3000CDB8FFF7BBFDE9882046BDE8F04100F0E1
:100F4000A9B8FFF7CAFDE9882046BDE8F04100F0E6
:100F5000A9B826F480762684A78B268C00EA012186
:100F600000EA0310104327F0F307384326F4206209
:100F70000A4342F48071A0832184E9882046BDE8B9
:100F8000F04100F09BB80021018041800122828065
:100F9000C18001817047002A828901D00A4300E0A4
:100FA0008A4382817047000030B5028C22F0010232
:100FB0000284028C8388048B22F0020224F07305E1
:100FC0000C882C438D8915434A882A430C4DA8422E
:100FD00002D00C4DA8420DD122F00805CA8923F495
:100FE00040732A4322F004058A882A430D8A1D4350
:100FF0004B8A2B438380048389684163028430BD1C
:101000000000014000040140028B22F008020A4364
:101010000283704770B5028C22F480520284048CE3
:101020008288838B0D8823F4E6464FF6FF7303EA2C
:101030000525354324F400568C8903EA04343443EF
:101040004E8803EA06362643084CA04202D0084CDC
:10105000A04205D122F480440A8A03EA8212224384
:101060008280858389680164068470BD0000014028
:1010700000040140828B4FF6FF7322F4006203EA02
:1010800001211143818370474163704701647047B8
:1010900041627047028B22F00C020283028B0A43EA
:1010A00002837047028B22F440620283028B4FF668
:1010B000FF7303EA01210A4302837047828B22F007
:1010C0000C028283828B0A4382837047828B22F4D4
:1010D00040628283828B4FF6FF7303EA01210A4349
:1010E0008283704730B50288164B174C98420DD05A
:1010F000A0420BD0B0F1804F08D0144DA84205D0CB
:10110000134DA84202D0134DA84203D122F070051E
:101110004A882A43104DA84206D0104DA84203D059
:1011200022F440750A892A4302804A68C2620A880A
:101130000285984201D0A04201D1897A018601211D
:10114000818230BD000001400004014000040040E5
:1011500000080040000C0040001000400014004057
:1011600010B50B4800F092F80A49312808600A4986
:1011700008D0322808D0332808D0342801D10420E0
:10118000087010BD0120FBE70220F9E70320F7E714
:10119000001001400C00002010000020002981896F
:1011A00002D041F4005101E021F4005181817047E7
:1011B00010B5C1F3421301F01F040121A140012B1E
:1011C00007D0022B07D01430002A026805D00A434A
:1011D00004E00C30F8E71030F6E78A43026010BDF7
:1011E0007FB50446008A0D4620F44051E888084344
:1011F0002082A08941F20C618843A9882A89114381
:101200006A8902431143A181A08A20F44071A88910
:101210000843A0826846FFF735FB1A48844202D093
:101220001948844201D1039800E00298A189090479
:1012300000EBC00101EB0010296801D5490000E076
:101240008900B0FBF1F26420B2FBF0F109010B0957
:101250006FF018056B4302EB8302A3891D044FF066
:10126000320306D503EBC202B2FBF0F000F0070038
:1012700005E003EB0212B2FBF0F000F00F000843B0
:1012800020817FBD00100140001401408088C0F320
:1012900008007047FEE7704710B504466FF0040081
:1012A000FFF7C8FB0648E10801EB41020170C2EB01
:1012B000C1114FF6FF7202EAC101418010BD00006A
:1012C00012000020B5EEC00AF1EE10FA01DAB1EE1C
:1012D000400A70472DED108B84B04FF4A060FFF7EB
:1012E000E5F8A820FFF7D8FF4FF4165000F094F867
:1012F000FFF788F842F2CF0400212046FFF708FCF0
:10130000FFF770FCFFF7C2FC63212046FEF7E6FF03
:101310009FED35AB9FED30BB9FED31CB9FED34DBC7
:101320009FED35EB9FED36FB9FED279B9FED288BC7
:101330008DED029B8DED008B0021B0EE4B7AF0EE2F
:101340006B7AB0EE4C6AF0EE6C6AB0EE4A5AF0EE90
:101350006A5AB0EE4D4AF0EE6D4AB0EE4A3AF0EEFF
:101360006A3AB0EE4E2AF0EE6E2AB0EE4F1AF0EE68
:101370006F1A9FED250B2648FFF7A2F80021B0EE6B
:101380004B7AF0EE6B7AB0EE4C6AF0EE6C6AB0EE2F
:101390004A5AF0EE6A5AB0EE4D4AF0EE6D4AB0EE9F
:1013A0004A3AF0EE6A3AB0EE4E2AF0EE6E2AB0EE0D
:1013B0004F1AF0EE6F1A9FED140B16488DEC048B4C
:1013C000FFF77EF8FEE700000000000000189540DF
:1013D0000000000000D091400000000000C08740E5
:1013E0000000000000406F4000000000000000000E
:1013F000000000000064B940000000000000E03F71
:101400009A9999999999B93F0000000000004E40BF
:101410004801002028000020F0B5064687B00121D1
:101420000220FFF70BFA01211020FFF71FFA234FCC
:10143000072206213846FEF7D0FF0722114638461C
:10144000FEF7CBFFC020049002208DF814008DF829
:10145000150000248DF8164001258DF8175004A9B9
:101460003846FEF769FFADF80440ADF80640ADF828
:101470000840ADF80C400C20114CADF80A00009665
:1014800069462046FFF7ACFE01212046FFF786FEA5
:10149000012240F225512046FFF78AFE25208DF8D3
:1014A000180003208DF819008DF81A008DF81B50D4
:1014B00006A8FEF7C9FF07B0F0BD00000004024017
:1014C0000010014081F00041704780F000407047FB
:1014D00021F00041704720F00040704721F00042A9
:1014E000A2F16052B2F5801F01F0004328BFD2F193
:1014F0007F6C0BD95FEA001C43EAC20242EB5070DA
:1015000018BF704728BF20F001007047B2F5801F58
:10151000BCBF184670474FEA410C1CF5001F02D2B1
:10152000084600F015BA70B500F012F90000008905
:10153000FFF7F6BF4FF00040A0F58000704749105C
:1015400058BFC1F140415B1058BFC3F140438B42CB
:10155000EFF30080704710F0004248BF4042B0FAFD
:1015600080F310FA03F10AD0C3F11D0303F5806381
:101570004FEA415002EB035202EBD12170474FF08A
:101580000000704751EA030C17D41CF5801F58BFA8
:10159000BCF5801F00F10680994218BF704708BF54
:1015A0009042704707D711F5801F58BF13F5801F71
:1015B00019D499427047894270471CF5801F08D59D
:1015C000BCF5801FF7D58B4218BF704708BF824219
:1015D00070474FF4001C1CEB410F38BF1CEB430F4E
:1015E00001D28B42704770B500F0B2F892244900E6
:1015F0004FF000514FF08053FFF7A1BFDFF848C113
:1016000070B51CEA111E1EBF1CEA13159EEA0C0FD2
:1016100095EA0C0F00F06F8081EA030423EA4C1373
:101620004EEAD47E21EA4C1141F4801143F4801338
:10163000AE44A1FB024CA0FB0365AEF17F7E3619E0
:1016400055EB0C05A1FB034C4CF10003A0FB021C65
:1016500016EB0C06654153F10003094218BF46F032
:10166000010613F4007F0BD14FEA03314FEA053036
:10167000340341EA155140EA16506FF003020AE0C4
:101680004FEAC3214FEAC520F40241EA555140EA2E
:1016900056506FF0020202EB2E4201EB025585EA32
:1016A000CE710AD05FEA440C18BF24F0004450F118
:1016B000000041F1000120EAD47040F2FE7C624556
:1016C00000D270BDA84214BF4FF080444FF0404498
:1016D000002E08BF0024BEF1806FA8BFA1F1C04159
:1016E000BDE8704080F282804FF0000001F1C041FF
:1016F00001F0004170479EEA0C0F0CEA131518BF69
:1017000095EA0C0F06D04FF0000081EA030E0EF0B0
:10171000004170BD00F01CF88900013E00F007B8E0
:1017200000F009B84FEA430C5FEA5C5C08D081EA3C
:10173000030100F05BB84FEA410C5FEA5C5CF6D154
:101740004FF00000014970470000FF070000F87FDC
:101750000EF1020E2EF0030E5EF8046B364205D435
:10176000012A43EB030515F5001F12D8012841EBB0
:10177000010C1CF5001F0CD80ED14FEAD17C15F5D9
:10178000001F0CEB4C0C0CF1020C08BF4CEBD37C93
:1017900004E04FF0080C01E04FEAD37C0CEB4C0561
:1017A00026FA05F606F00706B6F1040C06D20EEB93
:1017B000860CBDE870404CF0010C6047DFE80CF08F
:1017C000090B02024FF000414FF00000A1F500218B
:1017D00070BD19461046012851EB010418BFD4F51D
:1017E000001484BF002001F0004170BD0808A0F57E
:1017F00000114FEA3101704753EA010C17D41CF570
:10180000801F58BFBCF5801F00F106808B4218BFB7
:10181000704708BF8242704707D713F5801F58BF33
:1018200011F5801F19D48B4270479B4270471CF5FD
:10183000801F08D5BCF5801FF7D5994218BF7047A7
:1018400008BF904270474FF4001C1CEB430F38BF99
:101850001CEB410F01D2994270470FB40CBC03BC82
:10186000FFF7C1BE43004FEAD30C4FEA3C0C4340A4
:101870001FBF40070CF1605113F0FE4F70471CF082
:10188000006F03D100200CF0004170470CF00043C2
:1018900043EA507010B540EACC0000F00EF800BFEB
:1018A000000000924FEA0001FFF7A0BF4FF0004197
:1018B0004FF00000A1F5002170470EF1020E2EF04E
:1018C000030E5EF8044B244204D44FEA4102B2F105
:1018D0007F4F11D84FEA4003B3F17F4F0CD80ED1A0
:1018E0004FEAD07CB2F17F4F0CEB4C0C0CF1020CA8
:1018F00008BF4CEBD17C04E04FF0080C01E04FEA4C
:10190000D17C0CEB4C0324FA03F404F00704B4F18B
:10191000040C06D20EEB840CBDE810404CF0010C18
:101920006047DFE80CF0070802024FF00040A0F526
:10193000800010BD0846420018BFD2F1807288BFF7
:1019400000F0004010BD4FF04070E1EE100A70470B
:10195000FF2141EAD050C005704700007C19000803
:101960000000002028000000C4010008A41900089D
:1019700028000020A0080000E0010008640000002A
:101980000000000000000000000000000000000057
:101990000000000000000102030401020304060726
:0419A0000809000032
:040000050800018965
:00000001FF
