:020000040800F2
:1000000068080020CD010008C9040008F9030008B1
:10001000310400087D0200082F13000800000000D2
:1000200000000000000000000000000011090008AE
:100030008102000800000000B10800087D0A0008E5
:10004000E7010008E7010008E7010008E7010008F0
:10005000E7010008E7010008E7010008E7010008E0
:10006000E7010008E7010008E7010008E7010008D0
:10007000E7010008E7010008E7010008E7010008C0
:10008000E7010008E7010008E7010008E7010008B0
:10009000E7010008E7010008E7010008E7010008A0
:1000A000E7010008E7010008E7010008E701000890
:1000B000DD0D0008E7010008110F0008E701000846
:1000C000E7010008E7010008E7010008E701000870
:1000D000E701000835120008E7010008BD1200081A
:1000E000E7010008E7010008E7010008E701000850
:1000F000E7010008E7010008E7010008E701000840
:10010000E7010008E7010008E7010008E70100082F
:10011000E7010008E7010008E7010008E70100081F
:10012000E7010008E7010008E7010008E70100080F
:1001300000F002F800F03AF80AA090E8000C8244BF
:100140008344AAF10107DA4501D100F02FF8AFF29C
:10015000090EBAE80F0013F0010F18BFFB1A43F0A5
:1001600001031847A4200000C4200000103A24BF57
:1001700078C878C1FAD8520724BF30C830C144BF0C
:1001800004680C607047000000230024002500264E
:10019000103A28BF78C1FBD8520728BF30C148BFEA
:1001A0000B6070471FB51FBD10B510BD00F033F8D0
:1001B0001146FFF7F7FF01F013F900F051F803B40F
:1001C000FFF7F2FF03BC01F0B4F8000009488047D4
:1001D00009480047FEE7FEE7FEE7FEE7FEE7FEE729
:1001E000FEE7FEE7FEE7FEE704480549054A064B41
:1001F00070470000810A00083101000868020020F1
:1002000068080020680400206804002070477047D8
:10021000704770477047754600F02CF8AE460500F1
:100220006946534620F00700854618B020B5FFF711
:10023000DBFFBDE820404FF000064FF000074FF015
:1002400000084FF0000B21F00701AC46ACE8C009F4
:10025000ACE8C009ACE8C009ACE8C0098D467047FD
:1002600010B50446AFF300802046BDE81040FFF70C
:10027000A6BF0000004870470802002000BFFEE74C
:1002800070477FB505460C460121084600F012FB79
:10029000ADF80850ADF804400020ADF80600ADF808
:1002A0000A0001A94FF0804000F072FF01221146C0
:1002B000900700F0E8FE1C208DF8000001208DF86A
:1002C00003008DF801008DF80200684600F0FEF88A
:1002D0000121880700F03AFE7FBD2DE9F04102467A
:1002E00000250026002000230024002791F803C0E9
:1002F0000CF00F0591F803C00CF0100CBCF1000FCE
:1003000003D091F802C04CEA050591F800C0BCF199
:10031000000F31D0146800202BE04FF0010C0CFAD4
:1003200000F3B1F800C00CEA03069E4220D183001E
:100330004FF00F0C0CFA03F7BC4305FA03FC4CEA30
:10034000040491F803C0BCF1280F06D14FF0010C52
:100350000CFA00FCC2F814C00AE091F803C0BCF12A
:10036000480F05D14FF0010C0CFA00FCC2F810C088
:10037000401C0828D1D31460B1F800C0BCF1FF0FB5
:1003800034DD546800202EE000F1080C4FF0010825
:1003900008FA0CF3B1F800C00CEA03069E4221D122
:1003A00083004FF00F0C0CFA03F7BC4305FA03FC73
:1003B0004CEA040491F803C0BCF1280F05D100F108
:1003C000080C08FA0CF8C2F8148091F803C0BCF1CC
:1003D000480F07D100F1080C4FF0010808FA0CF89B
:1003E000C2F81080401C0828CED35460BDE8F081CC
:1003F000416170470161704700BFFEE708B5012108
:10040000042000F067FA5020ADF8000010208DF8AD
:10041000030003208DF8020069460448FFF75DFFE2
:1004200010210248FFF7E6FF08BD00000008014068
:1004300000BFFEE700B587B00121042000F03AFAC2
:100440000121082000F046FAC020ADF81800042071
:100450008DF81B0006A91A48FFF73FFF4FF6FF7003
:10046000ADF810000020ADF80C00ADF81200ADF8AA
:100470000E0003A9134800F08BFE00231A46032147
:10048000104800F06FFD684600F0F4FD0A20ADF85A
:10049000080069460B4800F097FD0121094800F06B
:1004A0004FFD01221146074800F0EDFD00210548EF
:1004B00000F040FE0121034800F048FD07B000BDF8
:1004C000000C0140000800407047000070B500219A
:1004D00000230F22C47804B3154C246804F4E064AC
:1004E000C4F5E064210AC1F10403CA40447804FA67
:1004F00003F184781440214309010E4C0678A1557C
:10050000047804F01F050124AC4005786D11AD009E
:1005100005F1E025C5F8004109E0047804F01F0565
:100520000124AC40044D0678761145F8264070BD94
:100530000CED00E000E400E080E100E0024901434E
:10054000024A1160704700000000FA050CED00E05F
:100550002DE9F05F824616461F46DDF870B00EACFE
:1005600094E830033046394600F0EEFFCAF8000048
:10057000DDE90A0100F0E8FFCAF80400DDE90C013A
:1005800000F0E2FFCAF80800002213462046294680
:1005900001F088F906D30022394B2046294601F0A4
:1005A000BBFA03D80020CAF80C0005E02046294613
:1005B00000F0CAFFCAF80C00002213464046494624
:1005C00001F070F903D22F48CAF8100005E0404648
:1005D000494600F0B9FFCAF8100000221346DDE9D1
:1005E000160101F05FF903D22648CAF8200005E0A1
:1005F000DDE9160100F0A8FFCAF82000002213462A
:10060000DDE91A0101F04EF904D2DAF81000CAF857
:100610001C0005E0DDE91A0100F096FFCAF81C0095
:1006200000221346DDE9120101F03CF903D200205B
:10063000CAF8140005E0DDE9120100F085FFCAF8F0
:10064000140000221346DDE9140101F02BF908D251
:100650004FF08040DAF8201001F058FCCAF818007A
:1006600005E0DDE9140100F06FFFCAF818008AF810
:1006700024B0DDE91801CAE90E01BDE8F09F0000D1
:100680000000F03F00FCFF462DE9F05F04468A467B
:1006900091464846216A01F005FD02D2D4F8209027
:1006A0000AE0206A80F000454946284601F0FAFC3D
:1006B00002D2206A80F000495146484601F02EFDE2
:1006C000206494F82400022823D14FF08041206A4E
:1006D00001F0F2FA0546216C01F0E4FB05D2216A33
:1006E000206C01F01BFD206439E04FF08041206A4E
:1006F00001F0E2FA0646206C80F0004531462846BB
:1007000001F0D0FC2BD2216C206A01F067FA206442
:1007100025E094F82400012821D1216A206C01F001
:10072000C1FC0AD24FF08040216A01F0EFFB054680
:10073000216C01F0E8FC206411E0206C80F00045A1
:100740002846216A01F0AEFC09D24FF08041206AB0
:1007500001F0DCFB0546216C01F040FA2064206CBE
:1007600001F010FA0546D4E90E733A4601F0D4F9C7
:1007700006D2D4E90E21104600F0E6FE206414E013
:10078000D4E90E5181F00046206C01F0FBF90746D8
:100790002A46334601F086F807D2D4E90E5181F09B
:1007A0000041284600F0D0FE2064206C00F00CFED2
:1007B0000546616901F076FC6AD2206C00F004FE07
:1007C0000546A16901F06EFB09D8216C606801F053
:1007D0009DFB0546216B01F001FA206304E03349DB
:1007E000206B01F093FB2063E169206B01F05AFC60
:1007F00002D2E06920630BE0E06980F00045284602
:10080000216B01F04FFC03D2E06980F000402063CF
:10081000216C206801F07AFBE062A16CE06801F0D5
:1008200075FB0746D4E9100101F078FC80464FF0D3
:100830007E50E16801F072FC8346A16801F066FB1E
:100840000646414601F062FB0546394601F0C6F90D
:100850006063606BA064D4E90B0101F0BFF9054649
:10086000616B01F0BBF9A0622169A06A01F01AFC7A
:1008700001D22069A062206980F000452846A16A63
:1008800001F010FC0ED2206980F00040A06209E067
:100890000649A06A01F03AFBA0620449206B01F00E
:1008A00035FB2063206C6064BDE8F09FA4707D3F41
:1008B0007047000029B1064AD2690243044BDA614D
:1008C00004E0034AD2698243014BDA6170470000B9
:1008D0000010024029B1064A92690243044B9A6112
:1008E00004E0034A92698243014B9A617047000019
:1008F0000010024005490888B0F5704F02DBA0F5F2
:100900007F40FF380021014A1180704724080040D1
:100910007047000010B50446002C0EDB0020104983
:10092000086001200F49C1F8B0010F490C80A1B245
:100930000D48403800F0FBFB11E0002C0FDA0120DD
:100940000749086000200749C1F8B0016042064924
:100950000880604281B20448403800F0E8FB10BDD6
:10096000B4812142008021424004004010B500F0D3
:1009700001F810BD0CB500200190009033480068CC
:1009800040F480303149086000BF3048006800F40E
:10099000003000900198401C0190009818B901980F
:1009A000B0F5A06FF1D12948006800F4003010B113
:1009B0000120009001E0002000900098012843D120
:1009C0002348006840F0100021490860084600688C
:1009D00020F0030008600846006840F0020008604C
:1009E0001A48406819494860084640684860084607
:1009F000406840F4806048600846406820F47C10FD
:100A000048600846406840F4E810486008460068BE
:100A100040F08070086000BF0C48006800F0007073
:100A20000028F9D00948406820F0030007494860D1
:100A30000846406840F00200486000BF0348406834
:100A400000F00C000828F9D10CBD00000010024095
:100A500000200240042808D14FF0E021096941F04C
:100A600004014FF0E022116107E04FF0E021096935
:100A700021F004014FF0E02211617047704700003F
:100A800010B51348006840F001001149086008469D
:100A90004068104908400E494860084600680E4901
:100AA00008400B4908600846006820F48020086070
:100AB0000846406820F4FE0048604FF41F0088603C
:100AC000FFF754FF4FF000600449086010BD0000BC
:100AD000001002400000FFF8FFFFF6FE08ED00E006
:100AE00030B589B005460C4601210820FFF7F2FE1B
:100AF00001210220FFF7DEFE4FF44050ADF8200048
:100B000010208DF8230003208DF8220008A9214829
:100B1000FFF7E3FB4FF440511E48FFF769FC02204A
:100B2000ADF8200018208DF8230003208DF8220056
:100B300008A91848FFF7D1FBA8B2ADF81800A0B279
:100B4000ADF814000020ADF81600ADF81A0005A9A4
:100B5000114800F01DFB6020ADF804000020ADF846
:100B60000C000120ADF806000020ADF80A0001A934
:100B7000094800F091FA0021074800F0CBFA012162
:100B8000054800F0D1F90121034800F0DFF909B070
:100B900030BD0000000C014000040040F0B50C46E0
:100BA000154600220021068C4FF6FE773E40068453
:100BB000028B018C4FF60C7632407E1C06EA03163F
:100BC0002E433243104EB0420ED0104EB0420BD0E6
:100BD000B0F1804F08D00E4EB04205D00D4EB0425D
:100BE00002D00D4EB04206D14FF6FD76314044F0B2
:100BF0000106314305E04FF6F576314044F0010639
:100C0000314302830184F0BD002C014000340140D7
:100C10000004004000080040000C0040F0B50C4605
:100C20001546002200210026078C4FF6EF7C07EACC
:100C30000C070784028B018C4FF6FF7707EA041636
:100C400040F6FF473A404FF6FF7707EA03373A434B
:100C50004FF6FF7707EA05273A43114FB8420ED007
:100C6000104FB8420BD0B0F1804F08D00E4FB842B1
:100C700005D00E4FB84202D00D4FB84206D14FF604
:100C8000DF77394046F01007394305E04FF65F77CC
:100C9000394044F01007394302830184F0BD00005D
:100CA000002C0140003401400004004000080040D6
:100CB000000C0040F0B50C4615460022002100262D
:100CC000078C4FF6FF6C07EA0C070784828B018CB8
:100CD0004FF6FF7707EA04264FF60C773A404FF6B7
:100CE000FF7707EA03172F433A43114FB8420ED05C
:100CF000104FB8420BD0B0F1804F08D00E4FB84221
:100D000005D00E4FB84202D00D4FB84206D14FF673
:100D1000FF57394046F48077394305E04FF2FF57DB
:100D2000394044F48077394382830184F0BD000068
:100D3000002C014000340140000400400008004045
:100D4000000C0040F0B50C4615460022002100269C
:100D5000078C4EF6FF7C07EA0C070784828B018C18
:100D60004FF6FF7707EA043640F6FF473A404FF662
:100D7000FF7707EA05273A434FF6FF7707EA03377D
:100D80003A43114FB8420ED0104FB8420BD0B0F1D9
:100D9000804F08D00E4FB84205D00E4FB84202D057
:100DA0000D4FB84206D14DF6FF77394046F48057D3
:100DB000394305E047F6FF57394044F4805739433B
:100DC00082830184F0BD0000002C0140003401400A
:100DD0000004004000080040000C00402DE9F047EE
:100DE0000121880700F0DFF801286ED1FFF782FDAE
:100DF000374908603748006801F03CF83649086018
:100E0000334909684FF47A725143C82201FB02F05A
:100E100000F030FD0646314A314B00F07FFD0446BC
:100E200000F092FB2F4908602B48026808460168D1
:100E30002D48FFF729FC2C49886A00F0FFFF2B4959
:100E40000860084600684FF4FA6190FBF1F4204610
:100E500001F010F82649086026492548006801F08D
:100E600055F8824600F08EFE0646234A234B00F0DA
:100E700055FD044600224FF0804300F0A3FB80465E
:100E800000F062FB1E4908601148006800F0F2FFA4
:100E900004461C480168204600F0A0FE194908607D
:100EA00017480268084601681748FFF7EDFB164926
:100EB000886A00F0C3FF1549086008460068FFF71C
:100EC00029FD0121880700F03EF8BDE8F087000009
:100ED00008000020000000207800002054CBEF978D
:100EE000C3AC1F3F7C000020F00000200C0000205D
:100EF000140000200000C344A4703D0AD7A3F03FB3
:100F00005C00002060000020A000002010000020F5
:100F1000044800880348008820F001000149088047
:100F2000704700001008004021B1028842F08002A2
:100F3000028004E002884FF67F731A4002807047F7
:100F4000CA4302827047CA430282704721B10288B5
:100F500042F00102028004E002884FF6FE731A405C
:100F600002807047F0B50C4615461E46002100224F
:100F700000230189028B038C4FF6F8773940214317
:100F80004FF6FC473A4040F201173A434FF6DD77FF
:100F90003B404FF6FF7707EA06172F433B4301819B
:100FA00002830384F0BD30B50246002000230024F4
:100FB000158A05EA0103958905EA010413B10CB10C
:100FC000012000E0002030BD70B505460C462448E5
:100FD00085420ED0234885420BD0B5F1804F08D012
:100FE0002148854205D02148854202D020488542CB
:100FF00000D100E000BF208850B92389A288618811
:101000002846FFF7CBFDE188284600F095F825E05B
:10101000208804280AD12389A28861882846FFF7FE
:10102000FDFDE188284600F090F817E020880828A8
:101030000AD12389A28861882846FFF73BFEE18810
:10104000284600F08FF809E02389A28861882846A5
:10105000FFF778FEE188284600F08DF870BD0000AB
:10106000002C014000340140000400400008004012
:10107000000C00400021018041800121818000217D
:10108000C180018170471AB183890B43838102E0DB
:1010900083898B438381704770B50022002300242D
:1010A000058C4EF6FF7635400584038C8488828B50
:1010B00048F6FF752A404FF6FF452A400D884FF647
:1010C000FF7606EA05252A434DF6FF752B400D896C
:1010D00006EA05352B434D8806EA05352B430B4DB3
:1010E000A84202D00A4DA84208D14BF6FF752C4009
:1010F0008D894FF6FF7606EA85152C43848082831E
:10110000CD88A0F84050038470BD0000002C014041
:10111000003401400A460021818B4FF2FF731940D1
:101120004FF6FF7303EA0223194381837047A0F847
:101130004010704781847047028B4FF6F3731A405A
:101140000283028B0A4302837047028B4FF2FF3304
:101150001A400283028B4FF6FF7303EA01231A43FE
:1011600002837047828B4FF6F3731A408283828B1F
:101170000A4382837047828B4FF2FF331A40828387
:10118000828B4FF6FF7303EA01231A438283704771
:10119000002202881D4B98420ED01D4B98420BD066
:1011A000B0F1804F08D01B4B984205D01A4B9842A3
:1011B00002D01A4B984204D14FF68F731A404B88D5
:1011C0001A43174B984207D0164B984204D04FF65B
:1011D000FF431A40CB881A4302808B8883850B8893
:1011E00003850A4B98420BD0094B984208D00E4B0E
:1011F000984205D00D4B984202D00D4B984201D138
:101200000B7A03860123838270470000002C014083
:10121000003401400004004000080040000C004081
:101220000010004000140040004001400044014014
:101230000048014010B540F225511D4800F048F823
:1012400010B31B4800F06EF8C4B21A48008800F4CE
:101250000040C8B91748008800F4804060B10A2CEB
:1012600003D000201349088020E01248008840F491
:1012700000401049088019E00D2C06D10D48008867
:1012800040F480400B49088010E00A480088C0F311
:101290000D0009490C5407480088401C0549088086
:1012A00008460088C72801DD0020088010BD000026
:1012B000003801409C0000204001002010B540F2A1
:1012C0002551024800F004F810BD0000004800401D
:1012D00070B50246002400230025002040F66A165F
:1012E000B14200D100BFC1F3421501F01F03012636
:1012F00006FA03F3012D02D19689334006E0022D50
:1013000002D1168A334001E0968A33400C1201263E
:1013100006FA04F41688344013B10CB1012000E041
:10132000002070BD01468888C0F30800704700BFE8
:10133000FEE700BF7047000010B56FF00400FFF734
:1013400089FB0A4800680A49B0FBF1F009490870B6
:101350000846007800EB4001C1EBC0104FF6FF716A
:1013600001EAC0000449088010BD00008000002090
:1013700000127A0094000020960000200146114AD5
:1013800012884A434FF0E0235A6100229A611A46BC
:10139000126942F001021A6100BF4FF0E0221069A9
:1013A00000F001021AB100F48032002AF5D04FF0AB
:1013B000E022126922F001024FF0E0231A610022BC
:1013C0009A6170479600002010B50446002120461F
:1013D00000F068FE01D8204610BD84F00040FBE715
:1013E00094B04FF4A060FFF7A9F8FFF7A5FFFFF74F
:1013F00005F8FFF71FF8002141F61F40FFF770FBCB
:10140000632141F61F40FEF73CFF022000211290AD
:101410003148CDE910103148CDE90E103048CDE902
:101420000C103048CDE90A1008912F480991CDE9F8
:10143000061004912D480591CDE9021000910A464D
:101440002B4B2C480191FFF783F8002001461290A6
:101450002948CDE9101000212848CDE90E10284870
:10146000CDE90C102748CDE90A10089108460991EA
:101470002549CDE90601002104910846059123493B
:10148000CDE90201224923480022234BCDE9001077
:101490002248FFF75DF8C820FFF770FF204800687A
:1014A0002049086000BF2048006800F0C7FC1F49C1
:1014B00008601F48006800F0C1FC1E4908601E4813
:1014C000006800F0BBFC1D4908601D48006800F082
:1014D000B5FC1C490860E6E700508E4000D0A140F2
:1014E0000020AC40000034400070B74000C0824093
:1014F00000407A40A00000200018954000D09140A4
:1015000000C0874000406F400064B9400000E03FE9
:101510009A9999999999B93F00004E40F00000209E
:1015200014000020400000205C0000205400002037
:10153000600000205800002078000020700000208B
:101540007C0000207400002021F00042A2F16052D3
:10155000B2F5801F01F0004328BFD2F17F6C0BD998
:101560005FEA001C43EAC20242EB507018BF7047AA
:1015700028BF20F001007047B2F5801FBCBF18469D
:1015800070474FEA410C1CF5001F02D2084600F0DC
:1015900084BD70B500F06CFA00000089FFF7F6BF5B
:1015A0004FF00040A0F580007047491058BFC1F1CE
:1015B00040415B1058BFC3F140438B42EFF30080C2
:1015C000704700002DE9C04130B4DFF8A0C23CEA0A
:1015D000111418BF3CEA131400F0EC8081EA0305F3
:1015E0001CEA111444EAD57418BF1CEA131500F064
:1015F000C780A4EB05044FF0004545EAC12145EA48
:10160000C32341EA505143EA525304F17F74994293
:1016100004F500344FEAC0204FEAC22208BF9042CE
:1016200000F09C804FEA13650FF24016765D4FEA9A
:10163000134506FB05F7C7F1807706FB07F74FEA6E
:10164000D737A7FB03687642C8F58038A7FB06CEDC
:1016500038BFA8F1010807FB08E64FF0000EA6FB13
:10166000028CE6FB03CEDCF1000CCEF1004E38BF5D
:10167000AEF1010EA6FB0C584FF000074FF000052D
:10168000E6FB0E87A1FB08C6A0FB07CE16EB0E06F5
:1016900045F10005E1FB076515F1E04E7EBFA4F5BD
:1016A00080345FEA46066D4116F1800745F100057A
:1016B0004FEA17274FEA066647EA0567A6F1DE46B6
:1016C000B6F1805F4FEA15251FD9384624F0010C8A
:1016D00005EBC471BCF1FE6F01EB0C1102D8F0BC3C
:1016E000BDE8008124425CBF01F5801E9EEAC47FF4
:1016F00002D4F0BCBDE80081244238D4F0BCA1F192
:10170000C041BDE8004100F001BA4FEAD22242EAEE
:1017100043524FEAD323A7FB02864FEAD02040EA88
:10172000415007FB03661EEA0E0F4FEAD12105FB6D
:10173000026658BFA6EB0056B6EB00564FEA520EB3
:101740004EEAC37E18EB0E0E56EB530EBDD518EBCA
:1017500002085E417F1C55F10005B6E74FF4801585
:101760004FF000074FF000064FF00008ADE7F0BC67
:101770004FF0000001F1C04101F00041BDE80081DF
:1017800011EA0C1F0CEA131500D00CE013EA0C1F31
:1017900000F025804FF00000F0BC81EA030101F069
:1017A0000041BDE80081F0BCBDE8004181EA0301D1
:1017B00000F0ACB9F0BCBDE8004170B500F058F9DC
:1017C000097EFC3E00F007B881EA03014FF00000FB
:1017D00001F00041704781EA030100F097B9F0BCC5
:1017E000BDE800414FF0000021497047FFFDFBF9C3
:1017F000F7F5F4F2F0EEEDEBE9E8E6E4E3E1E0DE44
:10180000DDDBDAD8D7D5D4D3D1D0CFCDCCCBCAC8B5
:10181000C7C6C5C4C2C1C0BFBEBDBCBBBAB9B8B7DC
:10182000B6B5B4B3B2B1B0AFAEADACABAAA9A8A8CF
:10183000A7A6A5A4A3A3A2A1A09F9F9E9D9C9C9B9D
:101840009A99999897979695959493939291919048
:101850008F8F8E8E8D8C8C8B8B8A898988888787D9
:101860008685858484838382828181800000FF074E
:101870000000F87F10F0004248BF4042B0FA80F309
:1018800010FA03F10AD0C3F11D0303F580634FEA98
:10189000415002EB035202EBD12170474FF00000A0
:1018A0007047000051EA030C17D41CF5801F58BF85
:1018B000BCF5801F00F10680994218BF704708BF31
:1018C0009042704707D711F5801F58BF13F5801F4E
:1018D00019D499427047894270471CF5801F08D57A
:1018E000BCF5801FF7D58B4218BF704708BF8242F6
:1018F00070474FF4001C1CEB410F38BF1CEB430F2B
:1019000001D28B42704770B500F0B2F892244900C2
:101910004FF000514FF08053FFF747BEDFF848C14A
:1019200070B51CEA111E1EBF1CEA13159EEA0C0FAF
:1019300095EA0C0F00F06F8081EA030423EA4C1350
:101940004EEAD47E21EA4C1141F4801143F4801315
:10195000AE44A1FB024CA0FB0365AEF17F7E3619BD
:1019600055EB0C05A1FB034C4CF10003A0FB021C42
:1019700016EB0C06654153F10003094218BF46F00F
:10198000010613F4007F0BD14FEA03314FEA053013
:10199000340341EA155140EA16506FF003020AE0A1
:1019A0004FEAC3214FEAC520F40241EA555140EA0B
:1019B00056506FF0020202EB2E4201EB025585EA0F
:1019C000CE710AD05FEA440C18BF24F0004450F1F5
:1019D000000041F1000120EAD47040F2FE7C624533
:1019E00000D270BDA84214BF4FF080444FF0404475
:1019F000002E08BF0024BEF1806FA8BFA1F1C04136
:101A0000BDE8704080F282804FF0000001F1C041DB
:101A100001F0004170479EEA0C0F0CEA131518BF45
:101A200095EA0C0F06D04FF0000081EA030E0EF08D
:101A3000004170BD00F01CF88900013E00F007B8BD
:101A400000F009B84FEA430C5FEA5C5C08D081EA19
:101A5000030100F05BB84FEA410C5FEA5C5CF6D131
:101A60004FF00000014970470000FF070000F87FB9
:101A70000EF1020E2EF0030E5EF8046B364205D412
:101A8000012A43EB030515F5001F12D8012841EB8D
:101A9000010C1CF5001F0CD80ED14FEAD17C15F5B6
:101AA000001F0CEB4C0C0CF1020C08BF4CEBD37C70
:101AB00004E04FF0080C01E04FEAD37C0CEB4C053E
:101AC00026FA05F606F00706B6F1040C06D20EEB70
:101AD000860CBDE870404CF0010C6047DFE80CF06C
:101AE000090B02024FF000414FF00000A1F5002168
:101AF00070BD19461046012851EB010418BFD4F5FA
:101B0000001484BF002001F0004170BD0808A0F55A
:101B100000114FEA3101704753EA010C17D41CF54C
:101B2000801F58BFBCF5801F00F106808B4218BF94
:101B3000704708BF8242704707D713F5801F58BF10
:101B400011F5801F19D48B4270479B4270471CF5DA
:101B5000801F08D5BCF5801FF7D5994218BF704784
:101B600008BF904270474FF4001C1CEB430F38BF76
:101B70001CEB410F01D2994270470FB40CBC03BC5F
:101B8000FFF7C1BE43004FEAD30C4FEA3C0C434081
:101B90001FBF40070CF1605113F0FE4F70471CF05F
:101BA000006F03D100200CF0004170470CF000439F
:101BB00043EA507010B540EACC0000F028FA00BFAC
:101BC000000000924FEA0001FFF7A0BF4FF0004174
:101BD0004FF00000A1F500217047000090EA010FCE
:101BE00048BF81F0004100F1A082421A3CBF801A38
:101BF00089184FEAD0524FF07F4C1CEA410FA2EBFC
:101C0000D15318BF9CEA026F00F03B804FF0004CAC
:101C10004CEA00204CEA012121FA03FC10EB0C0CE9
:101C20001ED202F1FF325FEA1C2040EBC25038BFE7
:101C300070471CF07F0F4FEA400C18BFBCF17F4F7C
:101C400038BF7047C3F12003994008BF20F001005E
:101C5000BCF17F4F38BF7047A0F1C04000F01DBA03
:101C60004FEA3C00000A40EBC25028BF1CF0FF0FB7
:101C70004FEA400CE6D018BFBCF17F4F38BF704729
:101C8000EAE79CEA026F05D010EA5C0F08BF00F09B
:101C90000040704710B500F0BAF900BF64FBBE3ECB
:101CA000401058BFC0F14040491058BFC1F14041F9
:101CB0008142EFF3008070474FF47F0C1CEAD01292
:101CC0001EBF1CEAD11392EA0C0F93EA0C0F00F02E
:101CD000858090EA010F48BF42F4807240F4000C06
:101CE00041F400002CF07F4120F07F4000B581429C
:101CF000A2EB03020FF2081CACEB504EC0F1000047
:101D00009EF800E04FEA4E0E00FB0EFC38BF490083
:101D10004FEA2C1C02F5FA020CFB0EF34FEACE1E22
:101D20004FEA112C4FEAC1210EEB635E42EB2242D7
:101D30000EFB0CFC4FEA1C5300FB03114FEA112C65
:101D40004FEA01310EFB0CFC4FEADC4C00FB0C119E
:101D5000C14228BF09184CEB03335DF804EB10EBCC
:101D6000410143EBC250B2F57C0F38BF704729D513
:101D700012F0F00F1CBF00F1C04000F000407047AF
:101D8000008182838485868788898B8C8D8E8F9154
:101D90009293959697999A9C9D9FA0A2A3A5A7A878
:101DA000AAACAEB0B2B3B5B7B9BCBEC0C2C5C7C9A4
:101DB000CCCED1D4D7D9DCDFE2E6E9ECF0F3F7FA08
:101DC000FE0000004FEA400C0CF1807CBCF17E4F1D
:101DD00028BF7047B0F1C04000F05FB990EA010F32
:101DE0000CEAD11348BF42F48072624538BF6345A4
:101DF00007D213F47F0F16D080EA010000F00040F4
:101E0000704710B500F003F9097EFC3E00F005B8FC
:101E100080EA010000F00040704780EA010000F015
:101E2000004000F03AB912F47F0F04BF0248704737
:101E300080EA010000F031B90000C07F41000B0EC4
:101E4000D3F19E0208D950F400034FEA032323FA8A
:101E500002F048BF4042704710B500F0D8F800BF0C
:101E600049922480002070476FF0004282EA2000EF
:101E70007047000010F0004148BF4042B0FA80F3C4
:101E800010FA03F2C3F19D030BD051EAC35101EBE9
:101E90001220530638BF704700F1010008BF20F040
:101EA0000100704750EA010C00F113801CF5000F8F
:101EB00058BFBCF5000F01D48842704707D710F512
:101EC000000F58BF11F5000F15D4884270478942A2
:101ED00070471CF5000F04D5BCF5000FF7D5814203
:101EE00070474FF0807C1CEB400F38BF1CEB410F5C
:101EF00001D28142704710B500F089F89224490060
:101F00004FF000504FF08051FFF7CABE4FF47F0CE6
:101F10001CEAD0121EBF1CEAD11392EA0C0F93EAFE
:101F20000C0F00F0478090EA010F48BF42F4807226
:101F30004FF0004C4CEA00204CEA012102EB030276
:101F4000A0FB0113A2F50002002918BF43F0010312
:101F50005B0028BF4FEA330342EB22425FEA132CB7
:101F60004CEBC2502EBFBCEB436FB2F57C0F7047F9
:101F70004FEA036CBCF1004F08BF20F00100B2F53E
:101F80007C0F38BF70470BD582F0FF0212F5803FFF
:101F9000C8BF704700F1C040D8BF00F00040704794
:101FA00000F5000C5FEA4C0C48BF7047B0F1C04030
:101FB00000F073B890EA010F0CEAD11348BF42F465
:101FC0008072624538BF634504D280EA010000F0A8
:101FD0000040704710B500F01AF800BF8900013EBC
:101FE00000F007B800F009B85FEA410C5FEA1C6C2A
:101FF00008D080EA010000F050B85FEA400C5FEAC8
:102000001C6CF6D14FF00040A0F5800070470EF137
:10201000020E2EF0030E5EF8044B244204D44FEA65
:102020004102B2F17F4F11D84FEA4003B3F17F4F25
:102030000CD80ED14FEAD07CB2F17F4F0CEB4C0C98
:102040000CF1020C08BF4CEBD17C04E04FF0080C03
:1020500001E04FEAD17C0CEB4C0324FA03F404F0CA
:102060000704B4F1040C06D20EEB840CBDE810405A
:102070004CF0010C6047DFE80CF0070802024FF05B
:102080000040A0F5800010BD0846420018BFD2F104
:10209000807288BF00F0004010BDFF2141EAD0509F
:1020A000C005704751EA000C00F113801CF5000FC9
:1020B00058BFBCF5000F01D48142704707D711F516
:1020C000000F58BF10F5000F15D4814270478942A8
:1020D00070471CF5000F04D5BCF5000FF7D58842FA
:1020E00070474FF0807C1CEB410F38BF1CEB400F5A
:1020F00001D28842704780EA010081EA000180EA4B
:102100000100FFF7F8BE80F0004090EA010F7FF574
:102110006CAD81F0004100F008B8000090EA010FBA
:1021200048BF81F000413FF560AD421A04D882F00B
:102130000042A0EB020011444FEAD0524FF07F4C16
:102140001CEA410FA2EBD15318BF9CEA026F4AD0A0
:102150004FF0004C4CEA00204CEA012121FA03FC2C
:10216000B0EB0C0C0FD412F0FE0F36D05FEA4C002F
:102170001DD5001240EBC25038BF70471CF03F0F16
:1021800018BF70470BE0A2F101025FEA1C2040EB90
:10219000C25038BF70471CF07F0F18BF7047C3F1A3
:1021A0002003994014BF401E20F0010070478008B2
:1021B0004FEA122308BF7047B0FA80FCA2EB0C0272
:1021C000CCF1280C60FA0CF093EA122F04BF00EB5C
:1021D000C25070474FEAC3707047130A5FEADC10C1
:1021E00008BF7047F6E79CEA026F04D010EA5C0F64
:1021F00008BF0020704710B5FFF709FF40DFF63E2B
:1022000081F00040704700002822000800000020F4
:10221000A00000006C010008C8220008A0000020F7
:10222000C8070000880100082C0100000000000021
:102230000000000000000000000000000000803FDF
:102240000000A0410000A040000000000000F0429B
:10225000CDCCCC3D0000C8430000000000000000D1
:10226000000000000000000000000000000000006E
:10227000000000000000000000000000000000005E
:102280000000000000000000000000000000A0416D
:102290000000A0C10AD7233C00000000000000009D
:1022A000000000000000000000A24A04000000003E
:1022B00000000000010203040607080900000000F6
:0822C000000000000000000016
:0400000508000131BD
:00000001FF
