:020000040800F2
:1000000038090020CD010008350600080704000863
:10001000090500087D020008931800080000000090
:10002000000000000000000000000000810B00083C
:1000300081020008000000001D0A00083D0D0008B4
:10004000E7010008E7010008E7010008E7010008F0
:10005000E7010008E7010008E7010008E7010008E0
:10006000E7010008E7010008E7010008E7010008D0
:10007000E7010008E7010008E7010008E7010008C0
:10008000E7010008E7010008E7010008E7010008B0
:10009000E7010008E7010008E7010008E7010008A0
:1000A000E7010008E7010008E7010008E701000890
:1000B000AD100008E7010008C9120008E7010008B8
:1000C000E7010008E7010008E7010008E701000870
:1000D000E7010008A5160008E7010008E51600087A
:1000E000E7010008E7010008E7010008E701000850
:1000F000E7010008E7010008E7010008E701000840
:10010000E7010008E7010008E7010008E70100082F
:10011000E7010008E7010008E7010008E70100081F
:10012000E7010008E7010008E7010008E70100080F
:1001300000F002F800F03AF80AA090E8000C8244BF
:100140008344AAF10107DA4501D100F02FF8AFF29C
:10015000090EBAE80F0013F0010F18BFFB1A43F0A5
:1001600001031847A4270000C4270000103A24BF49
:1001700078C878C1FAD8520724BF30C830C144BF0C
:1001800004680C607047000000230024002500264E
:10019000103A28BF78C1FBD8520728BF30C148BFEA
:1001A0000B6070471FB51FBD10B510BD00F033F8D0
:1001B0001146FFF7F7FF01F0C5FB00F051F803B45B
:1001C000FFF7F2FF03BC01F066FB0000094880471F
:1001D00009480047FEE7FEE7FEE7FEE7FEE7FEE729
:1001E000FEE7FEE7FEE7FEE704480549054A064B41
:1001F00070470000410D000831010008380300205D
:100200003809002038050020380500207047704765
:10021000704770477047754600F02CF8AE460500F1
:100220006946534620F00700854618B020B5FFF711
:10023000DBFFBDE820404FF000064FF000074FF015
:1002400000084FF0000B21F00701AC46ACE8C009F4
:10025000ACE8C009ACE8C009ACE8C0098D467047FD
:1002600010B50446AFF300802046BDE81040FFF70C
:10027000A6BF000000487047D802002000BFFEE77C
:1002800070477FB505460C460121084600F0C8FBC3
:10029000ADF80850ADF804400020ADF80600ADF808
:1002A0000A0001A94FF0804001F0AAF9012211468D
:1002B000900701F0C4F81C208DF8000001208DF893
:1002C00003008DF801008DF80200684600F0B4F9D3
:1002D0000121880701F016F87FBD2DE9F0410246A3
:1002E00000250026002000230024002791F803C0E9
:1002F0000CF00F0591F803C00CF0100CBCF1000FCE
:1003000003D091F802C04CEA050591F800C0BCF199
:10031000000F31D0146800202BE04FF0010C0CFAD4
:1003200000F3B1F800C00CEA03069E4220D183001E
:100330004FF00F0C0CFA03F7BC4305FA03FC4CEA30
:10034000040491F803C0BCF1280F06D14FF0010C52
:100350000CFA00FCC2F814C00AE091F803C0BCF12A
:10036000480F05D14FF0010C0CFA00FCC2F810C088
:10037000401C0828D1D31460B1F800C0BCF1FF0FB5
:1003800034DD546800202EE000F1080C4FF0010825
:1003900008FA0CF3B1F800C00CEA03069E4221D122
:1003A00083004FF00F0C0CFA03F7BC4305FA03FC73
:1003B0004CEA040491F803C0BCF1280F05D100F108
:1003C000080C08FA0CF8C2F8148091F803C0BCF1CC
:1003D000480F07D100F1080C4FF0010808FA0CF89B
:1003E000C2F81080401C0828CED35460BDE8F081CC
:1003F0000246002093680B400BB1012000E0002072
:1004000070474161704700BFFEE7000008B5012159
:10041000102000F015FB0121402000F011FB4FF4EB
:100420000050ADF8000048208DF8030069460748E9
:10043000FFF753FF0120ADF8000048208DF80300BE
:1004400069460348FFF749FF08BD0000001001405E
:100450000018014010B51B480078012821D1410344
:100460001948FFF7C5FF20B101211848FFF7C0FF69
:10047000B8B90A2001F034FA4FF400511248FFF7DE
:10048000B7FF20B900200F490870012010BD0121DD
:100490000E48FFF7ADFF98B900200A490870022006
:1004A000F4E74FF400510848FFF7A2FF012807D1F5
:1004B00001210648FFF79CFF012801D1014908707E
:1004C0000020E3E7900000200010014000180140E8
:1004D00008B50121202000F0B3FA4FF4C040ADF878
:1004E000000010208DF8030003208DF802006946FB
:1004F0000448FFF7F2FE4FF4C0410248FFF781FFC6
:1005000008BD00000014014000BFFEE700B587B041
:100510000121042000F084FA0121082000F090FA63
:10052000C020ADF8180004208DF81B0006A91A4859
:10053000FFF7D3FE4FF6FF70ADF810000020ADF8C6
:100540000C00ADF81200ADF80E0003A9134801F03D
:1005500057F800231A460321104800F0DFFE6846D2
:1005600000F064FF0A20ADF8080069460B4800F06F
:1005700007FF0121094800F0BFFE0122114607488C
:1005800000F05DFF0021054801F00CF8012103484F
:1005900000F0B8FE07B000BD000C014000080040AC
:1005A00000B587B00121082000F03AFA01210420AB
:1005B00000F046FA0320ADF8180004208DF81B0067
:1005C00006A91A48FFF789FE4FF6FF70ADF8100034
:1005D0000020ADF80C00ADF81200ADF80E0003A934
:1005E000134801F00DF800231A460321104800F0CB
:1005F00095FE684600F01AFF0A20ADF8080069462B
:100600000B4800F0BDFE0121094800F075FE0122F3
:100610001146074800F013FF0021054800F0C2FF13
:100620000121034800F06EFE07B000BD0008014044
:10063000000C00407047000070B5002100230F221D
:10064000C47804B3154C246804F4E064C4F5E06491
:10065000210AC1F10403CA40447804FA03F1847802
:100660001440214309010E4C0678A155047804F08A
:100670001F050124AC4005786D11AD0005F1E025A2
:10068000C5F8004109E0047804F01F050124AC40DE
:10069000044D0678761145F8264070BD0CED00E05B
:1006A00000E400E080E100E002490143024A1160F9
:1006B000704700000000FA050CED00E02DE9F05F46
:1006C000824616461F46DDF870B00EAC94E8300343
:1006D0003046394601F0B8FACAF80000DDE90A01EF
:1006E00001F0B2FACAF80400DDE90C0101F0ACFA3D
:1006F000CAF80800002213462046294601F052FCA1
:1007000006D30022394B2046294601F085FD03D847
:100710000020CAF80C0005E02046294601F094FAB2
:10072000CAF80C00002213464046494601F03AFC44
:1007300003D22F48CAF8100005E04046494601F0B0
:1007400083FACAF8100000221346DDE9160101F011
:1007500029FC03D22648CAF8200005E0DDE916018D
:1007600001F072FACAF8200000221346DDE91A01EE
:1007700001F018FC04D2DAF81000CAF81C0005E0F9
:10078000DDE91A0101F060FACAF81C0000221346E4
:10079000DDE9120101F006FC03D20020CAF81400C2
:1007A00005E0DDE9120101F04FFACAF81400002259
:1007B0001346DDE9140101F0F5FB08D24FF080404B
:1007C000DAF8201001F022FFCAF8180005E0DDE990
:1007D000140101F039FACAF818008AF824B0DDE9EA
:1007E0001801CAE90E01BDE8F09F00000000F03FCB
:1007F00000FCFF462DE9F05F04468A4691464846D4
:10080000216A01F0CFFF02D2D4F820900AE0206ADA
:1008100080F000454946284601F0C4FF02D2206A14
:1008200080F000495146484601F0F8FF206494F8F2
:100830002400022823D14FF08041206A01F0BCFD42
:100840000546216C01F0AEFE05D2216A206C01F054
:10085000E5FF206439E04FF08041206A01F0ACFDF3
:100860000646206C80F000453146284601F09AFF8C
:100870002BD2216C206A01F031FD206425E094F830
:100880002400012821D1216A206C01F08BFF0AD2BB
:100890004FF08040216A01F0B9FE0546216C01F05D
:1008A000B2FF206411E0206C80F000452846216AE8
:1008B00001F078FF09D24FF08041206A01F0A6FED6
:1008C0000546216C01F00AFD2064206C01F0DAFC81
:1008D0000546D4E90E733A4601F09EFC06D2D4E9EF
:1008E0000E21104601F0B0F9206414E0D4E90E5155
:1008F00081F00046206C01F0C5FC07462A463346CD
:1009000001F050FB07D2D4E90E5181F00041284696
:1009100001F09AF92064206C01F008F8054661693D
:1009200001F040FF6AD2206C01F000F80546A16991
:1009300001F038FE09D8216C606801F067FE0546B9
:10094000216B01F0CBFC206304E03349206B01F004
:100950005DFE2063E169206B01F024FF02D2E069B3
:1009600020630BE0E06980F000452846216B01F030
:1009700019FF03D2E06980F000402063216C2068F9
:1009800001F044FEE062A16CE06801F03FFE074622
:10099000D4E9100101F042FF80464FF07E50E1683B
:1009A00001F03CFF8346A16801F030FE0646414657
:1009B00001F02CFE0546394601F090FC6063606B47
:1009C000A064D4E90B0101F089FC0546616B01F0DC
:1009D00085FCA0622169A06A01F0E4FE01D22069D1
:1009E000A062206980F000452846A16A01F0DAFE85
:1009F0000ED2206980F00040A06209E00649A06A9A
:100A000001F004FEA0620449206B01F0FFFD2063A9
:100A1000206C6064BDE8F09FA4707D3F70470000CB
:100A200029B1064AD2690243044BDA6104E0034A61
:100A3000D2698243014BDA61704700000010024026
:100A400029B1064A92690243044B9A6104E0034AC1
:100A500092698243014B9A61704700000010024086
:100A600030B500210022002400232D4D6D6805F0D3
:100A70000C0121B1042905D0082923D105E0294D15
:100A8000056022E0274D05601FE0254D6D6805F4E7
:100A90007012234D6D6805F48034022505EB9242F7
:100AA0001CB9214D554305600BE01D4D6D6805F4E3
:100AB00000351DB11C4D5543056002E0194D5543ED
:100AC000056002E0174D056000BF00BF144D6D6862
:100AD00005F0F0010909154D6B5C0568DD404560C6
:100AE0000F4D6D6805F4E061090A104D6B5C4568B7
:100AF000DD4085600A4D6D6805F46051C90A0B4DF3
:100B00006B5C4568DD40C560054D6D6805F440418E
:100B1000890B074D6B5CC568B5FBF3F5056130BD0E
:100B20000010024000127A0000093D007800002009
:100B300088000020024672B1012A19D10E480188AE
:100B4000B1F5704F02DBA1F57F41FF3900200A4B60
:100B500018800846704709480188B1F5704F02DBDC
:100B6000A1F57F41FF390020044B18800846F1E7CA
:100B700000BF00BFEEE7000024080040240C004046
:100B80007047000070B504460D46002C0EDB0020B7
:100B90002349086001202349C1F8B00122490C8093
:100BA000A1B22148403800F0FAFC11E0002C0FDA25
:100BB00001201B49086000201A49C1F8B0016042B9
:100BC00019490880604281B21748403800F0E7FCBC
:100BD000002D10DB01201249083108600020114966
:100BE000C1F8B8011049091F0D80A9B20E4840385C
:100BF00000F0D3FC13E0002D11DA00200849083181
:100C0000086001200749C1F8B80168420649091F78
:100C10000880684281B20448403800F0BEFC70BDD4
:100C2000B4812142008021424004004010B500F010
:100C300001F810BD0CB50020019000903348006809
:100C400040F480303149086000BF3048006800F44B
:100C5000003000900198401C0190009818B901984C
:100C6000B0F5A06FF1D12948006800F4003010B150
:100C70000120009001E0002000900098012843D15D
:100C80002348006840F010002149086008460068C9
:100C900020F0030008600846006840F00200086089
:100CA0001A48406819494860084640684860084644
:100CB000406840F4806048600846406820F47C103A
:100CC00048600846406840F4E810486008460068FC
:100CD00040F08070086000BF0C48006800F00070B1
:100CE0000028F9D00948406820F00300074948600F
:100CF0000846406840F00200486000BF0348406872
:100D000000F00C000828F9D10CBD000000100240D2
:100D100000200240042808D14FF0E021096941F089
:100D200004014FF0E022116107E04FF0E021096972
:100D300021F004014FF0E02211617047704700007C
:100D400010B51348006840F00100114908600846DA
:100D50004068104908400E494860084600680E493E
:100D600008400B4908600846006820F480200860AD
:100D70000846406820F4FE0048604FF41F00886079
:100D8000FFF754FF4FF000600449086010BD0000F9
:100D9000001002400000FFF8FFFFF6FE08ED00E043
:100DA00030B589B005460C4601210820FFF748FE02
:100DB00001210220FFF734FE4FF47040ADF820000F
:100DC00010208DF8230003208DF8220008A9254863
:100DD000FFF783FA4FF470412248FFF712FB03201C
:100DE000ADF8200018208DF8230003208DF8220094
:100DF00008A91C48FFF771FAA8B2ADF81800A0B214
:100E0000ADF814000020ADF81600ADF81A0005A9E1
:100E1000154800F0F5FB6020ADF804000020ADF8A7
:100E20000C000120ADF806000020ADF80A0001A971
:100E30000D4800F00DFB01A90B4800F063FB0021F9
:100E4000094800F055FB0021074800F099FB0121FB
:100E5000054800F045FA0121034800F053FA09B0B3
:100E600030BD0000000C014000040040F0B50C460D
:100E7000154600220021068C4FF6FE773E40068480
:100E8000028B018C4FF60C7632407E1C06EA03166C
:100E90002E433243104EB0420ED0104EB0420BD013
:100EA000B0F1804F08D00E4EB04205D00D4EB0428A
:100EB00002D00D4EB04206D14FF6FD76314044F0DF
:100EC0000106314305E04FF6F576314044F0010666
:100ED000314302830184F0BD002C01400034014005
:100EE0000004004000080040000C0040F0B50C4633
:100EF0001546002200210026078C4FF6EF7C07EAFA
:100F00000C070784028B018C4FF6FF7707EA041663
:100F100040F6FF473A404FF6FF7707EA03373A4378
:100F20004FF6FF7707EA05273A43114FB8420ED034
:100F3000104FB8420BD0B0F1804F08D00E4FB842DE
:100F400005D00E4FB84202D00D4FB84206D14FF631
:100F5000DF77394046F01007394305E04FF65F77F9
:100F6000394044F01007394302830184F0BD00008A
:100F7000002C014000340140000400400008004003
:100F8000000C0040F0B50C4615460022002100265A
:100F9000078C4FF6FF6C07EA0C070784828B018CE5
:100FA0004FF6FF7707EA04264FF60C773A404FF6E4
:100FB000FF7707EA03172F433A43114FB8420ED089
:100FC000104FB8420BD0B0F1804F08D00E4FB8424E
:100FD00005D00E4FB84202D00D4FB84206D14FF6A1
:100FE000FF57394046F48077394305E04FF2FF5709
:100FF000394044F48077394382830184F0BD000096
:10100000002C014000340140000400400008004072
:10101000000C0040F0B50C461546002200210026C9
:10102000078C4EF6FF7C07EA0C070784828B018C45
:101030004FF6FF7707EA043640F6FF473A404FF68F
:10104000FF7707EA05273A434FF6FF7707EA0337AA
:101050003A43114FB8420ED0104FB8420BD0B0F106
:10106000804F08D00E4FB84205D00E4FB84202D084
:101070000D4FB84206D14DF6FF77394046F4805700
:10108000394305E047F6FF57394044F48057394368
:1010900082830184F0BD0000002C01400034014037
:1010A0000004004000080040000C00402DE9F0471B
:1010B0000121880700F053F901287DD1FFF73AFD9F
:1010C000754908600020FFF735FD744908607448D1
:1010D0000088401C72490880084600881E38002895
:1010E0000BDD084600881E3808806E48006808B985
:1010F000012000E000206B4908606B496B480068E4
:1011000001F084FA824601F0BDF80646684A694B50
:1011100000F084FF044600224FF0804300F0D2FD2F
:10112000804600F091FD01466348C0F890115E4989
:101130005E48006801F06AFA824601F0A3F8804632
:101140005B4A5C4B00F06AFF064600224FF080438A
:1011500000F0B8FD044600F077FD5749C1F8C00023
:101160004D48006801F006FA04465348D0F894113F
:10117000204601F0B3F801464F48C0F894114748A3
:10118000006801F0F7F904464B48D0F8C410204637
:1011900001F0A4F84849C1F8C4000846D0F89021ED
:1011A000D0F8941100F59C70FFF724FB4248D0F86A
:1011B000C020D0F8C41000E06BE06830FFF71AFBE5
:1011C0003D48D0F86011C0F89811D0F89010C0F8E0
:1011D000C8100146D1F89801384901F0EDF83649B8
:1011E000C1F82801D1F8C800344901F0E5F83249C6
:1011F0008865294909684FF47A725143C82201FB76
:1012000002F000F0B7FE06462D4A2E4B00F006FF16
:10121000044600F019FD2849C1F82C011F4909684E
:101220004FF47A725143C82201FB02F000F0A2FE93
:101230000646234A234B00F0F1FE04460D4600F01B
:1012400003FD1D49C8650846D0F82821D0F82C11A7
:10125000D030FFF7CFFA1848826DC16DFFF7CAFA98
:101260001548D0F8F810C0F83011806A12490866A5
:10127000086E01F063F904460F49D1F8300101F01E
:101280005DF905462146FFF77DFC0121880700F046
:1012900036F8BDE8F0870000080000200C000020B0
:1012A00030000020B48122420000C3441800002016
:1012B000A4703D0AD7A3F03F3801002000009842F7
:1012C00054CBEF97C3AC1F3F044800880348008805
:1012D00020F001000149088070470000100800401C
:1012E00021B1028842F08002028004E002884FF6B9
:1012F0007F731A4002807047CA4302827047CA4314
:101300000282704721B1028842F00102028004E0AB
:1013100002884FF6FE731A4002807047F0B50C4603
:1013200015461E460021002200230189028B038CF2
:101330004FF6F877394021434FF6FC473A4040F2E8
:1013400001173A434FF6DD773B404FF6FF7707EA48
:1013500006172F433B43018102830384F0BD30B560
:101360000246002000230024158A05EA010395891E
:1013700005EA010413B10CB1012000E0002030BDEA
:1013800070B505460C46244885420ED02348854258
:101390000BD0B5F1804F08D02148854205D02148B7
:1013A000854202D02048854200D100E000BF20885D
:1013B00050B92389A28861882846FFF757FDE18844
:1013C000284600F0F1F825E0208804280AD1238976
:1013D000A28861882846FFF789FDE188284600F049
:1013E000ECF817E0208808280AD12389A2886188B0
:1013F0002846FFF7C7FDE188284600F0EBF809E032
:101400002389A28861882846FFF704FEE1882846E0
:1014100000F0E9F870BD0000002C014000340140EC
:101420000004004000080040000C00400021018042
:101430004180012181800021C180018170471AB162
:1014400083890B43838102E083898B4383817047C7
:1014500070B5002400220023058C4FF6FF6635404E
:101460000584028C8388848B4FF68F752C404FF651
:10147000FC752C400D882C434FF6FF552A400D89F2
:101480004FF6FF7606EA05252A434D8806EA05252C
:101490002A43154DA84202D0144DA8421DD14FF247
:1014A000FF752A404D894FF6FF7606EA05252A4347
:1014B0004FF6FF352A408D8806EA05252A434EF669
:1014C000FF752B404DF6FF752B408D8906EA0515FB
:1014D0002B43CD8906EA05152B4383808483CD8871
:1014E0008587028470BD0000002C0140003401405B
:1014F0000A460021818B4FF6F7731940114381830F
:101500007047000070B5002200230024058C4EF6C1
:10151000FF7635400584038C8488828B48F6FF75FE
:101520002A404FF6FF452A400D884FF6FF7606EA1F
:1015300005252A434DF6FF752B400D8906EA053532
:101540002B434D8806EA05352B430B4DA84202D0AC
:101550000A4DA84208D14BF6FF752C408D894FF6F5
:10156000FF7606EA85152C4384808283CD88A0F817
:101570004050038470BD0000002C01400034014045
:101580000A460021818B4FF2FF7319404FF6FF731B
:1015900003EA022319438183704781877047A0F8CB
:1015A0004010704781847047028B4FF6F3731A40E6
:1015B0000283028B0A4302837047028B4FF2FF3390
:1015C0001A400283028B4FF6FF7303EA01231A438A
:1015D00002837047828B4FF6F3731A408283828BAB
:1015E0000A4382837047828B4FF2FF331A40828313
:1015F000828B4FF6FF7303EA01231A4382837047FD
:10160000002202881D4B98420ED01D4B98420BD0F1
:10161000B0F1804F08D01B4B984205D01A4B98422E
:1016200002D01A4B984204D14FF68F731A404B8860
:101630001A43174B984207D0164B984204D04FF6E6
:10164000FF431A40CB881A4302808B8883850B881E
:1016500003850A4B98420BD0094B984208D00E4B99
:10166000984205D00D4B984202D00D4B984201D1C3
:101670000B7A03860123838270470000002C01400F
:10168000003401400004004000080040000C00400D
:1016900000100040001400400040014000440140A0
:1016A0000048014010B540F225510C4800F030F8D8
:1016B00090B10A4800F0E8F8C4B2312C02D0322CC4
:1016C00008D103E001200649087004E00220044923
:1016D000087000E000BF00BF10BD000000380140EE
:1016E0006100002010B540F22551024800F010F8CA
:1016F00010BD00000048004021B1828942F4005230
:10170000828104E082894DF6FF731A40828170471E
:1017100070B50246002400230025002040F66A161A
:10172000B14200D100BFC1F3421501F01F030126F1
:1017300006FA03F3012D02D19689334006E0022D0B
:1017400002D1168A334001E0968A33400C120126FA
:1017500006FA04F41688344013B10CB1012000E0FD
:10176000002070BDF0B503460024002600250020AF
:1017700040F66A17B94200D100BF1846C1F34214BF
:1017800001F01F06012707FA06F5012C01D10C30E4
:1017900004E0022C01D1103000E014301AB10768C7
:1017A0002F43076002E00768AF430760F0BD000009
:1017B0002DE9F04786B005460E460024A24600BF3C
:1017C000A1460027B08900B100BF2F462C8A4CF6F5
:1017D000FF700440F08804432C82AC894EF6F3106D
:1017E0000440B08831890843718908430443AC81BF
:1017F000AC8A4FF6FF400440B0890443AC8201A894
:10180000FFF72EF91F48874202D1DDF810A001E052
:10181000DDF80CA0A88900F4004040B10AEBCA0032
:1018200000EB0A1031684900B0FBF1F807E00AEB61
:10183000CA0000EB0A1031688900B0FBF1F864209F
:10184000B8FBF0F004012009642101FB1089A8898C
:1018500000F4004040B1322000EBC900B0FBF1F0D1
:1018600000F00700044308E0322000EB0910642177
:10187000B0FBF1F000F00F0004432C8106B0BDE88E
:10188000F08700000038014001468888C0F3080056
:10189000704700BFFEE700BF7047000010B56FF053
:1018A0000400FFF737FA0A4800680A49B0FBF1F074
:1018B000094908700846007800EB4001C1EBC010F0
:1018C0004FF6FF7101EAC0000449088010BD000016
:1018D0006400002000127A008C0000208E0000209E
:1018E0000146114A12884A434FF0E0235A61002210
:1018F0009A611A46126942F001021A6100BF4FF064
:10190000E022106900F001021AB100F48032002ACE
:10191000F5D04FF0E022126922F001024FF0E023EF
:101920001A6100229A6170478E00002010B50446AB
:101930000021204600F036FF01D8204610BD84F07B
:101940000040FBE794B04FF4A060FEF7ADFEFFF758
:10195000A5FFFEF7BDFDFEF759FD4FF4165000F050
:1019600023F9FEF7D3FDFEF71BFE002141F61F40D1
:10197000FFF716FA632141F61F40FEF782FC0220B2
:10198000002112906948CDE910106948CDE90E1088
:101990006848CDE90C1008466749CDE90A010021E5
:1019A000089166480991CDE9061004910846059111
:1019B0006349CDE90201002100910A46614B62486A
:1019C0000191FEF77BFE0220002112905748CDE9DD
:1019D000101008465649CDE90E0100215548CDE9C1
:1019E0000C105548CDE90A10089154480991CDE9E9
:1019F0000610049152480591CDE902100020009094
:101A00000246504B01905048D038FEF757FE002058
:101A1000014612904D48CDE9101000214C48CDE907
:101A20000E104C48CDE90C1008464B49CDE90A018F
:101A30000021089149480991CDE9061004914848D0
:101A40000591CDE90210474847490022474BCDE9AF
:101A500000013D486838FEF731FE00203B491290F6
:101A6000CDE9100101463A48CDE90E100020394970
:101A7000CDE90C013849CDE90A01089001460990E9
:101A80003648CDE906100020049035490590CDE98F
:101A90000201344834490022344BCDE90001344876
:101AA000FEF70CFEC820FFF71BFF324800683249E2
:101AB000086000BFFEF7CEFC304908700846007889
:101AC000012801D12E4908602C480078022802D153
:101AD00000202B4908602B480078012802D00228FA
:101AE00008D103E001202649086004E000202449D1
:101AF000086000E000BF00BF2348006800F01EFD42
:101B0000224908602248006800F018FD2149086059
:101B10002148006800F012FD204908602048006854
:101B200000F00CFD1F490860C4E7000000508E4023
:101B300000D0A1400020AC40000034400070B7400D
:101B400000C0824000407A4070020020001895409A
:101B500000D0914000C0874000406F400064B94011
:101B60000000E03F9A9999999999B93F00004E4039
:101B70003801002018000020200000206000002014
:101B8000B8812242610000203C0000203400002087
:101B900040000020380000205800002050000020A5
:101BA0005C0000205400002010B586B004460121DE
:101BB00044F20400FEF744FF4FF40070ADF8140047
:101BC00003208DF8160018208DF8170005A91C4871
:101BD000FEF783FB4FF48060ADF8140004208DF80D
:101BE000170005A91648FEF778FB25208DF80000A0
:101BF00000208DF801008DF8020001208DF803000F
:101C00006846FEF719FD01940020ADF80800ADF814
:101C10000A00ADF80C00ADF810000C20ADF80E0075
:101C200001A90848FFF7C4FD012240F225510548EB
:101C3000FFF798FD01210348FFF75EFD06B010BDD8
:101C4000000801400038014021F00042A2F160523A
:101C5000B2F5801F01F0004328BFD2F17F6C0BD991
:101C60005FEA001C43EAC20242EB507018BF7047A3
:101C700028BF20F001007047B2F5801FBCBF184696
:101C800070474FEA410C1CF5001F02D2084600F0D5
:101C900084BD70B500F06CFA00000089FFF7F6BF54
:101CA0004FF00040A0F580007047491058BFC1F1C7
:101CB00040415B1058BFC3F140438B42EFF30080BB
:101CC000704700002DE9C04130B4DFF8A0C23CEA03
:101CD000111418BF3CEA131400F0EC8081EA0305EC
:101CE0001CEA111444EAD57418BF1CEA131500F05D
:101CF000C780A4EB05044FF0004545EAC12145EA41
:101D0000C32341EA505143EA525304F17F7499428C
:101D100004F500344FEAC0204FEAC22208BF9042C7
:101D200000F09C804FEA13650FF24016765D4FEA93
:101D3000134506FB05F7C7F1807706FB07F74FEA67
:101D4000D737A7FB03687642C8F58038A7FB06CED5
:101D500038BFA8F1010807FB08E64FF0000EA6FB0C
:101D6000028CE6FB03CEDCF1000CCEF1004E38BF56
:101D7000AEF1010EA6FB0C584FF000074FF0000526
:101D8000E6FB0E87A1FB08C6A0FB07CE16EB0E06EE
:101D900045F10005E1FB076515F1E04E7EBFA4F5B6
:101DA00080345FEA46066D4116F1800745F1000573
:101DB0004FEA17274FEA066647EA0567A6F1DE46AF
:101DC000B6F1805F4FEA15251FD9384624F0010C83
:101DD00005EBC471BCF1FE6F01EB0C1102D8F0BC35
:101DE000BDE8008124425CBF01F5801E9EEAC47FED
:101DF00002D4F0BCBDE80081244238D4F0BCA1F18B
:101E0000C041BDE8004100F001BA4FEAD22242EAE7
:101E100043524FEAD323A7FB02864FEAD02040EA81
:101E2000415007FB03661EEA0E0F4FEAD12105FB66
:101E3000026658BFA6EB0056B6EB00564FEA520EAC
:101E40004EEAC37E18EB0E0E56EB530EBDD518EBC3
:101E500002085E417F1C55F10005B6E74FF480157E
:101E60004FF000074FF000064FF00008ADE7F0BC60
:101E70004FF0000001F1C04101F00041BDE80081D8
:101E800011EA0C1F0CEA131500D00CE013EA0C1F2A
:101E900000F025804FF00000F0BC81EA030101F062
:101EA0000041BDE80081F0BCBDE8004181EA0301CA
:101EB00000F0ACB9F0BCBDE8004170B500F058F9D5
:101EC000097EFC3E00F007B881EA03014FF00000F4
:101ED00001F00041704781EA030100F097B9F0BCBE
:101EE000BDE800414FF0000021497047FFFDFBF9BC
:101EF000F7F5F4F2F0EEEDEBE9E8E6E4E3E1E0DE3D
:101F0000DDDBDAD8D7D5D4D3D1D0CFCDCCCBCAC8AE
:101F1000C7C6C5C4C2C1C0BFBEBDBCBBBAB9B8B7D5
:101F2000B6B5B4B3B2B1B0AFAEADACABAAA9A8A8C8
:101F3000A7A6A5A4A3A3A2A1A09F9F9E9D9C9C9B96
:101F40009A99999897979695959493939291919041
:101F50008F8F8E8E8D8C8C8B8B8A898988888787D2
:101F60008685858484838382828181800000FF0747
:101F70000000F87F10F0004248BF4042B0FA80F302
:101F800010FA03F10AD0C3F11D0303F580634FEA91
:101F9000415002EB035202EBD12170474FF0000099
:101FA0007047000051EA030C17D41CF5801F58BF7E
:101FB000BCF5801F00F10680994218BF704708BF2A
:101FC0009042704707D711F5801F58BF13F5801F47
:101FD00019D499427047894270471CF5801F08D573
:101FE000BCF5801FF7D58B4218BF704708BF8242EF
:101FF00070474FF4001C1CEB410F38BF1CEB430F24
:1020000001D28B42704770B500F0B2F892244900BB
:102010004FF000514FF08053FFF747BEDFF848C143
:1020200070B51CEA111E1EBF1CEA13159EEA0C0FA8
:1020300095EA0C0F00F06F8081EA030423EA4C1349
:102040004EEAD47E21EA4C1141F4801143F480130E
:10205000AE44A1FB024CA0FB0365AEF17F7E3619B6
:1020600055EB0C05A1FB034C4CF10003A0FB021C3B
:1020700016EB0C06654153F10003094218BF46F008
:10208000010613F4007F0BD14FEA03314FEA05300C
:10209000340341EA155140EA16506FF003020AE09A
:1020A0004FEAC3214FEAC520F40241EA555140EA04
:1020B00056506FF0020202EB2E4201EB025585EA08
:1020C000CE710AD05FEA440C18BF24F0004450F1EE
:1020D000000041F1000120EAD47040F2FE7C62452C
:1020E00000D270BDA84214BF4FF080444FF040446E
:1020F000002E08BF0024BEF1806FA8BFA1F1C0412F
:10210000BDE8704080F282804FF0000001F1C041D4
:1021100001F0004170479EEA0C0F0CEA131518BF3E
:1021200095EA0C0F06D04FF0000081EA030E0EF086
:10213000004170BD00F01CF88900013E00F007B8B6
:1021400000F009B84FEA430C5FEA5C5C08D081EA12
:10215000030100F05BB84FEA410C5FEA5C5CF6D12A
:102160004FF00000014970470000FF070000F87FB2
:102170000EF1020E2EF0030E5EF8046B364205D40B
:10218000012A43EB030515F5001F12D8012841EB86
:10219000010C1CF5001F0CD80ED14FEAD17C15F5AF
:1021A000001F0CEB4C0C0CF1020C08BF4CEBD37C69
:1021B00004E04FF0080C01E04FEAD37C0CEB4C0537
:1021C00026FA05F606F00706B6F1040C06D20EEB69
:1021D000860CBDE870404CF0010C6047DFE80CF065
:1021E000090B02024FF000414FF00000A1F5002161
:1021F00070BD19461046012851EB010418BFD4F5F3
:10220000001484BF002001F0004170BD0808A0F553
:1022100000114FEA3101704753EA010C17D41CF545
:10222000801F58BFBCF5801F00F106808B4218BF8D
:10223000704708BF8242704707D713F5801F58BF09
:1022400011F5801F19D48B4270479B4270471CF5D3
:10225000801F08D5BCF5801FF7D5994218BF70477D
:1022600008BF904270474FF4001C1CEB430F38BF6F
:102270001CEB410F01D2994270470FB40CBC03BC58
:10228000FFF7C1BE43004FEAD30C4FEA3C0C43407A
:102290001FBF40070CF1605113F0FE4F70471CF058
:1022A000006F03D100200CF0004170470CF0004398
:1022B00043EA507010B540EACC0000F028FA00BFA5
:1022C000000000924FEA0001FFF7A0BF4FF000416D
:1022D0004FF00000A1F500217047000090EA010FC7
:1022E00048BF81F0004100F1A082421A3CBF801A31
:1022F00089184FEAD0524FF07F4C1CEA410FA2EBF5
:10230000D15318BF9CEA026F00F03B804FF0004CA5
:102310004CEA00204CEA012121FA03FC10EB0C0CE2
:102320001ED202F1FF325FEA1C2040EBC25038BFE0
:1023300070471CF07F0F4FEA400C18BFBCF17F4F75
:1023400038BF7047C3F12003994008BF20F0010057
:10235000BCF17F4F38BF7047A0F1C04000F01DBAFC
:102360004FEA3C00000A40EBC25028BF1CF0FF0FB0
:102370004FEA400CE6D018BFBCF17F4F38BF704722
:10238000EAE79CEA026F05D010EA5C0F08BF00F094
:102390000040704710B500F0BAF900BF64FBBE3EC4
:1023A000401058BFC0F14040491058BFC1F14041F2
:1023B0008142EFF3008070474FF47F0C1CEAD0128B
:1023C0001EBF1CEAD11392EA0C0F93EA0C0F00F027
:1023D000858090EA010F48BF42F4807240F4000CFF
:1023E00041F400002CF07F4120F07F4000B5814295
:1023F000A2EB03020FF2081CACEB504EC0F1000040
:102400009EF800E04FEA4E0E00FB0EFC38BF49007C
:102410004FEA2C1C02F5FA020CFB0EF34FEACE1E1B
:102420004FEA112C4FEAC1210EEB635E42EB2242D0
:102430000EFB0CFC4FEA1C5300FB03114FEA112C5E
:102440004FEA01310EFB0CFC4FEADC4C00FB0C1197
:10245000C14228BF09184CEB03335DF804EB10EBC5
:10246000410143EBC250B2F57C0F38BF704729D50C
:1024700012F0F00F1CBF00F1C04000F000407047A8
:10248000008182838485868788898B8C8D8E8F914D
:102490009293959697999A9C9D9FA0A2A3A5A7A871
:1024A000AAACAEB0B2B3B5B7B9BCBEC0C2C5C7C99D
:1024B000CCCED1D4D7D9DCDFE2E6E9ECF0F3F7FA01
:1024C000FE0000004FEA400C0CF1807CBCF17E4F16
:1024D00028BF7047B0F1C04000F05FB990EA010F2B
:1024E0000CEAD11348BF42F48072624538BF63459D
:1024F00007D213F47F0F16D080EA010000F00040ED
:10250000704710B500F003F9097EFC3E00F005B8F5
:1025100080EA010000F00040704780EA010000F00E
:10252000004000F03AB912F47F0F04BF0248704730
:1025300080EA010000F031B90000C07F41000B0EBD
:10254000D3F19E0208D950F400034FEA032323FA83
:1025500002F048BF4042704710B500F0D8F800BF05
:1025600049922480002070476FF0004282EA2000E8
:102570007047000010F0004148BF4042B0FA80F3BD
:1025800010FA03F2C3F19D030BD051EAC35101EBE2
:102590001220530638BF704700F1010008BF20F039
:1025A0000100704750EA010C00F113801CF5000F88
:1025B00058BFBCF5000F01D48842704707D710F50B
:1025C000000F58BF11F5000F15D48842704789429B
:1025D00070471CF5000F04D5BCF5000FF7D58142FC
:1025E00070474FF0807C1CEB400F38BF1CEB410F55
:1025F00001D28142704710B500F089F89224490059
:102600004FF000504FF08051FFF7CABE4FF47F0CDF
:102610001CEAD0121EBF1CEAD11392EA0C0F93EAF7
:102620000C0F00F0478090EA010F48BF42F480721F
:102630004FF0004C4CEA00204CEA012102EB03026F
:10264000A0FB0113A2F50002002918BF43F001030B
:102650005B0028BF4FEA330342EB22425FEA132CB0
:102660004CEBC2502EBFBCEB436FB2F57C0F7047F2
:102670004FEA036CBCF1004F08BF20F00100B2F537
:102680007C0F38BF70470BD582F0FF0212F5803FF8
:10269000C8BF704700F1C040D8BF00F0004070478D
:1026A00000F5000C5FEA4C0C48BF7047B0F1C04029
:1026B00000F073B890EA010F0CEAD11348BF42F45E
:1026C0008072624538BF634504D280EA010000F0A1
:1026D0000040704710B500F01AF800BF8900013EB5
:1026E00000F007B800F009B85FEA410C5FEA1C6C23
:1026F00008D080EA010000F050B85FEA400C5FEAC1
:102700001C6CF6D14FF00040A0F5800070470EF130
:10271000020E2EF0030E5EF8044B244204D44FEA5E
:102720004102B2F17F4F11D84FEA4003B3F17F4F1E
:102730000CD80ED14FEAD07CB2F17F4F0CEB4C0C91
:102740000CF1020C08BF4CEBD17C04E04FF0080CFC
:1027500001E04FEAD17C0CEB4C0324FA03F404F0C3
:102760000704B4F1040C06D20EEB840CBDE8104053
:102770004CF0010C6047DFE80CF0070802024FF054
:102780000040A0F5800010BD0846420018BFD2F1FD
:10279000807288BF00F0004010BDFF2141EAD05098
:1027A000C005704751EA000C00F113801CF5000FC2
:1027B00058BFBCF5000F01D48142704707D711F50F
:1027C000000F58BF10F5000F15D4814270478942A1
:1027D00070471CF5000F04D5BCF5000FF7D58842F3
:1027E00070474FF0807C1CEB410F38BF1CEB400F53
:1027F00001D28842704780EA010081EA000180EA44
:102800000100FFF7F8BE80F0004090EA010F7FF56D
:102810006CAD81F0004100F008B8000090EA010FB3
:1028200048BF81F000413FF560AD421A04D882F004
:102830000042A0EB020011444FEAD0524FF07F4C0F
:102840001CEA410FA2EBD15318BF9CEA026F4AD099
:102850004FF0004C4CEA00204CEA012121FA03FC25
:10286000B0EB0C0C0FD412F0FE0F36D05FEA4C0028
:102870001DD5001240EBC25038BF70471CF03F0F0F
:1028800018BF70470BE0A2F101025FEA1C2040EB89
:10289000C25038BF70471CF07F0F18BF7047C3F19C
:1028A0002003994014BF401E20F0010070478008AB
:1028B0004FEA122308BF7047B0FA80FCA2EB0C026B
:1028C000CCF1280C60FA0CF093EA122F04BF00EB55
:1028D000C25070474FEAC3707047130A5FEADC10BA
:1028E00008BF7047F6E79CEA026F04D010EA5C0F5D
:1028F00008BF0020704710B5FFF709FF40DFF63E24
:1029000081F00040704700002829000800000020E6
:10291000940000006C010008BC290008940000200D
:10292000A408000088010008640000000000000006
:102930000000000000000000000000000000000097
:102940000000803F000000000000000000000000C8
:102950000000000000000000000000000000000077
:102960000000000000000000000000000000A04186
:102970000000A0C10AD7233C0000000000000000B6
:1029800000000000000000000000000000A24A0457
:10299000000000000000000001020304060708090F
:1029A00000000000010203040102030406070809F5
:0C29B00002040608000000000100000006
:0400000508000131BD
:00000001FF
