:020000040800F2
:10000000181600201D020008FD120008430A00080F
:10001000CF11000825080008932A000800000000FE
:10002000000000000000000000000000291E000881
:100030002908000800000000851C0008E51F0008D2
:1000400037020008370200083702000837020008AC
:10005000370200083702000837020008370200089C
:10006000370200083702000837020008370200088C
:10007000370200083702000837020008370200087C
:10008000370200083702000837020008370200086C
:10009000370200083702000837020008370200085C
:1000A000370200083702000837020008370200084C
:1000B000B523000837020008C924000837020008E9
:1000C000370200083702000837020008370200082C
:1000D00037020008A528000837020008E5280008B4
:1000E000370200083702000837020008370200080C
:1000F00037020008370200083702000837020008FC
:1001000037020008370200083702000837020008EB
:1001100037020008370200083702000837020008DB
:1001200037020008370200083702000837020008CB
:1001300000F002F800F063F80AA090E8000C824496
:100140008344AAF10107DA4501D100F058F8AFF273
:10015000090EBAE80F0013F0010F18BFFB1A43F0A5
:1001600001031847F49100001492000010F8013BBD
:100170000A4413F0030408BF10F8014B1D1108BF17
:1001800010F8015B641E05D010F8016B641E01F8C5
:10019000016BF9D1002D15D010F8014B03F00C03C1
:1001A0000C2BA1EB04040ABF10F8013BA4EB831451
:1001B000A4EB032405F1010314F8016B5B1E01F8A5
:1001C000016BF9D5914238BF10F8013BD1D370478C
:1001D0000023002400250026103A28BF78C1FBD850
:1001E000520728BF30C148BF0B607047642900F038
:1001F0006780002070471FB51FBD10B510BD00F00F
:10020000CBFA1146FFF7F7FF04F00BFA00F0E9FA1A
:1002100003B4FFF7F2FF03BC02F0C1FC09488047BA
:1002200009480047FEE7FEE7FEE7FEE7FEE7FEE7D8
:10023000FEE7FEE7FEE7FEE704480549054A064BF0
:1002400070470000E91F0008310100081810002065
:10025000181600201812002018120020704710B540
:100260004C1084EA530404D54042C1F1000138BF68
:10027000491E1B4204D55242C3F1000338BF5B1E26
:1002800000F02EF914F0804F04D04042C1F100017B
:1002900038BF491E14F0004F04D05242C3F100038E
:1002A00038BF5B1E10BD00000FB4044910B503AA8F
:1002B000029800F0F1F910BC5DF814FBA8080020CA
:1002C0002DE9F0410646002410687529314616A52F
:1002D00010D0AFF30080002802DA404213A507E0F7
:1002E00031688A0701D512A502E0490704D511A596
:1002F000012401E0AFF3008000210A2206F1240767
:1003000009E0B0FBF2FCB0FBF2F302FB1C00303062
:1003100078541846491C0028F3D123462A46304613
:10032000BDE8F04100F05EB9000000002D000000C3
:100330002B000000200000002DE9F05F89460446F4
:100340004FF0000ADFF824B1FB44C0F820A020469B
:10035000E168884700287DD0252806D0D4E901210E
:100360009047206A401C2062F1E700255F46204646
:10037000E16888472028064607DB312E05D2B819E8
:1003800010F8200C08B10543F1E7A80701D525F0C6
:100390000405C4F81CA00027C4F818A02A2E09D010
:1003A000304602F0F5FB38B304EB8708303EC8F85E
:1003B000186019E059F8041B204604EB870291618C
:1003C000E1688847012F064618D1E069002820DA45
:1003D00025F020051DE0D8F8180000EB800006EBA2
:1003E00040003038C8F818002046E16888470646C3
:1003F00002F0CEFB0028EED1012F0AD02E2E08D11C
:100400002046E16888477F1C0646022F45F02005FC
:10041000C4DBA069002803DA404245F00105A06171
:10042000E80701D025F01005A6B1A6F14100192872
:1004300002D8203645F400654A46314620462560FC
:100440004D46FFF7D3FE60B1012807D0ED1D25F022
:10045000070000E007E000F1080978E705F104096A
:1004600075E730467AE7206ABDE8F09FBA8E000053
:1004700040EA010310B59B070FD1042A0DD310C821
:1004800008C9121F9C42F8D020BA19BA884201D973
:10049000012010BD4FF0FF3010BD1AB1D30703D0BB
:1004A000521C07E0002010BD10F8013B11F8014B71
:1004B0001B1B07D110F8013B11F8014B1B1B01D18D
:1004C000921EF1D1184610BD02F0FF0343EA032249
:1004D00042EA024200F0F4B8704770477047704734
:1004E00053EA020C00F069802DE9F04B4FF0000652
:1004F000002B1FBFB3FA83F503FA05F424FA05F6BF
:100500005E4012BF1643B2FA82F502FA05F4C5F155
:1005100020051EBF22FA05FC44EA0C04203556EAE9
:10052000044C4FEA144418BF641C4FF000084FF00D
:100530000009904271EB030C39D3002919BFB1FABD
:1005400081F701FA07F6B0FA80F700FA07F6C7F16B
:1005500020071EBF20FA07FC46EA0C062037B6FB30
:10056000F4FCA7EB0507103F07F01F0BCBF12006AB
:100570000CFA0BFB2CFA06F644BFB3460026202FDC
:10058000A4BF5E464FF0000B5BEA060C08BF4FF0BD
:10059000010B19EB0B09ABFB027C48EB0608C01BF7
:1005A00006FB02CC0BFB03CC71EB0C01C1E70B4645
:1005B000024641464846BDE8F08B13B54FF00000B7
:1005C0004FF00001AFF30080BDE81C40704710B54C
:1005D00000F096F8006810BD10B5044600F090F8E1
:1005E000046010BD2DE9F0470D4699469246044639
:1005F00000F124080168880604D5E06921F01001A3
:10060000216000E00120A84201DD471B00E0002737
:10061000A1697A1902EB0900081AA0612078C006C6
:1006200002D42046AFF30080002608E0D4E901217F
:100630001AF806009047206A401C761C20624E453E
:10064000F4DB2078C0060AD52046AFF3008006E030
:10065000D4E9012130209047206A401C2062381ED6
:10066000A7F10107F4DC07E0D4E9012118F805003F
:100670009047206A401C2062281EA5F10105F3DC8A
:100680002046AFF300802078000602D50220BDE8A6
:10069000F0870120FBE70000074B70B50D467B4457
:1006A00000F037F80446284600F046F810B14FF045
:1006B000FF3070BD204670BDB33800004FF000021F
:1006C0000429C0F0128010F0030C00F03B80CCF144
:1006D000040CBCF1020F18BF00F8012BA8BF20F8D2
:1006E000022BA1EB0C0100F02DB85FEAC17C24BF06
:1006F00000F8012B00F8012B48BF00F8012B7047D0
:1007000000487047B80F002001694A1C0261087850
:10071000704700B58FB0CDE9013100210591054941
:100720007944CDE9031011466846FFF705FE0FB086
:1007300000BD0000E5FFFFFF007B00F08000704778
:100740004FF0000200B5134694469646203922BF6A
:10075000A0E80C50A0E80C50B1F12001BFF4F7AFB5
:10076000090728BFA0E80C5048BF0CC05DF804EB97
:10077000890028BF40F8042B08BF704748BF20F805
:10078000022B11F0804F18BF00F8012B70470000BA
:1007900000487047B80F00207546FFF7F9FFAE46D6
:1007A00005006946534620F00700854618B020B57D
:1007B000FFF742FDBDE820404FF000064FF0000774
:1007C0004FF000084FF0000B21F00701AC46ACE8F9
:1007D000C009ACE8C009ACE8C009ACE8C0098D4666
:1007E000704710B50446AFF300802046BDE81040C6
:1007F000FFF70EBD7047000008480078012802D0BE
:10080000022808D103E001200549086004E0002027
:100810000349086000E000BF00BF704723080020C4
:10082000B881224200BFFEE770477FB505460C46FF
:100830000121084601F04AFAADF80850ADF804402D
:100840000020ADF80600ADF80A0001A94FF0804085
:1008500001F0D6FF01221146900701F0F0FE1C20A6
:100860008DF8000001208DF803008DF801008DF84F
:100870000200684600F044FD0121880701F042FEB5
:100880007FBD2DE9F041024600250026002000230F
:100890000024002791F803C00CF00F0591F803C065
:1008A0000CF0100CBCF1000F03D091F802C04CEA20
:1008B000050591F800C0BCF1000F31D0146800208C
:1008C0002BE04FF0010C0CFA00F3B1F800C00CEA79
:1008D00003069E4220D183004FF00F0C0CFA03F761
:1008E000BC4305FA03FC4CEA040491F803C0BCF1D4
:1008F000280F06D14FF0010C0CFA00FCC2F814C00E
:100900000AE091F803C0BCF1480F05D14FF0010C8B
:100910000CFA00FCC2F810C0401C0828D1D31460A7
:10092000B1F800C0BCF1FF0F34DD546800202EE0A8
:1009300000F1080C4FF0010808FA0CF3B1F800C000
:100940000CEA03069E4221D183004FF00F0C0CFAF3
:1009500003F7BC4305FA03FC4CEA040491F803C016
:10096000BCF1280F05D100F1080C08FA0CF8C2F808
:10097000148091F803C0BCF1480F07D100F1080CB6
:100980004FF0010808FA0CF8C2F81080401C082843
:10099000CED35460BDE8F081F0B50A4600230024B0
:1009A0000021002500F00046B6F1004F02D11D4E97
:1009B000F16901E01B4E7168C0F3034583B200F496
:1009C0004016B6F5401F08D121F07061154E7668CB
:1009D00026F07066134F7E6012E000F48016B6F5C4
:1009E000801F06D1032606FA05F4A14341F0706189
:1009F00006E0460D360103FA06F6B14341F0706198
:100A000022B1460D360103FA06F6314300F00046E6
:100A1000B6F1004F02D1034EF16101E0014E716069
:100A2000F0BD0000000001400246002093680B402A
:100A30000BB1012000E00020704741617047016167
:100A4000704700BFFEE700002DE9F0411149124850
:100A5000006805F0E9FF074605F04AFF04460F4924
:100A60000F48006805F0E0FF074605F041FF054626
:100A70000A490C48006805F0D7FF074605F038FF23
:100A8000064623462A46314607A0FFF70DFCBDE87F
:100A9000F0810000000020412C0800200000C84226
:100AA0002408002028080020726F6C6C3A2564200E
:100AB00070697463683A202564207961773A256407
:100AC0000D0A000008B50121102001F00FF90121E5
:100AD000402001F00BF94FF40050ADF80000482021
:100AE0008DF8030069460748FFF7CBFE0120ADF8FB
:100AF000000048208DF8030069460348FFF7C1FE57
:100B000008BD0000001001400018014010B500F0C1
:100B100015F80849087008460078012801D10649EF
:100B2000086004480078022802D1002002490860C9
:100B300010BD000022080020B881224210B51B48D9
:100B40000078012821D141031948FFF76DFF20B13A
:100B500001211848FFF768FFB8B90A2002F0D4FB5A
:100B60004FF400511248FFF75FFF20B900200F49F2
:100B70000870012010BD01210E48FFF755FF98B9FC
:100B800000200A4908700220F4E74FF40051084899
:100B9000FFF74AFF012807D101210648FFF744FF6C
:100BA000012801D1014908700020E3E7AE080020C8
:100BB000001001400018014008B50121202001F07B
:100BC00095F84FF4C040ADF8000010208DF80300F8
:100BD00003208DF8020069460448FFF752FE4FF4E7
:100BE000C0410248FFF729FF08BD00000014014082
:100BF0002DE9FC4104460D4616466B4606223B2174
:100C0000682000F00EFA0746BFB99DF801009DF874
:100C1000001040EA012000B220809DF803009DF8FA
:100C2000021040EA012000B228809DF805009DF8DE
:100C3000041040EA012000B230803846BDE8FC8153
:100C40002DE9FC4104460D4616466B46062243211B
:100C5000682000F0E6F90746BFB99DF801009DF84D
:100C6000001040EA012000B220809DF803009DF8AA
:100C7000021040EA012000B228809DF805009DF88E
:100C8000041040EA012000B230803846BDE8FC8103
:100C900010B500200E4908600E48006820F470402E
:100CA0000C4908600846006840F440500860002085
:100CB0000949C1F8AC0100F011F8012004490860AD
:100CC00000F00CF800200449C1F8A80110BD000094
:100CD000A8812142040C01400080214210B502206D
:100CE00002F038FB10BD000008B50121082000F01B
:100CF000FDFF4FF44060ADF8000010208DF80300B8
:100D000003208DF8020069460448FFF7BAFD4FF44E
:100D100040610248FFF793FE08BD0000000C01404F
:100D200010B500200E4908600E48006820F470409D
:100D30000C4908600846006840F4405008600120F3
:100D40000949C1F8AC01FFF7C9FF01200449086057
:100D5000FFF7C4FF00200449C1F8A80110BD00003E
:100D6000A8812142040C01400080214270B5054653
:100D700000241648006820F47040144908600846B2
:100D8000006840F400400860002614E0002010498C
:100D90000860FFF7A3FF01200E49C1F8A801600613
:100DA000040E0B487C38006808B1601CC4B2FFF721
:100DB00095FF701CC6B2082EE8DB15B9FFF7B0FF2F
:100DC00001E0FFF765FF204670BD0000040C014004
:100DD000A88121420080214270B504461248006873
:100DE00020F47040104908600846006840F4405004
:100DF000086000200D490860002512E0E0090B4959
:100E0000091D08606006040E01200949C1F8A80107
:100E1000FFF764FF002005490860FFF75FFF681CCB
:100E2000C5B2082DEADB70BD040C0140A881214247
:100E30000080214210B50E48006820F470400C4933
:100E400008600846006840F44050086001200949E5
:100E500008600949C1F8A801FFF740FF00200549D3
:100E60000860FFF73BFF00200349C1F8A80110BD4F
:100E7000040C0140AC8121420080214210B50E4893
:100E8000006820F470400C4908600846006840F48F
:100E9000405008600020094908600949C1F8AC01C8
:100EA000FFF71CFF0120054908600549C1F8AC01A6
:100EB000FFF714FF10BD0000040C0140A88121427F
:100EC0000080214210B500241448006820F47040CE
:100ED000124908600846006840F40040086001209C
:100EE0000F490860FFF7FAFE01200E49C1F8A8017A
:100EF000FFF7F4FE07E0601CC4B2FA2C03DDFFF735
:100F0000BDFF012010BD0648803800680028F2D1DE
:100F10000349091F086000BFF4E70000040C01400A
:100F2000AC8121420080214238B50121084600F001
:100F3000DDFE0121042000F0D9FE4FF40040ADF8A1
:100F4000000010208DF8030003208DF80200694690
:100F50002248FFF796FC01212148FFF71DFD0020E4
:100F600020490860FFF7C0FE80216B2000F0DDF80B
:100F7000642002F0C9F900216B2000F0D6F80320AC
:100F800000F091F8002000F086F8322000F0B0F870
:100F90000021382000F0C9F800216A2000F0C5F8CF
:100FA0000021232000F0C1F88021372000F0BDF897
:100FB000752000F019F80446682C0BD101216B2034
:100FC00000F0B3F800216C2000F0AFF8322000F000
:100FD0008FF801E0012038BD0020FCE70008014047
:100FE00000023000BC01214270B50446FFF722FF29
:100FF000D020FFF7F1FEFFF765FF2046FFF7ECFE7C
:10100000FFF760FFFFF716FFD120FFF7E5FEFFF7C0
:1010100059FF0020FFF7AAFE0546FFF72FFF2846DD
:1010200070BD2DE9F04106460F4614461D46FFF7F8
:1010300001FF002141EA4601C8B2FFF7CDFEFFF7EC
:1010400041FF20B1FFF71AFF0120BDE8F0813846CB
:10105000FFF7C2FEFFF736FFFFF7ECFE012101EBC1
:101060004601C8B2FFF7B8FEFFF72CFF0DE0012CD8
:1010700004D10020FFF77AFE287003E00120FFF77B
:1010800075FE2870601EC4B26D1C002CEFD1FFF7F6
:10109000F5FE0020D9E710B50446E006010E1C203D
:1010A00000F043F810BD10B50446E006010E1B2009
:1010B00000F03BF810BD70B504460025BC2C01DBE8
:1010C000012510E0622C01DB02250CE02A2C01DB5B
:1010D000032508E0142C01DB042504E00A2C01DBC5
:1010E000052500E0062529461A2000F01EF870BDEF
:1010F00070B50446B4F57A7F01DD4FF47A74042CA0
:1011000000DA04244FF47A7090FBF4F0401EC5B26C
:101110002946192000F009F80546264604EBD67149
:10112000C1F34F00FFF7C7FF70BD70B505460C4611
:10113000FFF780FED020FFF74FFEFFF7C3FE18B188
:10114000FFF79CFE012070BD2846FFF745FEFFF724
:10115000B9FE2046FFF740FEFFF7B4FE18B1FFF7D7
:101160008DFE0120EFE7FFF789FE0020EBE72DE978
:10117000F04105460E4617469846FFF75BFE0021F4
:1011800041EA4501C8B2FFF727FEFFF79BFE20B1F9
:10119000FFF774FE0120BDE8F0813046FFF71CFE2A
:1011A000FFF790FE00240CE018F80400FFF714FE8F
:1011B000FFF788FE18B1FFF761FE0120EBE7601C26
:1011C000C4B2BC42F0DBFFF759FE0020E3E700BFEA
:1011D000FEE7000000B587B00121042000F076FD95
:1011E0000121082000F082FDC020ADF81800042085
:1011F0008DF81B0006A91A48FFF743FB4FF6FF7056
:10120000ADF810000020ADF80C00ADF81200ADF8FC
:101210000E0003A9134801F0F3FA00231A46032134
:10122000104801F07BF9684601F000FA0A20ADF899
:10123000080069460B4801F0A3F90121094801F0B3
:101240005BF901221146074801F0F9F90021054830
:1012500001F0A8FA0121034801F054F907B000BDDC
:10126000000C01400008004000B587B001210820B3
:1012700000F02CFD0121042000F038FD0320ADF822
:10128000180004208DF81B0006A91A48FFF7F9FA88
:101290004FF6FF70ADF810000020ADF80C00ADF86F
:1012A0001200ADF80E0003A9134801F0A9FA0023BB
:1012B0001A460321104801F031F9684601F0B6F9E9
:1012C0000A20ADF8080069460B4801F059F90121E0
:1012D000094801F011F901221146074801F0AFF960
:1012E0000021054801F05EFA0121034801F00AF9E6
:1012F00007B000BD00080140000C0040704700002E
:1013000070B5002100230F22C47804B3154C246863
:1013100004F4E064C4F5E064210AC1F10403CA40A6
:10132000447804FA03F184781440214309010E4CF7
:101330000678A155047804F01F050124AC40057817
:101340006D11AD0005F1E025C5F8004109E0047814
:1013500004F01F050124AC40044D0678761145F8D1
:10136000264070BD0CED00E000E400E080E100E00C
:1013700002490143024A1160704700000000FA056B
:101380000CED00E038B510232C4A0021084600F08F
:1013900071FA00212A48006805F012FC23D81023B6
:1013A000284A1221002000F065FA2548006805F05F
:1013B000BBFA044610200223224612210090452049
:1013C00000F01EFA1023204A2821002000F052FAD3
:1013D0001020022300901D48B0F90020282145204C
:1013E00000F00EFA26E01023194A1221002000F026
:1013F00041FA1348006880F00045284605F094FA49
:10140000044610200223224612210090452000F0BD
:10141000F7F910230F4A2821002000F02BFA1020A2
:10142000022300900948B0F90000424228214520DB
:1014300000F0E6F900F040F938BD00004408002053
:1014400024080020540800206808002038080020E4
:101450005E0800207208002070B500240CE0002512
:1014600006E00020074901EBC5010855681CC5B21C
:10147000802DF6DB601CC4B2082CF0DB00F01CF9F8
:1014800070BD0000280B002070B50B46CE1701EB95
:101490005676C6F3C702CE1701EB5676F610A1EBCF
:1014A000C606F4B20123A340DDB20E4B03EBC0032A
:1014B0009B5CDB430B4E06EBC006B354094B03EBBE
:1014C000C0039B5C2B43074E06EBC006B354054B91
:1014D00003EBC0039B5CDB43024E06EBC006B35438
:1014E00070BD0000280B002010B504461CB9002177
:1014F000A62000F0E1F9012C03D10021A72000F083
:10150000DBF910BD10B504463CB90021C82000F03D
:10151000D3F90021A12000F0CFF9012C07D100213F
:10152000C02000F0C9F90021A02000F0C5F910BDCD
:1015300070B50A46CE1701EB5676C6F3C703CE1731
:1015400001EB5676F610A1EBC606F4B20122A240DA
:10155000D5B2054A02EBC002D25C2A43024E06EB2A
:10156000C006F25470BD0000280B002008B5012110
:10157000202000F0BBFB4FF4F850ADF80000102025
:101580008DF8030003208DF8020069464348FFF7F9
:1015900078F94FF4F8514148FFF751FA4FF4806160
:1015A0003E48FFF74AFAC82001F0AEFE4FF48061D2
:1015B0003A48FFF744FA0021AE2000F07DF90021FF
:1015C000084600F079F90021102000F075F900219B
:1015D000402000F071F90021812000F06DF9002118
:1015E000CF2000F069F90021A12000F065F9002169
:1015F000C82000F061F90021A62000F05DF900216B
:10160000A82000F059F900213F2000F055F90021F1
:10161000D32000F051F90021084600F04DF90021D7
:10162000D52000F049F90021802000F045F9002183
:10163000D92000F041F90021F12000F03DF900210E
:10164000DA2000F039F90021122000F035F90021EC
:10165000DB2000F031F90021402000F02DF90021BD
:10166000202000F029F90021022000F025F90021B6
:101670008D2000F021F90021142000F01DF9002137
:10168000A42000F019F90021A62000F015F900218E
:10169000AF2000F011F9FFF7DFFE08BD0014014094
:1016A00010B50246012000E050430B1EA1F10104D9
:1016B000E1B2F9D110BD000070B500241CE004F1C6
:1016C000B001C8B2002100F0F7F80021084600F090
:1016D000F3F80021102000F0EFF8002508E0084999
:1016E00001EBC501085D012100F0E6F8681CC5B2F8
:1016F000802DF4DB601CC4B2082CE0DB70BD000060
:10170000280B00202DE9FF4F81B080460E461C4675
:1017100000962046E31704EB5373DB1021464FEA93
:10172000E47C04EB5C7C4FEAEC0CA4EBCC0CBCF14D
:10173000000F02D04FF0010C01E04FF0000C6344A9
:10174000224604EBD27C4FEA6C0C03FB0CF303F053
:10175000FF0B03982038C7B2002547E00C2C07D1B7
:1017600007EB4700234901EB800010F805A014E0C7
:10177000102C05D1204800EB071010F805A00CE054
:10178000182C07D107EBC7001C4901EB800010F8AB
:1017900005A002E005B0BDE8F08F4FF000091FE0A2
:1017A0000AF0800020B131464046FFF7C1FE03E059
:1017B00031464046FFF768FE4FEA4A604FEA106A3A
:1017C000701CC6B20098301AA04205D1009E08F1E4
:1017D000010000F0FF0806E009F1010000F0FF0938
:1017E000B9F1080FDCDB00BF681CC5B25D45B5DB95
:1017F00000BFCFE7FE6D0008727200086278000833
:101800002DE9F04F06468A4691461F46099C002561
:101810002CE0781B401EC1B20A20FFF741FFB9FB44
:10182000F0F00A21B0FBF1F201FB1208B8F1000F51
:101830000CD1A34604EBDB71491001FB0561C8B272
:10184000234630225146FFF75DFF0DE0A34604EB2F
:10185000DB71491001FB0561C8B208F13001CAB261
:1018600023465146FFF74EFF681CC5B2BD42D0DB90
:10187000BDE8F08FF0B506460F4614461D4613E04E
:1018800022782B4639463046FFF73CFF284605EBC9
:10189000D07106EB6101CEB2C5F18000B04202DA30
:1018A0000026B81CC7B2641C2078202802DB2078F0
:1018B0007E28E5DDF0BD000070B504460E462EB171
:1018C0004FF400611C48FFF7BAF804E04FF40061E0
:1018D0001948FFF7B2F84FF480511748FFF7ADF8F9
:1018E00000251BE04FF480711348FFF7A6F804F0C1
:1018F000800028B14FF400710F48FFF7A0F804E012
:101900004FF400710C48FFF798F84FF480710A48C3
:10191000FFF795F86006040E681CC5B2082DE1DBE0
:101920004FF480510448FFF78AF84FF400610248F1
:10193000FFF785F870BD0000001401402DE9F05F4D
:10194000824616461F46DDF870B00EAC94E83003B0
:101950003046394604F0AAF8CAF80000DDE90A0169
:1019600004F0A4F8CAF80400DDE90C0104F09EF8C4
:10197000CAF80800002213462046294604F0DCFA83
:1019800006D30022394B2046294604F00FFC03D829
:101990000020CAF80C0005E02046294604F086F82D
:1019A000CAF80C00002213464046494604F0C4FA27
:1019B00003D22F48CAF8100005E04046494604F01B
:1019C00075F8CAF8100000221346DDE9160104F08C
:1019D000B3FA03D22648CAF8200005E0DDE9160173
:1019E00004F064F8CAF8200000221346DDE91A0169
:1019F00004F0A2FA04D2DAF81000CAF81C0005E0DC
:101A0000DDE91A0104F052F8CAF81C00002213465E
:101A1000DDE9120104F090FA03D20020CAF81400A4
:101A200005E0DDE9120104F041F8CAF814000022D3
:101A30001346DDE9140104F07FFA08D24FF080402C
:101A4000DAF8201004F0F0FFCAF8180005E0DDE92C
:101A5000140104F02BF8CAF818008AF824B0DDE964
:101A60001801CAE90E01BDE8F09F00000000F03F38
:101A700000FCFF4600B593B00220002112906D4893
:101A8000CDE910106C48CDE90E1008466B49CDE940
:101A90000C0100216A48CDE90A10089169480991B2
:101AA000CDE90610049168480591CDE90210084679
:101AB0000A46664BCDE900016548FFF73FFF02206B
:101AC000129000205B49CDE9100101465A48CDE94A
:101AD0000E1000205949CDE90C015949CDE90A0100
:101AE000089058490990CDE906010490564905909F
:101AF000CDE90201002100910A46544B554801915D
:101B0000FFF71CFF0220002112904A48CDE9101077
:101B10004948CDE90E104948CDE90C104848CDE9B7
:101B20000A10089147480991CDE9061004914A48E6
:101B30000591CDE9021000910A46484B44485038BF
:101B40000191FFF7FBFE0220129000203949CDE9F8
:101B500010013949CDE90E0101463848CDE90C1094
:101B600000213748CDE90A10089108460991354906
:101B7000CDE906010021049137480591CDE9021015
:101B800000910A46354B334850380191FFF7D6FE95
:101B90000020014612903248CDE910100020314952
:101BA000CDE90E0101463048CDE90C1000212F4847
:101BB000CDE90A100891084609912D49CDE90601A1
:101BC000002104912B480591CDE902102A492B48A8
:101BD00000222B4BCDE900101E486830FFF7AEFE07
:101BE0000020014612901E48CDE9101000201D492A
:101BF000CDE90E011C49CDE90C0101461B48CDE998
:101C00000A1000210891084609911949CDE90601F9
:101C10000020049017490590CDE9020116491748A4
:101C20000022174BCDE900100A48B838FFF786FEAE
:101C300013B000BD00508E4000D0A1400020AC4049
:101C4000000034400070B740000018400000994088
:101C5000C00A0020A009002000C0824000407A4055
:101C60000018954000D0914000C0874000406F4070
:101C70000064B9400000E03F9A9999999999B93F59
:101C800000004E40704700002DE9F04704460D4625
:101C900016460021304604F0C5FF8246A16804F0D4
:101CA000C3FE804608480168284604F0BBFF824610
:101CB000216804F0B9FE8146414604F0B5FC0746B0
:101CC000A762BDE8F08700003C08002029B1064A61
:101CD000D2690243044BDA6104E0034AD2698243C9
:101CE000014BDA61704700000010024029B1064A3A
:101CF00092690243044B9A6104E0034A9269824369
:101D0000014B9A61704700000010024030B500217D
:101D10000022002400232D4D6D6805F00C0121B137
:101D2000042905D0082923D105E0294D056022E0CA
:101D3000274D05601FE0254D6D6805F47012234D99
:101D40006D6805F48034022505EB92421CB9214DE3
:101D5000554305600BE01D4D6D6805F400351DB160
:101D60001C4D5543056002E0194D5543056002E0E6
:101D7000174D056000BF00BF144D6D6805F0F00100
:101D80000909154D6B5C0568DD4045600F4D6D68B8
:101D900005F4E061090A104D6B5C4568DD40856023
:101DA0000A4D6D6805F46051C90A0B4D6B5C4568BE
:101DB000DD40C560054D6D6805F44041890B074D58
:101DC0006B5CC568B5FBF3F5056130BD00100240E2
:101DD00000127A0000093D0090080020A0080020B1
:101DE000024672B1012A19D10D480188B1F5704F30
:101DF00002DBA1F57F41FF390020094B188008461E
:101E0000704708480188B1F5704F02DBA1F57F41AA
:101E1000FF390020034B18800846F1E70020EFE768
:101E200024080040240C00407047000070B50446B0
:101E30000D46002C0EDB00202349086001202349B9
:101E4000C1F8B00122490C80A1B22148403800F00D
:101E5000A6FC11E0002C0FDA01201B4908600020CD
:101E60001A49C1F8B001604219490880604281B244
:101E70001748403800F093FC002D10DB0120124978
:101E80000831086000201149C1F8B8011049091F44
:101E90000D80A9B20E48403800F07FFC13E0002D01
:101EA00011DA002008490831086001200749C1F80B
:101EB000B80168420649091F0880684281B2044897
:101EC000403800F06AFC70BDB4812142008021429C
:101ED0004004004010B500F001F810BD0CB5002022
:101EE000019000903348006840F480303149086028
:101EF00000BF3048006800F4003000900198401C9A
:101F00000190009818B90198B0F5A06FF1D1294857
:101F1000006800F4003010B10120009001E00020C2
:101F200000900098012843D12348006840F0100039
:101F3000214908600846006820F003000860084650
:101F4000006840F0020008601A484068194948607B
:101F50000846406848600846406840F48060486031
:101F60000846406820F47C1048600846406840F409
:101F7000E81048600846006840F08070086000BFC4
:101F80000C48006800F000700028F9D0094840684B
:101F900020F00300074948600846406840F002000E
:101FA000486000BF0348406800F00C000828F9D1E1
:101FB0000CBD00000010024000200240042808D19F
:101FC0004FF0E021096941F004014FF0E022116176
:101FD00007E04FF0E021096921F004014FF0E02211
:101FE000116170477047000010B51348006840F059
:101FF00001001149086008464068104908400E4930
:102000004860084600680E4908400B4908600846C9
:10201000006820F4802008600846406820F4FE0034
:1020200048604FF41F008860FFF754FF4FF00060D6
:102030000449086010BD0000001002400000FFF8D5
:10204000FFFFF6FE08ED00E010B54FF4A060FFF7CB
:102050008FF901F037F9FFF789FAFEF7ADFDFEF7CA
:1020600031FD4FF4165003F0D1FCFFF7B3F8FFF742
:10207000FBF8002141F61F4000F016F80020FFF7A2
:1020800033FA0020FFF73EFAFFF716FBFEF74CFF8E
:1020900000BF02F025FC0028FBD1632141F61F4060
:1020A000FEF7C3FB10BD000030B589B005460C46F5
:1020B00001210820FFF71AFE01210220FFF706FE8A
:1020C0004FF47040ADF8200010208DF8230003205D
:1020D0008DF8220008A92548FEF7D3FB4FF4704184
:1020E0002248FEF7AAFC0320ADF8200018208DF846
:1020F000230003208DF8220008A91C48FEF7C1FB2D
:10210000A8B2ADF81800A0B2ADF814000020ADF8E8
:102110001600ADF81A0005A9154800F071FB602003
:10212000ADF804000020ADF80C000120ADF8060069
:102130000020ADF80A0001A90D4800F089FA01A9B4
:102140000B4800F0DFFA0021094800F0D1FA002125
:10215000074800F015FB0121054800F0C1F90121F5
:10216000034800F0CFF909B030BD0000000C014079
:1021700000040040F0B50C46154600220021068CF4
:102180004FF6FE773E400684028B018C4FF60C76AC
:1021900032407E1C06EA03162E433243104EB042F4
:1021A0000ED0104EB0420BD0B0F1804F08D00E4E82
:1021B000B04205D00D4EB04202D00D4EB04206D115
:1021C0004FF6FD76314044F00106314305E04FF60D
:1021D000F576314044F00106314302830184F0BDBD
:1021E000002C014000340140000400400008004081
:1021F000000C0040F0B50C461546002200210026D8
:10220000078C4FF6EF7C07EA0C070784028B018CE2
:102210004FF6FF7707EA041640F6FF473A404FF6BD
:10222000FF7707EA03373A434FF6FF7707EA0527B8
:102230003A43114FB8420ED0104FB8420BD0B0F114
:10224000804F08D00E4FB84205D00E4FB84202D092
:102250000D4FB84206D14FF6DF77394046F01007F0
:10226000394305E04FF65F77394044F010073943B2
:1022700002830184F0BD0000002C014000340140C5
:102280000004004000080040000C0040F0B50C467F
:102290001546002200210026078C4FF6FF6C07EA46
:1022A0000C070784828B018C4FF6FF7707EA042620
:1022B0004FF60C773A404FF6FF7707EA03172F43A4
:1022C0003A43114FB8420ED0104FB8420BD0B0F184
:1022D000804F08D00E4FB84205D00E4FB84202D002
:1022E0000D4FB84206D14FF6FF57394046F480777C
:1022F000394305E04FF2FF57394044F480773943C2
:1023000082830184F0BD0000002C014000340140B4
:102310000004004000080040000C0040F0B50C46EE
:102320001546002200210026078C4EF6FF7C07EAA6
:102330000C070784828B018C4FF6FF7707EA04367F
:1023400040F6FF473A404FF6FF7707EA05273A4342
:102350004FF6FF7707EA03373A43114FB8420ED0E2
:10236000104FB8420BD0B0F1804F08D00E4FB8429A
:1023700005D00E4FB84202D00D4FB84206D14DF6EF
:10238000FF77394046F48057394305E047F6FF5759
:10239000394044F48057394382830184F0BD000002
:1023A000002C0140003401400004004000080040BF
:1023B000000C004070B50121880700F0D0F801281A
:1023C00063D1FFF70DFD314908600020FFF708FDDC
:1023D0002F4908602F4A3049304802F06FF9304ADF
:1023E00030493148FEF72CFC304A31493148FEF77C
:1023F000FFFB31480088401C2F49088008460088B0
:102400001E3800280BDD084600881E3808802B483F
:10241000006808B9012000E0002028490860214830
:10242000B0F9000004F0A0FA044622461B480168F7
:102430002348FFF729FC1B48B0F9000004F094FA88
:1024400004462246154801681E48FFF71DFC1D483A
:10245000B838D0F80012C0F83812D0F8E010C0F840
:1024600018110146D1F8180104F042FA0446154942
:10247000B839D1F8380204F03BFA05462146FFF797
:10248000D5FC0121880700F03AF870BD040800204F
:10249000080800202C08002028080020240800201C
:1024A0003A080020380800203608002034080020B0
:1024B000320800203008002020080020B481224289
:1024C000C00A0020A00900200448008803480088B2
:1024D00020F001000149088070470000100800400A
:1024E00021B1028842F08002028004E002884FF6A7
:1024F0007F731A4002807047CA4302827047CA4302
:102500000282704721B1028842F00102028004E099
:1025100002884FF6FE731A4002807047F0B50C46F1
:1025200015461E460021002200230189028B038CE0
:102530004FF6F877394021434FF6FC473A4040F2D6
:1025400001173A434FF6DD773B404FF6FF7707EA36
:1025500006172F433B43018102830384F0BD30B54E
:102560000246002000230024158A05EA010395890C
:1025700005EA010413B10CB1012000E0002030BDD8
:1025800070B505460C46244885420ED02348854246
:102590000BD0B5F1804F08D02148854205D02148A5
:1025A000854202D02048854200D100E000BF20884B
:1025B00050B92389A28861882846FFF7DBFDE188AE
:1025C000284600F0F1F825E0208804280AD1238964
:1025D000A28861882846FFF70DFEE188284600F0B2
:1025E000ECF817E0208808280AD12389A28861889E
:1025F0002846FFF74BFEE188284600F0EBF809E09B
:102600002389A28861882846FFF788FEE18828464A
:1026100000F0E9F870BD0000002C014000340140DA
:102620000004004000080040000C00400021018030
:102630004180012181800021C180018170471AB150
:1026400083890B43838102E083898B4383817047B5
:1026500070B5002400220023058C4FF6FF6635403C
:102660000584028C8388848B4FF68F752C404FF63F
:10267000FC752C400D882C434FF6FF552A400D89E0
:102680004FF6FF7606EA05252A434D8806EA05251A
:102690002A43154DA84202D0144DA8421DD14FF235
:1026A000FF752A404D894FF6FF7606EA05252A4335
:1026B0004FF6FF352A408D8806EA05252A434EF657
:1026C000FF752B404DF6FF752B408D8906EA0515E9
:1026D0002B43CD8906EA05152B4383808483CD885F
:1026E0008587028470BD0000002C01400034014049
:1026F0000A460021818B4FF6F773194011438183FD
:102700007047000070B5002200230024058C4EF6AF
:10271000FF7635400584038C8488828B48F6FF75EC
:102720002A404FF6FF452A400D884FF6FF7606EA0D
:1027300005252A434DF6FF752B400D8906EA053520
:102740002B434D8806EA05352B430B4DA84202D09A
:102750000A4DA84208D14BF6FF752C408D894FF6E3
:10276000FF7606EA85152C4384808283CD88A0F805
:102770004050038470BD0000002C01400034014033
:102780000A460021818B4FF2FF7319404FF6FF7309
:1027900003EA022319438183704781877047A0F8B9
:1027A0004010704781847047028B4FF6F3731A40D4
:1027B0000283028B0A4302837047028B4FF2FF337E
:1027C0001A400283028B4FF6FF7303EA01231A4378
:1027D00002837047828B4FF6F3731A408283828B99
:1027E0000A4382837047828B4FF2FF331A40828301
:1027F000828B4FF6FF7303EA01231A4382837047EB
:10280000002202881D4B98420ED01D4B98420BD0DF
:10281000B0F1804F08D01B4B984205D01A4B98421C
:1028200002D01A4B984204D14FF68F731A404B884E
:102830001A43174B984207D0164B984204D04FF6D4
:10284000FF431A40CB881A4302808B8883850B880C
:1028500003850A4B98420BD0094B984208D00E4B87
:10286000984205D00D4B984202D00D4B984201D1B1
:102870000B7A03860123838270470000002C0140FD
:10288000003401400004004000080040000C0040FB
:10289000001000400014004000400140004401408E
:1028A0000048014010B540F225510C4800F030F8C6
:1028B00090B10A4800F0E8F8C4B2312C02D0322CB2
:1028C00008D103E001200649087004E00220044911
:1028D000087000E000BF00BF10BD000000380140DC
:1028E0002308002010B540F22551024800F010F8EE
:1028F00010BD00000048004021B1828942F400521E
:10290000828104E082894DF6FF731A40828170470C
:1029100070B50246002400230025002040F66A1608
:10292000B14200D100BFC1F3421501F01F030126DF
:1029300006FA03F3012D02D19689334006E0022DF9
:1029400002D1168A334001E0968A33400C120126E8
:1029500006FA04F41688344013B10CB1012000E0EB
:10296000002070BDF0B5034600240026002500209D
:1029700040F66A17B94200D100BF1846C1F34214AD
:1029800001F01F06012707FA06F5012C01D10C30D2
:1029900004E0022C01D1103000E014301AB10768B5
:1029A0002F43076002E00768AF430760F0BD0000F7
:1029B0002DE9F04786B005460E460024A24600BF2A
:1029C000A1460027B08900B100BF2F462C8A4CF6E3
:1029D000FF700440F08804432C82AC894EF6F3105B
:1029E0000440B08831890843718908430443AC81AD
:1029F000AC8A4FF6FF400440B0890443AC8201A882
:102A0000FFF784F91F48874202D1DDF810A001E0EA
:102A1000DDF80CA0A88900F4004040B10AEBCA0020
:102A200000EB0A1031684900B0FBF1F807E00AEB4F
:102A3000CA0000EB0A1031688900B0FBF1F864208D
:102A4000B8FBF0F004012009642101FB1089A8897A
:102A500000F4004040B1322000EBC900B0FBF1F0BF
:102A600000F00700044308E0322000EB0910642165
:102A7000B0FBF1F000F00F0004432C8106B0BDE87C
:102A8000F08700000038014001468888C0F3080044
:102A9000704700BFFEE7490050EAC12018BF04207C
:102AA0004A0D18BF40F0010040F2FF72B2EB515FD7
:102AB00008BF40F00200012808BF052070472DE93B
:102AC000F0414F1E00EBC7010446D1E90001154655
:102AD0001E4637F006020DD02A46334603F068FA48
:102AE0007F1E04EBC703D3E9002303F011F837F08E
:102AF0000602F1D1022F25D0042F13D0062F18BFC4
:102B0000BDE8F0812A46334603F052FAD4E90A239D
:102B100002F0FEFF2A46334603F04AFAD4E90823BE
:102B200002F0F6FF2A46334603F042FAD4E90623C0
:102B300002F0EEFF2A46334603F03AFAD4E90423C2
:102B400002F0E6FF2A46334603F032FAD4E90223C4
:102B500002F0DEFF2A46334603F02AFAD4E90023C6
:102B6000BDE8F04102F0D4BF012204F002B902F046
:102B7000CFBF002213461046114603F085B800006F
:102B8000024A0020110704F0F4B8000001FDFFFF25
:102B900030380A2801D2012070470020704700BF5A
:102BA000704700002DE9FE4F07468846002668461C
:102BB00001F0DEF9002444E057F8240058F824100E
:102BC000A0EB010ABAF1000F01DB514601E0CAF1A6
:102BD0000001084603F0C8FE83464FF08F4103F022
:102BE00091FD81465DF82400002103F04DFE18D0D0
:102BF0005DF82410484603F085FD82464FF07E5173
:102C000004F010F8054600BF25F0004082460F484A
:102C1000416A504603F0D4FF12D20120A04006437F
:102C20000EE00A48C169484603F0CAFE05D30748CA
:102C3000016A484603F0C4FF02D20120A0400643C7
:102C4000641C032CB8DB3046BDE8FE8FE885000825
:102C50002DE9F04D8D4F21F0004A86B005460C4617
:102C6000BA452ADBAAEB070028430AD088488245E8
:102C700001DC1AD1CDB106B02846BDE8F04DFFF712
:102C800073BF844A844B284603F092F907460E46E8
:102C9000824A834B2846214603F08AF906B03A4619
:102CA0003346BDE8F04D02F033BF0120FDF794FC40
:102CB00006B0BDE8F04DFFF75CBF7A48824542DAC6
:102CC000BAF1795F0BDA2846FFF7E5FE042808BF62
:102CD000FFF756FF284606B02146BDE8F08D2A468C
:102CE0000B46104603F064F9834602466E480E46D2
:102CF0000B4606217844FFF7E2FE5A46334603F0BE
:102D000057F9804669488A465A4633460421784432
:102D1000FFF7D5FE5A46334603F04AF900223B46F8
:102D200002F0F6FE02460B464046514602F0ACFF6A
:102D30002A46234603F03CF906B02A462346BDE85E
:102D4000F04D02F0E5BE284624F0004100223D4649
:102D50003B4603F061FA4FF0FF3204F00AF80646F2
:102D6000024653480F460B4606217844FFF7A7FE5C
:102D700032463B4603F01CF9CDE900014D4832468E
:102D80003B4604217844FFF79AFE32463B4603F067
:102D90000FF900222B4602F0BBFE8346029130461B
:102DA000394602F00DFE804643480D46504517DC7B
:102DB000DDE900015A46029B02F066FF42462B46BF
:102DC00003F0F6F842462B4602F0A2FE012203F081
:102DD000D0FF304A304B03F011FB304A304B4CE00F
:102DE0004FF0000A52460B46404602F091FECDE9F4
:102DF000031052462B461046194603F0D9F83246C6
:102E00003B4603F009FADDE9033202F03DFF0646D6
:102E10000F46DDE900015A46029B02F035FF83466A
:102E2000009101223046394603F0A3FF194A1A4B9C
:102E300003F0F2F906460F4601224046294603F008
:102E400098FF5A46009B03F0B3F832463B4603F026
:102E5000D5FA06460F4601225046294603F089FF5F
:102E60000E4DDFF858802A46434603F0D5F9324626
:102E70003B4603F0D1F92A46434603F0CDF9002C36
:102E8000D8BF81F0004106B0BDE8F08D0000F03FF2
:102E90000000F07F075C143326A6913C182D4454A3
:102EA000FB21F93F0000E03F20650000366500008F
:102EB000AA640000C06400003333EF3FFB21E93F08
:102EC0002DE9F84F04460D4621F00040009173496A
:102ED000814211DC7249884201DC06D12CB12046C6
:102EE0002946BDE8F84FFFF73FBE6E48002DCCBF26
:102EF0006D496E49BDE8F88F6D49814211DD6D491C
:102F00008142D8BF4FF0FF366DDD20462946FFF7DE
:102F1000C2FD042808BFFFF733FE20462946BDE85E
:102F2000F88F6549654F25F00045814233DD6449DE
:102F3000814219DD002632464FF080432046294663
:102F400002F0E6FD80468A4601222046294603F02B
:102F500010FF00223B4603F051FA4246534602F06E
:102F600093FE04460D463EE001260022BA463B464B
:102F70002046294602F0CCFD80460F4600225346EB
:102F80002046294603F03AFA42463B4602F07CFED0
:102F900004460D4627E04B4981421BDDDFF828A19E
:102FA0000226002253462046294603F001F800225B
:102FB0003B4602F0ADFD80460F46002253462046B8
:102FC000294603F01BFA42463B4602F05DFE0446EA
:102FD0000D4608E0032622462B4600203B4902F01E
:102FE00053FE04460D4622462B461046194602F073
:102FF000DFFF8B46824602460B4602F0D9FF0746AA
:103000000246334888460B4606217844FFF757FDB1
:1030100052465B4602F0CCFF82462E488B463A462B
:10302000434605217844FFF74AFD3A46434602F0FD
:10303000BFFF02460B46002E504659460CDA02F0FE
:1030400067FD22462B4602F0B3FF01B022462B4615
:10305000BDE8F04F03F0E0B802F05AFD22462B46DF
:1030600002F0A6FF1C4A7A4402EBC603D3E9002310
:1030700003F0C4F922462B4603F0C0F9174A7A44FC
:1030800002EBC603D3E9002303F0C6F8009A002A36
:10309000B8BF81F00041BDE8F88F00000000104487
:1030A0000000F07F182D4454FB21F93FFB21F9BFAC
:1030B0000000DC3F0000203E0000F33F0000F03F36
:1030C0000000E63F008003400000F83F0000F0BF32
:1030D000C2620000806200001E620000E661000023
:1030E0002DE9F04D9446CCF1000423F000464CEA63
:1030F0000404524F46EAD4749A46884621F00042AE
:10310000BC4206D8454240EA050442EAD474BC42B7
:1031100004D9BDE8F04D6246FFF729BDAAF140553C
:10312000A5F17F6555EA0C040BD0022404EAAA74C9
:10313000434DDFF810E144EAD87452EA000B04D0A2
:103140000CE0BDE8F04DFFF7BBBE002C14BF012C16
:10315000BDE8F08D022C30D0032C32D056EA0C0B97
:103160000AD0BE4220D1BA4209D126F0804622F0D0
:1031700080423346114617E000291ADB25E0DFF8CC
:10318000C8B0FB44002C04BFDBE90001BDE8F08DB2
:10319000012C02BFDBE9000181F00041BDE8F08DA8
:1031A000022C0AD0032C0CD0BA4212D1B8F1000F75
:1031B0000BDA23482549BDE8F08D28462449BDE8AF
:1031C000F08D28467146BDE8F08D1D482149BDE8C7
:1031D000F08D921B12153C2AC4BF19481D490EDC04
:1031E000BAF1000FBEBF12F13C0F0020014606DB12
:1031F000624602F049FD21F00041FFF761FE002C1C
:1032000008BFBDE8F08D012C04BF81F00041BDE88E
:10321000F08D114A114B022C07D003F0EFF82A462B
:10322000BDE8F04D0A4B03F0E9B803F0E7F82A4691
:10323000BDE8F04D064B02F0EFBF00000000F07F4C
:10324000182D4454FB2109C07A610000FB21F9BF0D
:10325000FB210940FB21F93F075C143326A6A13C62
:103260002DE9F0410446E07800F0C006E07800F077
:103270003F05607800F0010098B1EF102846E9178B
:1032800005EB5171C910A5EBC101491C01F0FF0804
:103290000B48006820B10A4841460268384690470A
:1032A00000BF607800F0080030B10548406818B1F0
:1032B000B011034A516888470020BDE8F081000042
:1032C000A80F002010B56FF00400FEF777FE0A4843
:1032D00000680A49B0FBF1F0094908700846007817
:1032E00000EB4001C1EBC0104FF6FF7101EAC000D6
:1032F0000449088010BD00007C08002000127A00FC
:10330000A4080020A60800200146114A12884A435A
:103310004FF0E0235A6100229A611A46126942F086
:1033200001021A6100BF4FF0E022106900F00102B3
:103330001AB100F48032002AF5D04FF0E022126971
:1033400022F001024FF0E0231A6100229A617047D7
:10335000A60800200146114A12784A434FF0E023A4
:103360005A6100229A611A46126942F001021A61FA
:1033700000BF4FF0E022106900F001021AB100F422
:103380008032002AF5D04FF0E022126922F00102CB
:103390004FF0E0231A6100229A617047A4080020D0
:1033A00038B5044664B120208DF8000028208DF83F
:1033B000010030208DF8020038208DF8030004E071
:1033C000A32204216846FDF77FF86A46042140F6EF
:1033D0009E2002F023FA01F00DFE38BD3EB50446F2
:1033E00002208DF80000CA208DF80100E3208DF83E
:1033F000020009208DF803006A460421682002F0CB
:103400000DFAA3208DF8000004F0400048B1C02060
:103410008DF80100C8208DF80200C2208DF803004D
:1034200006E0A3208DF801008DF802008DF803005E
:1034300004F4C07048B1C4208DF80400CC208DF88D
:103440000500C6208DF8060006E0A3208DF80400D4
:103450008DF805008DF80600A3208DF807008DF883
:1034600008008DF809006A460A2140F6A72002F0FC
:10347000D5F904F0030018B120208DF8000002E017
:10348000D8208DF800006A46012140F6B62002F0EF
:10349000C5F904F0200018B1012000F0ADF802E0F9
:1034A000002000F0A9F804F4C07008B304F48070A0
:1034B00060B1B2208DF800008B208DF80100B6209D
:1034C0008DF802009B208DF803000BE0B0208DF8F2
:1034D000000080208DF80100B4208DF802009020BB
:1034E0008DF803006A46042140F6A22002F096F906
:1034F00004F0010020B3F8208DF800006A46012195
:103500004FF40B6002F08AF9FA21072000F02CFC3E
:10351000072000F0F3FB012000F013FC642000F012
:10352000F3FC4FF4FA7000F002FDC821304800F0BF
:10353000A3FB282000F0BCFB0A2000F0CCFB08E035
:10354000D8208DF800006A4601214FF40B6002F08C
:1035500065F904F0020018B1D9208DF8000002E0EE
:10356000D8208DF800006A46012140F23D7002F03B
:1035700055F904F0040018B1012000F069F802E0E8
:10358000002000F065F804F0100018B10120FFF7EA
:1035900007FF02E00020FFF703FF44F00800154991
:1035A000488101F027FD00201249887304F0400093
:1035B00018B10846807B801D887304F4C07020B168
:1035C0000C48807B801D0B49887304F0140020B1E7
:1035D0000848807B10300749887304F0030020B14D
:1035E0000448807B001D0349887300203EBD000015
:1035F00009E3CA02A80F00203EB504466CB10EA133
:10360000D1E900208968CDE9002002916A460921AC
:103610004FF4976002F002F93EBD0AA2D2E9001011
:103620009268CDE9010200916A4609214FF4976042
:1036300002F0F4F8F0E70000B8AAB38DB4980D35A5
:103640005D000000B8AAAAAAB088C3C5C7000000E0
:1036500038B5044664B1C0208DF80000C2208DF852
:103660000100C4208DF80200C6208DF8030004E09C
:103670008B2204216846FCF727FF6A46042140F6A6
:10368000982002F0CBF801F0B5FC38BD10B5C82386
:103690004FF48062024940F6F63001F03FFB10BD66
:1036A000108600082DE9F04F8DB007468846154674
:1036B0009946DDE9166B0024002030806B49887B39
:1036C0005A4605A901F0F6FB18B1601E0DB0BDE821
:1036D000F08F6648807A00F01400002867D09DF8CB
:1036E000140000069DF8151040EA01409DF81610E0
:1036F00040EA01209DF81710084328609DF8180043
:1037000000069DF8191040EA01409DF81A1040EAA1
:1037100001209DF81B10084368609DF81C000006FE
:103720009DF81D1040EA01409DF81E1040EA01205E
:103730009DF81F100843A8609DF8200000069DF822
:10374000211040EA01409DF8221040EA01209DF836
:1037500023100843E86004F11000C4B22868001484
:103760000190686800140290A86800140390E8684B
:103770000014049001984043029901FB0100039951
:1037800001FB0100049901FB010ABAF1706F02DB31
:10379000BAF1885F05DD01F02DFC00203080401E6D
:1037A00094E7B6F9000040F48070308000BF2F48E5
:1037B000807A00F0400020B305A9601C085C095D18
:1037C00040EA012000B2A8F8000005A9E01C095C4D
:1037D00005AAA01C105C41EA002000B2A8F8020073
:1037E00005A9601D095C201D105C41EA002000B2A3
:1037F000A8F80400A01DC4B2B6F9000040F008000B
:1038000030801A48408900F4C07008B305A9601CD4
:10381000085C095D40EA012000B2388005A9E01C7F
:10382000095C05AAA01C105C41EA002000B2788067
:1038300005A9601D095C201D105C41EA002000B252
:10384000B880A01DC4B2B6F9000040F0700030800E
:103850000648807A00F0030018B105A90819FFF79F
:10386000FFFC484600F0F0FE00202FE7A80F0020E4
:1038700070B588B0064601A801F0A4F8BDF80400B0
:103880000021C90341EA5045C4034448007A00F0CE
:10389000030056F8200005904048007A00F004002C
:1038A00010B10598404205903C48007AC0F3C10031
:1038B00056F8200006903948007A00F0200010B138
:1038C0000698404206903548007AC0F3811056F8B9
:1038D000200007903148008900F4807010B10798EB
:1038E000404207900598C117A0FB042301FB043157
:1038F00000FB0510810041EA927005900698C117FF
:10390000A0FB042301FB043100FB0510810041EA08
:10391000927006900798C117A0FB042301FB0431A5
:1039200000FB0510810041EA927007900598000E97
:103930008DF808000598000C8DF809000598000A1C
:103940008DF80A000598C0B28DF80B000698000E9D
:103950008DF80C000698000C8DF80D000698000AF2
:103960008DF80E000698C0B28DF80F000798000E73
:103970008DF810000798000C8DF811000798000AC8
:103980008DF812000798C0B28DF8130002AA0C211E
:103990004FF4257001F042FF08B070BDA80F002061
:1039A00030B585B0044616A207CA02AB07C3C82CBF
:1039B00003DD4FF0FF3005B030BDC82090FBF4F0C0
:1039C000401E85B2280A8DF80000E8B28DF801008B
:1039D0006A46022140F2162001F020FF10B14FF09C
:1039E000FF30E8E702AA0C2140F6C12001F016FFE3
:1039F00010B14FF0FF30DEE7044884810020DAE7A1
:103A0000FEF2ABC4AAF1DFDFBBAFDFDFA80F0020FF
:103A10001FB504464848007A00F0030054F820001F
:103A200001904548007A00F0040010B1019840422E
:103A300001904148007AC0F3C10054F82000029080
:103A40003D48007A00F0200010B1029840420290F8
:103A50003948007AC0F3811054F8200003903648AA
:103A6000008900F4807010B10398404203903349FC
:103A7000019880FB0101800F40EA810001902F49ED
:103A8000029880FB0110820042EA917002902B495B
:103A9000039880FB0110820042EA91700390019824
:103AA000000E8DF800000198000C8DF801000198BF
:103AB000000A8DF802000198C0B28DF803006A4632
:103AC00004214FF4747001F0A9FE18B14FF0FF30DB
:103AD00004B010BD0298000E8DF800000298000C92
:103AE0008DF801000298000A8DF802000298C0B219
:103AF0008DF803006A4604214FF4757001F08EFEC4
:103B000010B14FF0FF30E3E70398000E8DF800008E
:103B10000398000C8DF801000398000A8DF802004C
:103B20000398C0B28DF803006A4604214FF4767002
:103B300001F074FECCE70000A80F002009E3CA02E0
:103B400010B586B0044647A00068039046A0006800
:103B5000029046A00068019045A00068009004F023
:103B6000030003A9085C8DF8140003A8C4F3C10185
:103B7000405C8DF8150003A8C4F38111405C8DF8FA
:103B8000160004F0030002A9085C8DF8100002A8DA
:103B9000C4F3C101405C8DF8110002A8C4F3811187
:103BA000405C8DF8120005AA032140F2264001F086
:103BB00035FE18B14FF0FF3006B010BD04AA032146
:103BC00040F22A4001F02AFE10B14FF0FF30F3E737
:103BD000019805900098049004F0040058B19DF8F5
:103BE000140040F001008DF814009DF8100040F022
:103BF00001008DF8100004F0200058B19DF8150068
:103C000040F001008DF815009DF8110040F0010012
:103C10008DF8110004F4807058B19DF8160040F042
:103C200001008DF816009DF8120040F001008DF89B
:103C3000120005AA03214FF4886001F0EFFD10B1D6
:103C40004FF0FF30B8E704AA032140F2314001F001
:103C5000E5FD10B14FF0FF30AEE7064804810020CB
:103C6000AAE700004CCD6C000CC92C00365676003B
:103C700026466600A80F0020F8B505460E464FF40C
:103C80007A7095FBF0F000FB06F4200E8DF8000032
:103C9000200C8DF80100200A8DF80200E0B28DF8AA
:103CA00003006A4604214FF4AE7001F0B7FDF8BD81
:103CB00038B50446052094FBF0F084B220128DF84C
:103CC0000000E0B28DF801006A4602214FF4AD70A9
:103CD00001F0A4FD38BD38B50446052094FBF0F092
:103CE00084B220128DF80000E0B28DF801006A461F
:103CF00002214FF4AC7001F091FD38BD38B5044697
:103D00000020009004F0010020B19DF8000040F078
:103D10003000009004F0020020B19DF8000040F057
:103D20000C00009004F0040020B19DF8000040F069
:103D3000030000906A4601214FF4A47001F06EFD6B
:103D400038BD38B50446012C01DA012402E0042C08
:103D500000DD0424601EC0B200906A46012140F2DA
:103D60004F1001F05BFD38BD2DE9FC4706460F46BC
:103D700006F0070010B1B7F5C86F03DD4FF0FF3054
:103D8000BDE8FC87384602F007FE8146594902F03B
:103D9000B9FC8046684600F0EFFD9DF8000002285F
:103DA00006D0042816D0082826D0102848D135E09F
:103DB0004FF08D41404602F037FE814602F0B4FDDF
:103DC00084B24D49404602F02FFE814602F0ACFD20
:103DD00085B238E04FF08C41404602F025FE814626
:103DE00002F0A2FD84B24549404602F01DFE814624
:103DF00002F09AFD85B226E04FF08B41404602F07A
:103E000013FE814602F090FD84B23D49404602F027
:103E10000BFE814602F088FD85B214E04FF08A4126
:103E2000404602F001FE814602F07EFD84B2354933
:103E3000404602F0F9FD814602F076FD85B202E0CF
:103E40004FF0FF309CE700BF20128DF80400E0B275
:103E50008DF8050028128DF80600E8B28DF80700ED
:103E600006F00100A0B101AA02214FF4EA7001F0AE
:103E7000D5FC10B14FF0FF3082E70DF106020221B0
:103E80004FF4927001F0CAFC10B14FF0FF3077E7A9
:103E900006F00200A0B101AA02214FF4EC7001F07B
:103EA000BDFC10B14FF0FF306AE70DF106020221B0
:103EB0004FF4947001F0B2FC10B14FF0FF305FE7A7
:103EC00006F00400A0B101AA02214FF4EE7001F047
:103ED000A5FC10B14FF0FF3052E70DF106020221B0
:103EE0004FF4967001F09AFC10B14FF0FF3047E7A5
:103EF000002045E700004843000040460000C04560
:103F0000000040450000C04438B50446052094FB3D
:103F1000F0F085B228128DF80000E8B28DF80100AB
:103F20006A4602214FF4EF7001F078FC38BD38B5D5
:103F30000446052094FBF0F085B228128DF80000AD
:103F4000E8B28DF801006A4602214FF4ED7001F0ED
:103F500065FC38BD00BF054A128802F04002002A05
:103F6000F9D0C2B2014B1B1D1A80704700380140C6
:103F70007CB5054628494968087801AB04220D2123
:103F8000FDF74FF808B107207CBD9DF80700C0F38E
:103F900001109DF8041001F0E00140EAE1008DF805
:103FA00000009DF80700C0F381009DF8051001F0A6
:103FB000E00140EAE1008DF801009DF8070000F003
:103FC00003009DF8061001F0E00140EAE1008DF8E1
:103FD000020000241CE01DF8040018B9002045F878
:103FE000240013E00D4845F8240006E055F82400AD
:103FF0000B4902F019FD45F824001DF80400401E8D
:10400000C0B20DF804000028F0D100BF601CC4B29B
:10401000032CE0DB0020B7E7B00800207B14AE3EA5
:104020001D5A843F2DE9F04F87B005460C46914656
:1040300001208DF8100000208DF81100FE4A126852
:10404000917CFD4A5268107804AB0222FDF78FF88C
:1040500020B14FF0FF3007B0BDE8F08FC820FFF768
:1040600053F900208DF81000F34A1268D17BF24A10
:104070005268107804AB0122FDF779F810B14FF0C7
:10408000FF30E8E7EC4A12685179EB4A5268107841
:1040900004AB0122FDF76BF810B14FF0FF30DAE707
:1040A000E54A1268917CE44A5268107804AB012218
:1040B000FDF75DF810B14FF0FF30CCE7DE4A126833
:1040C000D17DDD4A5268107804AB0122FDF74FF82C
:1040D00010B14FF0FF30BEE7D74A12681179D64AC7
:1040E0005268107804AB0122FDF741F810B14FF08F
:1040F000FF30B0E70C208DF81000CF4A126811791C
:10410000CD4A5268107804AB0122FDF730F810B1A7
:104110004FF0FF309FE70F20FFF7F6F8C648806AA0
:10412000407A8DF81000C44A12689178C24A5268E9
:10413000107804AB0122FDF71AF810B14FF0FF30F0
:1041400089E7BD48806A007A8DF81000BA4A126883
:104150005178B94A5268107804AB0122FDF707F88C
:1041600010B14FF0FF3076E7B9F1000F07D0B24839
:10417000806A807A40F0E0008DF8100004E0AE48DC
:10418000806A807A8DF81000AB4A12689179AA4A49
:104190005268107804AB0122FCF7E9FF10B14FF030
:1041A000FF3058E7B9F1000F07D0A348806AC07A02
:1041B00040F0E0008DF8100003E0A048C07A8DF8D0
:1041C00010009D4A1268D1799B4A5268107804AB5E
:1041D0000122FCF7CCFF10B14FF0FF303BE7B9F103
:1041E000000F02D0C820FFF78FF840208DF8100094
:1041F000914A12681179904A5268107804AB0122F2
:10420000FCF7B5FF10B14FF0FF3024E778208DF8B0
:104210001000894A12685179874A5268107804ABB5
:104220000122FCF7A4FF10B14FF0FF3013E78349E0
:104230008889FFF769F800208DF810007E4A12681F
:1042400051797D4A5268107804AB0122FCF78FFF48
:1042500010B14FF0FF30FEE6774A1268917A764A45
:104260005268107804AB0222FCF7DBFE10B14FF06D
:10427000FF30F0E69DF811009DF8101040EA012B88
:104280000C209BFBF0F0C6B20020A860686028609C
:10429000A06060602060824665E0674A1268D17A5B
:1042A000654A5268107804AB0C22FCF7BAFE10B1D4
:1042B0004FF0FF30CFE69DF811009DF8101040EA56
:1042C000012000B2ADF808009DF813009DF812100F
:1042D00040EA012000B2ADF80A009DF815009DF8F3
:1042E000141040EA012000B2ADF80C00BDF908102E
:1042F000206808442060BDF90A10606808446060C6
:10430000BDF90C10A0680844A0609DF817009DF846
:10431000161040EA012000B2ADF800009DF8190027
:104320009DF8181040EA012000B2ADF802009DF897
:104330001B009DF81A1040EA012000B2ADF80400FD
:10434000BDF90010286808442860BDF902106868AB
:1043500008446860BDF90410A8680844A8600AF120
:10436000010000F0FF0AB24597DB3448D0F800C0E6
:104370002868C117090441EA104107046246002376
:104380003846FBF76CFF32460023CDE90201FBF70C
:1043900066FF28602948D0F800C06868C117090482
:1043A00041EA10410704624600233846FBF757FFF5
:1043B00032460023CDE90201FBF751FF68601F4838
:1043C000D0F800C0A868C117090441EA10410704E9
:1043D000624600233846FBF742FF32460023CDE910
:1043E0000201FBF73CFFA8601448D0F804C0216824
:1043F000C817000440EA11480F04624600233846FB
:104400004146FBF72CFF32460023CDE90201FBF7C2
:1044100026FF20600948D0F804C06068C11709046D
:1044200041EA10410704624600233846FBF717FFB4
:104430003246002304E00000B0080020E8850008B0
:10444000CDE90201FBF70BFF60601148D0F804C012
:10445000A068C117090441EA10410704624600231D
:104460003846FBF7FCFE32460023CDE90201FBF79C
:10447000F6FEA060A068002804DDA068A0F58030EA
:10448000A06003E0A06800F58030A0600020E2E5B5
:10449000E88500082DE9FC5F0746884600263F496D
:1044A0004968087801AB03220D21FCF7BAFD10B171
:1044B0000720BDE8FC9F9DF8040000F01F008DF868
:1044C00004009DF8050000F01F008DF805009DF820
:1044D000060000F01F008DF80600002459E057F890
:1044E000240058F82410A0EB010BBBF1000F01DBF6
:1044F000594601E0CBF10001084602F035FA4FF0D1
:104500008F41009002F0FEF8824601A8005D78B36A
:104510002349086802F040FA83465946214802F0D0
:10452000F1F8814604E02049484602F07DFA8146D0
:1045300001A8005D401EC0B201A908550028F2D1B3
:104540004946504602F0DEF883464FF07E5102F0B5
:1045500069FB054600BF25F000408346104881698D
:10456000584602F02DFB13D20120A04006430FE075
:10457000FFE70B480169504602F022FA05D30848CC
:104580004169504602F01CFB02D20120A0400643C4
:10459000641C032CA3DB30468BE70000B00800202E
:1045A000E885000800B04C4554E3853F10B504464B
:1045B000204600F00FF80346E01C00F00BF843EA39
:1045C000C00083B2A01D00F005F843EA801083B25A
:1045D000184610BD014691F90020002A01DD002097
:1045E0001EE091F90020002A01DA042018E091F978
:1045F0000120002A01DD012012E091F90120002AAA
:1046000001DA05200CE091F90220002A01DD0220E8
:1046100006E091F90220002A01DA062000E00720D6
:104620007047FDF711FDFDF725FAC820FEF76CFE77
:1046300000BFFCF709FAFCF769FAFCF7DDF8FCF7B4
:10464000D9F8FCF79FFEF4E77047000070B5044608
:10465000002624F00104184890F8240008B1002036
:1046600070BD1548807A10B94FF0FF30F8E7124856
:10467000057C807A2040104908740846007CA042DE
:1046800002D04FF0FF3600E0002614B90A48007D42
:1046900018B1012001F04CF902E0002001F048F9C6
:1046A0003CB100F0A7FC20B1034805744FF0FF3087
:1046B000D6E73046D4E70000B00800202DE9F04FDF
:1046C00099B004460D4616464FF07E574FF000084D
:1046D0004FF000094FF0000A12A813A918AB0EAA58
:1046E000CDE9001014A916A8FEF7DCFF18B10120CF
:1046F00019B0BDE8F08FBDF84C0000F480700028C0
:104700007ED00E9802F030F983464FF09D4101F0C3
:10471000F9FF07460F9802F027F983464FF09D41B5
:1047200001F0F0FF8046109802F01EF983464FF02A
:104730009D4101F0E7FF8146119802F015F983468B
:104740004FF09D4101F0DEFF824639464FF0804038
:1047500002F06AF94946059002F066F94146079071
:104760004FF0404002F060F95146059002F05CF9CC
:104770000690079901F058FF834601F029FFCDE923
:104780000801FEF765FA4FF06632544BCDE90A0195
:1047900001F00EFCCDE90C0101F088F920604946DA
:1047A0004FF0804002F040F94946029002F03CF997
:1047B000414604904FF0404002F036F941460290E5
:1047C00002F032F90390049902F02CFA83464FF07C
:1047D0007E5101F029FF059001F0FAFECDE90801B4
:1047E00039464FF0804002F01FF94146039002F035
:1047F0001BF9494604904FF0804002F015F900E0A3
:1048000068E05146039002F00FF98346049901F0E5
:104810000BFF059001F0DCFECDE90601DDE9082380
:10482000FEF75EFC4FF066322C4BCDE90A0101F039
:10483000BFFBCDE90C0101F039F928605146504623
:1048400002F0F2F849460490484602F0EDF841467D
:104850000390404602F0E8F839460190384602F0ED
:10486000E3F80090019901F0DFFE0290039902F055
:10487000D9F98346049902F0D5F9059001F0A8FE14
:10488000CDE908015146384602F0CEF84946049079
:10489000404602F0C9F80390049901F0C5FE4FF0BC
:1048A0008041059002F0C0F8834601F091FECDE909
:1048B0000601DDE90823FEF713FC4FF06632074BD3
:1048C000CDE90A0101F074FBCDE90C0101F0EEF82D
:1048D000306001E002200BE7002009E766A64C40AB
:1048E00070B50024FCF700FA00F020F900283DD153
:1048F000782000F02BFFC4B20CB1012070BD7820ED
:10490000FFF7A4FEC4B20CB10220F7E7642000F068
:10491000CFFEC4B20CB10320F0E7FEF7B7FEC4B27D
:104920000CB10420EAE71348FFF740FE0546FFF705
:1049300007F9C4B20CB10520E0E740F27310FEF7AE
:104940004DFDC4B20CB10620D8E76420FFF728F86B
:10495000C4B20CB10720D1E700F0A0FF044601204B
:1049600000F0A2FDC4B21CB10920C7E70A20C5E7C8
:104970000020C3E7DC08002001461148407A30B12E
:10498000012807D0022808D003280CD108E0022013
:1049900008700BE00420087008E00820087005E0AB
:1049A0001020087002E04FF0FF30704700BF04484D
:1049B000C07C18B108784006000E08700020F4E7AB
:1049C000B008002001461348407A30B1012808D0D1
:1049D00002280AD0032810D10BE04FF48040088051
:1049E0000EE041F69C7008800AE04FF48050088089
:1049F00006E04FF40060088002E04FF0FF3070479F
:104A000000BF0448C07C10B1088840100880002016
:104A1000F5E70000B008002001460248007C08705D
:104A200000207047B008002001460F48007A30B1DE
:104A3000012807D0022809D003280FD10AE0FA2064
:104A400008800EE04FF4FA7008800AE04FF47A70A4
:104A5000088006E04FF4FA60088002E00020088039
:104A600000BF00BF00207047B008002001460E487C
:104A7000007A30B1012807D0022808D003280CD1D1
:104A800008E00A4808600BE00948086008E00948A7
:104A9000086005E00848086002E04FF0FF3070470A
:104AA00000BF0020FBE70000B00800200000034327
:104AB00000008342333303423333834101461248BB
:104AC000C07A082817D2DFE800F01704070A0D1093
:104AD0001318BC20088013E06220088010E02A2010
:104AE00008800DE0142008800AE00A20088007E012
:104AF0000520088004E000BF00BF0020088000BF40
:104B000000BF002070470000B008002001460648A2
:104B100090F8240010B14FF0FF3070470248C08970
:104B200008800020F9E70000B00800201CB58020B4
:104B30008DF80000654A1268917C644A52681078CA
:104B40006B460122FCF713FB10B14FF0FF301CBD88
:104B50006420FEF7D9FB00208DF800005B4A126844
:104B6000917C5A4A526810786B460122FCF7FFFA92
:104B700010B14FF0FF30EAE7544A1268917D534A72
:104B8000526810786B460622FCF74BFA10B14FF0D2
:104B9000FF30DCE79DF80500C007400F9DF80310CB
:104BA00001F0010140EA41009DF8011001F001010E
:104BB00040EA010494B1012C03D101214348C1749E
:104BC00031E0022C03D100214048C1742BE0214682
:104BD0003FA0FBF769FB4FF0FF30B8E73B4A126894
:104BE000D1783A4A526810786B460122FCF719FADC
:104BF00010B14FF0FF30AAE79DF8000000F00F045D
:104C00002CB93D48FBF750FB4FF0FF309FE7042CD9
:104C100006D13AA0FBF748FB01212C48C17402E001
:104C200000212A48C174FF2128488172FF202749AA
:104C30000872FF2125484172C1724FF6FF71C18190
:104C4000FF21017481740121017380F82210002179
:104C500080F8231041750175163001604160816054
:104C6000163880F8241080F82510C1844FF4FA60BB
:104C700000F062FC10B14FF0FF3068E7022000F056
:104C80002BFB10B14FF0FF3061E72A2000F0CEFC83
:104C900010B14FF0FF305AE7322000F009FD10B19B
:104CA0004FF0FF3053E70020FFF7D0FC10B14FF07A
:104CB000FF304CE7002000F051FB10B14FF0FF3007
:104CC00045E7002000F042FD002040E7B00800204A
:104CD000556E737570706F7274656420736F66744F
:104CE000776172652070726F647563742072657687
:104CF0002025642E0A0000000893000848616C66B5
:104D00002073656E73697469766974792070617255
:104D10007420666F756E642E0A0000002DE9F04362
:104D200085B005460E4690469946294890F82500DC
:104D300020B14FF0FF3005B0BDE8F08316B94FF059
:104D4000FF30F8E7002423E0281B102801DD1020A5
:104D500000E0281B87B232193946204600F05EFD7C
:104D600010B14FF0FF30E6E701AA3946204600F0C7
:104D700001F910B14FF0FF30DDE730193A4601A9D3
:104D8000FBF776FB10B16FF00100D4E7E01984B2B5
:104D9000AC42D9DB4FEA28208DF8000008F0FF0074
:104DA0008DF801000A4A1268917E094A526810780B
:104DB0006B460222FCF7DBF910B14FF0FF30BAE787
:104DC0000121034880F82510A0F826900020B2E7C2
:104DD000B008002038B50446282C02DD4FF0FF3023
:104DE00038BDDCB9002000F0EBFB00208DF800009E
:104DF00007208DF801002E4A1268917C2C4A5268D7
:104E000010786B460222FCF7B2F910B14FF0FF3078
:104E1000E6E70021264801750020E1E7012000F0C7
:104E2000CFFB20208DF80000012C06D100208DF84A
:104E30000100052000F0FAFB17E0052C06DC01203C
:104E40008DF80100052000F0F1FB0EE0142C06DCCB
:104E500002208DF801000A2000F0E8FB05E00320A5
:104E60008DF80100142000F0E1FB9DF801000721FE
:104E700001EB8010C0B28DF801000D4A1268917CE0
:104E80000B4A526810786B460222FCF770F910B199
:104E90004FF0FF30A4E7082105488172002101731B
:104EA000012101750020FFF7D1FB002098E70000E9
:104EB000B0080020F8B504460F4616462C4890F876
:104EC000240010B94FF0FF30F8BD2948807A10B99E
:104ED0004FF0FF30F8E7264A1268917A244A526868
:104EE00010786B460222FCF79CF810B14FF0FF30AF
:104EF000EAE79DF801009DF8001040EA0125A5426F
:104F000003DA00203070401EDEE719484068408810
:104F1000B5EB600F17DD164A1268517C144A5268CF
:104F200010786B460122FCF77CF810B14FF0FF308F
:104F3000CAE79DF8000000F0100020B100F05AF818
:104F40006FF00100C0E7E2B2094B1B68D97A084B49
:104F50005B6818783B46FCF764F810B14FF0FF30FF
:104F6000B2E795FBF4F0401E30700020ACE7000083
:104F7000B0080020F8B504460D46164616B94FF0A5
:104F8000FF30F8BD1A48807A10B94FF0FF30F8E7CB
:104F900020128DF80000E0B28DF801009DF80100AC
:104FA0002844134949684989884202DD4FF0FF309F
:104FB000E7E70F4A1268117E0D4A526810786B4677
:104FC0000222FCF7D4F810B14FF0FF30D9E7EAB273
:104FD000074B1B68597D064B5B6818783346FCF716
:104FE00020F810B14FF0FF30CBE70020C9E70000F8
:104FF000B008002008B57048807A10B94FF0FF3033
:1050000008BD002000906C4A1268D17B6A4A526841
:1050100010786B460122FCF7AAF810B14FF0FF3070
:10502000EEE7654A12685179634A526810786B4618
:105030000122FCF79CF810B14FF0FF30E0E75E4A28
:10504000126811795C4A526810786B460122FCF7AD
:105050008EF810B14FF0FF30D2E7574890F8240097
:10506000002853D00C200090534A12681179524AFC
:10507000526810786B460122FCF779F810B14FF0B6
:10508000FF30BDE73220FEF73FF9C02000904A48CC
:10509000807A00F0010020B19DF8000040F020006F
:1050A0000090454A12681179434A526810786B465D
:1050B0000122FCF75CF810B14FF0FF30A0E73E484A
:1050C000407C10B10220009001E0002000903A4A9C
:1050D0001268D17B384A526810786B460122FCF77F
:1050E00046F810B14FF0FF308AE700200090324AB6
:1050F00012685179304A526810786B460122FCF7E9
:1051000036F8002855D04FF0FF3079E704200090A2
:10511000294A12681179284A526810786B46012290
:10512000FCF725F810B14FF0FF3069E72248807C8A
:1051300020B92148807A00F0010010B94020009089
:1051400001E0602000901C4A126811791A4A5268E6
:1051500010786B460122FCF70AF810B14FF0FF30CF
:105160004EE73220FEF7D0F81348407C10B1012002
:10517000009001E0002000900F4A1268D17B0E4A97
:10518000526810786B460122FBF7F1FF10B14FF027
:10519000FF3035E7084A12685179074A526810789B
:1051A000054B10330122FBF7E2FF10B14FF0FF3047
:1051B00026E7002024E70000B00800202DE9F04F8A
:1051C0008DB083460F4602200C90424890F8240090
:1051D00020B1002000F068F9012600E0002603A8B5
:1051E000FFF722FC05A8FFF7C7FB01A8FFF766FC45
:1051F00002A8FFF78BFC374890F80AA004A8FFF735
:105200000BFC002407E0002239465846FEF70AFF4F
:1052100000B902E0641C022CF5DB00BF022C01D1B6
:10522000002528E0002407E0012206A909A8FEF7CE
:10523000F9FE00B902E0641C022CF5DB00BF022C71
:1052400001D1002517E006A93846FDF7ABFC00F0B8
:10525000FF0809A95846FFF71DF900F0FF090025CE
:10526000B9F1000F01D145F00105B8F1000F01D1EE
:1052700045F0020500BFFF2016490872FF211548BE
:105280004172C1724FF6FF71C181FF2181720174B9
:1052900001210173BDF80C0000F04EF99DF81400D7
:1052A00000F01AF8BDF8040000F0C0F9BDF80800DD
:1052B00000F0FEF9504600F049FA9DF81000FFF7A3
:1052C000C5F916B1012000F0EFF828460DB0BDE891
:1052D000F08F0000B008002038B504461E48807AE0
:1052E00010B94FF0FF3038BD022C06D0042C07D087
:1052F000082C08D0102C0CD108E0002000900BE006
:105300000820009008E01020009005E01820009090
:1053100002E04FF0FF30E6E700BF0F48407A9DF80B
:105320000010B0EBE10F01D10020DCE70A4A12685F
:10533000D179094A526810786B460122FBF717FFB2
:1053400010B14FF0FF30CEE79DF80000C1100248C9
:1053500041720020C7E70000B008002038B50446BD
:105360005048807CA04201D1002038BD002C46D09E
:105370004C4A126811794B4A526810786B460122E8
:10538000FBF74FFE10B14FF0FF30EEE79DF8000045
:1053900020F020000090434A12681179414A526877
:1053A00010786B460122FBF7E2FE10B14FF0FF30A0
:1053B000DBE70320FDF7A8FF02200090394890F8B2
:1053C000220020B19DF8000040F080000090354898
:1053D00090F8230020B19DF8000040F030000090CC
:1053E000304A1268117D2F4A526810786B460122AC
:1053F000FBF7BDFE002851D04FF0FF30B5E7294A3A
:1054000012681179274A526810786B460122FBF71F
:1054100008FE10B14FF0FF30A7E72248807A00F075
:10542000010028B19DF8000040F02000009004E049
:105430009DF8000020F0200000901A4A12681179AF
:10544000184A526810786B460122FBF790FE10B1A3
:105450004FF0FF3089E70320FDF756FF114890F821
:10546000220010B18020009001E0002000900D4843
:1054700090F8230020B19DF8000040F0300000902B
:10548000084A1268117D074A526810786B4601225B
:10549000FBF76DFE10B14FF0FF3066E701488474F2
:1054A000002062E7B008002038B50446214890F893
:1054B0002400A04201D1002038BD24B31D4890F83B
:1054C000250010B94FF0FF30F6E7002000F030FA69
:1054D0000020FFF743FF1749C88C00F0E9F80020CF
:1054E00000901449496808786B4601222321FBF794
:1054F0003EFE01210F4880F82410012000F018FA28
:10550000FFF778FD13E0002000F012FA0948007C54
:1055100000900849496808786B4601222321FBF76F
:1055200026FE0021034880F82410FFF763FD0020C9
:10553000C2E70000B008002038B504461F48807A52
:1055400010B94FF0FF3038BDFA2C09D0B4F5FA7F0E
:1055500009D0B4F57A7F09D0B4F5FA6F0CD108E020
:10556000002000900BE00820009008E01020009040
:1055700005E01820009002E04FF0FF30E3E700BFA5
:105580000E48007A9DF80010B0EBE10F01D1002029
:10559000D9E70A4A12689179084A526810786B462E
:1055A0000122FBF7E4FD10B14FF0FF30CBE79DF88F
:1055B0000000C010014908720020C4E7B0080020B4
:1055C00038B50446184890F82300A04201D10020C5
:1055D00038BD14B13020009001E000200090124846
:1055E000807C20B19DF8000040F0020000900E4841
:1055F00090F8220020B19DF8000040F0800000905B
:10560000094A1268117D084A526810786B460122D7
:10561000FBF7ADFD10B14FF0FF30D9E7024880F83D
:1056200023400020D4E70000B008002038B504462D
:105630001E48807A10B94FF0FF3038BDBC2C02DB19
:105640000120009015E0622C02DB0220009010E0A7
:105650002A2C02DB032000900BE0142C02DB042038
:10566000009006E00A2C02DB0520009001E00620F5
:1056700000900E48C07A9DF80010884201D10020A9
:10568000DBE70A4A12689178084A526810786B463C
:105690000122FBF76CFD10B14FF0FF30CDE79DF814
:1056A00000100248C1720020C7E70000B0080020C7
:1056B00038B504462448807A10B94FF0FF3038BD21
:1056C000214890F8240010B14FF0FF30F7E71E4852
:1056D000007D50B134B1282C04DCE0B2FFF77AFB36
:1056E0000020ECE70020FFF775FB042C01DA04240E
:1056F00004E0B4F57A7F01DD4FF47A744FF47A70E8
:1057000090FBF4F0401EC0B200900F4A126851782E
:105710000D4A526810786B460122FBF728FD10B144
:105720004FF0FF30CBE79DF80000401C4FF47A713A
:1057300091FBF0F081B20448C1810146C98948104B
:10574000FFF774FF0020BAE7B008002038B5044620
:1057500004F0700010B10120009005E014B10020A9
:10576000009001E0402000902B4A1268917C2A4A68
:10577000526810786B460122FBF7F9FC20B100213A
:1057800025488172481E38BD9DF8000020F0400178
:10579000214801730020009004F0400020B99DF8DA
:1057A000000040F00400009004F0200020B99DF8B3
:1057B000000040F00200009004F0100020B99DF8B5
:1057C000000040F00100009004F0080020B99DF8AE
:1057D000000040F0380000900F4A1268D17C0E4A59
:1057E000526810786B460122FBF7C1FC20B1002102
:1057F00009488172481EC6E724B1082C02D0002057
:10580000FFF7DEFE04488472002101753220FDF7A7
:105810007BFD0020B7E70000B0080020F8B5044683
:105820000D46164616B94FF0FF30F8BD1A48807A7B
:1058300010B94FF0FF30F8E720128DF80000E0B209
:105840008DF801009DF801002844134949684989F1
:10585000884202DD4FF0FF30E7E70F4A1268117E01
:105860000D4A526810786B460222FBF780FC10B19B
:105870004FF0FF30D9E7EAB2074B1B68597D064B62
:105880005B6818783346FBF772FC10B14FF0FF30BD
:10589000CBE70020C9E70000B008002070B588B051
:1058A00002A905A8FFF78AFC0446032C3ED101A8F3
:1058B000FFF7DCF8059801F057F80646019901F06A
:1058C000B3F8054601F014F80590069801F04CF87D
:1058D0000646019901F0A8F8054601F009F806907E
:1058E000079801F041F80646019901F09DF8054638
:1058F00000F0FEFF079005A8FEF78AF86846FFF75C
:1059000061F8BDF80010029848430290BDF80010FD
:10591000039848430390BDF800100498484304904E
:1059200002A8FDF7A5FF002008B070BD0120FBE72D
:1059300038B50446214890F82400C0B114B10220C3
:10594000009001E0002000901C4A1268D17B1B4AA5
:10595000526810786B460122FBF709FC10B14FF03A
:10596000FF3038BD9DF800101448417423E01348FF
:10597000807A10B94FF0FF30F3E724B10F48407C34
:1059800008B10020EDE714B10120009001E00020F3
:1059900000900A4A1268D17B084A526810786B4618
:1059A0000122FBF7E4FB10B14FF0FF30D9E79DF87F
:1059B0000010024841740020D3E70000B008002026
:1059C0002DE9F04106460F4600F032FC041E0D465C
:1059D00018BF0120284320F00040C0F17F6000F193
:1059E000E040C00F0ED0301C18BF0120384320F01B
:1059F0000040C0F17F6000F1E040C00F04BF012013
:105A0000FAF7EAFD20462946BDE8F08110B586B0D8
:105A10000446012144F20400FCF768F94FF40070D9
:105A2000ADF8140003208DF8160018208DF817002B
:105A300005A91C48FAF725FF4FF48060ADF8140063
:105A400004208DF8170005A91648FAF71AFF25203B
:105A50008DF8000000208DF801008DF80200012073
:105A60008DF803006846FBF74BFC01940020ADF86D
:105A70000800ADF80A00ADF80C00ADF810000C20DD
:105A8000ADF80E0001A90848FCF792FF012240F290
:105A900025510548FCF766FF01210348FCF72CFF60
:105AA00006B010BD000801400038014021F000425E
:105AB000A2F16052B2F5801F01F0004328BFD2F17D
:105AC0007F6C0BD95FEA001C43EAC20242EB5070C4
:105AD00018BF704728BF20F001007047B2F5801F43
