:020000040800F2
:10000000481500201D020008011200080B09000815
:10001000D3100008ED060008B72A00080000000011
:10002000000000000000000000000000451D000866
:10003000F106000800000000E51B0008011F000891
:1000400037020008370200083702000837020008AC
:10005000370200083702000837020008370200089C
:10006000370200083702000837020008370200088C
:10007000370200083702000837020008370200087C
:10008000370200083702000837020008370200086C
:10009000370200083702000837020008370200085C
:1000A000370200083702000837020008370200084C
:1000B000D122000837020008ED24000837020008AA
:1000C000370200083702000837020008370200082C
:1000D00037020008C928000837020008092900086B
:1000E000370200083702000837020008370200080C
:1000F00037020008370200083702000837020008FC
:1001000037020008370200083702000837020008EB
:1001100037020008370200083702000837020008DB
:1001200037020008370200083702000837020008CB
:1001300000F002F800F063F80AA090E8000C824496
:100140008344AAF10107DA4501D100F058F8AFF273
:10015000090EBAE80F0013F0010F18BFFB1A43F0A5
:1001600001031847AC850000CC85000010F8013B66
:100170000A4413F0030408BF10F8014B1D1108BF17
:1001800010F8015B641E05D010F8016B641E01F8C5
:10019000016BF9D1002D15D010F8014B03F00C03C1
:1001A0000C2BA1EB04040ABF10F8013BA4EB831451
:1001B000A4EB032405F1010314F8016B5B1E01F8A5
:1001C000016BF9D5914238BF10F8013BD1D370478C
:1001D0000023002400250026103A28BF78C1FBD850
:1001E000520728BF30C148BF0B607047642900F038
:1001F0004380002070471FB51FBD10B510BD00F033
:100200002FFA1146FFF7F7FF03F085FD00F04DFAD6
:1002100003B4FFF7F2FF03BC02F0D3FC09488047A8
:1002200009480047FEE7FEE7FEE7FEE7FEE7FEE7D8
:10023000FEE7FEE7FEE7FEE704480549054A064BF0
:1002400070470000051F000831010008480F00201A
:100250004815002048110020481100207047000078
:100260000FB4044910B503AA029800F079F910BC44
:100270005DF814FB780800202DE9F04106460024C3
:1002800010687529314616A510D0AFF300800028FC
:1002900002DA404213A507E031688A0701D512A5AA
:1002A00002E0490704D511A5012401E0AFF3008065
:1002B00000210A2206F1240709E0B0FBF2FCB0FBA2
:1002C000F2F302FB1C00303078541846491C002819
:1002D000F3D123462A463046BDE8F04100F0E7B8A6
:1002E000000000002D0000002B0000002000000096
:1002F0002DE9F05F894604464FF0000ADFF824B18B
:10030000FB44C0F820A02046E168884700287DD043
:10031000252806D0D4E901219047206A401C20629C
:10032000F1E700255F462046E16888472028064619
:1003300007DB312E05D2B81910F8200C08B105439F
:10034000F1E7A80701D525F00405C4F81CA0002793
:10035000C4F818A02A2E09D0304602F02BFC38B37E
:1003600004EB8708303EC8F8186019E059F8041B00
:10037000204604EB87029161E1688847012F064619
:1003800018D1E069002820DA25F020051DE0D8F812
:10039000180000EB800006EB40003038C8F8180069
:1003A0002046E1688847064602F004FC0028EED1AA
:1003B000012F0AD02E2E08D12046E16888477F1CE5
:1003C0000646022F45F02005C4DBA069002803DAA9
:1003D000404245F00105A061E80701D025F0100575
:1003E000A6B1A6F14100192802D8203645F40065CF
:1003F0004A463146204625604D46FFF7F7FE60B17C
:10040000012807D0ED1D25F0070000E007E000F10E
:10041000080978E705F1040975E730467AE7206AAC
:10042000BDE8F09FB682000040EA010310B59B07CB
:100430000FD1042A0DD310C808C9121F9C42F8D04E
:1004400020BA19BA884201D9012010BD4FF0FF30FF
:1004500010BD1AB1D30703D0521C07E0002010BD15
:1004600010F8013B11F8014B1B1B07D110F8013BA1
:1004700011F8014B1B1B01D1921EF1D1184610BD82
:1004800002F0FF0343EA032242EA024200F07CB892
:10049000704770477047704710B500F095F80068D6
:1004A00010BD10B5044600F08FF8046010BD2DE9B2
:1004B000F0470D4699469246044600F1240801682B
:1004C000880604D5E06921F01001216000E00120D8
:1004D000A84201DD471B00E00027A1697A1902EB61
:1004E0000900081AA0612078C00602D42046AFF3A4
:1004F0000080002608E0D4E901211AF806009047A0
:10050000206A401C761C20624E45F4DB2078C00631
:100510000AD52046AFF3008006E0D4E9012130205F
:100520009047206A401C2062381EA7F10107F4DCC6
:1005300007E0D4E9012118F805009047206A401C23
:100540002062281EA5F10105F3DC2046AFF30080F0
:100550002078000602D50220BDE8F0870120FBE7E5
:10056000074B70B50D467B4400F037F8044628462B
:1005700000F046F810B14FF0FF3070BD204670BD5E
:100580001B3700004FF000020429C0F0128010F069
:10059000030C00F03B80CCF1040CBCF1020F18BF3F
:1005A00000F8012BA8BF20F8022BA1EB0C0100F0F2
:1005B0002DB85FEAC17C24BF00F8012B00F8012BA5
:1005C00048BF00F8012B704700487047E80E002034
:1005D00001694A1C02610878704700B58FB0CDE907
:1005E00001310021059105497944CDE903101146F7
:1005F0006846FFF77DFE0FB000BD0000E5FFFFFF7E
:10060000007B00F0800070474FF0000200B51346F9
:1006100094469646203922BFA0E80C50A0E80C5022
:10062000B1F12001BFF4F7AF090728BFA0E80C50D3
:1006300048BF0CC05DF804EB890028BF40F8042BCC
:1006400008BF704748BF20F8022B11F0804F18BF39
:1006500000F8012B7047000000487047E80E0020AA
:100660007546FFF7F9FFAE4605006946534620F090
:100670000700854618B020B5FFF7DEFDBDE8204035
:100680004FF000064FF000074FF000084FF0000B4E
:1006900021F00701AC46ACE8C009ACE8C009ACE801
:1006A000C009ACE8C0098D46704710B50446AFF3E9
:1006B00000802046BDE81040FFF7AABD704700004B
:1006C00008480078012802D0022808D103E0012060
:1006D0000549086004E000200349086000E000BF0D
:1006E00000BF704723080020B881224200BFFEE708
:1006F00070477FB505460C460121084601F074FAA3
:10070000ADF80850ADF804400020ADF80600ADF893
:100710000A0001A94FF0804002F084F8012211463E
:10072000900701F09EFF1C208DF8000001208DF83D
:1007300003008DF801008DF80200684600F062FDAC
:100740000121880701F0F0FE7FBD2DE9F04102464E
:1007500000250026002000230024002791F803C074
:100760000CF00F0591F803C00CF0100CBCF1000F59
:1007700003D091F802C04CEA050591F800C0BCF125
:10078000000F31D0146800202BE04FF0010C0CFA60
:1007900000F3B1F800C00CEA03069E4220D18300AA
:1007A0004FF00F0C0CFA03F7BC4305FA03FC4CEABC
:1007B000040491F803C0BCF1280F06D14FF0010CDE
:1007C0000CFA00FCC2F814C00AE091F803C0BCF1B6
:1007D000480F05D14FF0010C0CFA00FCC2F810C014
:1007E000401C0828D1D31460B1F800C0BCF1FF0F41
:1007F00034DD546800202EE000F1080C4FF00108B1
:1008000008FA0CF3B1F800C00CEA03069E4221D1AD
:1008100083004FF00F0C0CFA03F7BC4305FA03FCFE
:100820004CEA040491F803C0BCF1280F05D100F193
:10083000080C08FA0CF8C2F8148091F803C0BCF157
:10084000480F07D100F1080C4FF0010808FA0CF826
:10085000C2F81080401C0828CED35460BDE8F08157
:10086000F0B50A46002300240021002500F00046D0
:10087000B6F1004F02D11D4EF16901E01B4E7168C7
:10088000C0F3034583B200F44016B6F5401F08D10B
:1008900021F07061154E766826F07066134F7E6009
:1008A00012E000F48016B6F5801F06D1032606FA82
:1008B00005F4A14341F0706106E0460D360103FAEC
:1008C00006F6B14341F0706122B1460D360103FADC
:1008D00006F6314300F00046B6F1004F02D1034E58
:1008E000F16101E0014E7160F0BD000000000140C7
:1008F0000246002093680B400BB1012000E000206D
:100900007047416170470161704700BFFEE700001A
:100910002DE9F04100BF1A4A1A491B4803F048FA72
:100920000028F8D1194A1A491A4800F0E3F81A4A7F
:100930001A491B4800F006F91A491148006805F0E9
:1009400043FA074605F0A4F9044617490E48006823
:1009500005F03AFA074605F09BF9054612490948A1
:10096000006805F031FA074605F092F9064623467D
:100970002A4631460DA0FFF773FCBDE8F081000068
:100980002C0800202808002024080020340800201B
:1009900032080020300800203A08002038080020E3
:1009A00036080020000020410000C842726F6C6CC5
:1009B0003A25642070697463683A2025642079615F
:1009C000773A25640D0A000008B50121102001F0D6
:1009D0001BF90121402001F017F94FF40050ADF848
:1009E000000048208DF8030069460748FFF7ADFE78
:1009F0000120ADF8000048208DF803006946034847
:100A0000FFF7A3FE08BD00000010014000180140E0
:100A100010B500F015F8084908700846007801285C
:100A200001D10649086004480078022802D100205C
:100A30000249086010BD000022080020B88122424F
:100A400010B51B480078012821D141031948FFF750
:100A50004FFF20B101211848FFF74AFFB8B90A201B
:100A600002F00EFC4FF400511248FFF741FF20B98D
:100A700000200F490870012010BD01210E48FFF72A
:100A800037FF98B900200A4908700220F4E74FF4B4
:100A900000510848FFF72CFF012807D10121064823
:100AA000FFF726FF012801D1014908700020E3E784
:100AB0007E080020001001400018014008B5012107
:100AC000202001F0A1F84FF4C040ADF80000102044
:100AD0008DF8030003208DF8020069460448FFF7F3
:100AE00034FE4FF4C0410248FFF70BFF08BD000081
:100AF000001401402DE9FC4104460D4616466B46A4
:100B000006223B21682000F00EFA0746BFB99DF887
:100B100001009DF8001040EA012000B220809DF8FD
:100B200003009DF8021040EA012000B228809DF8E1
:100B300005009DF8041040EA012000B230803846DC
:100B4000BDE8FC812DE9FC4104460D4616466B4686
:100B500006224321682000F0E6F90746BFB99DF858
:100B600001009DF8001040EA012000B220809DF8AD
:100B700003009DF8021040EA012000B228809DF891
:100B800005009DF8041040EA012000B2308038468C
:100B9000BDE8FC8110B500200E4908600E480068D1
:100BA00020F470400C4908600846006840F440504A
:100BB000086000200949C1F8AC0100F011F80120DB
:100BC0000449086000F00CF800200449C1F8A801AD
:100BD00010BD0000A8812142040C01400080214288
:100BE00010B5022002F072FB10BD000008B5012113
:100BF000082001F009F84FF44060ADF80000102023
:100C00008DF8030003208DF8020069460448FFF7C1
:100C10009CFD4FF440610248FFF775FE08BD0000DF
:100C2000000C014010B500200E4908600E48006815
:100C300020F470400C4908600846006840F44050B9
:100C4000086001200949C1F8AC01FFF7C9FF012084
:100C500004490860FFF7C4FF00200449C1F8A80157
:100C600010BD0000A8812142040C014000802142F7
:100C700070B5054600241648006820F470401449F9
:100C800008600846006840F400400860002614E050
:100C9000002010490860FFF7A3FF01200E49C1F8AA
:100CA000A8016006040E0B487C38006808B1601C7F
:100CB000C4B2FFF795FF701CC6B2082EE8DB15B969
:100CC000FFF7B0FF01E0FFF765FF204670BD0000B1
:100CD000040C0140A88121420080214270B50446E5
:100CE0001248006820F47040104908600846006807
:100CF00040F44050086000200D490860002512E0D3
:100D0000E0090B49091D08606006040E012009492D
:100D1000C1F8A801FFF764FF002005490860FFF74C
:100D20005FFF681CC5B2082DEADB70BD040C0140F2
:100D3000A88121420080214210B50E48006820F4AD
:100D400070400C4908600846006840F44050086054
:100D50000120094908600949C1F8A801FFF740FFCF
:100D6000002005490860FFF73BFF00200349C1F858
:100D7000A80110BD040C0140AC8121420080214239
:100D800010B50E48006820F470400C490860084611
:100D9000006840F440500860002009490860094993
:100DA000C1F8AC01FFF71CFF0120054908600549A7
:100DB000C1F8AC01FFF714FF10BD0000040C0140A6
:100DC000A88121420080214210B500241448006807
:100DD00020F47040124908600846006840F4004062
:100DE000086001200F490860FFF7FAFE01200E4954
:100DF000C1F8A801FFF7F4FE07E0601CC4B2FA2CAA
:100E000003DDFFF7BDFF012010BD064880380068F4
:100E10000028F2D10349091F086000BFF4E7000071
:100E2000040C0140AC8121420080214238B50121EF
:100E3000084600F0E9FE0121042000F0E5FE4FF431
:100E40000040ADF8000010208DF8030003208DF85D
:100E5000020069462248FFF778FC01212148FFF78C
:100E6000FFFC002020490860FFF7C0FE80216B20B6
:100E700000F0DDF8642002F003FA00216B2000F09E
:100E8000D6F8032000F091F8002000F086F8322018
:100E900000F0B0F80021382000F0C9F800216A20E5
:100EA00000F0C5F80021232000F0C1F88021372090
:100EB00000F0BDF8752000F019F80446682C0BD13D
:100EC00001216B2000F0B3F800216C2000F0AFF896
:100ED000322000F08FF801E0012038BD0020FCE74F
:100EE0000008014000023000BC01214270B50446F8
:100EF000FFF722FFD020FFF7F1FEFFF765FF204646
:100F0000FFF7ECFEFFF760FFFFF716FFD120FFF7BA
:100F1000E5FEFFF759FF0020FFF7AAFE0546FFF7A1
:100F20002FFF284670BD2DE9F04106460F461446B6
:100F30001D46FFF701FF002141EA4601C8B2FFF755
:100F4000CDFEFFF741FF20B1FFF71AFF0120BDE8FA
:100F5000F0813846FFF7C2FEFFF736FFFFF7ECFEE1
:100F6000012101EB4601C8B2FFF7B8FEFFF72CFFE5
:100F70000DE0012C04D10020FFF77AFE287003E079
:100F80000120FFF775FE2870601EC4B26D1C002C96
:100F9000EFD1FFF7F5FE0020D9E710B50446E006D3
:100FA000010E1C2000F043F810BD10B50446E00609
:100FB000010E1B2000F03BF810BD70B50446002563
:100FC000BC2C01DB012510E0622C01DB02250CE0CA
:100FD0002A2C01DB032508E0142C01DB042504E0A6
:100FE0000A2C01DB052500E0062529461A2000F021
:100FF0001EF870BD70B50446B4F57A7F01DD4FF47C
:101000007A74042C00DA04244FF47A7090FBF4F024
:10101000401EC5B22946192000F009F805462646AB
:1010200004EBD671C1F34F00FFF7C7FF70BD70B579
:1010300005460C46FFF780FED020FFF74FFEFFF776
:10104000C3FE18B1FFF79CFE012070BD2846FFF7D4
:1010500045FEFFF7B9FE2046FFF740FEFFF7B4FE5E
:1010600018B1FFF78DFE0120EFE7FFF789FE0020A2
:10107000EBE72DE9F04105460E4617469846FFF787
:101080005BFE002141EA4501C8B2FFF727FEFFF7EA
:101090009BFE20B1FFF774FE0120BDE8F0813046D1
:1010A000FFF71CFEFFF790FE00240CE018F8040088
:1010B000FFF714FEFFF788FE18B1FFF761FE01206D
:1010C000EBE7601CC4B2BC42F0DBFFF759FE002026
:1010D000E3E700BFFEE7000000B587B00121042070
:1010E00000F082FD0121082000F08EFDC020ADF847
:1010F000180004208DF81B0006A91A48FFF725FBED
:101100004FF6FF70ADF810000020ADF80C00ADF800
:101110001200ADF80E0003A9134801F083FB002371
:101120001A460321104801F00BFA684601F090FAC4
:101130000A20ADF8080069460B4801F033FA012196
:10114000094801F0EBF901221146074801F089FA3C
:101150000021054801F038FB0121034801F0E4F9C2
:1011600007B000BD000C01400008004000B587B08A
:101170000121082000F038FD0121042000F044FD89
:101180000320ADF8180004208DF81B0006A91A48AA
:10119000FFF7DBFA4FF6FF70ADF810000020ADF856
:1011A0000C00ADF81200ADF80E0003A9134801F0D1
:1011B00039FB00231A460321104801F0C1F96846A3
:1011C00001F046FA0A20ADF8080069460B4801F024
:1011D000E9F90121094801F0A1F901221146074866
:1011E00001F03FFA0021054801F0EEFA0121034821
:1011F00001F09AF907B000BD00080140000C004062
:101200007047000070B5002100230F22C47804B39A
:10121000154C246804F4E064C4F5E064210AC1F1CB
:101220000403CA40447804FA03F18478144021434B
:1012300009010E4C0678A155047804F01F0501241D
:10124000AC4005786D11AD0005F1E025C5F8004111
:1012500009E0047804F01F050124AC40044D067831
:10126000761145F8264070BD0CED00E000E400E08A
:1012700080E100E002490143024A1160704700002A
:101280000000FA050CED00E010B51023034A002120
:10129000084600F0CDF900F027F910BD3C08002009
:1012A00070B500240CE0002506E00020074901EBA2
:1012B000C5010855681CC5B2802DF6DB601CC4B2A0
:1012C000082CF0DB00F010F970BD0000580A002077
:1012D00070B50B46CE1701EB5676C6F3C702CE1794
:1012E00001EB5676F610A1EBC606F4B20123A3403B
:1012F000DDB20E4B03EBC0039B5CDB430B4E06EBF6
:10130000C006B354094B03EBC0039B5C2B43074E51
:1013100006EBC006B354054B03EBC0039B5CDB43F9
:10132000024E06EBC006B35470BD0000580A002000
:1013300010B504461CB90021A62000F09BF9012C31
:1013400003D10021A72000F095F910BD10B5044687
:101350003CB90021C82000F08DF90021A12000F047
:1013600089F9012C07D10021C02000F083F9002168
:10137000A02000F07FF910BD70B50A46CE1701EB32
:101380005676C6F3C703CE1701EB5676F610A1EBDF
:10139000C606F4B20122A240D5B2054A02EBC00251
:1013A000D25C2A43024E06EBC006F25470BD000028
:1013B000580A002008B50121202000F025FC4FF438
:1013C000F850ADF8000010208DF8030003208DF8D0
:1013D000020069464348FFF7B8F94FF4F851414815
:1013E000FFF791FA4FF480613E48FFF78AFAC82070
:1013F00001F046FF4FF480613A48FFF784FA00217C
:10140000AE2000F037F90021084600F033F9002142
:10141000102000F02FF90021402000F02BF90021CE
:10142000812000F027F90021CF2000F023F90021CE
:10143000A12000F01FF90021C82000F01BF90021B5
:10144000A62000F017F90021A82000F013F90021D0
:101450003F2000F00FF90021D32000F00BF900210C
:10146000084600F007F90021D52000F003F900211B
:10147000802000F0FFF80021D92000F0FBF80021C7
:10148000F12000F0F7F80021DA2000F0F3F8002155
:10149000122000F0EFF80021DB2000F0EBF8002133
:1014A000402000F0E7F80021202000F0E3F80021C0
:1014B000022000F0DFF800218D2000F0DBF8002191
:1014C000142000F0D7F80021A42000F0D3F8002168
:1014D000A62000F0CFF80021AF2000F0CBF8FFF7F6
:1014E000DFFE08BD0014014070B500241CE004F1CB
:1014F000B001C8B2002100F0BDF80021084600F09C
:10150000B9F80021102000F0B5F8002508E00849DE
:1015100001EBC501085D012100F0ACF8681CC5B203
:10152000802DF4DB601CC4B2082CE0DB70BD000031
:10153000580A00202DE9FF4F81B080460E461C4618
:1015400000962046E31704EB5373DB1021464FEA65
:10155000E47C04EB5C7C4FEAEC0CA4EBCC0CBCF11F
:10156000000F02D04FF0010C01E04FF0000C63447B
:10157000224604EBD27C4FEA6C0C03FB0CF303F025
:10158000FF0B03982038C7B2002547E00C2C07D189
:1015900007EB4700234901EB800010F805A014E099
:1015A000102C05D1204800EB071010F805A00CE026
:1015B000182C07D107EBC7001C4901EB800010F87D
:1015C00005A002E005B0BDE8F08F4FF000091FE074
:1015D0000AF0800020B131464046FFF7CDFE03E01F
:1015E00031464046FFF774FE4FEA4A604FEA106A00
:1015F000701CC6B20098301AA04205D1009E08F1B6
:10160000010000F0FF0806E009F1010000F0FF0909
:10161000B9F1080FDCDB00BF681CC5B25D45B5DB66
:1016200000BFCFE7B261000826660008166C00080C
:10163000F0B506460F4614461D4613E022782B46A9
:1016400039463046FFF776FF284605EBD07106EBAA
:101650006101CEB2C5F18000B04202DA0026B81CAA
:10166000C7B2641C2078202802DB20787E28E5DDC4
:10167000F0BD000070B504460E462EB14FF4006177
:101680001C48FFF740F904E04FF400611948FFF7E8
:1016900038F94FF480511748FFF733F900251BE064
:1016A0004FF480711348FFF72CF904F0800028B143
:1016B0004FF400710F48FFF726F904E04FF4007172
:1016C0000C48FFF71EF94FF480710A48FFF71BF929
:1016D0006006040E681CC5B2082DE1DB4FF4805192
:1016E0000448FFF710F94FF400610248FFF70BF9C7
:1016F00070BD0000001401402DE9F05F82461646DF
:101700001F46DDF870B00EAC94E830033046394621
:1017100003F0B8FBCAF80000DDE90A0103F0B2FBF0
:10172000CAF80400DDE90C0103F0ACFBCAF80800BC
:10173000002213462046294603F002FE06D300226B
:10174000394B2046294603F035FF03D80020CAF85C
:101750000C0005E02046294603F094FBCAF80C0073
:10176000002213464046494603F0EAFD03D22F48C3
:10177000CAF8100005E04046494603F083FBCAF86A
:10178000100000221346DDE9160103F0D9FD03D253
:101790002648CAF8200005E0DDE9160103F072FBD7
:1017A000CAF8200000221346DDE91A0103F0C8FD43
:1017B00004D2DAF81000CAF81C0005E0DDE91A01CD
:1017C00003F060FBCAF81C0000221346DDE9120199
:1017D00003F0B6FD03D20020CAF8140005E0DDE9ED
:1017E000120103F04FFBCAF8140000221346DDE992
:1017F000140103F0A5FD08D24FF08040DAF8201064
:1018000004F0E2FACAF8180005E0DDE9140103F07B
:1018100039FBCAF818008AF824B0DDE91801CAE9D2
:101820000E01BDE8F09F00000000F03F00FCFF4605
:101830002DE9F05F04468A4691464846216A04F045
:101840008FFB02D2D4F820900AE0206A80F0004595
:101850004946284604F084FB02D2206A80F0004901
:101860005146484604F0B8FB206494F8240002284E
:1018700023D14FF08041206A04F048F90546216CDD
:1018800004F06EFA05D2216A206C04F0A5FB2064F6
:1018900039E04FF08041206A04F038F90646206CA8
:1018A00080F000453146284604F05AFB2BD2216CCB
:1018B000206A04F0BDF8206425E094F82400012893
:1018C00021D1216A206C04F04BFB0AD24FF08040FA
:1018D000216A04F079FA0546216C04F072FB206459
:1018E00011E0206C80F000452846216A04F038FBA6
:1018F00009D24FF08041206A04F066FA0546216C57
:1019000004F096F82064206C04F066F80546D4E9EB
:101910000E733A4603F04EFE06D2D4E90E2110466D
:1019200003F0B0FA206414E0D4E90E5181F00046CF
:10193000206C04F051F807462A46334603F000FDB8
:1019400007D2D4E90E5181F00041284603F09AFAFB
:101950002064206C02F08AF90546616904F000FBFE
:101960006AD2206C02F082F90546A16904F0F8F908
:1019700009D8216C606804F027FA0546216B04F051
:1019800057F8206304E03349206B04F01DFA20630C
:10199000E169206B04F0E4FA02D2E06920630BE015
:1019A000E06980F000452846216B04F0D9FA03D2A3
:1019B000E06980F000402063216C206804F004FAA4
:1019C000E062A16CE06804F0FFF90746D4E9100179
:1019D00004F002FB80464FF07E50E16804F0FCFA10
:1019E0008346A16804F0F0F90646414604F0ECF99C
:1019F0000546394604F01CF86063606BA064D4E9C6
:101A00000B0104F015F80546616B04F011F8A062B3
:101A10002169A06A04F0A4FA01D22069A0622069B9
:101A200080F000452846A16A04F09AFA0ED2206997
:101A300080F00040A06209E00649A06A04F0C4F901
:101A4000A0620449206B04F0BFF92063206C60643D
:101A5000BDE8F09FA4707D3F00B593B00220002147
:101A600012904E48CDE910104D48CDE90E100846B1
:101A70004C49CDE90C0100204B49CDE90A01089001
:101A8000014609904948CDE9061000210491084615
:101A900005914749CDE90201002100910A46454BD5
:101AA00045480191FFF728FE0220129000203B4993
:101AB000CDE9100101463A48CDE90E100021394820
:101AC000CDE90C103848CDE90A1008910846099173
:101AD0003649CDE9060100200490014605903448BE
:101AE000CDE90210002000900246324B01903248AE
:101AF000D038FFF701FE0020014612902F48CDE9B3
:101B0000101000202E49CDE90E0101462D48CDE9E7
:101B10000C1000212C48CDE90A10089108460991C3
:101B20002A49CDE90601002104910846059128497A
:101B3000CDE90201274928480022284BCDE90010B1
:101B40001D486838FFF7D8FD0020014612901B4859
:101B5000CDE9101000201A49CDE90E011949CDE94F
:101B60000C0101461848CDE90A10002108910846E9
:101B700009911649CDE9060100200490014605901F
:101B80001348CDE90210134913480022134BCDE945
:101B900000101348FFF7B0FD13B000BD00508E4099
:101BA00000D0A1400020AC40000034400070B7409D
:101BB00000C0824000407A40F009002000189540A3
:101BC00000D0914000C0874000406F400064B940A1
:101BD0000000E03F9A9999999999B93F00004E40C9
:101BE000B80800207047000029B1064AD2690243B4
:101BF000044BDA6104E0034AD2698243014BDA61A3
:101C0000704700000010024029B1064A9269024361
:101C1000044B9A6104E0034A92698243014B9A6142
:101C2000704700000010024030B50021002200245F
:101C300000232D4D6D6805F00C0121B1042905D05C
:101C4000082923D105E0294D056022E0274D0560D4
:101C50001FE0254D6D6805F47012234D6D6805F485
:101C60008034022505EB92421CB9214D5543056095
:101C70000BE01D4D6D6805F400351DB11C4D55433D
:101C8000056002E0194D5543056002E0174D0560FF
:101C900000BF00BF144D6D6805F0F0010909154D36
:101CA0006B5C0568DD4045600F4D6D6805F4E061D3
:101CB000090A104D6B5C4568DD4085600A4D6D6812
:101CC00005F46051C90A0B4D6B5C4568DD40C56089
:101CD000054D6D6805F44041890B074D6B5CC56887
:101CE000B5FBF3F5056130BD0010024000127A002B
:101CF00000093D006008002070080020024672B113
:101D0000012A19D10D480188B1F5704F02DBA1F508
:101D10007F41FF390020094B18800846704708486A
:101D20000188B1F5704F02DBA1F57F41FF3900203A
:101D3000034B18800846F1E70020EFE72408004035
:101D4000240C00407047000070B504460D46002C7E
:101D50000EDB00202349086001202349C1F8B001AF
:101D600022490C80A1B22148403800F02AFD11E040
:101D7000002C0FDA01201B49086000201A49C1F825
:101D8000B001604219490880604281B2174840386A
:101D900000F017FD002D10DB01201249083108600A
:101DA00000201149C1F8B8011049091F0D80A9B2DE
:101DB0000E48403800F003FD13E0002D11DA00203A
:101DC00008490831086001200749C1F8B801684294
:101DD0000649091F0880684281B20448403800F073
:101DE000EEFC70BDB48121420080214240040040DD
:101DF00010B500F001F810BD0CB500200190009066
:101E00003348006840F480303149086000BF3048F2
:101E1000006800F4003000900198401C0190009888
:101E200018B90198B0F5A06FF1D12948006800F405
:101E3000003010B10120009001E0002000900098D7
:101E4000012843D12348006840F010002149086070
:101E50000846006820F0030008600846006840F06B
:101E6000020008601A4840681949486008464068FE
:101E700048600846406840F4806048600846406812
:101E800020F47C1048600846406840F4E810486040
:101E90000846006840F08070086000BF0C48006889
:101EA00000F000700028F9D00948406820F00300D5
:101EB000074948600846406840F00200486000BF9B
:101EC0000348406800F00C000828F9D10CBD000060
:101ED0000010024000200240042808D14FF0E02109
:101EE000096941F004014FF0E022116107E04FF071
:101EF000E021096921F004014FF0E02211617047EF
:101F00007047000010B51348006840F00100114907
:101F1000086008464068104908400E494860084675
:101F200000680E4908400B4908600846006820F424
:101F3000802008600846406820F4FE0048604FF4A6
:101F40001F008860FFF754FF4FF0006004490860ED
:101F500010BD0000001002400000FFF8FFFFF6FE79
:101F600008ED00E010B54FF4A060FFF783F901F031
:101F700065F9FFF71FFAFEF7A1FDFEF725FD4FF407
:101F8000165002F02FFFFFF7A7F8FFF7EFF8002138
:101F900041F61F4000F016F8632141F61F40FEF79E
:101FA000A8FB0020FFF7C4F90020FFF7CFF9FFF7E7
:101FB0009BFAFEF73BFF00BF02F00CF80028FBD1B4
:101FC00010BD000030B589B005460C46012108203F
:101FD000FFF71AFE01210220FFF706FE4FF47040C2
:101FE000ADF8200010208DF8230003208DF822008A
:101FF00008A92548FEF7A9FB4FF470412248FEF7D7
:1020000080FC0320ADF8200018208DF82300032069
:102010008DF8220008A91C48FEF797FBA8B2ADF87E
:102020001800A0B2ADF814000020ADF81600ADF80D
:102030001A0005A9154800F0F5FB6020ADF8040072
:102040000020ADF80C000120ADF806000020ADF82E
:102050000A0001A90D4800F00DFB01A90B4800F092
:1020600063FB0021094800F055FB0021074800F000
:1020700099FB0121054800F045FA0121034800F0D1
:1020800053FA09B030BD0000000C014000040040CC
:10209000F0B50C46154600220021068C4FF6FE775F
:1020A0003E400684028B018C4FF60C7632407E1C3B
:1020B00006EA03162E433243104EB0420ED0104EA5
:1020C000B0420BD0B0F1804F08D00E4EB04205D0D8
:1020D0000D4EB04202D00D4EB04206D14FF6FD7605
:1020E000314044F00106314305E04FF6F5763140CA
:1020F00044F00106314302830184F0BD002C01400D
:10210000003401400004004000080040000C004082
:10211000F0B50C461546002200210026078C4FF62C
:10212000EF7C07EA0C070784028B018C4FF6FF77E0
:1021300007EA041640F6FF473A404FF6FF7707EAF2
:1021400003373A434FF6FF7707EA05273A43114F23
:10215000B8420ED0104FB8420BD0B0F1804F08D02B
:102160000E4FB84205D00E4FB84202D00D4FB842C4
:1021700006D14FF6DF77394046F01007394305E0C6
:102180004FF65F77394044F01007394302830184EA
:10219000F0BD0000002C014000340140000400406C
:1021A00000080040000C0040F0B50C461546002227
:1021B00000210026078C4FF6FF6C07EA0C07078406
:1021C000828B018C4FF6FF7707EA04264FF60C77D7
:1021D0003A404FF6FF7707EA03172F433A43114F70
:1021E000B8420ED0104FB8420BD0B0F1804F08D09B
:1021F0000E4FB84205D00E4FB84202D00D4FB84234
:1022000006D14FF6FF57394046F48077394305E051
:102210004FF2FF57394044F4807739438283018479
:10222000F0BD0000002C01400034014000040040DB
:1022300000080040000C0040F0B50C461546002296
:1022400000210026078C4EF6FF7C07EA0C07078466
:10225000828B018C4FF6FF7707EA043640F6FF4782
:102260003A404FF6FF7707EA05273A434FF6FF77E4
:1022700007EA03373A43114FB8420ED0104FB84225
:102280000BD0B0F1804F08D00E4FB84205D00E4FA2
:10229000B84202D00D4FB84206D14DF6FF77394013
:1022A00046F48057394305E047F6FF57394044F478
:1022B0008057394382830184F0BD0000002C014027
:1022C000003401400004004000080040000C0040C1
:1022D0002DE9F0470121880700F053F901287DD14D
:1022E000FFF70CFD754908600020FFF707FD7449F2
:1022F000086074480088401C7249088008460088BD
:102300001E3800280BDD084600881E3808806E48FD
:10231000006808B9012000E000206B4908606B49A3
:102320006B48006803F050FD824603F055FB0646FB
:10233000684A694B03F040F8044600224FF080439E
:1023400002F08EFE804602F09DFD01466348C0F813
:1023500090115E495E48006803F036FD824603F046
:102360003BFB80465B4A5C4B03F026F806460022A6
:102370004FF0804302F074FE044602F083FD57499B
:10238000C1F8C0004D48006803F0BEFC0446534845
:10239000D0F89411204603F04BFB01464F48C0F89B
:1023A00094114748006803F0AFFC04464B48D0F84E
:1023B000C410204603F03CFB4849C1F8C40008465D
:1023C000D0F89021D0F8941100F59C70FFF730FA06
:1023D0004248D0F8C020D0F8C41000E06BE068306C
:1023E000FFF726FA3D48D0F86011C0F89811D0F8F0
:1023F0009010C0F8C8100146D1F89801384903F090
:1024000085FB3649C1F82801D1F8C800344903F0EA
:102410007DFB32498865294909684FF47A72514336
:10242000C82201FB02F002F073FF06462D4A2E4B34
:1024300002F0C2FF044602F025FD2849C1F82C0134
:102440001F4909684FF47A725143C82201FB02F018
:1024500002F05EFF0646234A234B02F0ADFF04461E
:102460000D4602F00FFD1D49C8650846D0F8282129
:10247000D0F82C11D030FFF7DBF91848826DC16D10
:10248000FFF7D6F91548D0F8F810C0F83011806A77
:1024900012490866086E03F0FBFB04460F49D1F8A9
:1024A000300103F0F5FB05462146FFF74DFC012105
:1024B000880700F036F8BDE8F08700000408002027
:1024C0000808002020080020B48122420000C344F4
:1024D00014080020A4703D0AD7A3F03FB8080020DC
:1024E0000000984254CBEF97C3AC1F3F04480088CC
:1024F0000348008820F0010001490880704700006F
:102500001008004021B1028842F08002028004E0FD
:1025100002884FF67F731A4002807047CA430282D6
:102520007047CA430282704721B1028842F001021B
:10253000028004E002884FF6FE731A400280704762
:10254000F0B50C4615461E460021002200230189E5
:10255000028B038C4FF6F877394021434FF6FC4746
:102560003A4040F201173A434FF6DD773B404FF6D1
:10257000FF7707EA06172F433B4301810283038459
:10258000F0BD30B50246002000230024158A05EA7C
:102590000103958905EA010413B10CB1012000E0A3
:1025A000002030BD70B505460C46244885420ED04B
:1025B000234885420BD0B5F1804F08D02148854291
:1025C00005D02148854202D02048854200D100E054
:1025D00000BF208850B92389A28861882846FFF768
:1025E00057FDE188284600F0F1F825E0208804280E
:1025F0000AD12389A28861882846FFF789FDE188EE
:10260000284600F0ECF817E0208808280AD1238932
:10261000A28861882846FFF7C7FDE188284600F0B8
:10262000EBF809E02389A28861882846FFF704FEB9
:10263000E188284600F0E9F870BD0000002C014058
:10264000003401400004004000080040000C00403D
:10265000002101804180012181800021C180018110
:1026600070471AB183890B43838102E083898B43CE
:102670008381704770B5002400220023058C4FF63B
:10268000FF6635400584028C8388848B4FF68F75F6
:102690002C404FF6FC752C400D882C434FF6FF550F
:1026A0002A400D894FF6FF7606EA05252A434D8814
:1026B00006EA05252A43154DA84202D0144DA8422A
:1026C0001DD14FF2FF752A404D894FF6FF7606EA7D
:1026D00005252A434FF6FF352A408D8806EA052551
:1026E0002A434EF6FF752B404DF6FF752B408D8922
:1026F00006EA05152B43CD8906EA05152B43838091
:102700008483CD888587028470BD0000002C014041
:10271000003401400A460021818B4FF6F7731940BF
:10272000114381837047000070B50022002300240C
:10273000058C4EF6FF7635400584038C8488828BA9
:1027400048F6FF752A404FF6FF452A400D884FF6A0
:10275000FF7606EA05252A434DF6FF752B400D89C5
:1027600006EA05352B434D8806EA05352B430B4D0C
:10277000A84202D00A4DA84208D14BF6FF752C4062
:102780008D894FF6FF7606EA85152C438480828377
:10279000CD88A0F84050038470BD0000002C01409B
:1027A000003401400A460021818B4FF2FF7319402B
:1027B0004FF6FF7303EA0223194381837047818731
:1027C0007047A0F84010704781847047028B4FF625
:1027D000F3731A400283028B0A4302837047028B11
:1027E0004FF2FF331A400283028B4FF6FF7303EA66
:1027F00001231A4302837047828B4FF6F3731A400A
:102800008283828B0A4382837047828B4FF2FF332D
:102810001A408283828B4FF6FF7303EA01231A4327
:1028200082837047002202881D4B98420ED01D4BB8
:1028300098420BD0B0F1804F08D01B4B984205D086
:102840001A4B984202D01A4B984204D14FF68F731C
:102850001A404B881A43174B984207D0164B9842A0
:1028600004D04FF6FF431A40CB881A4302808B886E
:1028700083850B8803850A4B98420BD0094B9842FD
:1028800008D00E4B984205D00D4B984202D00D4B0C
:10289000984201D10B7A038601238382704700009E
:1028A000002C0140003401400004004000080040BA
:1028B000000C0040001000400014004000400140A7
:1028C000004401400048014010B540F225510C4839
:1028D00000F030F890B10A4800F0E8F8C4B2312CAA
:1028E00002D0322C08D103E001200649087004E030
:1028F00002200449087000E000BF00BF10BD0000C6
:10290000003801402308002010B540F2255102484C
:1029100000F010F810BD00000048004021B182898D
:1029200042F40052828104E082894DF6FF731A401E
:102930008281704770B502460024002300250020E4
:1029400040F66A16B14200D100BFC1F3421501F052
:102950001F03012606FA03F3012D02D196893340A5
:1029600006E0022D02D1168A334001E0968A3340F8
:102970000C12012606FA04F41688344013B10CB187
:10298000012000E0002070BDF0B5034600240026C1
:102990000025002040F66A17B94200D100BF184652
:1029A000C1F3421401F01F06012707FA06F5012CB6
:1029B00001D10C3004E0022C01D1103000E01430C1
:1029C0001AB107682F43076002E00768AF4307604A
:1029D000F0BD00002DE9F04786B005460E46002404
:1029E000A24600BFA1460027B08900B100BF2F4614
:1029F0002C8A4CF6FF700440F08804432C82AC898A
:102A00004EF6F3100440B0883189084371890843B9
:102A10000443AC81AC8A4FF6FF400440B0890443C4
:102A2000AC8201A8FFF700F91F48874202D1DDF808
:102A300010A001E0DDF80CA0A88900F4004040B12E
:102A40000AEBCA0000EB0A1031684900B0FBF1F84C
:102A500007E00AEBCA0000EB0A1031688900B0FBFE
:102A6000F1F86420B8FBF0F004012009642101FBB7
:102A70001089A88900F4004040B1322000EBC90061
:102A8000B0FBF1F000F00700044308E0322000EB57
:102A900009106421B0FBF1F000F00F0004432C8119
:102AA00006B0BDE8F0870000003801400146888884
:102AB000C0F30800704700BFFEE7490050EAC1209C
:102AC00018BF04204A0D18BF40F0010040F2FF7209
:102AD000B2EB515F08BF40F00200012808BF05209B
:102AE00070472DE9F0414F1E00EBC7010446D1E9C4
:102AF000000115461E4637F006020DD02A46334621
:102B000002F05AFC7F1E04EBC703D3E9002302F056
:102B1000EBF937F00602F1D1022F25D0042F13D0A4
:102B2000062F18BFBDE8F0812A46334602F044FC68
:102B3000D4E90A2302F0D8F92A46334602F03CFCD5
:102B4000D4E9082302F0D0F92A46334602F034FCD7
:102B5000D4E9062302F0C8F92A46334602F02CFCD9
:102B6000D4E9042302F0C0F92A46334602F024FCDB
:102B7000D4E9022302F0B8F92A46334602F01CFCDD
:102B8000D4E90023BDE8F04102F0AEB9012203F020
:102B9000CABA02F0A9B9002213461046114602F043
:102BA0005FBA0000024A0020110703F0BCBA00001F
:102BB00001FDFFFF30380A2801D2012070470020B4
:102BC000704700BF704700002DE9F04D8D4F21F098
:102BD000004A86B005460C46BA452ADBAAEB070038
:102BE00028430AD08848824501DC1AD1CDB106B00D
:102BF0002846BDE8F04DFFF7C9BF844A844B2846FC
:102C000002F0DAFB07460E46824A834B28462146ED
:102C100002F0D2FB06B03A463346BDE8F04D02F072
:102C200063B90120FDF73DFC06B0BDE8F04DFFF7AC
:102C3000B2BF7A48824542DABAF1795F0BDA2846A8
:102C4000FFF73BFF042808BFFFF7ACFF284606B09C
:102C50002146BDE8F08D2A460B46104602F0ACFB3B
:102C6000834602466E480E460B4606217844FFF71F
:102C700038FF5A46334602F09FFB804669488A4631
:102C80005A46334604217844FFF72BFF5A46334611
:102C900002F092FB00223B4602F026F902460B4668
:102CA0004046514602F0DCF92A46234602F084FBF6
:102CB00006B02A462346BDE8F04D02F015B9284675
:102CC00024F0004100223D463B4602F0A9FC4FF0B3
:102CD000FF3203F028FA0646024653480F460B46D9
:102CE00006217844FFF7FDFE32463B4602F064FBC6
:102CF000CDE900014D4832463B4604217844FFF7B8
:102D0000F0FE32463B4602F057FB00222B4602F013
:102D1000EBF8834602913046394602F03DF8804692
:102D200043480D46504517DCDDE900015A46029B39
:102D300002F096F942462B4602F03EFB42462B46F5
:102D400002F0D2F8012203F0EEF9304A304B02F0E3
:102D500059FD304A304B4CE04FF0000A52460B46CA
:102D6000404602F0C1F8CDE9031052462B4610460A
:102D7000194602F021FB32463B4602F051FCDDE9E8
:102D8000033202F06DF906460F46DDE900015A46AE
:102D9000029B02F065F983460091012230463946D4
:102DA00003F0C1F9194A1A4B02F03AFC06460F46E5
:102DB00001224046294603F0B6F95A46009B02F02C
:102DC000FBFA32463B4602F01DFD06460F46012245
:102DD0005046294603F0A7F90E4DDFF858802A46E1
:102DE000434602F01DFC32463B4602F019FC2A46DF
:102DF000434602F015FC002CD8BF81F0004106B01C
:102E0000BDE8F08D0000F03F0000F07F075C143358
:102E100026A6913C182D4454FB21F93F0000E03FC9
:102E20006059000076590000EA580000005900007F
:102E30003333EF3FFB21E93F2DE9F84F04460D46C0
:102E400021F0004000917349814211DC72498842AF
:102E500001DC06D12CB120462946BDE8F84FFFF72A
:102E600095BE6E48002DCCBF6D496E49BDE8F88F08
:102E70006D49814211DD6D498142D8BF4FF0FF3667
:102E80006DDD20462946FFF718FE042808BFFFF72E
:102E900089FE20462946BDE8F88F6549654F25F033
:102EA0000045814233DD6449814219DD0026324606
:102EB0004FF080432046294602F016F880468A46A5
:102EC00001222046294603F02EF900223B4602F05B
:102ED00099FC4246534602F0C3F804460D463EE0D4
:102EE00001260022BA463B462046294601F0FCFF57
:102EF00080460F46002253462046294602F082FCB7
:102F000042463B4602F0ACF804460D4627E04B49EA
:102F100081421BDDDFF828A102260022534620460D
:102F2000294602F049FA00223B4601F0DDFF8046C7
:102F30000F46002253462046294602F063FC4246D3
:102F40003B4602F08DF804460D4608E00326224673
:102F50002B4600203B4902F083F804460D462246EA
:102F60002B461046194602F027FA8B468246024647
:102F70000B4602F021FA07460246334888460B46C4
:102F800006217844FFF7ADFD52465B4602F014FA85
:102F900082462E488B463A46434605217844FFF741
:102FA000A0FD3A46434602F007FA02460B46002EC1
:102FB000504659460CDA01F097FF22462B4602F0A4
:102FC000FBF901B022462B46BDE8F04F02F028BBCA
:102FD00001F08AFF22462B4602F0EEF91C4A7A44A1
:102FE00002EBC603D3E9002302F00CFC22462B4679
:102FF00002F008FC174A7A4402EBC603D3E9002327
:1030000002F00EFB009A002AB8BF81F00041BDE833
:10301000F88F0000000010440000F07F182D445489
:10302000FB21F93FFB21F9BF0000DC3F0000203EFF
:103030000000F33F0000F03F0000E63F0080034047
:103040000000F83F0000F0BF02570000C05600002B
:103050005E560000265600002DE9F04D9446CCF156
:10306000000423F000464CEA0404524F46EAD474AC
:103070009A46884621F00042BC4206D8454240EAC2
:10308000050442EAD474BC4204D9BDE8F04D62465E
:10309000FFF77FBDAAF14055A5F17F6555EA0C0405
:1030A0000BD0022404EAAA74434DDFF810E144EA8D
:1030B000D87452EA000B04D00CE0BDE8F04DFFF7E5
:1030C000BBBE002C14BF012CBDE8F08D022C30D00B
:1030D000032C32D056EA0C0B0AD0BE4220D1BA42A1
:1030E00009D126F0804622F080423346114617E08F
:1030F00000291ADB25E0DFF8C8B0FB44002C04BF30
:10310000DBE90001BDE8F08D012C02BFDBE9000125
:1031100081F00041BDE8F08D022C0AD0032C0CD0C8
:10312000BA4212D1B8F1000F0BDA23482549BDE8A5
:10313000F08D28462449BDE8F08D28467146BDE84B
:10314000F08D1D482149BDE8F08D921B12153C2AD7
:10315000C4BF19481D490EDCBAF1000FBEBF12F101
:103160003C0F0020014606DB624601F079FF21F0AA
:103170000041FFF761FE002C08BFBDE8F08D012C77
:1031800004BF81F00041BDE8F08D114A114B022CC3
:1031900007D002F037FB2A46BDE8F04D0A4B02F09B
:1031A00031BB02F02FFB2A46BDE8F04D064B02F082
:1031B00037BA00000000F07F182D4454FB2109C0ED
:1031C000BA550000FB21F9BFFB210940FB21F93F63
:1031D000075C143326A6A13C2DE9F0410446E078B3
:1031E00000F0C006E07800F03F05607800F00100D4
:1031F00098B1EF102846E91705EB5171C910A5EBFE
:10320000C101491C01F0FF080B48006820B10A48C1
:10321000414602683846904700BF607800F00800D9
:1032200030B10548406818B1B011034A5168884769
:103230000020BDE8F0810000D80E002010B56FF02E
:103240000400FEF749FE0A4800680A49B0FBF1F0A5
:10325000094908700846007800EB4001C1EBC01036
:103260004FF6FF7101EAC0000449088010BD00005C
:103270004C08002000127A00740800207608002014
:103280000146114A12884A434FF0E0235A61002256
:103290009A611A46126942F001021A6100BF4FF0AA
:1032A000E022106900F001021AB100F48032002A15
:1032B000F5D04FF0E022126922F001024FF0E02336
:1032C0001A6100229A617047760800200146114A6F
:1032D00012784A434FF0E0235A6100229A611A465D
:1032E000126942F001021A6100BF4FF0E02210693A
:1032F00000F001021AB100F48032002AF5D04FF03C
:10330000E022126922F001024FF0E0231A6100224C
:103310009A6170477408002038B5044664B12020D3
:103320008DF8000028208DF8010030208DF8020073
:1033300038208DF8030004E0A32204216846FDF73D
:103340009FF86A46042140F69E2001F09DFC01F0A2
:1033500015F938BD3EB5044602208DF80000CA209C
:103360008DF80100E3208DF8020009208DF803009C
:103370006A460421682001F087FCA3208DF8000034
:1033800004F0400048B1C0208DF80100C8208DF83D
:103390000200C2208DF8030006E0A3208DF8010092
:1033A0008DF802008DF8030004F4C07048B1C42009
:1033B0008DF80400CC208DF80500C6208DF806009D
:1033C00006E0A3208DF804008DF805008DF80600B6
:1033D000A3208DF807008DF808008DF809006A46D3
:1033E0000A2140F6A72001F04FFC04F0030018B1B9
:1033F00020208DF8000002E0D8208DF800006A46F9
:10340000012140F6B62001F03FFC04F0200018B185
:10341000012000F0ADF802E0002000F0A9F804F46B
:10342000C07008B304F4807060B1B2208DF8000061
:103430008B208DF80100B6208DF802009B208DF8BE
:1034400003000BE0B0208DF8000080208DF8010013
:10345000B4208DF8020090208DF803006A46042104
:1034600040F6A22001F010FC04F0010020B3F82087
:103470008DF800006A4601214FF40B6001F004FC56
:10348000FA21072000F0FCFA072000F0C3FA01201F
:1034900000F0E3FA642000F0C3FB4FF4FA7000F090
:1034A000D2FBC821304800F073FA282000F08CFAD3
:1034B0000A2000F09CFA08E0D8208DF800006A4647
:1034C00001214FF40B6001F0DFFB04F0020018B1A2
:1034D000D9208DF8000002E0D8208DF800006A465F
:1034E000012140F23D7001F0CFFB04F0040018B15F
:1034F000012000F069F802E0002000F065F804F017
:10350000100018B10120FFF707FF02E00020FFF7CD
:1035100003FF44F008001549488101F02FF800200E
:103520001249887304F0400018B10846807B801D62
:10353000887304F4C07020B10C48807B801D0B4957
:10354000887304F0140020B10848807B10300749CC
:10355000887304F0030020B10448807B001D0349F8
:10356000887300203EBD000009E3CA02D80E002087
:103570003EB504466CB10EA1D1E900208968CDE9C1
:10358000002002916A4609214FF4976001F07CFB0C
:103590003EBD0AA2D2E900109268CDE90102009175
:1035A0006A4609214FF4976001F06EFBF0E70000D6
:1035B000B8AAB38DB4980D355D000000B8AAAAAAC8
:1035C000B088C3C5C700000038B5044664B1C02048
:1035D0008DF80000C2208DF80100C4208DF8020093
:1035E000C6208DF8030004E08B2204216846FCF716
:1035F00047FF6A46042140F6982001F045FB00F0A1
:10360000BDFF38BD10B5C8234FF48062024940F6B3
:10361000F63000F047FE10BDC47900082DE9F04FE8
:103620008DB00746884615469946DDE9166B00249D
:10363000002030806B49887B5A4605A900F0FEFEC9
:1036400018B1601E0DB0BDE8F08F6648807A00F0BA
:103650001400002867D09DF8140000069DF815108E
:1036600040EA01409DF8161040EA01209DF817102D
:10367000084328609DF8180000069DF8191040EADC
:1036800001409DF81A1040EA01209DF81B100843E4
:1036900068609DF81C0000069DF81D1040EA01407E
:1036A0009DF81E1040EA01209DF81F100843A860F5
:1036B0009DF8200000069DF8211040EA01409DF889
:1036C000221040EA01209DF823100843E86004F12D
:1036D0001000C4B2286800140190686800140290B9
:1036E000A86800140390E86800140490019840430F
:1036F000029901FB0100039901FB0100049901FB00
:10370000010ABAF1706F02DBBAF1885F05DD00F0E3
:1037100035FF00203080401E94E7B6F9000040F4E9
:103720008070308000BF2F48807A00F0400020B3C6
:1037300005A9601C085C095D40EA012000B2A8F8F8
:10374000000005A9E01C095C05AAA01C105C41EA68
:10375000002000B2A8F8020005A9601D095C201D28
:10376000105C41EA002000B2A8F80400A01DC4B219
:10377000B6F9000040F0080030801A48408900F493
:10378000C07008B305A9601C085C095D40EA01200F
:1037900000B2388005A9E01C095C05AAA01C105CD9
:1037A00041EA002000B2788005A9601D095C201D57
:1037B000105C41EA002000B2B880A01DC4B2B6F986
:1037C000000040F0700030800648807A00F003006E
:1037D00018B105A90819FFF7FFFC484600F0AEFA3A
:1037E00000202FE7D80E002030B585B0044616A281
:1037F00007CA02AB07C3C82C03DD4FF0FF3005B08A
:1038000030BDC82090FBF4F0401E85B2280A8DF828
:103810000000E8B28DF801006A46022140F216204D
:1038200001F032FA10B14FF0FF30E8E702AA0C21A4
:1038300040F6C12001F028FA10B14FF0FF30DEE76A
:10384000044884810020DAE7FEF2ABC4AAF1DFDF8E
:10385000BBAFDFDFD80E002010B586B0044647A00E
:103860000068039046A00068029046A0006801909E
:1038700045A00068009004F0030003A9085C8DF8DF
:10388000140003A8C4F3C101405C8DF8150003A81F
:10389000C4F38111405C8DF8160004F0030002A906
:1038A000085C8DF8100002A8C4F3C101405C8DF8DB
:1038B000110002A8C4F38111405C8DF8120005AA22
:1038C000032140F2264001F0DFF918B14FF0FF303C
:1038D00006B010BD04AA032140F22A4001F0D4F939
:1038E00010B14FF0FF30F3E7019805900098049075
:1038F00004F0040058B19DF8140040F001008DF868
:1039000014009DF8100040F001008DF8100004F044
:10391000200058B19DF8150040F001008DF8150009
:103920009DF8110040F001008DF8110004F4807042
:1039300058B19DF8160040F001008DF816009DF872
:10394000120040F001008DF8120005AA03214FF487
:10395000886001F099F910B14FF0FF30B8E704AA80
:10396000032140F2314001F08FF910B14FF0FF30E8
:10397000AEE7064804810020AAE700004CCD6C00A9
:103980000CC92C003656760026466600D80E00205C
:10399000F8B505460E464FF47A7095FBF0F000FB43
:1039A00006F4200E8DF80000200C8DF80100200A8E
:1039B0008DF80200E0B28DF803006A4604214FF44E
:1039C000AE7001F061F9F8BD38B50446052094FBEE
:1039D000F0F084B220128DF80000E0B28DF8010002
:1039E0006A4602214FF4AD7001F04EF938BD38B58A
:1039F0000446052094FBF0F084B220128DF80000FC
:103A0000E0B28DF801006A4602214FF4AC7001F07B
:103A10003BF938BD38B504460020009004F00100A1
:103A200020B19DF8000040F03000009004F002004A
:103A300020B19DF8000040F00C00009004F004005C
:103A400020B19DF8000040F0030000906A4601217B
:103A50004FF4A47001F018F938BD38B50446012CB4
:103A600001DA012402E0042C00DD0424601EC0B24F
:103A700000906A46012140F24F1001F005F938BD6F
:103A80002DE9FC4706460F4606F0070010B1B7F5D2
:103A9000C86F03DD4FF0FF30BDE8FC87384602F009
:103AA0004BF98146594902F031F88046684600F0EA
:103AB000DBFA9DF80000022806D0042816D008285A
:103AC00026D0102848D135E04FF08D41404602F015
:103AD0007BF9814602F0F8F884B24D49404602F085
:103AE00073F9814602F0F0F885B238E04FF08C416E
:103AF000404602F069F9814602F0E6F884B2454991
:103B0000404602F061F9814602F0DEF885B226E017
:103B10004FF08B41404602F057F9814602F0D4F84D
:103B200084B23D49404602F04FF9814602F0CCF89C
:103B300085B214E04FF08A41404602F045F98146D3
:103B400002F0C2F884B23549404602F03DF98146A0
:103B500002F0BAF885B202E04FF0FF309CE700BFF8
:103B600020128DF80400E0B28DF8050028128DF8BF
:103B70000600E8B28DF8070006F00100A0B101AA26
:103B800002214FF4EA7001F07FF810B14FF0FF30DE
:103B900082E70DF1060202214FF4927001F074F8F1
:103BA00010B14FF0FF3077E706F00200A0B101AA94
:103BB00002214FF4EC7001F067F810B14FF0FF30C4
:103BC0006AE70DF1060202214FF4947001F05CF8EF
:103BD00010B14FF0FF305FE706F00400A0B101AA7A
:103BE00002214FF4EE7001F04FF810B14FF0FF30AA
:103BF00052E70DF1060202214FF4967001F044F8ED
:103C000010B14FF0FF3047E7002045E70000484380
:103C1000000040460000C045000040450000C04490
:103C200038B50446052094FBF0F085B228128DF8D3
:103C30000000E8B28DF801006A4602214FF4EF70EF
:103C400001F022F838BD38B50446052094FBF0F0A9
:103C500085B228128DF80000E8B28DF801006A469E
:103C600002214FF4ED7001F00FF838BD10B5044695
:103C70000021204602F074F901D8204610BD84F0DE
:103C80000040FBE700BF054A128802F04002002A0C
:103C9000F9D0C2B2014B1B1D1A8070470038014099
:103CA00010B50446204600F00FF80346E01C00F073
:103CB0000BF843EAC00083B2A01D00F005F843EA08
:103CC000801083B2184610BD014691F90020002AE9
:103CD00001DD00201EE091F90020002A01DA042015
:103CE00018E091F90120002A01DD012012E091F98C
:103CF0000120002A01DA05200CE091F90220002AB7
:103D000001DD022006E091F90220002A01DA0620F6
:103D100000E007207047FEF725F9FDF79DFEC8205B
:103D2000FFF7AEFA00BFFCF7F3FDFCF771FEFCF7FE
:103D3000C7FCFCF7C3FCFDF7A7FAF4E770470000E7
:103D400070B50446002624F00104184890F82400B9
:103D500008B1002070BD1548807A10B94FF0FF30CF
:103D6000F8E71248057C807A20401049087408461C
:103D7000007CA04202D04FF0FF3600E0002614B9CC
:103D80000A48007D18B1012000F0BEFF02E00020CB
:103D900000F0BAFF3CB100F0F1FB20B1034805741C
:103DA0004FF0FF30D6E73046D4E70000800800200F
:103DB0002DE9F04F99B004460D4616464FF07E5758
:103DC0004FF000084FF000094FF0000A12A813A9A5
:103DD00018AB0EAACDE9001014A916A8FFF71EFC17
:103DE00018B1012019B0BDE8F08FBDF84C0000F407
:103DF000807000287ED00E9801F086FF83464FF039
:103E00009D4101F083FE07460F9801F07DFF834638
:103E10004FF09D4101F07AFE8046109801F074FF4A
:103E200083464FF09D4101F071FE8146119801F0EB
:103E30006BFF83464FF09D4101F068FE8246394694
:103E40004FF0804001F0C0FF4946059001F0BCFFF3
:103E5000414607904FF0404001F0B6FF51460590B3
:103E600001F0B2FF0690079901F0E2FD834601F0F0
:103E7000B3FDCDE90801FEF7A7FE4FF06632544BC3
:103E8000CDE90A0101F098FACDE90C0100F0FAFF42
:103E9000206049464FF0804001F096FF494602906D
:103EA00001F092FF414604904FF0404001F08CFF3A
:103EB0004146029001F088FF0390049902F08CF8CB
:103EC00083464FF07E5101F0B3FD059001F084FD73
:103ED000CDE9080139464FF0804001F075FF4146B9
:103EE000039001F071FF494604904FF0804001F0CB
:103EF0006BFF00E068E05146039001F065FF8346E8
:103F0000049901F095FD059001F066FDCDE90601EB
:103F1000DDE90823FFF7A0F84FF066322C4BCDE91E
:103F20000A0101F049FACDE90C0100F0ABFF28606D
:103F30005146504601F048FF49460490484601F07A
:103F400043FF41460390404601F03EFF3946019051
:103F5000384601F039FF0090019901F069FD0290A7
:103F6000039902F039F88346049902F035F8059078
:103F700001F032FDCDE908015146384601F024FF39
:103F800049460490404601F01FFF0390049901F058
:103F90004FFD4FF08041059001F016FF834601F080
:103FA0001BFDCDE90601DDE90823FFF755F84FF0C9
:103FB0006632074BCDE90A0101F0FEF9CDE90C01AB
:103FC00000F060FF306001E002200BE7002009E70D
:103FD00066A64C4070B50024FCF708FE00F06AF8B5
:103FE00000283AD1782000F0E7FDC4B20CB10120DE
:103FF00070BD7820FFF7A4FEC4B20CB10220F7E731
:10400000642000F08BFDC4B20CB10320F0E7FFF791
:10401000F9FAC4B20CB10420EAE71248FFF740FEF7
:104020000546FFF719FCC4B20CB10520E0E740F2E9
:104030007310FFF78FF9C4B20CB10620D8E76420E3
:10404000FFF7D2FBC4B20CB10720D1E7012000F08A
:1040500061FCC4B21CB10920CAE70A20C8E70020ED
:10406000C6E70000AC08002001461148407A30B194
:10407000012807D0022808D003280CD108E002202C
:1040800008700BE00420087008E00820087005E0C4
:104090001020087002E04FF0FF30704700BF044866
:1040A000C07C18B108784006000E08700020F4E7C4
:1040B000800800201CB580208DF80000654A126839
:1040C000917C644A526810786B460122FCF7D1FF5C
:1040D00010B14FF0FF301CBD6420FFF7D1F8002075
:1040E0008DF800005B4A1268917C5A4A5268107839
:1040F0006B460122FCF7BDFF10B14FF0FF30EAE73D
:10410000544A1268917D534A526810786B460622D1
:10411000FCF709FF10B14FF0FF30DCE79DF8050018
:10412000C007400F9DF8031001F0010140EA410073
:104130009DF8011001F0010140EA010494B1012C45
:1041400003D101214348C17431E0022C03D1002185
:104150004048C1742BE021463FA0FCF781F84FF0A6
:10416000FF30B8E73B4A1268D1783A4A5268107873
:104170006B460122FCF7D7FE10B14FF0FF30AAE7E3
:104180009DF8000000F00F042CB93D48FCF768F8DA
:104190004FF0FF309FE7042C06D13AA0FCF760F8FF
:1041A00001212C48C17402E000212A48C174FF217A
:1041B00028488172FF2027490872FF212548417253
:1041C000C1724FF6FF71C181FF2101748174012119
:1041D000017380F82210002180F8231041750175C9
:1041E0001630016041608160163880F8241080F834
:1041F0002510C1844FF4FA6000F0D4FB10B14FF0E9
:10420000FF3068E7022000F09DFA10B14FF0FF3058
:1042100061E72A2000F040FC10B14FF0FF305AE770
:10422000322000F07BFC10B14FF0FF3053E700204C
:10423000FFF786FD10B14FF0FF304CE7002000F093
:10424000C3FA10B14FF0FF3045E7002000F0B4FC96
:10425000002040E780080020556E737570706F7203
:1042600074656420736F6674776172652070726F15
:1042700064756374207265762025642E0A00000040
:10428000C086000848616C662073656E7369746946
:1042900076697479207061727420666F756E642E11
:1042A0000A0000002DE9F04385B005460E46904611
:1042B0009946294890F8250020B14FF0FF3005B00D
:1042C000BDE8F08316B94FF0FF30F8E7002423E093
:1042D000281B102801DD102000E0281B87B23219AE
:1042E0003946204600F0D0FC10B14FF0FF30E6E731
:1042F00001AA3946204600F001F910B14FF0FF3015
:10430000DDE730193A4601A9FCF78EF810B16FF0DD
:104310000100D4E7E01984B2AC42D9DB4FEA28208F
:104320008DF8000008F0FF008DF801000A4A1268BD
:10433000917E094A526810786B460222FCF799FE7A
:1043400010B14FF0FF30BAE70121034880F8251083
:10435000A0F826900020B2E78008002038B5044677
:10436000282C02DD4FF0FF3038BDDCB9002000F012
:104370005DFB00208DF8000007208DF801002E4A1B
:104380001268917C2C4A526810786B460222FCF726
:1043900070FE10B14FF0FF30E6E7002126480175AE
:1043A0000020E1E7012000F041FB20208DF8000013
:1043B000012C06D100208DF80100052000F06CFBD7
:1043C00017E0052C06DC01208DF80100052000F027
:1043D00063FB0EE0142C06DC02208DF801000A209D
:1043E00000F05AFB05E003208DF80100142000F0D6
:1043F00053FB9DF80100072101EB8010C0B28DF83E
:1044000001000D4A1268917C0B4A526810786B4685
:104410000222FCF72EFE10B14FF0FF30A4E7082176
:104420000548817200210173012101750020FFF709
:1044300087FC002098E7000080080020F8B50446BB
:104440000F4616462C4890F8240010B94FF0FF3064
:10445000F8BD2948807A10B94FF0FF30F8E7264AB6
:104460001268917A244A526810786B460222FCF74F
:104470005AFD10B14FF0FF30EAE79DF801009DF8BA
:10448000001040EA0125A54203DA00203070401EEA
:10449000DEE7194840684088B5EB600F17DD164A23
:1044A0001268517C144A526810786B460122FCF75E
:1044B0003AFD10B14FF0FF30CAE79DF8000000F060
:1044C000100020B100F05AF86FF00100C0E7E2B22E
:1044D000094B1B68D97A084B5B6818783B46FCF798
:1044E00022FD10B14FF0FF30B2E795FBF4F0401E13
:1044F00030700020ACE7000080080020F8B50446CA
:104500000D46164616B94FF0FF30F8BD1A48807AAE
:1045100010B94FF0FF30F8E720128DF80000E0B23C
:104520008DF801009DF80100284413494968498924
:10453000884202DD4FF0FF30E7E70F4A1268117E34
:104540000D4A526810786B460222FCF792FD10B1BA
:104550004FF0FF30D9E7EAB2074B1B68597D064B95
:104560005B6818783346FCF7DEFC10B14FF0FF3083
:10457000CBE70020C9E700008008002008B570489C
:10458000807A10B94FF0FF3008BD002000906C4ACF
:104590001268D17B6A4A526810786B460122FCF798
:1045A00068FD10B14FF0FF30EEE7654A12685179AF
:1045B000634A526810786B460122FCF75AFD10B12D
:1045C0004FF0FF30E0E75E4A126811795C4A5268AA
:1045D00010786B460122FCF74CFD10B14FF0FF3014
:1045E000D2E7574890F82400002853D00C200090C0
:1045F000534A12681179524A526810786B46012268
:10460000FCF737FD10B14FF0FF30BDE73220FEF769
:1046100037FEC02000904A48807A00F0010020B1A7
:104620009DF8000040F020000090454A1268117982
:10463000434A526810786B460122FCF71AFD10B10C
:104640004FF0FF30A0E73E48407C10B102200090C0
:1046500001E0002000903A4A1268D17B384A526843
:1046600010786B460122FCF704FD10B14FF0FF30CB
:104670008AE700200090324A12685179304A526825
:1046800010786B460122FCF7F4FC002855D04FF05F
:10469000FF3079E704200090294A12681179284AEE
:1046A000526810786B460122FCF7E3FC10B14FF022
:1046B000FF3069E72248807C20B92148807A00F0E9
:1046C000010010B94020009001E0602000901C4AD9
:1046D000126811791A4A526810786B460122FCF769
:1046E000C8FC10B14FF0FF304EE73220FEF7C8FD96
:1046F0001348407C10B10120009001E000200090A0
:104700000F4A1268D17B0E4A526810786B4601221C
:10471000FCF7AFFC10B14FF0FF3035E7084A1268E4
:104720005179074A52681078054B10330122FCF783
:10473000A0FC10B14FF0FF3026E7002024E7000076
:104740008008002038B504461E48807A10B94FF022
:10475000FF3038BD022C06D0042C07D0082C08D01E
:10476000102C0CD108E0002000900BE008200090F5
:1047700008E01020009005E01820009002E04FF0C3
:10478000FF30E6E700BF0F48407A9DF80010B0EB1D
:10479000E10F01D10020DCE70A4A1268D179094A09
:1047A000526810786B460122FCF763FC10B14FF0A1
:1047B000FF30CEE79DF80000C11002484172002092
:1047C000C7E700008008002038B504465048807CC8
:1047D000A04201D1002038BD002C46D04C4A1268BE
:1047E00011794B4A526810786B460122FCF79BFB0B
:1047F00010B14FF0FF30EEE79DF8000020F02000F0
:104800000090434A12681179414A526810786B4609
:104810000122FCF72EFC10B14FF0FF30DBE7032044
:10482000FEF72EFD02200090394890F8220020B1BA
:104830009DF8000040F080000090354890F823007B
:1048400020B19DF8000040F030000090304A12681E
:10485000117D2F4A526810786B460122FCF709FC43
:10486000002851D04FF0FF30B5E7294A126811797E
:10487000274A526810786B460122FCF754FB10B1AE
:104880004FF0FF30A7E72248807A00F0010028B1FE
:104890009DF8000040F02000009004E09DF800002A
:1048A00020F0200000901A4A12681179184A5268C4
:1048B00010786B460122FCF7DCFB10B14FF0FF30A3
:1048C00089E70320FEF7DCFC114890F8220010B1C4
:1048D0008020009001E0002000900D4890F8230017
:1048E00020B19DF8000040F030000090084A1268A6
:1048F000117D074A526810786B460122FCF7B9FB1C
:1049000010B14FF0FF3066E701488474002062E781
:104910008008002038B50446214890F82400A042C1
:1049200001D1002038BD24B31D4890F8250010B9EE
:104930004FF0FF30F6E7002000F0E6F90020FFF727
:1049400043FF1749C88C00F0E9F800200090144993
:10495000496808786B4601222321FCF78AFB012174
:104960000F4880F82410012000F0CEF9FFF706FE72
:1049700013E0002000F0C8F90948007C00900849C5
:10498000496808786B4601222321FCF772FB00215D
:10499000034880F82410FFF7F1FD0020C2E7000073
:1049A0008008002038B504461F48807A10B94FF0BF
:1049B000FF3038BDFA2C09D0B4F5FA7F09D0B4F530
:1049C0007A7F09D0B4F5FA6F0CD108E0002000908E
:1049D0000BE00820009008E01020009005E018206F
:1049E000009002E04FF0FF30E3E700BF0E48007A8E
:1049F0009DF80010B0EBE10F01D10020D9E70A4A81
:104A000012689179084A526810786B460122FCF7C7
:104A100030FB10B14FF0FF30CBE79DF80000C01025
:104A2000014908720020C4E78008002038B5044618
:104A3000184890F82300A04201D1002038BD14B1DD
:104A40003020009001E0002000901248807C20B1CE
:104A50009DF8000040F0020000900E4890F82200FF
:104A600020B19DF8000040F080000090094A1268D3
:104A7000117D084A526810786B460122FCF7F9FA5A
:104A800010B14FF0FF30D9E7024880F823400020F2
:104A9000D4E700008008002038B504461E48807A1C
:104AA00010B94FF0FF3038BDBC2C02DB0120009064
:104AB00015E0622C02DB0220009010E02A2C02DBC1
:104AC000032000900BE0142C02DB0420009006E091
:104AD0000A2C02DB0520009001E0062000900E4821
:104AE000C07A9DF80010884201D10020DBE70A4A15
:104AF00012689178084A526810786B460122FCF7D8
:104B0000B8FA10B14FF0FF30CDE79DF80010024821
:104B1000C1720020C7E700008008002038B50446B5
:104B20002448807A10B94FF0FF3038BD214890F802
:104B3000240010B14FF0FF30F7E71E48007D50B160
:104B400034B1282C04DCE0B2FFF708FC0020ECE7CD
:104B50000020FFF703FC042C01DA042404E0B4F580
:104B60007A7F01DD4FF47A744FF47A7090FBF4F0A1
:104B7000401EC0B200900F4A126851780D4A526828
:104B800010786B460122FCF774FA10B14FF0FF3039
:104B9000CBE79DF80000401C4FF47A7191FBF0F0D8
:104BA00081B20448C1810146C9894810FFF774FFEA
:104BB0000020BAE78008002038B5044604F07000F1
:104BC00010B10120009005E014B10020009001E038
:104BD000402000902B4A1268917C2A4A5268107833
:104BE0006B460122FCF745FA20B10021254881726D
:104BF000481E38BD9DF8000020F040012148017397
:104C00000020009004F0400020B99DF8000040F022
:104C10000400009004F0200020B99DF8000040F04E
:104C20000200009004F0100020B99DF8000040F050
:104C30000100009004F0080020B99DF8000040F049
:104C4000380000900F4A1268D17C0E4A52681078E2
:104C50006B460122FCF70DFA20B100210948817250
:104C6000481EC6E724B1082C02D00020FFF7DEFE64
:104C700004488472002101753220FEF701FB0020F8
:104C8000B7E7000080080020F8B504460D46164638
:104C900016B94FF0FF30F8BD1A48807A10B94FF0BE
:104CA000FF30F8E720128DF80000E0B28DF8010027
:104CB0009DF801002844134949684989884202DD6A
:104CC0004FF0FF30E7E70F4A1268117E0D4A526835
:104CD00010786B460222FCF7CCF910B14FF0FF3090
:104CE000D9E7EAB2074B1B68597D064B5B68187819
:104CF0003346FCF7BEF910B14FF0FF30CBE7002090
:104D0000C9E700008008002038B50446214890F823
:104D10002400C0B114B10220009001E000200090F6
:104D20001C4A1268D17B1B4A526810786B460122DC
:104D3000FCF79FF910B14FF0FF3038BD9DF800101F
:104D40001448417423E01348807A10B94FF0FF30C3
:104D5000F3E724B10F48407C08B10020EDE714B11F
:104D60000120009001E0002000900A4A1268D17BE7
:104D7000084A526810786B460122FCF77AF910B1A4
:104D80004FF0FF30D9E79DF8001002484174002031
:104D9000D3E70000800800202DE9F04106460F46C9
:104DA00000F04AFC041E0D4618BF0120284320F0E5
:104DB0000040C0F17F6000F1E040C00F0ED0301C19
:104DC00018BF0120384320F00040C0F17F6000F19F
:104DD000E040C00F04BF0120FBF763FB20462946DB
:104DE000BDE8F08110B586B00446012144F204000C
:104DF000FCF70AFF4FF40070ADF8140003208DF8A3
:104E0000160018208DF8170005A91C48FBF79DFC1B
:104E10004FF48060ADF8140004208DF8170005A948
:104E20001648FBF792FC25208DF8000000208DF835
:104E300001008DF8020001208DF803006846FCF7A0
:104E4000E1F901940020ADF80800ADF80A00ADF8D2
:104E50000C00ADF810000C20ADF80E0001A90848B8
:104E6000FDF7B8FD012240F225510548FDF78CFD04
:104E700001210348FDF752FD06B010BD00080140B6
:104E80000038014021F00042A2F16052B2F5801FCB
:104E900001F0004328BFD2F17F6C0BD95FEA001C00
:104EA00043EAC20242EB507018BF704728BF20F09F
:104EB00001007047B2F5801FBCBF184670474FEA2B
:104EC000410C1CF5001F02D2084601F044B870B531
:104ED00000F01CFB00000089FFF7F6BF4FF0004018
:104EE000A0F580007047000010B591EA030F48BF9D
:104EF00083F0004300F18E84841A71EB030C05D219
:104F0000121943EB0C03001B61EB0C01DFF824E1E9
:104F10004FEA1154A4EB135C1EEA430F18BF9EEA3C
:104F2000445F73D023EA0E03DCF1200E21EA045122
:104F300043F4801332D322FA0CFE10EB0E0023FA56
:104F40000CFE41EB0E01CCF1200E03FA0EFE10EB2D
:104F50000E0051F10001B1F5801FCCF1200E32D2CC
:104F600001EB045112FA0EF2BDE8104058BF704731
:104F7000401C38BF5FEA420218BF7047002814BFC8
:104F800020F0010041F100014FEA410313F5001F39
:104F900038BF7047A1F1C04100F006BB012A43EBC6
:104FA0000302ACF1200CDCF11F0E32BF4FF0000EFB
:104FB00023FA0CF310EB030041EB0451B4EB115F47
:104FC000D0D0A1EB045101F5801149085FEA30000F
:104FD00001EB04510ED350F1000038BF12FA0EFE5F
:104FE00008D1BDE81040C9E7401C38BF5FEA420263
:104FF000CAD1C3E7BDE810404FEA410313F5001FD3
:1050000038BF7047A1F1C04100F0CEBA9EEA445FBC
:1050100008D011EA5E0FBDE8104004BF01F0004166
:1050200000207047BDE8104070B500F06FFA00BF77
:1050300064FBBE3E0000E0FF02494FF0000001F0BB
:1050400040B800BF0000F87F491058BFC1F140418F
:105050005B1058BFC3F140438B42EFF300807047B1
:105060002DE9C04130B4DFF8A0C23CEA111418BFEA
:105070003CEA131400F0EC8081EA03051CEA1114E9
:1050800044EAD57418BF1CEA131500F0C780A4EBDE
:1050900005044FF0004545EAC12145EAC32341EA32
:1050A000505143EA525304F17F74994204F500349D
:1050B0004FEAC0204FEAC22208BF904200F09C8015
:1050C0004FEA13650FF24016765D4FEA134506FB73
:1050D00005F7C7F1807706FB07F74FEAD737A7FB3D
:1050E00003687642C8F58038A7FB06CE38BFA8F122
:1050F000010807FB08E64FF0000EA6FB028CE6FB5A
:1051000003CEDCF1000CCEF1004E38BFAEF1010E43
:10511000A6FB0C584FF000074FF00005E6FB0E878A
:10512000A1FB08C6A0FB07CE16EB0E0645F1000555
:10513000E1FB076515F1E04E7EBFA4F580345FEA20
:1051400046066D4116F1800745F100054FEA172725
:105150004FEA066647EA0567A6F1DE46B6F1805FCC
:105160004FEA15251FD9384624F0010C05EBC47110
:10517000BCF1FE6F01EB0C1102D8F0BCBDE8008160
:1051800024425CBF01F5801E9EEAC47F02D4F0BCBD
:10519000BDE80081244238D4F0BCA1F1C041BDE893
:1051A000004100F001BA4FEAD22242EA43524FEAEC
:1051B000D323A7FB02864FEAD02040EA415007FBE9
:1051C00003661EEA0E0F4FEAD12105FB026658BFA7
:1051D000A6EB0056B6EB00564FEA520E4EEAC37EDF
:1051E00018EB0E0E56EB530EBDD518EB02085E41C0
:1051F0007F1C55F10005B6E74FF480154FF000070E
:105200004FF000064FF00008ADE7F0BC4FF0000093
:1052100001F1C04101F00041BDE8008111EA0C1F1D
:105220000CEA131500D00CE013EA0C1F00F02580E7
:105230004FF00000F0BC81EA030101F00041BDE83D
:105240000081F0BCBDE8004181EA030100F0ACB987
:10525000F0BCBDE8004170B500F058F9097EFC3E95
:1052600000F007B881EA03014FF0000001F00041AF
:10527000704781EA030100F097B9F0BCBDE8004136
:105280004FF0000021497047FFFDFBF9F7F5F4F2FC
:10529000F0EEEDEBE9E8E6E4E3E1E0DEDDDBDAD8D1
:1052A000D7D5D4D3D1D0CFCDCCCBCAC8C7C6C5C42F
:1052B000C2C1C0BFBEBDBCBBBAB9B8B7B6B5B4B346
:1052C000B2B1B0AFAEADACABAAA9A8A8A7A6A5A431
:1052D000A3A3A2A1A09F9F9E9D9C9C9B9A999998F5
:1052E0009797969595949393929191908F8F8E8E98
:1052F0008D8C8C8B8B8A8989888887878685858425
:1053000084838382828181800000FF070000F87F10
:1053100010F0004248BF4042B0FA80F310FA03F1A7
:105320000AD0C3F11D0303F580634FEA415002EB3D
:10533000035202EBD12170474FF00000704700008C
:1053400051EA030C17D41CF5801F58BFBCF5801F11
:1053500000F10680994218BF704708BF904270471D
:1053600007D711F5801F58BF13F5801F19D4994234
:105370007047894270471CF5801F08D5BCF5801F17
:10538000F7D58B4218BF704708BF824270474FF471
:10539000001C1CEB410F38BF1CEB430F01D28B42AA
:1053A000704770B500F0B2F8922449004FF00051F8
:1053B0004FF08053FFF748BEDFF848C170B51CEAD4
:1053C000111E1EBF1CEA13159EEA0C0F95EA0C0F66
:1053D00000F06F8081EA030423EA4C134EEAD47E86
:1053E00021EA4C1141F4801143F48013AE44A1FB37
:1053F000024CA0FB0365AEF17F7E361955EB0C0520
:10540000A1FB034C4CF10003A0FB021C16EB0C06A5
:10541000654153F10003094218BF46F0010613F439
:10542000007F0BD14FEA03314FEA0530340341EAE4
:10543000155140EA16506FF003020AE04FEAC3210B
:105440004FEAC520F40241EA555140EA56506FF048
:10545000020202EB2E4201EB025585EACE710AD020
:105460005FEA440C18BF24F0004450F1000041F101
:10547000000120EAD47040F2FE7C624500D270BD8B
:10548000A84214BF4FF080444FF04044002E08BFA4
:105490000024BEF1806FA8BFA1F1C041BDE87040FB
:1054A00080F282804FF0000001F1C04101F0004124
:1054B00070479EEA0C0F0CEA131518BF95EA0C0F03
:1054C00006D04FF0000081EA030E0EF0004170BDDF
:1054D00000F01CF88900013E00F007B800F009B8A0
:1054E0004FEA430C5FEA5C5C08D081EA030100F0FC
:1054F0005BB84FEA410C5FEA5C5CF6D14FF000000C
:10550000014970470000FF070000F87F0EF1020E0E
:105510002EF0030E5EF8046B364205D4012A43EBED
:10552000030515F5001F12D8012841EB010C1CF5ED
:10553000001F0CD80ED14FEAD17C15F5001F0CEBE3
:105540004C0C0CF1020C08BF4CEBD37C04E04FF088
:10555000080C01E04FEAD37C0CEB4C0526FA05F66B
:1055600006F00706B6F1040C06D20EEB860CBDE879
:1055700070404CF0010C6047DFE80CF0090B0202B0
:105580004FF000414FF00000A1F5002170BD194619
:105590001046012851EB010418BFD4F5001484BF54
:1055A000002001F0004170BD0808A0F500114FEA8D
:1055B0003101704753EA010C17D41CF5801F58BF06
:1055C000BCF5801F00F106808B4218BF704708BFF2
:1055D0008242704707D713F5801F58BF11F5801F0F
:1055E00019D48B4270479B4270471CF5801F08D529
:1055F000BCF5801FF7D5994218BF704708BF90428D
:1056000070474FF4001C1CEB430F38BF1CEB410FDD
:1056100001D2994270470FB40CBC03BCFFF7C1BE66
:1056200091EA030F10B581F000413FF565AC83F0BE
:10563000004300F0EFB800002DE9F04101F5801CB7
:10564000BCF5001FC0F2C3804FEA115C21EA0C5187
:105650000CF1FD0C41F480115FEA5C0C0CF5C07C90
:1056600001D3400049413DA4890241EA905187029B
:105670008E0E0A0CA45D04FB04F602FB06F6C6F1CE
:105680004046A4FB0662F60D46EA422606FB06F4F7
:10569000A4FB01235242C3F1404338BF5B1EA6FB6B
:1056A00002420024E6FB0324D20B42EA4446A6FB56
:1056B0000623A1FB02E2A3FB07E4A4184FF00002BB
:1056C00052F10002E3FB01426442C2F1404E38BF96
:1056D000AEF1010EA6FB04234FF00002E6FB0E32F2
:1056E000A2FB03464FF00004B61954F10004E2FB9C
:1056F0000264A1FB06E6A4FB07E816EB08064FF0E0
:10570000000858F10008E4FB01687642C8F14058EF
:1057100038BFA8F10108A2FB06E4A3FB08E52D1998
:105720004FF0000454F10004E2FB0854A1FB05E62D
:10573000A7FB04E818EB06084FF0000656F1000638
:10574000E1FB048618F1200556F10006A809A8F12E
:105750001B08B10908F03F08B8F10A0F40EA86605B
:105760001CD901EB0C51BDE8F08100BFFCF5EEE85F
:10577000E2DDD8D3CFCBC7C3C0BDB9B6B4B1AEACF0
:10578000A9A7A5A3A19F9D9B9A9896959392908F68
:105790008D8C8B898887868584838281A0FB0068B5
:1057A00000FB01F208EB4208B8EB872807D5341854
:1057B00058EB0104D5D5401C51F10001D1E7341A52
:1057C00078EB0104CDD4401E71F10001C9E75FEA16
:1057D0004C0C5FEA9C5C0DD105D34FF0000001F04A
:1057E0000041BDE8F081BDE8F04170B5FFF78EFEE5
:1057F0006DDBFFBEBDE8F0414FF00000004970478F
:105800000000F87F10B591EA030F48BF83F0004312
:105810003FF572AB841A71EB030C07D212198CF0AE
:10582000004C43EB0C03001B61EB0C01DFF8A4E11F
:105830004FEA1154A4EB135C1EEA430F18BF9EEA13
:10584000445F00F0B08023EA6E03524221EA045123
:10585000C3EB6E0338BF5B1EDCF1200E25D322FAAA
:105860000CFE10EB0E0043FA0CFE41EB0E01CCF1E6
:10587000200E03FA0EFE10EB0E0051F10001CCF1E8
:10588000200E29D412FA0EF201EB0451BDE81040AB
:1058900058BF7047401C1CBFB2F1004F7047002832
:1058A0000CBF491C20F00100704712EB020E43EBC5
:1058B000030218BF4FF0010E4EEA4202ACF1200C79
:1058C000DCF11E0E54D943FA0CFE10EB0E0051F120
:1058D000FF31CCF11E0ED5D50EF1010E12FA0EFEDF
:1058E000404141EB010101EB445C5FEA5C5C10D993
:1058F00010EBDE7001EB045138BFBEF1004FBDE884
:10590000104018BF704700280CBF491C20F0010050
:10591000704730D24FEAD42C11F5001124F4006402
:105920001BD0B1FA81F20B3AA41AA41ED2F12003C3
:10593000914030FA03F31943904001EBCC71002CF5
:1059400001EB0451BDE81040A8BF704701F1C04110
:105950004FF0000001F000417047B0FA80F310FAF8
:1059600003F100D110BDE41A173C4805C90AE4E769
:1059700001EB045110BD491001EB0451BDE810408A
:105980004FEA300002E04FF0000170474A0008BFC4
:105990000042F8D0B2F5001F28BF704701F0004167
:1059A0004FF0000070479EEA445F07D011EA5E0F97
:1059B000BDE8104004BF002100207047BDE8104042
:1059C00070B5FFF7A3FD00BF40DFF63E83F0004156
:1059D000104670470000E0FF43004FEAD30C4FEA47
:1059E0003C0C43401FBF40070CF1605113F0FE4FC9
:1059F00070471CF0006F03D100200CF0004170478D
:105A00000CF0004343EA507010B540EACC0000F0BF
:105A10005CFA00BF000000924FEA0001FFF7C4BD2E
:105A20004FF000414FF00000A1F500217047000049
:105A300090EA010F48BF81F0004100F1D482421A80
:105A40003CBF801A89184FEAD0524FF07F4C1CEAB5
:105A5000410FA2EBD15318BF9CEA026F00F03B80CC
:105A60004FF0004C4CEA00204CEA012121FA03FCE3
:105A700010EB0C0C1ED202F1FF325FEA1C2040EB4F
:105A8000C25038BF70471CF07F0F4FEA400C18BF60
:105A9000BCF17F4F38BF7047C3F12003994008BF66
:105AA00020F00100BCF17F4F38BF7047A0F1C0402B
:105AB00000F051BA4FEA3C00000A40EBC25028BF48
:105AC0001CF0FF0F4FEA400CE6D018BFBCF17F4F2F
:105AD00038BF7047EAE79CEA026F05D010EA5C0F16
